:020000040800F2
:10000000000400209D010008DB0200087F020008B8
:10001000D9020008E50100081904000800000000EA
:10002000000000000000000000000000FD020008C9
:10003000E701000800000000DD020008B903000825
:10004000B7010008B7010008B7010008B7010008B0
:10005000B7010008B7010008B7010008B7010008A0
:10006000B7010008B7010008B7010008B701000890
:10007000B7010008B7010008B7010008B701000880
:10008000B7010008B7010008B7010008B701000870
:10009000B7010008B7010008B7010008B701000860
:1000A000B7010008B7010008B7010008B701000850
:1000B000B7010008B7010008B7010008B701000840
:1000C000B7010008B7010008B7010008B701000830
:1000D000B7010008B7010008B7010008B701000820
:1000E000B7010008B7010008B7010008B701000810
:1000F000B7010008B7010008B7010008B701000800
:10010000B7010008B7010008B7010008B7010008EF
:10011000B7010008B7010008B7010008B7010008DF
:10012000B7010008B7010008B7010008B7010008CF
:10013000B7010008B7010008B7010008B7010008BF
:10014000B7010008B7010008B7010008B7010008AF
:10015000B7010008B7010008B7010008B70100089F
:10016000B7010008B7010008B7010008B70100088F
:10017000B7010008B7010008B7010008B70100087F
:10018000B7010008B7010008DFF80CD000F018F83C
:100190000048004739040008000400200648804752
:1001A00006480047FEE7FEE7FEE7FEE7FEE7FEE75C
:1001B000FEE7FEE7FEE7FEE7BD0300088901000851
:1001C000064C074D06E0E06840F0010394E80700A4
:1001D00098471034AC42F6D3FFF7DAFF6804000802
:1001E00078040008FEE7704701B502E00098401E61
:1001F000009000980028F9D108BD2DE9F0410022B7
:1002000001274FF0030C07FA02F50B682B40AB42B5
:100210002CD1066853000CFA03F4A64306600E794D
:10022000D0F800809E4046EA080606600E79012E4E
:1002300001D0022E12D18668A64386604E79D0F88E
:1002400008809E4046EA080686604668AE434660DF
:1002500045688E799640B6B235434560C568A5437A
:10026000C560CC799C40C3681C43C460521C102AF2
:10027000C9D3BDE8F0814183704701837047FEE731
:100280002DE9FC410121102000F02AF84FF480678D
:10029000009701208DF8040000218DF806108DF8DC
:1002A00007008DF805100B4C69462046FFF7A5FFA7
:1002B0008026009669462046FFF79FFFA51500950A
:1002C00069462046FFF799FF278326832583BDE8EB
:1002D000FC81000000100240FEE7704770470000FC
:1002E000054A002903D01168014311607047116865
:1002F00081431160704700003038024070470000B1
:100300000CB50022019200922749086840F4803021
:1003100008604FF4A043086800F400300090019892
:10032000401C0190009810B901989842F3D10868D8
:10033000800302D50120009000E00092009801287F
:1003400031D119484030026842F0805202601748AB
:10035000026842F4404202601348083002680260BA
:10036000026842F400420260026842F4A052026055
:10037000021F0F4B13600A6842F080720A600A681D
:100380009201FCD50B4A40F205711160016821F021
:1003900003010160016841F0020101600168C1F3DD
:1003A00081010229FAD10CBD0038024000700040E2
:1003B00008544007003C02407047000010B5124846
:1003C000016841F4700101601048016841F00101C9
:1003D00001600E4A00210832116002680C4B1A407D
:1003E0000260031D0B4A1A60026822F48022026038
:1003F00006480C300160FFF783FF03494FF00060AF
:100400008039086010BD000088ED00E0003802402F
:10041000FFFFF6FE10300024FEE702E008C8121FBE
:1004200008C1002AFAD170477047002001E001C1DD
:10043000121F002AFBD17047FFF722FF094C4FF42F
:1004400080666FF07F4531462046FFF714FF28464F
:10045000FFF7CAFE31462046FFF70FFF2846FFF799
:10046000C3FEF0E7001002407804000800000020FE
:08047000000400002A0400084A
:040000050800018965
:00000001FF
