:020000040800F2
:10000000D02700209D010008C32000084B1F0008D6
:10001000C1200008FF020008C737000800000000E8
:10002000000000000000000000000000F7200008B1
:100030008103000800000000F5200008F9200008F6
:10004000B7010008B7010008B7010008B7010008B0
:10005000B7010008B7010008B7010008B7010008A0
:10006000B7010008B7010008B7010008B701000890
:10007000B7010008B7010008B7010008B701000880
:10008000B7010008B7010008B7010008B701000870
:10009000B7010008B7010008B7010008B701000860
:1000A000B7010008B7010008B7010008B701000850
:1000B000B7010008B7010008B7010008B701000840
:1000C000B7010008B7010008B7010008B701000830
:1000D000B7010008F5230008B7010008B7010008C0
:1000E000B7010008B7010008B7010008B701000810
:1000F000B7010008B7010008B7010008B701000800
:10010000B7010008B7010008B7010008B7010008EF
:10011000B7010008B7010008B7010008B7010008DF
:10012000B701000849030008B7010008B70100083B
:10013000B7010008B7010008B7010008B7010008BF
:10014000B7010008B7010008B7010008E92000085E
:10015000B7010008B7010008B7010008B70100089F
:10016000B7010008B7010008B7010008B70100088F
:10017000B7010008B7010008B7010008000000003F
:10018000B7010008B7010008DFF80CD000F07AF8DA
:100190000048004739380008D0270020064880472B
:1001A00006480047FEE7FEE7FEE7FEE7FEE7FEE75C
:1001B000FEE7FEE7FEE7FEE795210008890100085B
:1001C0002DE9F05F0546002092469B46884606468C
:1001D000814640241BE0284641464746224600F01F
:1001E00041F853465A46C01A914110D31146184659
:1001F000224600F028F82D1A67EB01084F462246E8
:100200000120002100F01FF817EB00094E41201ECD
:10021000A4F10104DFDC484631462A464346BDE8E6
:10022000F09FD2B201E000F8012B491EFBD27047CB
:100230000022F6E710B513460A4604461946FFF7B2
:10024000F0FF204610BD202A04DB203A00FA02F11C
:10025000002070479140C2F1200320FA03F31943B4
:1002600090407047202A04DB203A21FA02F0002156
:10027000704721FA02F3D040C2F1200291400843B6
:1002800019467047064C074D06E0E06840F0010350
:1002900094E8070098471034AC42F6D3FFF778FF94
:1002A000483A0008683A000870B58C1810F8015BED
:1002B00015F0070301D110F8013B2A1106D110F8FF
:1002C000012B03E010F8016B01F8016B5B1EF9D103
:1002D0002B0705D40023521E0DD401F8013BFAE789
:1002E00010F8013BCB1A921C03E013F8015B01F8F4
:1002F000015B521EF9D5A142D8D3002070BDFEE7A4
:10030000002070470020704710B50E4C05490022B0
:10031000204602F061F90449204602F057F9002016
:1003200010BD00BF780C00207804002010B5054CEB
:100330000146204602F04AF9204602F02CF900203E
:1003400010BD00BF7C1400207C4800F00DB900BF38
:1003500001686FF00F0240F2FF3352FA81F29943C5
:1003600018235F2AB2FBF3F203A388BF043181652F
:100370009A5CC26508467047000610160006101603
:1003800070477047A0B310B5044690F8250010B927
:10039000204600F02FF8022040F6F87284F825007D
:1003A0002068016891430160D4E9011CD4E9033E4F
:1003B00062690A43102942EA0302A36942EA0E0273
:1003C00042EA0C0242EA0302236A42EA0302036899
:1003D00042EA0302026004BFE1698161C16841F041
:1003E0001E01C16000200121E06384F8251010BDCA
:1003F000012070472DE9F04786B0044601A814217A
:10040000FFF716FF20684949884240F08B8000279B
:100410004748484D4FF00D084FF00209DFF818A18A
:1004200001AE0097416841F001014160416801F06F
:100430000101009100990097016841F010010160ED
:10044000016801F01001009100990097016841F0E6
:1004500001010160016801F001010091009900971C
:10046000016841F004010160016801F0040100919C
:1004700000990097016841F002010160314600686F
:1004800000F0020000900098CDF81480CDE90377C9
:10049000CDF808906220019005F58050D04750209B
:1004A000CDE90478CDE90297314601902846D0473E
:1004B0004FF41C60CDE90478CDE9029731460190F4
:1004C00005F50060D047C020CDE90478CDE902975A
:1004D0003146019005F58060D047184D0120042178
:1004E0004FF440324FF4807C4FF480634FF000763D
:1004F000C5E90821C5E90A0711482F634FF4804177
:100500004FF4805285E8C1002846C5E90373C5E968
:100510000521C5F81CC000F0DFF808B1FFF731FF76
:10052000A563AC6306B0BDE8F08700BF00000550CE
:10053000303802400000024021080008E016002088
:100540002864024090F83510022909D1052180F86D
:1005500035100068016821F001010160002070473A
:100560008021416501207047F8B50446002008212C
:10057000009058480568D4E91660376881403942D0
:100580000CD0226813685B0708D5136823F00403B6
:100590001360B160616D41F001016165012181402D
:1005A000394208D022685269120604D5B160616DE3
:1005B00041F00201616504218140394208D022687E
:1005C0001268920704D5B160616D41F00401616564
:1005D00010218140394217D020680268120713D5D4
:1005E000B16002680168520306D4C9055EBF0168A4
:1005F00021F00801016001E0080301D4216C00E052
:10060000A16C09B120468847E16D202000FA01F273
:100610003A423BD020680368DB0637D5B26094F8D5
:1006200035300268052B19D122F0160202604269AA
:1006300022F080024261226C0AB9A26C1AB10268EF
:1006400022F0080202603F208840B060012084F858
:100650003500002084F83400216D37E00168520332
:100660000CD4C9050ED4016821F0100101600120ED
:1006700084F83500002084F8340003E0080301D436
:10068000616C00E0E16B09B120468847606D00B302
:10069000606DC00719D005214FF4165084F835104D
:1006A000B5FBF0F021680A6822F001020A60009AA6
:1006B00001328242009202D80A68D207F7D10120A3
:1006C00084F83500002084F83400E16C09B120463C
:1006D0008847F8BD2C0000202DE9F041044600F0C9
:1006E00065F9002C4FD00546022084F83500002023
:1006F00084F834002168086820F00100086005E0F3
:1007000000F054F9401B052840D821680868C0074C
:10071000F6D10868394AD4E9013504F10C0800EA39
:10072000020C98E8C101D4E9072E43EA0C032B43DD
:100730001843636A30433843042B40EA080040EA18
:10074000020040EA0E0225D1D4E90BE042EA0E0293
:10075000BEF1000F40EA0200086051F8140FA26ACF
:1007600020F0030040EA020040F0040C19D0B8F574
:10077000005F28D0B8F1000F35D1022A36D0012A07
:100780002BD09AB30DE00120BDE8F0810325202392
:10079000032013E00A6051F8140F20F0070040EA2C
:1007A000030C2046C1F800C0FFF7D2FDE16D3F22E7
:1007B0000023012502FA01F181600020636584F8BD
:1007C0003550BDE8F081032AEBD8012540230120F4
:1007D000DFE802F0020C0203F0E7AEF1C070B0FAFD
:1007E00080F0400904E0032A04D3DAD1CEF300609C
:1007F0000028D6D0012540230120DFE73F8010F0FC
:10080000B0B5044600F0D2F805468A48611C00786D
:1008100018BF044400F0CAF8401BA042FAD3B0BD90
:100820002DE9F84F5B4A4FF0080A4FF0010B4FF0EB
:1008300000084FF0000E9042574A08BF4FF0070AD9
:1008400002444FEAB223072B38BF4FEAB22A0022F4
:10085000102A08BFBDE8F88F0B680BFA02F6334286
:1008600000F091804B6843F01004122C13D16FF00C
:1008700003040EF01C030F2704EA520507FA03FCD9
:1008800005442C6A24EA0C0C0C6904FA03F343EACD
:100890000C032B624B68032703F00305122B07FAA6
:1008A00008F4076805FA08F56FEA040C27EA04075C
:1008B00047EA0507076013D80BFA03F414F0061F84
:1008C0000ED08468CD6804EA0C0405FA08F52C43C0
:1008D0008460C3F3001445689440B5432C434460DE
:1008E000C4688D68DB0004EA0C0705FA08F547EADE
:1008F0000507C76047D50023284C0EF00C05009370
:10090000284BA4461F461B6843F480433B603B686A
:1009100003F48043009322F003032344224C009FFE
:10092000A1461F590F24AC400AFA05F5A7432F43EF
:1009300043F80970DCF800304D6843EA0607EC0321
:1009400058BF23EA0607CCF80070AC03DCF804308B
:1009500043EA060758BF23EA0607CCF80470EC0206
:10096000DCF8083043EA060758BF23EA06070C4BB9
:10097000CCF80870AD021C461B6843EA060758BF56
:1009800023EA0607276008F102080EF1040E01327F
:100990005EE700BF001C02400000FEBF003C0140BB
:1009A0000C3C01404438024008FCFFFF0548006849
:1009B000704700BF1F48034900780A681044086068
:1009C000704700BFC81B002080B50B48016841F488
:1009D00000710160016841F480610160016841F4C7
:1009E00080710160032000F0ADF8002000F006F8EF
:1009F00000F024F8002080BD003C024070B50D4E90
:100A000004464FF47A713078B1FBF0F00A49096876
:100A1000B1FBF0F001F044F901250F2C08D838B9EA
:100A20004FF0FF3021460022002500F06DF8746081
:100A3000284670BD080000202C00002082B0002055
:100A40000B4901904A6842F480424A604A6802F4C5
:100A500080420192019A0090086840F0805008603E
:100A6000086800F080500090009802B0704700BF06
:100A700040380240D0B370B5044690F839001546AE
:100A80000E4628B9002084F83800204601F0D8F935
:100A9000242084F839002068C16821F40051C16025
:100AA000204601F0E9FB2068016921F490410161D1
:100AB000416921F02A014161016921F00F010161C1
:100AC000016931430161C16821F40061C160C168FD
:100AD0002943C160C16841F40051C1600020202158
:100AE000E06384F8391084F83A1070BD0120704733
:100AF00000F01F010122400902FA01F1014A42F807
:100B00002010704700E100E080B5144B1B68C3F370
:100B1000022CBCF1030E8CF007034FF0FF3C38BFF2
:100B20004FF0000E042B28BF04230CFA03F3994363
:100B30000CFA0EF301FA0EF19A431143BDE880401E
:100B400001F0C0BA05494FF6FF030A681A4060F386
:100B50000A22034810430860704700BF0CED00E014
:100B60000000FA050068416200207047D0F800C01C
:100B70000029DCF824001BD080B5DCF82830A1F176
:100B8000010E00EB1343002006E00CEB8101013065
:100B9000D1F8041103EB1143C1B28E45F5DC0CEB27
:100BA0008E0043EA0241C0F80411BDE8804003E032
:100BB00040EA0240CCF8280000207047D0F8EC034F
:100BC00001F0F7BEC1EBC10200EB8202D0F8EC03EA
:100BD000526C01F06BBEC1EBC10200EB8202D0F897
:100BE000EC03D2F8042201F0B2BED0F8EC0301F01D
:100BF000E2BE10B501F07F0C0A460446CCEBCC01F6
:100C000000EB8103100603F138014FEAD21058BF00
:100C100003F5FC71487081F800C094F8B80301280E
:100C200004BF022010BD012084F8B803206802F040
:100C30005BFA002084F8B80310BDB0B501F07F0363
:100C40000A460446C1EBC100C3EBC301150604EB21
:100C5000800004EB81014FF0000501F1380158BF1D
:100C600000F5FC71D00948700B708D7094F8B803D2
:100C7000012801D1022507E0012084F8B80320688B
:100C800002F0F5FB84F8B8532846B0BD01F00F011F
:100C9000C1EBC10100EB8100B0F810027047F8B55C
:100CA000074601F07F000C46C0EBC001260607EBAB
:100CB000810505F1380158BF05F5FC718A60E2092C
:100CC0004A7000220870CB70B2EBD41F18BFC880E6
:100CD000022B04BF0020087197F8B803012801D146
:100CE000022008E0012087F8B803386802F04EF9C6
:100CF000002087F8B80301B0F0BD80B501F07F0C8B
:100D0000CCEBCC0100EB810E0021CEE98331CEF893
:100D100004228EF8F9118EF8F8C10EF5FC71036902
:100D2000012B08BFCEF80822DAB20068BCF1000F30
:100D300002D002F0CFFB01E002F000FB002080BDFA
:100D4000B0B501F07F050A460446C1EBC100C5EB12
:100D5000C50104EB8000130604EB810101F13801A9
:100D600058BF00F5FC71D009487001200D708870E3
:100D700094F8B823012A04BF0220B0BD84F8B80358
:100D8000206802F08CFB2DB9217C206804F56F727D
:100D900002F04EFB002084F8B803B0BD10B501F09E
:100DA0007F0C0024CCEBCC0100EB810E714601F8E6
:100DB00038CFC1E905340123CA604B700369012BA8
:100DC00008BFCEF84820DAB20068BCF1000F02D0AC
:100DD00002F080FB01E002F0B1FA002010BD00003B
:100DE0002DE9F04F89B0D0F800908246484602F0D5
:100DF00078FC10B109B0BDE8F08FDAF8000002F01D
:100E000098FC0028F6D0DAF8000002F092FC0146C7
:100E1000DAF80000890742BF416901F0020141612F
:100E200002F087FC000302D44FF0000855E0DAF826
:100E3000000002F061FC06460AF56F700AF50474C2
:100E400009F5306B4FF00008089044E0F0073CD003
:100E50005FFA88F7DAF80000394602F062FC0546CE
:100E6000C00725D00120CBF80800DAF810000128CF
:100E70000AD154E90401DBF810206FF3DF42821A33
:100E80000844226044F80C0C50463946FFF7A3FE94
:100E9000B8F1000F0CD1DAF81000012808D1DAF807
:100EA0000C0228B9DAF80000089A012102F0C0FA11
:100EB000280705D5504600F093FB0820CBF8080022
:100EC000E80644BF1020CBF808001C340BF1200BBF
:100ED000760808F10108002EB8D1DAF8000002F017
:100EE00028FC400340F1BB80DAF8000002F0FDFB73
:100EF00004460AF56F7009F510664FF0000802907D
:100F0000CDE90369A8E0E00700F0A380DAF800006B
:100F10005FFA88F1089102F0F6FB0546C0072BD076
:100F20000122D9F8341802FA08F021EA0000C9F8C1
:100F3000340806EB48108260DAF81000012807D167
:100F4000C8EBC8000AEB8000D0E9101211444164DC
:100F500008995046FFF736FEB8F1000F0CD1DAF8C9
:100F60001000012808D1DAF84C0028B9DAF800009E
:100F7000029A012102F05CFA280742BF06EB4810F2
:100F800008218160E80642BF06EB4810102181600D
:100F9000680642BF06EB481040218160A80742BFA7
:100FA00006EB481002218160280652D5C8EBC80024
:100FB0000594434655460AEB800959F8401F4C46B4
:100FC000CB4609F1040654F8100F5BF80C2FA2EB86
:100FD0000008884588BF8846DAF80010CDE9063158
:100FE00001EB431101F5106A15E0D9F800302F7CB0
:100FF000A2EB000831680097984588BF9846DDE964
:1010000007021FFA88F302F0CAFB306840443060E0
:10101000206840442060DAF8182008F1030192B2F9
:10102000B2EB910F03D9DBF800208242DDD8B8F192
:10103000000FDDE90548DDE90369AA4609D1079AF1
:10104000012000FA08F0D2F8341821EA0000C2F8B2
:101050003408640808F10108002C7FF454AFDAF872
:10106000000002F066FB002802DBDAF800000EE068
:10107000D9F8040820F00100C9F80408504600F02F
:1010800095FADAF80000416901F00041416102F08F
:1010900050FB000502D4DAF800000CE0D9F808088B
:1010A000C00702D0504600F0B7FADAF800004169F4
:1010B00001F40061416102F03CFBC00402D4DAF8A3
:1010C000000048E0D9F80408102120F00100C9F818
:1010D0000408DAF8000002F0D1FADAF80420B94B7B
:1010E00009F5306109F50060FF2703E0CF508F60FC
:1010F0002031013A002AF9D14FF0FF318161C169F5
:1011000041F00111C161DAF8301041B1D0F884101A
:1011100041F00B01C0F8841000F1440105E0416981
:1011200041F00B01416100F110010A6842F00B022D
:101130000A600AF56F72016821F4FE6101609AF895
:101140001010DAF8000002F073F9DAF800004169D3
:1011500001F48051416102F0ECFA0146DAF8000036
:10116000890440F1918001F055FFDAF80000C16870
:1011700021F47051C16002F095FA98B14020CAF88C
:1011800014000320CAF80C0000F0EEFA8E498F4AD2
:101190000144914214D8DAF8000050F80C1F41F4D1
:1011A000705167E04FF40070CAF814000020CAF8CC
:1011B0000C00DAF8000050F80C1F41F4105159E00F
:1011C0008349844A0144914206D8DAF8000050F875
:1011D0000C1F41F460514DE07F49804A0144914227
:1011E00006D8DAF8000050F80C1F41F4505141E0E5
:1011F0007B497C4A0144914206D8DAF8000050F855
:101200000C1F41F4405135E07749784A014491423E
:1012100006D8DAF8000050F80C1F41F4305129E0EC
:101220007349744A0144914206D8DAF8000050F834
:101230000C1F41F420511DE06F49704A0144914256
:10124000B7D96F496F4A0144914206D8DAF80000D5
:1012500050F80C1F41F400510CE06B496B4B4218E5
:10126000DAF800009A4250F80C1F8CBF41F4C051CC
:1012700041F4E0510160504600F088F9DAF80000CE
:10128000416901F40051416102F053FA0146DAF874
:101290000000C9063FD5816921F010018161D9F8AC
:1012A0002040C4F3434004F00F0506281CD0022858
:1012B0002BD147F6F070044027D0C5EBC5002209BA
:1012C0000AEB80054846D5F8041202F036FAD5F844
:1012D0000402D5F8101200EB1410C5F8040201EB5B
:1012E0001410C5F8100210E00AF56F714846082284
:1012F00002F023FAC5EBC5000AEB8000D0F810120B
:10130000C4F30A121144C0F81012DAF8000081691F
:1013100041F01001816102F00CFA000702D4DAF802
:10132000000008E0504600F045F9DAF80000416995
:1013300001F00801416102F0FCF9C00202D4DAF8C0
:1013400000000AE05FFA88F1504600F061F8DAF830
:101350000000416901F48011416102F0EAF9800264
:1013600002D4DAF800000AE05FFA88F1504600F093
:1013700053F8DAF80000416901F40011416102F00C
:10138000D8F9400002D4DAF8000008E05046FFF730
:1013900015FCDAF80000416901F08041416102F07A
:1013A000C8F940077FF526ADDAF800004468610708
:1013B00004D55046FFF719FCDAF8000041682143D4
:1013C000416017E508FEFFFF405327FFFF340C0084
:1013D000401E1BFF3F420F0000DC0BFF7F4F12003F
:1013E000808CF9FE1FD6130060B6E5FE5FE31600A1
:1013F00000D3CEFE3F771B00C05BB3FEBF91210040
:1014000000CA91FE1F753800E05459FEDF9C410070
:10141000D0F8EC0301F024BBD0F8EC0301F022BBC0
:101420002DE9F04F8DB00125002877D00446032028
:1014300084F8B903204600F075F8206801F078FFC1
:10144000206804F1080E04F11C0B0C9060680B90EE
:101450009EE84C509BE8800FD4E90C01CDE90801CF
:1014600003A88DE8405080E8800FDDE90B1001F003
:10147000EDFD20680021002602F06CF9002000211B
:101480000CE022181C30D18782F8381082F83950CD
:10149000D664C2E9106682F83B600131B0F5D27FB4
:1014A000EFD1206800214122002311E0E618A2F1CB
:1014B00041071C3386F8F87186F8F911C6F80C124A
:1014C000C6E9801186F8FB11F78740F82210013237
:1014D000B3F5D27FEAD1616804F1080704F1140E74
:1014E00004F1240A0C918CCF9EE840589AE800073A
:1014F000D4E90C51CDE9085102A9CDE9007681E883
:10150000005805A981E800070C9901F069FE012047
:1015100084F8B903206801F057FE002528460DB075
:10152000BDE8F08F0068B0F1A04F18BF704710B54C
:1015300086B00A20002401A905900320049002200F
:10154000039402904FF4C0500190D048FFF768F91F
:101550000D480022016841F080010160009401699A
:1015600041F4804101610021006900F48040009055
:1015700000984320FFF7C8FA4320FFF7B9FA06B0F6
:10158000BDE81040704700BF3438024010B5044633
:10159000D0F8EC03E168002918BF012101F0B9FA85
:1015A000D4F8EC03BDE8104001F080BAD0F8EC03A9
:1015B00001F09BBAD0F8EC0301F09DBA10B50446D7
:1015C00090F8B803012804BF022010BD012084F860
:1015D000B803206802F0D3F8002084F8B80310BDE7
:1015E000D0F8EC2300F56F71104601F0A5BA10B5E4
:1015F000044690F8B803012804BF022010BD012062
:1016000084F8B803206801F0D3FD206802F020F8C8
:10161000002084F8B80310BD10B50446D0F8EC03E0
:1016200001F0D6FA2068D0F8001E41F00101C0F8A0
:10163000001E206A20B10348016841F006010160E4
:1016400010BD00BF10ED00E02DE9F041002800F0D2
:101650008380434B04468846D3F8000400F00F0013
:10166000884207D283F80084D3F8000400F00F000A
:10167000404571D12068810711D5410742BF996863
:1016800041F4E0519960010742BF996841F460411B
:1016900099609968A26821F0F00111439960C00730
:1016A0002AD06068811E022903D21968890109D4F1
:1016B00052E0012803D11968890303D44CE019686A
:1016C000890749D599681D4621F0030108439860B0
:1016D000FFF76CF9064641F28837A86861682B4627
:1016E00000F00C00B0EB810F06D0FFF75FF9801B14
:1016F000B842F2D9032430E0D3F8000400F00F0020
:10170000404507D983F80084D3F8000400F00F00A7
:10171000404521D12068410705D59968E26821F448
:10172000E05111439960000706D59868216920F4BB
:10173000604040EAC10098601C4600F031F8A168A2
:10174000084A0024C1F30311515CC84012490860E3
:101750000020FFF753F900E001242046BDE8F081A6
:1017600000380240303A00080B480068704700BF5C
:1017700009484749094A00680968C1F38221515C58
:10178000C840704704484249044A00680968C1F3E8
:101790004231515CC84070472C000020403A00089C
:1017A00010B5144C606800F00C011348082904D0EF
:1017B000042904BF114810BD10BD2168236801F041
:1017C0003F0221685B02C1F3881105D4A1FB00012F
:1017D0000023FEF7F5FC03E008484843B0FBF2F0B5
:1017E00021680222C1F3014102EB4101B0FBF1F09B
:1017F00010BD00BF043802400024F40000127A003B
:1018000070B586B00D4601462048214E1446E9B118
:10181000002100F500600191B26A42F00402B26258
:10182000B26A02F004020192019A03220492022297
:1018300002924FF4007201920591039101A9FEF703
:10184000EFFF3068E40020F0784019E000210191BA
:10185000B26A42F00102B262B26A02F0010201927F
:10186000019A03220492022202924FF480720192A2
:101870000591039101A9FEF7D3FF306820F0EC60D9
:1018800044EA05010843306006B070BD0000024024
:10189000083802402DE9FC41002800F0058104468B
:1018A0000078AF4EC0072FD0B06800F00C000428BD
:1018B00023D0B06800F00C00082802D17068400204
:1018C0001BD46768B7F5803F07D03068B7F5A02F05
:1018D00040F00B8140F480203060306840F480306C
:1018E0003060FFF763F80546306880030CD4FFF7DB
:1018F0005DF8401B6428F7D99DE03068800303D56C
:101900006068002800F0D080207880072BD5B06870
:1019100010F00C0F07D0B06800F00C00082809D1B7
:101920007068400206D43068800715D5E068012849
:1019300012D0B9E0E1688B4800297ED00121016016
:10194000FFF734F805463068800705D4FFF72EF816
:10195000401B0228F7D96EE03068216920F0F800BA
:1019600040EAC10030602078000721D5606978B175
:101970007C480121C0F8801EFFF718F80546706FFB
:10198000800715D4FFF712F8401B0228F7D952E060
:1019900074480021C0F8801EFFF708F80546706FF4
:1019A000800705D5FFF702F8401B0228F7D942E06F
:1019B0002078400770D5306C4FF00008C0000CD480
:1019C000CDF804804FF00108306C40F08050306456
:1019D000306C00F0805001900198634F3868C0056A
:1019E0000FD4386840F480703860FEF7DFFF05469A
:1019F0003868C00505D4FEF7D9FF401B0228F7D987
:101A000019E0A768012F05D0306F052F25D140F0D0
:101A100004003067306F40F001003067FEF7C6FF0A
:101A2000054641F28837306F80072ED4FEF7BEFF9F
:101A3000401BB842F7D9032037E000210160FEF7D0
:101A4000B5FF0546306880077FF58DAFFEF7AEFF26
:101A5000411B03200229F5D927E020F0010030675F
:101A6000306F20F004003067FEF7A0FF0546002F1E
:101A7000D7D141F28837306F800706D5FEF796FF41
:101A8000411B0320B942F6D90FE0B8F1000F1EBF89
:101A9000306C20F080503064A769002F5DD0B068B2
:101AA00000F00C00082803D1012002B0BDE8F0814D
:101AB0002C49002088460866FEF778FF0546022F6D
:101AC00009D13068800128D5FEF770FF411B032043
:101AD0000229F6D9E9E7306880013ED5FEF766FFB6
:101AE000411B03200329F6D3DFE720F48030306068
:101AF000306820F480203060FEF758FF0546002F44
:101B00007FF4F2AE306880037FF5FEAEFEF74EFF45
:101B1000411B03206429F5D9C7E704F11C078FCFC7
:101B20000843D90340EA82104FF6FF72914340EA1E
:101B30000760A1F58031084370600120C8F860009B
:101B4000FEF734FF04463068800106D4FEF72EFF0E
:101B5000011B03200229F6D9A7E70020A5E700BF53
:101B600000380240000047420070004070B5C8B322
:101B7000002605464FF0000C866290F8510030B9FF
:101B8000284685F8506000F031F8D5F828C00221C9
:101B900085F8511029680A6822F040020A60D5E9E8
:101BA0000123D5E903041A4310436A692043104313
:101BB000AA6902F400731843EB6918432B6A1843AF
:101BC00040EA0C000860042000EA12406A6A1043F0
:101BD0004860C86920F40060C86101206E6585F81E
:101BE000510000E00126304670BD00002DE9F043B1
:101BF00087B0044602A81421FEF71AFB2068224D84
:101C0000A8423DD10026D7484FF005084FF0030900
:101C1000022702AC0196416941F48051416141695A
:101C200001F48051019101990196016841F001018F
:101C30000160016801F001010191019901960168BB
:101C400041F0020101602146006800F002000190AD
:101C50000198CDF81880CDE90469039748F2A000F7
:101C6000029005F55040FEF7DBFD1020CDE9059808
:101C7000CDE903762146029005F55440FEF7D0FDEC
:101C800007B0BDE8F08300BF003001400C490428D4
:101C90000A6822F0040308BF42F004030B60704797
:101CA000411E0020B0EB116F1CBF01207047044A99
:101CB000F023516003490B70072190601160704759
:101CC00010E000E023ED00E0704790F8391090F844
:101CD0003A000843C0B2704710B5D0F800E004469F
:101CE000DEF80010DEF80C20DEF814305FEA017C2C
:101CF00050D002F4907003F00103C01852D0C8070E
:101D00001FBF12F48070E06B40F00100E0634807F1
:101D100004D51BB1E06B40F00200E063880704D5F6
:101D20001BB1E06B40F00400E063BCF1000F04D590
:101D30001BB1E06B40F00800E063E06B00286ED060
:101D400002EA0100800604D5204600F05CFAD4F8CF
:101D500000E0DEF81400E16B00F0400001F0080143
:101D600040184CD0204600F041FA206841694906ED
:101D700040D5416921F040014161606BD0B32F49EA
:101D80000165FEF7DFFB002849D0606B016DBDE8FF
:101D90001040084711408A0605D52046BDE810408E
:101DA00000F031BA114008060FD4480637D5DEF8E6
:101DB0000C0020F04000CEF80C00202084F8390000
:101DC0002046BDE8104000F0BFB894F83900212843
:101DD00025D1A068216AB0F5805F16D108886FF31D
:101DE0005F20CEF804002069002814BF481C881C1E
:101DF00020620FE02046BDE81040FFF765BF204697
:101E0000FFF762FF0020E06310BD481C20620878E5
:101E1000CEF80400E08C0138E084000400D010BD4E
:101E2000DEF80C0020F08000CEF80C00DEF80C008C
:101E300040F04000CEF80C0010BD00BFE1210008CA
:101E400010B586B0044601A81421FEF7F1F9216807
:101E50003A48814224D10021424A00F57040009165
:101E6000536943F010035361536903F01003009367
:101E7000009B0091136843F001031360126802F0A5
:101E800001020092009A072205920322CDE9031273
:101E9000022102914FF4C061019101A9FEF7C0FC3B
:101EA00006B010BD034690F83A00202806D1012064
:101EB000C9B1C2B193F83800012801D1022070479E
:101EC0000020DA85D8639A859962222183F8380048
:101ED00083F83A1019684A6942F001024A61CA68F7
:101EE00042F49072CA60704700681449884200D07A
:101EF0007047134841880A0448BF704702784B0472
:101F000014D40D2A02BF41F48041418070470D4B2B
:101F100001F1010C6FF39F315A541FFA8CF1C7295C
:101F200088BF4FF0000CA0F802C070470A2A14BF07
:101F3000002141F400414180704700BF0010014082
:101F400068010020AC0100207047FEE781B0054920
:101F50000A6802430A60096808400090009801B0CE
:101F6000704700BF303802402DE9F0410A684FF059
:101F7000010C4FF003084FF00F0E92FAA2F2B2FAE2
:101F800082F26FE00CFA02F52C406AD04D680668C8
:101F900094FAA4F794FAA4F3B3FA83F35B0005FA76
:101FA00003F3B7FA87F56D0008FA05F526EA05058B
:101FB0002B4303604B68013B012B11D88B6885686C
:101FC00094FAA4F694FAA4F7B6FA86F6B7FA87F765
:101FD00076007F0008FA06F6BB40B5432B438360CA
:101FE0000B69C56894FAA4F694FAA4F7B6FA86F6D3
:101FF000B7FA87F776007F0008FA06F6BB40B543CC
:102000002B43C3604B68022B2BD194FAA4F34D6988
:10201000B3F1807F12D3036A94FAA4F694FAA4F47D
:10202000B4FA84F4A40005FA04F4B6FA86F5AD0017
:102030000EFA05F5AB432343036212E0240A436A18
:1020400094FAA4F694FAA4F4B4FA84F4A40005FA79
:1020500004F4B6FA86F5AD000EFA05F5AB4323435A
:10206000436201320C6834FA02F57FF48BAF4A68A0
:10207000013A012A05D8C96842686143A243114365
:1020800041600120BDE8F08110B5094C09490022EA
:10209000204600F0D5FB0849204600F0C0FD074966
:1020A000204600F08CFA2046BDE8104000F0CBBD81
:1020B0007C1400201000002030000020540100207B
:1020C000FEE7704710B5074C00F00F020028044BE4
:1020D00004444FEA0110B8BFD418207010BD00BFEF
:1020E00014ED00E000E400E00148FEF779BE00BF17
:1020F0004017002070477047FEF75CBCB0B592B047
:10210000002422480225CDE90A44CDE9084401947F
:10211000016841F080510160006800F0805001903A
:10212000019801941A48016841F4804101600068F7
:1021300000F4804001900198072011904FF4A8709E
:1021400010950F9008200E904FF48000CDE90C50B0
:102150004FF4803007900120069006A8FFF79AFB05
:102160004FF48050052105904FF4A05004900F20AB
:10217000CDE90254019001A8FFF766FA0020002182
:102180000022FFF73DFB12B0B0BD00BF4038024057
:102190000070004010B50E480F4CD0F8801041F48C
:1021A0007001C0F880100B490A6842F001020A6011
:1021B00000228A600B6823400B60084B4B600B6861
:1021C00023F480230B60CA604FF00061016010BDF2
:1021D00008ED00E000380240FFFFF6FE103000245A
:1021E000806B0021C185C184FFF76EBD0168CA689C
:1021F00022F49072CA604A6922F001024A612021E9
:1022000080F83A10704790F83A10222918BF7047AA
:102210008168B1F5805F08D102680369816A5268FC
:1022200083B1D2B221F8012B10E00269016849683C
:10223000002A826A02F10103836218BF01F07F0164
:10224000117004E06FF35F2221F8022B8162C18DCF
:102250000139C185090400D070470168CA6822F4B9
:102260009072CA604A6922F001024A61202180F816
:102270003A10FFF739BE00002DE9F0470446006828
:102280000169E26821F44051114349F20C62016195
:10229000C1689143A268D4E90437E6691143B6F5F1
:1022A000004F41EA030141EA070141EA0601C1602A
:1022B0004169A26921F4407141EA020141614A4940
:1022C00040F480603FD188420CBFDFF820A1DFF8E6
:1022D00020A1D047D4F804908046D04767680646CE
:1022E000D047616819257F00684306FB05F3490064
:1022F000B3FBF7F3B0FBF1F06421B0FBF1F202FBAA
:102300001102181A4FEA49031044322202EBC000AE
:102310004FF4F872B0FBF1F002EA400008FB05F25E
:10232000B2FBF3F2B2FBF1F100EB0116D0476168AA
:1023300068434900B0FBF1F7D04761686843072262
:10234000032349003CE0884214BFDFF8A4A0DFF873
:102350009CA0D047D4F804908046D04767680646D2
:10236000D04761681925BF00684306FB05F3890063
:10237000B3FBF7F3B0FBF1F06421B0FBF1F202FB29
:102380001102181A4FEA89031044322202EB00109E
:1023900008FB05F2B0FBF1F0B2FBF3F200F0F00045
:1023A000B2FBF1F100EB0116D04761686843890088
:1023B000B0FBF1F7D047616868430F22042389001E
:1023C000B0FBF1F0391A6427B0FBF7F505FB1700F5
:1023D0000844216898403230B0FBF7F01040304399
:1023E0008860BDE8F08700BF001401408517000831
:1023F00071170008F8B50E4C251D2846FFF76CFC38
:102400000C4E4FF0FF372846FFF75FFC202802D024
:102410000137B742F7D94FF0FF372846214601224E
:10242000FFF740FD10B10137B742F6D9F8BD00BF44
:1024300068010020FEFF0100D0F8181200290EBF2D
:1024400002200020C1F814027047B0B5D0F818522D
:10245000044600F0BBFAC5F80C02D4F8180248B1E3
:10246000D4F81C22D5F8040205F50371D268904710
:102470000020B0BD0220B0BDB0B50D4D8121044695
:10248000A84720460121A84720468221A847D4F822
:10249000180250B1D4F81C0240688047D4F81802E2
:1024A00001F068FA0020C4F818020020B0BD00BF97
:1024B0008D28000810B5D0F81C1269B1D0F8184268
:1024C00094F80002FF2807D08B6894F80122214677
:1024D0009847FF2084F80002002010BD0A210180E7
:1024E00000487047F00000204321018000487047F9
:1024F000680000204321018000487047AC000020A4
:102500004321018000487047FC000020B0B504461C
:10251000007C50B1204681210222402300F0A4FA21
:1025200020460121022240230BE020468121022285
:102530004FF4007300F098FA2046012102224FF474
:10254000007300F091FA204682210322082300F054
:102550008BFA4FF4077001F035FA0028C4F818021E
:1025600017D00546D4F81C020068804700200121DE
:10257000C5F81402C5F81802207CD5F804220028FA
:10258000204614BF40234FF4007300F07FFA002070
:10259000B0BD0120B0BD80B5D0F8181269B1D1F836
:1025A0000422017C00294FF0010114BF40234FF4A5
:1025B000007300F06BFA002080BD022080BD00296E
:1025C0000EBF0220C0F81C1200207047D0F818027D
:1025D000C0F8041200207047D0F81802C0F810228A
:1025E000C0F808120020704770B5044608780D4600
:1025F00010F0600111D0202929D1EA88A2B1D4F8C5
:102600001862000618D4687886F80122314686F8E8
:102610000002204600F042F819E068780A2816D136
:102620000C492046012210E0D4F81C1268780022E0
:102630008B68294698470AE0D4F81C1268788B68A2
:1026400031469847EA882046314600F03FF800209E
:1026500070BD00BF7402002080B5D0F8142252680B
:102660009047002080BD80B513460A46002100F047
:102670000DFA002080BD80B513460A46002100F007
:10268000B1FA002080BD10B58021044600F080FA28
:1026900020460021BDE8104000F07ABA80B513460C
:1026A0000A460321C0E94233C0F8F411002100F0CA
:1026B000EDF9002080BD80B5052100220023C0F87F
:1026C000F411002100F0E2F9002080BD80B513462E
:1026D0000A460221C0E90633C0F8F411002100F0D7
:1026E00081FA002080BD80B5042100220023C0F8BB
:1026F000F411002100F076FA002080BD10B5044CE2
:102700000A4604A0214600F06DF8204610BD00BF27
:102710007802002043444320436F6E6669670000DF
:1027200012200880004870474001002010B5044C7A
:102730000A4604A0214600F055F8204610BD00BF0F
:102740007802002043444320496E746572666163D9
:1027500065000000042008800048704764010020E4
:1027600010B5044C0A4604A0214600F03BF8204670
:1027700010BD00BF7802002053544D6963726F652D
:102780006C656374726F6E696373000010B5044CFE
:102790000A4604A0214600F025F8204610BD00BFDF
:1027A0007802002053544D3332205669727475619B
:1027B0006C20436F6D506F727400000010B5044CB4
:1027C0000A4604A0214600F00DF8204610BD00BFC7
:1027D000780200203030303030303030303031410D
:1027E0000000000080B550B34FF0000C864603E0B7
:1027F0000EF1010E0CF1010C9EF80030002BF7D108
:102800005FFA8CFC4FF0020E0EEB4C0CA2F800C0ED
:1028100081F800C04FF0030C01220BE05FFA8EF349
:1028200001304FF0000CCA544EF001020EF10203C9
:10283000D2B29E4601F802C00278002AEED180BDD5
:1028400088B1D0F8143213B10023C0F8143209B1A2
:10285000C0F8101280B50121027080F8FC1100F060
:10286000BBF8002080BD02207047000080B5D0F882
:102870002002FEF7E2F903288FBF0220C000E149E1
:1028800021FA00F098BFC0B280BD00BF80B5D0F87B
:102890002002FEF7AEF903288FBF0220C000D949FD
:1028A00021FA00F098BFC0B280BD00BFB0B50446A9
:1028B00059B1D4F814024269002A46D094F8FC01B8
:1028C000032842D1204690473FE0D4F8F401022883
:1028D00034D1D4E90710814208D9081A114683B2CD
:1028E000E06120461A46FFF7C6FE13E0A169814267
:1028F00017D3B1FBF0F202FB101090B9D4F8F80135
:1029000081420ED22046002100220025FFF7B3FEAF
:10291000C4F8F851204600210022002300F0B6F848
:102920000CE0D4F81402C16829B194F8FC01032822
:1029300001D1204688472046FFF7BDFE94F80002EB
:10294000012804BF002084F800020020B0BD10B5AB
:10295000044651B1D4F81402826942B394F8FC01E0
:10296000032824D12046904721E0D4F8F40103281D
:102970001DD1D4E9431081420CD9091AC4F80C11B5
:10298000814238BF084683B2114620461A46FFF7F7
:102990006AFE0CE0D4F81402016929B194F8FC0134
:1029A000032801D1204688472046FFF79CFE0020DF
:1029B00010BD0020704780B5012180F8FC11D0F8CF
:1029C0001422017952689047002080BD80B5D0F86C
:1029D0002002FEF75BF980BD017861BB10B5174995
:1029E0000222C1F8EC03C0F820120020C1E90B005C
:1029F000C1E90320C1E90502C1E9070048620420DA
:102A00004FF0A042C1E900200846FEF709FD08B1D9
:102A1000FDF7B7FC094C80212046FEF7A3F82046BD
:102A200000214022FEF7A2F8204601218022FEF775
:102A30009DF8BDE810400020704700BF40170020FF
:102A400001F07F02D0F820020906C2EBC20200EBBF
:102A5000820000F13A0258BF00F5FD72107870470D
:102A6000002070470020704780B59446D0F82002BF
:102A70001A466346FEF713F903288FBF0220C000F1
:102A8000604921FA00F098BFC0B280BD80B5D0F88F
:102A90002002FEF732F903288FBF0220C0005949F7
:102AA00021FA00F098BFC0B280BD00BFB0B50021D0
:102AB0000022402304464025FFF7D6FF2046802110
:102AC00000224023C4F81051FFF7CEFF012084F804
:102AD000FC012562D4F8180228B1D4F81402217937
:102AE0004268204690470020B0BD90F8FD1180F864
:102AF000FC110020704790F8FC11032907D1D0F891
:102B00001412C96919B180B58847BDE8804000201A
:102B1000704701740020704780B5D0F82002FEF79E
:102B20004DFD03288FBF0220C000364921FA00F076
:102B300098BFC0B280BD00BFB0B500F502750446B5
:102B4000284600F061F8B4F80E120120C4E97D01B6
:102B500094F8080200F01F01022907D001290AD0C9
:102B600071B92046294600F073F80EE02046294648
:102B700000F086F909E02046294600F0EAF904E071
:102B800000F08001204600F003F80020B0BD0000F6
:102B900080B5D0F82002FEF7D3F803288FBF0220BB
:102BA000C000184921FA00F098BFC0B280BD00BF34
:102BB00080B5D0F82002FEF71AFD03288FBF02204F
:102BC000C000104921FA00F098BFC0B280BD00BF1C
:102BD00090F8FC11042280F8FC2180F8FD110020FF
:102BE0007047000080B5D0F82002FEF7D7F8032820
:102BF0008FBF0220C000034921FA00F098BFC0B285
:102C000080BD00BF000201020A7802704A7842705B
:102C10004A8842808A888280C988C180704700299A
:102C20000EBF0220C0F8141200207047D0F8142202
:102C30003AB180B512689047002818BF01204000C3
:102C400080BD0220704780B5FFF7B2FF002080BD35
:102C5000BCB504464878092800F2CF800D46DFE86D
:102C600000F00518CC25CC5A7ACC364694F8FC01F5
:102C700000F0FE00022840F0C080D4F804020322D5
:102C80002146002808BF012241F80C2F20460222CD
:102C9000D8E094F8FC0100F0FE00022840F0AD807E
:102CA0006888012840F0AC80002004E06888012892
:102CB00040F0A6800120C4F804022946D4F814028A
:102CC0008268204690472046FFF70DFD98E0E8888F
:102CD000012840F0928094F8FC01032851D002288A
:102CE00040F08B800020214641F8080F4AE06888B8
:102CF000624DC1B22870022980F07F8094F8FC01F7
:102D0000032842D0022840F078800029DBD003203D
:102D100084F8FC0144E0A888002840F06E80E88830
:102D2000002840F06A8094F8FC01032800F06580D8
:102D3000A87800F07F052046294684F8FE51FFF769
:102D4000EBFE2046FFF7CFFC002D0CBF0120022038
:102D500084F8FC0154E068884FF0FF3101EB10214A
:102D600006294AD8DFE801F004312449493E4700EA
:102D7000D4F81012207C0A680DF106019047014634
:102D800053E0211D204601225CE000293BD0606811
:102D900088423FF498AFC1B22046FFF75DFC297826
:102DA00020466160FFF742FF02287FF48CAF24E0E9
:102DB000C0B2052821D8DFE800F003484D52575C27
:102DC000D4F81012207C4A68D6E7217CD4F814028B
:102DD00000290CBF816AC16A0DF1060088470146CF
:102DE000022021E0207C40B9D4F81402416B0DF19F
:102DF00006008847C3E7207C70B12046FFF743FCFC
:102E0000002002B0B0BD00206060022084F8FC0108
:102E10002046FFF721FC56E7D4F81402016B0DF1B0
:102E200006008847014607204870BDF806000028C4
:102E3000E6D0EA88002AE3D0904238BF0246ADF8D7
:102E400006202046FFF742FCDAE7D4F81012207C77
:102E50008A6891E7D4F81012207CCA688CE7D4F80D
:102E60001012207C0A6987E7D4F81012207C4A6986
:102E700082E7D4F81012207C8A697DE77502002071
:102E8000B0B5044608780D4600F06000202807D150
:102E9000D4F8140229468268204690470020B0BD2D
:102EA0006878297988B1012818D00328F6D194F8D8
:102EB000FC01032816D1688850BB41F080008028AF
:102EC00026D02046FFF764FE22E094F8FC01032898
:102ED00028D0022810D148060AD1DFE794F8FC0177
:102EE00003280DD0022807D141F080008028D5D0DA
:102EF0002046FFF74DFED1E72046FFF7C4FBCDE7A4
:102F000068880028CAD1480608D02046FFF7AEFCE2
:102F1000D4F8140229468268204690472046FFF7DD
:102F2000E2FBBBE701F07F000A0604EB001000F1B2
:102F3000140558BF00F582752046FFF781FD002873
:102F400018BF01202860294602222046FFF7BEFB59
:102F5000A4E7B0B5044690F8FC01032804D18888A2
:102F60000D4610F0FE0F04D02046FFF78CFB00202A
:102F7000B0BDD4F814022946826820469047E888FC
:102F80000028F4D12046FFF7AEFBF0E74A7891F82D
:102F900000C0012303FA0CF3012A1ED1D0F81C282B
:102FA0009BB21A434FEA4C13C0F81C2800F510607E
:102FB000C25812042AD480B591F803E089681A58DF
:102FC0006FF3DF2141EA8C511143114A41EA8E41EE
:102FD00011431950BDE8804018E0D0F81C2842EA9F
:102FE0000342C0F81C284FEA4C1200F530608358A9
:102FF0001B040BD491F803C0896813586FF3DF21C9
:103000001943034B41EA8C4119431150002070478A
:1030100000800010D0F8001940F2FF729143C0F810
:103020000019D0F8081801F00601042902BFD0F8F1
:10303000001941F00301C0F80019D0F8041841F458
:103040008071C0F80418002070470000B0B5044635
:103050000698049D012817D1A16B164A0D9821F4FA
:1030600080310128A163E16801EA0201E160E168C1
:1030700021F44011E16002BFE06840F48010E0609C
:10308000204600F019F809E0E06840F04000E060F8
:10309000204600F011F84FF48030A063012D07D1D5
:1030A000A06840F00600A060A06840F02000A0608A
:1030B0000020B0BDBFFFBDFF3B494FF0FF320132E2
:1030C0008A4210D80369B3F1FF3FF8DC026942F08D
:1030D000010202614FF0FF3201328A4288BF70471D
:1030E0000369DB07F8D17047B0B50D46497804464F
:1030F0002D48012929D1297804EB4111D1F8002963
:1031000022F40042C1F800294FF00062C1F8002902
:103110004FF08042C1F8002901F510614FF0FF32F5
:10312000013282423DD88B685B00F9D420461021E1
:1031300000F0A4FA2878012101FA00F01B4961EAA5
:103140000000D4F81C18084027E0297804EB41124D
:10315000D2F8003B23F40043C2F8003B4FF0006379
:10316000C2F8003B4FF08043C2F8003B02F53062EA
:103170004FF0FF330133834213D89568ED06F9D43D
:10318000D4F8040840F48060C4F804084FF4803098
:103190008840D4F81C1821EA0000C4F81C0800205C
:1031A000B0BD0320B0BD00BF3F0D03000000FFFF16
:1031B00080B5D0F8041821F00201C0F804180320EB
:1031C000FDF71EFB002080BD80B5D0F8041841F04B
:1031D0000201C0F804180320FDF712FB002080BD97
:1031E0002DE9F047DDF83C9004464FF400200E46F0
:1031F000B9F1000F08BF4FF40010A16B0843A063A2
:103200000020C4F8000ED4F80008C4F800080A989A
:10321000012806D1D4F80008002B18BF40F00100A7
:1032200003E0D4F8000840F00300C4F80008DDF81B
:103230002C80DDF820A02046102100F01FFA204647
:1032400000F00CFA00204FF0FF314FF09042FF23C6
:103250003546C4F81008C4F81408C4F8181804F562
:103260001061C4F81C0807E00F68013D02EAE77727
:103270000F6008618B602031002DF5D104F53060BE
:103280004FF090410022FF2307E00768013E01EA6A
:10329000E7770760026183602030002EF5D1D4F813
:1032A0001008BAF1010F20F48070C4F8100812D190
:1032B0001B481C49C4F83008D4F830080843C4F847
:1032C0003008D4F83008002044F8180F6FF0804020
:1032D00044F8040C0DE00020BAF1000F44F8180F78
:1032E0006FF0804044F8040C03D1206840F01000D7
:1032F000206020680C49B8F1000F40EA010020600E
:103300001EBF206840F008002060B9F1010F03D112
:1033100020680649084320600020BDE8F08700BF10
:10332000000180000300010000383C8004000040E0
:10333000816821F00101816000207047B0B54B78B1
:10334000012B24D191F800C0D1F814E000EB4C140B
:10335000BEF1000F04F51063D4F8104942D06FF3AA
:1033600012041C611C696FF3DC441C612F4C8D68D6
:1033700004F10054AE4584BF4D61AE4604EA0E042C
:103380001D6945F400251D611D692C4336E00B784D
:10339000264C00EB4310D0F8103B6FF31203C0F83B
:1033A000103BD0F8103B6FF3DC43C0F8103B00F546
:1033B00030604D698B6805B14B610569012A45F4A0
:1033C0000025056104F1005503EA0503056943EA98
:1033D0000503036104BFC9684161016841F004410C
:1033E000016020E06FF3DC444FF0000E1C611D69AA
:1033F00045F400251D611C696FF312041C61012A4C
:103400001C6844F004441C6002D1086958610AE059
:10341000BEF1000F07D00121D0F8342801FA0CF1D9
:103420001143C0F834180020B0BD00BFFFFF07E013
:1034300000230129C0F8103BD0F8103B43F40023CF
:10344000C0F8103BD0F8103B43F01803C0F8103B15
:10345000D0F8103B43F0C043C0F8103B02BFC0F8A7
:10346000142B4FF08021C0F8001B002070474A78D1
:10347000012A14BF00F5306000F510600A7852018F
:10348000835823F400138350C97801F0FE01022908
:1034900002BF115841F080511150002070474A7806
:1034A0000978012A00EB411119BF01F53060D1F80C
:1034B000001B01F51060D1F80019002903DB016839
:1034C00021F080410160016841F400110160002099
:1034D00070470000BCB54B78012B30D191F800C08B
:1034E000D1F814E000EB4C14BEF1000F04F51063AA
:1034F000D4F810494BD06FF312041C611C696FF3B0
:10350000DC441C618C680EEB0405013DB5FBF4F452
:103510004E4D05EAC4441D692C4375461C616FF38A
:10352000DF451C692C431C61CC78012C3AD11C6905
:1035300024F0C0441C611C6944F0005431E00B7855
:1035400000EB4313D3F8105B6FF31205C3F8105B65
:10355000D3F8105B6FF3DC45C3F8105B03F5306301
:103560004C69D1F808C0002C41D004EB0C05374C55
:10357000013DB5FBFCF504EAC54E1C69ADB244EA59
:103580000E041C6105FB0CF46FF3DF4437E06FF3AE
:10359000DC441C611C6944F400241C611C696FF349
:1035A00012041C61012A03D10C695C61CC7805E02E
:1035B000CC78BEF1000F18BF012C37D1012C3DD1C2
:1035C000D0F80848E4054FF0805458BF4FF000543D
:1035D0001D682C431C601C6844F004441C601FFAE6
:1035E0008EF3C9680092624600F0D9F82AE01D699E
:1035F0006FF3DF4C4FF4002445EA0C051D611D6993
:10360000012A45EA04051D6104BFCA685A61C978E8
:10361000012913D1D0F80808C0054FF0805058BFD9
:103620004FF0005019680843186007E00121D0F8F6
:10363000342801FA0CF11143C0F83418186840F02E
:1036400004401860002002B0B0BD00BF0000F81FA9
:10365000816841F001018160002070471021104A0B
:1036600001614FF0FF310131914284BF0320704767
:103670000369DB065CBF00207047F4E78901084A54
:10368000203101614FF0FF310131914284BF0320AD
:10369000704703699B065CBF00207047F4E700BFDA
:1036A0003F0D0300D0F8081811F0060F04BF0020EA
:1036B0007047D0F8081801F00601022905D0D0F8AB
:1036C000081801F00601062901D103207047D0F83F
:1036D000080800F006000438B0FA80F04009400005
:1036E0007047406900F001007047D0F81818D0F812
:1036F0001C08084080B27047D0F81818D0F81C0891
:103700000840000C7047D0F81028D0F8343800EB8F
:103710004110D0F80809CB40DB01DBB21A4310405E
:10372000704700EB4111D1F8081BD0F8140808408D
:103730007047416980690840704703324FF4805CEC
:10374000920803E050F80C30013A08C1002AF9D180
:1037500008467047C268012922F0C042C26003D007
:1037600039B94FF0804101E04FF00051C268114378
:10377000C16080B53220FDF743F8002080BDD0F84D
:10378000002801F07F0122F4FE62C0F80028D0F882
:10379000002842EA0111C0F8001800207047DDF847
:1037A00000C0BCF1000F0CD103334FEA023C00F51E
:1037B00080509B0803E004C9013B4CF80020002B1B
:1037C000F9D100207047FEE710B504460420FEF74B
:1037D0005DFA1448046010BD10B5044604E04FF4CF
:1037E0007A7000F005F8013C002CF8D110BD000003
:1037F00080B50B490B4A0023D1F800C0126802FBC8
:1038000000FE48684A689042FCD00344904210464B
:10381000A3EB020398BF6344734528BF80BDF1E763
:1038200014E000E0781400200248016881F400618F
:10383000016070471410024086B0FDF7C5F8FEF72E
:103840005DFC3C4C002510200595A0470420A047B6
:103850008020A04701200126A04702200227A04780
:1038600035484FF040616C460160CDE90355CDE924
:103870000165324E4FF440602146009006F58030DD
:10388000FEF772FB4FF4807001972146009006F519
:103890007040CDE90455CDE90255FEF765FB284897
:1038A00000950022016841F4800101600021006858
:1038B00000F48000009000983920FDF725F93920A8
:1038C000FDF716F91F4C2048182125622060201DA5
:1038D000FCF7AEFC2046FCF755FD1C4C4FF4827003
:1038E00006F50051C4E9001004F108002421FCF79A
:1038F0009FFC0A20E0622046FEF738F914484FF496
:10390000E1320C21C0E90062C0E90255C0E904516E
:1039100000210022C0E90655FDF7ACF8FEF7B4FB24
:10392000A820FFF751FFFFF77FFF4FF4FA70FFF772
:1039300053FFF8E74D1F0008181002400010014027
:1039400030380240A016002000000550301B002037
:10395000881B002002E008C8121F08C1002AFAD103
:1039600070477047002001E001C1121F002AFBD1FF
:103970007047000010B5002821D0114B0022001F15
:10398000196803E0814203D80A4649680029F9D141
:1039900052B11368841A9C4204D100681844106024
:1039A000104602E0506000E0186039B102680B1A5E
:1039B000934203D10B681A4402604968416010BD0C
:1039C00000000020F0B50B30154D20F00701002459
:1039D000144A0FE003688B420BD38B4205D95E1A61
:1039E00043184768C3E9006700E04368136002C0FA
:1039F00004E0021D10680028ECD12046002802D106
:103A0000286808B10020F0BD064A07481060074A40
:103A1000121A22F00702C0E9002401202860D7E72B
:103A20000400002000000020D41B0020D01F002034
:103A3000000000000000000001020304060708095E
:103A40000000000001020304683A000800000020A2
:103A500068010000A8020008283B00086801002057
:103A600068260000643900088132013210132127D2
:103A70001B0855041A61041A8D041ABD0413FD268F
:103A80001B082D08111324F4130D25140879241B89
:103A900008E908411AB50C1A39041A4B04C12AF571
:103AA0002419041A01281ADD08140902431302011B
:103AB0001DC03209046D1A020B13052416100105EE
:103AC0002401100901042402020524061701070538
:103AD000820308151009040133020A2E07050102AA
:103AE00040072A810711093744113A024419071186
:103AF0002B0A0606112A40F02B0907500A2204500F
:103B00000A16FF941A12171302021E40830440572C
:103B10004D1B0203591309031B0805041A01041A5B
:083B20002D0405000403090453
:040000050800018965
:00000001FF
