:020000040800F2
:10000000C8060020412400084503000847030008F3
:10001000570300085B0300085F03000800000000AE
:100020000000000000000000000000006303000862
:10003000650300080000000067030008690300086A
:100040005B2400085B2400085B2400085B24000894
:100050005B2400085B2400085B2400085B24000884
:100060005B2400085B2400085B2400085B24000874
:100070005B2400085B2400085B2400085B24000864
:100080005B2400085B2400085B2400085B24000854
:100090005B2400085B2400085B2400085B24000844
:1000A0005B2400085B2400085B2400085B24000834
:1000B0005B240008C10900086D4F00085B2400089C
:1000C0005B2400085B2400085B2400085B24000814
:1000D0005B240008B52300085B2400085B240008AB
:1000E0005B2400085B2400085B2400085B240008F4
:1000F0005B2400085B2400085B2400085B240008E4
:100100005B2400085B2400085B2400085B240008D3
:100110005B2400085B2400085B2400085B240008C3
:10012000A1060008BD0600085B2400085B24000847
:100130005B2400085B2400085B2400085B240008A3
:100140005B2400085B2400085B2400085B24000893
:100150005B2400085B2400085B2400085B24000883
:100160005B2400085B2400085B2400085B24000873
:100170005B2400085B240008330800085B240008A7
:100180005B2400085B24000800F002F800F06DF822
:100190000AA090E8000C82448344AAF10107DA45E2
:1001A00001D100F062F8AFF2090EBAE80F0013F0C7
:1001B000010F18BFFB1A43F001031847207D000010
:1001C000407D00000A444FF0000C10F8013B13F092
:1001D000070408BF10F8014B1D1108BF10F8015BA0
:1001E000641E05D010F8016B641E01F8016BF9D193
:1001F00013F0080F1EBF10F8014BAD1C0C1B09D1EA
:100200006D1E58BF01F801CBFAD505E014F8016B5B
:1002100001F8016B6D1EF9D59142D6D370470000ED
:100220000023002400250026103A28BF78C1FBD8FF
:10023000520728BF30C148BF0B607047642905F0E2
:100240006784752905F06484782905F09D84632905
:1002500005F0F185732905F0F685002070471FB57C
:1002600005F05DFE1FBD10B510BD05F01FFE114667
:10027000FFF7F5FF00F023F805F03DFE03B4FFF7AC
:10028000F2FF03BC02F036F81CB50121084602F06B
:1002900023FF4FF48070009002208DF804000020AE
:1002A0008DF8060003208DF8050069461F4802F00E
:1002B000A1FA4FF0C061002002F0F2FD1CBD4FF426
:1002C000A06002F0DBF8A82001F092FF4FF4E130CB
:1002D00002F01EF801F032FFFFF7D6FF08E0C82059
:1002E00001F0E8FF12A005F0B7FBC82001F0E2FF23
:1002F00000F072FB0028F2D142F2CF0142F20F70FF
:1003000000F032FBA0237822B0210A2000F0A6FCE6
:1003100000F0E0F94FF48063DA004FF496410848AA
:1003200000F02EF900F06BFA00BFFEE7000002407B
:100330004F5637363730204641494C3A0A000000C4
:100340000010002070470948006800F0010000B16B
:1003500000BE00BFFEE700BFFEE700BFFEE700BF34
:10036000FEE770477047704770470000F0ED00E00F
:100370000CB50020019000907648006840F4803071
:100380007449086000BF7348006800F400300090B2
:100390000198401C0190009818B90198B0F5A04F41
:1003A000F1D16C48006800F4003010B101200090D9
:1003B00001E0002000900098012846D165484030B7
:1003C000006840F08050634940310860624800682E
:1003D00040F44040604908605E48083000685D496C
:1003E000083108600846006840F40040086008468C
:1003F000006840F4A05008605848091F0860081FB2
:10040000006840F08070091F086000BF5148006814
:1004100000F000700028F9D040F2057050490860E3
:100420004C480830006820F003004A490831086051
:100430000846006840F00200086000BF45480830E8
:10044000006800F00C000828F8D10CBD10B5454834
:10045000006840F47000434908603E48006840F07E
:1004600001003C49086000203A49083108603948D9
:1004700000683D490840374908603C48091D08604C
:10048000081F006820F48020091F086000203149FF
:100490000C310860FFF76CFF4FF000603149803984
:1004A000086010BD70B50020002202230024022144
:1004B000284D08352D6805F00C0020B1042806D021
:1004C000082834D107E02A4D2A4E356033E02A4D02
:1004D000284E35602FE01F4D2D1D2D68C5F380542B
:1004E0001C4D2D1D2D6805F03F0154B1224DB5FB6B
:1004F000F1F5184E361D3668C6F3881605FB06F270
:1005000009E01B4DB5FBF1F5124E361D3668C6F3FA
:10051000881605FB06F20F4D2D1D2D68C5F301450C
:100520006D1C6B00B2FBF3F5124E356003E0104D0D
:10053000104E356000BF00BF064D08352D68C5F36D
:1005400003150E4E705D0B4D2D68C540094E35608C
:1005500070BD0000003802400070004008544007A1
:10056000003C024088ED00E0FFFFF6FE1030002462
:100570000024F4000000002000127A000400002093
:10058000F0B591B004460D4616461F460121880578
:1005900002F0A2FDE54802F0F1F900BFE34802F0E5
:1005A00016FB0028FAD14FF000700290E04803904B
:1005B0000494002005900695079008974FF480500A
:1005C00009900A9600110B9040020C9004200D90A7
:1005D00003200E9000200F90109002A9D34802F043
:1005E0006FFA01221021D14802F031FB39208DF839
:1005F000040000208DF805008DF8060001208DF81C
:10060000070001A801F03FFF11B0F0BDF0B591B0B7
:1006100004460D4616461F460121880502F05CFD82
:10062000C248183802F0AAF900BFC048183802F0D2
:10063000CEFA0028F9D14FF000700290BC48039028
:100640000494002005900695079008974FF4805079
:1006500009900A9600110B9040020C9004200D9016
:1006600003200E9000200F90109002A9AF48183878
:1006700002F026FA01221021AC48183802F0E7FAFD
:1006800038208DF8040000208DF805008DF8060054
:1006900001208DF8070001A801F0F5FE11B0F0BDB2
:1006A00010B5A449A148183802F0A1FA012804D1D4
:1006B000A0499E48183802F0B6FA10BD10B59D4901
:1006C0009A4802F094FA012803D19A49974802F017
:1006D000AAFA10BD0EB50121172002F0FDFC012180
:1006E000084602F00AFD5020019002208DF8080013
:1006F00000208DF80A0003208DF8090001208DF8F4
:100700000B0001A98C4802F075F8C020019001A9E6
:100710008A4802F06FF84FF43C60019001A98848C4
:1007200002F068F86020019001A9864802F062F8A2
:100730000D220421804802F0E8F80D2206217E48AF
:1007400002F0E3F80D2207217C4802F0DEF80D22CA
:1007500006217B4802F0D9F80D220721784802F0E3
:10076000D4F80D220821764802F0CFF80D22092195
:10077000734802F0CAF80D220B21714802F0C5F847
:100780000D2206216D4802F0C0F80D2205216D48AA
:1007900002F0BBF80D2206216A4802F0B6F801F01B
:1007A000DDFE00206849088048818881088120207A
:1007B0008880002048808020C880084601F0DAFE4A
:1007C0000121084601F056FF0121102001F052FFDF
:1007D0000121082001F04EFF012001F02AFF4E20E8
:1007E0008DF8000001208DF8010002208DF8020034
:1007F00001208DF80300684601F045FE0EBD10B5DE
:10080000012001F025FF0121484802F093F910BDB5
:1008100010B5002001F01CFF00BF454828380068D3
:1008200000F001000028F8D10021404802F082F9D0
:1008300010BD10B5102001F046FF012863D1FFF76D
:10084000E7FF102001F04BFF00204049088040A046
:1008500005F002F90020404908804EE000203F49A1
:1008600008803EE03C48008800EB80003C4901EBFA
:1008700080103A49098830F8110043F2314188422A
:100880000DDD4FF6FF703449098801EB8101344AD0
:1008900002EB8111314A128821F812000BE000218D
:1008A0002D48008800EB80002D4A02EB80102B4A77
:1008B000128820F812102848008800EB8000284990
:1008C00001EB80102549098830F811202348018860
:1008D0002148008801F059FA20480088401C1F492F
:1008E00008801E480088A028BCDB1EA005F0B4F8D4
:1008F00019480088401C1849088017480088782843
:10090000ACDDFFF77CFF10BD2DE9F04104460D463C
:1009100016461F46FFF77CFF0121044802F00AF942
:10092000012001F095FEBDE8F0810000286402403E
:10093000280005500008001000000240000402409A
:1009400000080240001002408C0100201C00002022
:10095000646174613A0A000014000020160000204F
:10096000001000200A0000007FB504460D4601215A
:10097000022002F0FAFBADF804500020ADF80600AA
:100980000294ADF80C0001A9124802F0D0FF012238
:100990001146104803F06CFC01210E4803F050F89A
:1009A0001D208DF8000001208DF8010003208DF836
:1009B000020001208DF80300684601F064FD7FBD50
:1009C00010B50121034803F06AFC0121014803F03E
:1009D00077FC10BD000400407CB5002500240121F7
:1009E000082002F079FB6020009001208DF80400BF
:1009F00000208DF8060002208DF8050001208DF8FA
:100A000007006946BA4801F0F5FE0020B9490860C0
:100A10000A2001F04FFC0020B749C1F894020A20D7
:100A200001F048FC0120B349091F086000F074F987
:100A30008021122000F05EFA322001F03BFC1C20E5
:100A400000F077FA04464FF6FF7000EA04241D20F8
:100A500000F06FFA044347F6A270844205D02146A5
:100A6000A6A004F0F9FF01207CBD0A2000F061FA85
:100A700004464FF6FF7000EA04240B2000F059FAF8
:100A8000044347F27360844205D021469EA004F0DF
:100A9000E3FF0220E8E700250AE09E4A02EB450258
:100AA00051789C4A12F8150000F024FA681C85B2AF
:100AB000732DF2D30020D7E72DE9F0410446E72556
:100AC00000260027012C06D0022C08D0032C0AD0C7
:100AD000042C10D10BE0E5255A265C270BE0E52518
:100AE0005826602707E0E52584264C2703E0E52506
:100AF0009626402700BF00BF2946132000F0FAF9D0
:100B00003146012000F0F6F93946022000F0F2F9F2
:100B1000BDE8F0812DE9F0410446802522265E27BC
:100B200034B1012C08D0032C0AD0042C10D10BE0D6
:100B3000402511262F270BE066251B264B2707E0B3
:100B400099252826712703E0C02533268D2700BF6D
:100B500000BF29464F2000F0CDF92946502000F073
:100B6000C9F90021512000F0C5F93146522000F0AA
:100B7000C1F93946532000F0BDF92946542000F050
:100B8000B9F99E21582000F0B5F9BDE8F08170B5A3
:100B90000446002534B1012C06D0032C06D0042CC9
:100BA00008D105E0B02505E0982503E0182501E00F
:100BB000302500BF00BF2946552000F09BF970BDCD
:100BC00070B50446402534B1012C06D0032C06D064
:100BD000042C08D105E0302505E0382503E0502538
:100BE00001E0602500BF00BF2946562000F082F9D1
:100BF00070BD2DE9F04104460425C0268027072C4E
:100C00001DD2DFE804F01C04080C10141800242581
:100C10008026802713E01425802680270FE01425E6
:100C2000C02680270BE014254026402707E0142526
:100C30008026C02703E01425A026402700BF00BF60
:100C400029463A2000F056F93146682000F052F962
:100C50003946672000F04EF9BDE8F0812DE9F047F4
:100C600005460E469046994605EB48001FFA80FA65
:100C700006EB490087B2B7F5447F02DDA7F5447063
:100C800087B2032000F055F9044604F0F0040AF09E
:100C90000301284661F39F0004432146032000F02E
:100CA00029F9C5F38701192000F024F9CAF3870157
:100CB0001A2000F01FF9322000F03BF9044604F03E
:100CC000C00407F00701304661F3DF00044321460A
:100CD000322000F00FF9C6F3C701172000F00AF91F
:100CE000C7F3C701182000F005F9BDE8F087000040
:100CF000000C024098824142008041424D49443AF2
:100D000025640D0A000000004849443A25640D0A94
:100D100000000000285F00081CB50121082002F037
:100D2000DBF90C20009001208DF8040000208DF8E4
:100D3000060002208DF8050001208DF807006946A5
:100D40008F4801F057FD0C218D4801F0CFFD8C48F4
:100D5000006820F0C0008A4908600846006840F03A
:100D6000400008601CBD10B5012086490860864916
:100D7000C1F88802322001F055FA0020814908604C
:100D8000322001F04FFA00207F49C1F8880210BDDF
:100D900010B500207B490860322001F043FA0120A1
:100DA0007949C1F88802322001F03CFA01207549E6
:100DB0000860322001F036FA10BD10B5322001F083
:100DC00031FA01206F4908606F49C1F8880232206A
:100DD00001F028FA00206B49091F0860322001F059
:100DE00021FA00206849C1F88C02322001F01AFA79
:100DF00010BD70B5044600261BE004F0800018B159
:100E000001206049086002E000205E490860600639
:100E1000040E322001F006FA01205A49091F086029
:100E2000322001F0FFF900205749C1F88802701CF8
:100E3000C6B2082EE1DB5248006820F0C0005049DD
:100E40000860084600680860322001F0EBF90120D4
:100E50004C49091F0860322001F0E4F94A48D0F8F3
:100E60000C0208B1012500E0002500204549091FBA
:100E700008604348006820F0C00041490860084607
:100E8000006840F040000860284670BD70B500243E
:100E90003B48006820F0C0003949086008460068F7
:100EA0000860082517E0322001F0BCF9012035491F
:100EB000091F08606006040E3348D0F80C0208B120
:100EC000601CC4B2322001F0ADF900202D49091F89
:100ED0000860681EC5B2002DE5DC2948006820F0D6
:100EE000C000274908600846006840F040000860DC
:100EF000204670BD70B505460C460026FFF733FF4F
:100F00004220FFF776FF00B10126642001F08AF944
:100F10002846FFF76EFF00B10126642001F082F938
:100F20002046FFF766FF00B10126FFF731FF30468C
:100F300070BD70B504460025FFF715FF4220FFF78E
:100F400058FF642001F06EF92046FFF752FF64203D
:100F500001F068F9FFF71CFF642001F063F9FFF767
:100F600002FF4320FFF745FF642001F05BF9FFF724
:100F70008DFF0546FFF721FFFFF70AFF284670BDEA
:100F8000000C02408C8241420080414230B5014653
:100F900001F01F04C1F34513CA0AE50205EB43152E
:100FA0001544A8B230BD2DE9F04706460F469046DD
:100FB0009A46002445464FEA4800C0F103094AE03A
:100FC0007A1991B2321990B2524600F0DEFE7A19C7
:100FD00091B2321B90B2524600F0D7FE7A1B91B20A
:100FE000321990B2524600F0D0FE7A1B91B2321BF9
:100FF00090B2524600F0C9FE3A1991B2721990B2FD
:10100000524600F0C2FE3A1991B2721B90B252469B
:1010100000F0BBFE3A1B91B2721990B2524600F03A
:10102000B4FE3A1B91B2721B90B2524600F0ADFE74
:10103000B9F1000F05DA042000FB049000F1060965
:1010400007E0601B042101FB009000F10A09681E03
:1010500085B2601C84B2AC42B2DBAC4237D17A19A3
:1010600091B2321990B2524600F08FFE7A1991B2C5
:10107000321990B2524600F088FE7A1B91B23219B2
:1010800090B2524600F081FE7A1B91B2321B90B2B0
:10109000524600F07AFE3A1991B2721990B2524655
:1010A00000F073FE3A1991B2721B90B2524600F0F2
:1010B0006CFE3A1B91B2721990B2524600F065FE76
:1010C0003A1B91B2721B90B2524600F05EFEBDE830
:1010D000F0872DE9FF4F83B0804689464946404658
:1010E00000F025FE0598A0EB08050698A0EB090680
:1010F000002D02DB0120029003E04FF0FF30029050
:101100006D42002E02DB0120019003E04FF0FF3022
:10111000019076424FEA450A4FEA460BB54219DD87
:10112000ABEB0504002712E049464046109A00F058
:101130002CFE002C05DBA4EB0A04019848441FFA9E
:1011400080F95C44029840441FFA80F87F1CAF424B
:10115000EADD18E0AAEB0604002712E04946404603
:10116000109A00F012FE002C05DBA4EB0B04029891
:1011700040441FFA80F85444019848441FFA80F90B
:101180007F1CB742EADD07B0BDE8F08F2DE9F843D8
:1011900005460C4616461F46DDF820804EF67D704B
:1011A0000090A81982B2234621462846FFF791FFF6
:1011B00042F6651004F1010CBC441FFA8CF305EBF8
:1011C000060CACF1010C1FFA8CF204F1010C1FFAB1
:1011D0008CF105EB060CACF1010C00901FFA8CF0C1
:1011E000FFF777FF42F665100090E01983B2A81967
:1011F00082B2E01981B22846FFF76BFF4EF67D7090
:101200000090E01983B22A4621462846FFF761FF85
:1012100004F1010CBC44ACF1020C1FFA8CF305F193
:10122000010CB444ACF1020C1FFA8CF204F1010C75
:101230001FFA8CF105F1010C1FFA8CF0CDF800803B
:10124000FFF747FFBDE8F8832DE9F84305460C4654
:1012500016461F46DDF82080B8F1000F39D14EF652
:101260007D700090A81982B2234621462846FFF7D8
:1012700030FF42F6651004F1010CBC441FFA8CF3F8
:1012800005EB060CACF1010C1FFA8CF204F1010C19
:101290001FFA8CF105EB060CACF1010C00901FFA63
:1012A0008CF0FFF716FF42F665100090E01983B24C
:1012B000A81982B2E01981B22846FFF70AFF4EF65C
:1012C0007D700090E01983B22A4621462846FFF738
:1012D00000FFB8F1010F39D142F665100090A8194E
:1012E00082B2234621462846FFF7F3FE4EF67D7074
:1012F00004F1010CBC441FFA8CF305EB060CACF1B5
:10130000010C1FFA8CF204F1010C1FFA8CF105EBB1
:10131000060CACF1010C00901FFA8CF0FFF7D9FE1F
:101320004EF67D700090E01983B2A81982B2E019E0
:1013300081B22846FFF7CDFE42F665100090E01915
:1013400083B22A4621462846FFF7C3FEB8F1020FB2
:1013500039D14FF6FF700090A81982B2234621467A
:101360002846FFF7B6FE4FF6FF7004F1010CBC44AF
:101370001FFA8CF305EB060CACF1010C1FFA8CF292
:1013800004F1010C1FFA8CF105EB060CACF1010C19
:1013900000901FFA8CF0FFF79CFE4FF6FF70009054
:1013A000E01983B2A81982B2E01981B22846FFF78A
:1013B00090FE4FF6FF700090E01983B22A46214656
:1013C0002846FFF786FEBDE8F883F8B504460D46CB
:1013D00016461F4644F208202B4632462946009006
:1013E0002046FFF776FE48F210406A1C93B291B295
:1013F000621C009090B23246FFF76BFE44F2082068
:101400003B462246294600902046FFF762FE48F2FE
:101410001040631C9AB26B1C99B2631C009098B286
:101420003B46FFF756FE4FF6FF703B4632463946C5
:1014300000902046FFF74DFE4FF6FF703B463246C8
:10144000294600903046FFF744FEF8BDF8B5064641
:101450000F4614461D464FF6FF703B46224639465E
:1014600000903046FFF735FE4FF6FF702B463246B0
:10147000394600903046FFF72CFE48F210406A1EB5
:1014800093B291B2721C009090B22246FFF721FEF7
:1014900044F208202B462246294600903046FFF7AA
:1014A00018FE48F21040631E9AB27B1C99B2631E6C
:1014B000009098B22B46FFF70CFE44F208202B4612
:1014C0002246394600902046FFF703FEF8BD2DE97D
:1014D000F84F0746884693469A46DDF828900097CD
:1014E000B3E099F8000080283DDA99F800600D2EED
:1014F00005D1009F08F110001FFA80F830E0202E7F
:1015000003DDA6F1200086B200E00026002422E0E0
:1015100000251CE004EB0610E849085C8021294105
:10152000084040B108EB040291B27A1990B25A46D1
:1015300000F02BFC09E0D34507D008EB040291B280
:101540007A1990B2524600F020FC681CC5B2082DF2
:10155000E0DB601CC4B2102CDADB07F1080087B2B4
:1015600009F1010971E0002668E006EB0610D44994
:1015700011F8100099F8001088425DD106EB0610B2
:10158000CF4901EB4000407899F80110884253D1CF
:1015900000244FE0002520E006EB0610C84901EBCF
:1015A0004000801C10F8141080202841014041B1F7
:1015B00008EB040291B27A1990B25A4600F0E5FBAA
:1015C00009E0D34507D008EB040291B27A1990B232
:1015D000524600F0DAFB681CC5B2082DDCDB0025A2
:1015E00024E006EB0610B64901EB4000801C012107
:1015F00001EB4401405C80212941084048B108EBDF
:10160000040291B27A19083290B25A4600F0BDFB3A
:101610000AE0D34508D008EB040291B27A190832E7
:1016200090B2524600F0B1FB681CC5B2082DD8DB61
:10163000601CC4B2102CADDB701C86B2322E94DB61
:1016400009F1020907F1100087B299F8000000289B
:101650007FF447AFBDE8F88F2DE9F05F0646884676
:1016600093469A46DDF82890E2E099F80000802839
:1016700035DA99F80070202F03DDA7F1200087B23A
:1016800000E00027002522E000241CE005EB071005
:101690008A49095C80202041014041B108EB0502E4
:1016A00091B2321990B25A4600F06FFB09E0D3456F
:1016B00007D008EB050291B2321990B2524600F001
:1016C00064FB601CC4B2082CE0DB681CC5B2102DA2
:1016D000DADB09F1010906F1080086B2A8E000276B
:1016E0009EE007EB870000EB4710764911F81000E9
:1016F00099F8001088427CD107EB870000EB471077
:10170000704901EB4000407899F801108842F2D10D
:10171000002580E0002423E007EB870000EB471062
:10172000684901EB4000801C05EB4501405C8021CD
:101730002141084040B108EB050291B2321990B244
:101740005A4600F022FB09E0D34507D008EB05021A
:1017500091B2321990B2524600F017FB601CC4B22D
:10176000082CD9DB002426E007EB870000EB4710AC
:10177000544901EB4000801C05EB4501491C405CCD
:1017800080212141084048B108EB050291B232198D
:10179000083290B25A4600F0F8FA0AE0D34508D071
:1017A00008EB050291B23219083290B2524600F0AD
:1017B000ECFA601CC4B2082CD6DB002427E007EB4F
:1017C000870000EB47103F4901EB4000801C05EB10
:1017D0004501891C405C80212141084050B108EB43
:1017E000050291B23219103290B25A4600F0CDFA89
:1017F0000BE013E0D34508D008EB050291B2321993
:10180000103290B2524600F0C0FA601CC4B2082CEC
:10181000D5DB681CC5B2182DFFF67CAF781C87B2EB
:10182000142FFFF65EAF09F1020906F1180086B227
:1018300099F8000000287FF418AFBDE8F09F2DE96B
:10184000F05F0746884692469946002531E000241D
:101850002BE01D490A9801EBC01000EB850010F841
:1018600004B000261DE08020304100EA0B0050B19A
:1018700008EB050291B207EBC402324490B2524623
:1018800000F083FA0BE0CA4509D008EB050291B2DB
:1018900007EBC402324490B24A4600F076FA701C5C
:1018A000C6B2082EDFDB601CC4B2042CD1DB681C7E
:1018B000C5B2202DCBDBBDE8F09F0000C46300085B
:1018C000367100081E780008B56900081CB50121B2
:1018D000022001F05BFC4FF47E40009001208DF867
:1018E000040000208DF8060003208DF8050001207B
:1018F0008DF807006946FE4800F07CFF1CBD002102
:10190000082118E000F080022AB14FF40042F84BA1
:1019100018331A8004E04FF40042F54B1A331A8052
:101920004FF40052F24B1A331A809B1E1A80420663
:10193000100E4A1ED1B20029E4DC7047024600BFF7
:10194000108900F002000028FAD0918100BF1089B0
:1019500000F001000028FAD09089C0B270470288D8
:101960004FF6C7731A400280012902D10288028013
:1019700003E0028842F020020280028842F0400226
:101980000280704700B503464FF40060D8491A3111
:101990000880401008801946D648FFF7CFFF00BDE9
:1019A00000B587B00121880301F0F0FB012102207E
:1019B00001F092FB4FF43040009002208DF80400BB
:1019C00000208DF8060003208DF8050001208DF819
:1019D00007006946C64800F00DFF4FF480400090B4
:1019E00002208DF8040000208DF8060003208DF8F9
:1019F000050001208DF807006946BD4800F0FAFE99
:101A000005220C21BA4800F080FF05220D21B848BC
:101A100000F07BFF05220E21B54800F076FF05227D
:101A20000F21B34800F071FF0121880301F09DFBF5
:101A30000020ADF808004FF48270ADF80A000020D5
:101A4000ADF80C000220ADF80E000120ADF810003A
:101A50004002ADF812000020ADF81400ADF81600F9
:101A60000720ADF8180002A9A24802F051FD4FF47A
:101A7000F050009001208DF8040000208DF8060041
:101A800003208DF8050001208DF80700694698486D
:101A900000F0B0FE0121974802F034FEFF20FFF76E
:101AA00071FF07B000BD00B503464FF48060904958
:101AB0001831088019468F48FFF740FF00BD10B568
:101AC00004462012FFF7EFFFE0B2FFF7ECFF10BD76
:101AD00030B505460C462846FFF754FF2046FFF771
:101AE000EEFF30BD10B54FF4805081491A310880A7
:101AF000642000F0DFFB4FF480507D4918310880EE
:101B0000322000F0D7FB10BD10B5FFF749FF4FF4AE
:101B10000070774918310880FFF7E4FF1120FFF7C4
:101B200031FF0020FFF7BFFFCF20FFF72BFF002082
:101B3000FFF7B9FFC120FFF7B6FF3020FFF7B3FF73
:101B4000ED20FFF71FFF6420FFF7ADFF0320FFF735
:101B5000AAFF1220FFF7A7FF8120FFF7A4FFE820CC
:101B6000FFF710FF8520FFF79EFF1120FFF79BFF77
:101B70007820FFF798FFF620FFF704FF0120FFF71A
:101B800092FF3020FFF78FFF0020FFF78CFFCB2064
:101B9000FFF7F8FE3920FFF786FF2C20FFF783FFC1
:101BA0000020FFF780FF3420FFF77DFF0520FFF7BF
:101BB0007AFFF720FFF7E6FE2020FFF774FFEA2008
:101BC000FFF7E0FE0020FFF76EFF0020FFF76BFF3E
:101BD000C020FFF7D7FE2020FFF765FFC120FFF7E9
:101BE000D1FE1120FFF75FFFC520FFF7CBFE3120AC
:101BF000FFF759FF3C20FFF756FFC720FFF7C2FE53
:101C0000A920FFF750FF3A20FFF7BCFE5520FFF751
:101C10004AFF3620FFF7B6FE4820FFF744FFB12009
:101C2000FFF7B0FE0020FFF73EFF1820FFF73BFF55
:101C3000B420FFF7A7FE0020FFF735FF0020FFF7D5
:101C400032FFF220FFF79EFE0020FFF72CFF262038
:101C5000FFF798FE0120FFF726FFE020FFF792FE36
:101C60000F20FFF720FF1720FFF71DFF1420FFF7BD
:101C70001AFF0920FFF717FF0C20FFF714FF0620BB
:101C8000FFF711FF4320FFF70EFF7520FFF70BFF53
:101C90003620FFF708FF0820FFF705FF1320FFF7A6
:101CA00002FF0520FFF7FFFE1020FFF7FCFE0B20D0
:101CB000FFF7F9FE0820FFF7F6FEE120FFF762FECE
:101CC0000020FFF7F0FE1F20FFF7EDFE2320FFF7B7
:101CD000EAFE0320FFF7E7FE0E20FFF7E4FE0420F4
:101CE000FFF7E1FE3920FFF7DEFE252004E00000CB
:101CF0000004024000380040FFF7D5FE4D20FFF7FA
:101D0000D2FE0620FFF7CFFE0D20FFF7CCFE0B2002
:101D1000FFF7C9FE3320FFF7C6FE3720FFF7C3FEEB
:101D20000F20FFF7C0FE2920FFF72CFE10BD30B5B5
:101D300005460C462A20FFF725FE2846FFF7BFFE82
:101D40002B20FFF71FFE2046FFF7B9FE2C20FFF7E0
:101D500019FE30BDF0B507460C4615461E462A2032
:101D6000FFF710FE3846FFF7AAFE2846FFF7A7FE4A
:101D70002B20FFF707FE2046FFF7A1FE3046FFF7B6
:101D80009EFE2C20FFF7FEFDF0BD70B505460E4609
:101D9000144631462846FFF7CAFF2046FFF78FFE5C
:101DA00070BD30B505469F23772200210846FFF716
:101DB000D1FF4FF40060184908804010891E088048
:101DC000002408E029121548FFF7B8FDE9B21348CE
:101DD000FFF7B4FD641CB4F5963FF3D3002408E08C
:101DE00000210E48FFF7AAFD1F210C48FFF7A6FDB2
:101DF000641CB4F5963FF3D3002408E0072107489C
:101E0000FFF79CFDE0210548FFF798FD641CB4F541
:101E1000963FF3D330BD00001A0402400038004062
:101E200008B54EF67D70FFF7BCFFC7A04EF67D7378
:101E30001F22022100901020FFF749FBC6A04EF69A
:101E40007D734FF47842142100901020FFF73FFB80
:101E50003A23712226210F20FFF7F8FAC2A04EF68E
:101E60007D734FF4FC62282100901020FFF72FFBB8
:101E70005823712244210F20FFF7E8FABEA04EF646
:101E80007D731F22462100901020FFF720FB762350
:101E9000712262210F20FFF7D9FABBA04EF67D73A5
:101EA0004FF47842642100901020FFF710FBBAA095
:101EB0004EF67D734FF478428C2100901020FFF78E
:101EC00006FBB74840794EF67D734FF478427D218A
:101ED00000906420FFF7B3FC4FF47A7000F0EAF949
:101EE000AF4800794EF67D734FF478427D21009023
:101EF0006420FFF7A4FC4FF47A7000F0DBF9A848E7
:101F0000C0784EF67D734FF478427D2100906420B6
:101F1000FFF795FC4FF47A7000F0CCF9A048807878
:101F20004EF67D734FF478427D2100906420FFF7D8
:101F300086FC4FF47A7000F0BDF9994840784EF66F
:101F40007D734FF478427D2100906420FFF777FC89
:101F50004FF47A7000F0AEF9914800784EF67D7338
:101F60004FF478427D2100906420FFF768FC08BDA3
:101F7000F8B500244EF67D70FFF713FF89A04EF6EA
:101F80007D734FF47842142100901020FFF79FFAE0
:101F90004FF47A7000F08EF94EF67D70FFF701FF76
:101FA00000BF21E0032094FBF0F040011E3085B219
:101FB000032094FBF0F100FB114000EB80004FF692
:101FC000FF7101EAC0067649601C085C4EF67D731D
:101FD0004FF47842294600903046FFF730FC6420E9
:101FE00000F068F9601CC4B20A2CDBDBF8BD08B550
:101FF0004EF67D70FFF7D5FE5FA04EF67D731F2273
:102000000A2100901020FFF762FA4FF47A7000F076
:1020100051F94EF67D70FFF7C4FE4BA04EF67D736E
:102020004FF478421E2100901020FFF750FA60A074
:102030004EF67D731F22322100901020FFF747FAE1
:102040005FA04EF67D734FF4784246210090102039
:10205000FFF73DFA5EA04EF67D731F2264210090CB
:102060000020FFF734FA5EA04EF67D734FF47842FD
:10207000822100900020FFF72AFA40F2DC5000F0A5
:1020800019F908BD10B54FF47840FFF78AFE40F605
:10209000980000F00FF910BD2DE9F84307464EF601
:1020A0007D70FFF77EFE38A04EF67D731F220A2159
:1020B00000901020FFF70BFA4FF47A7000F0FAF856
:1020C0004EF67D70FFF76DFE002633E000252EE012
:1020D00006EB860C4FEACC0C0CF1270C1FFA8CF3A4
:1020E00005EB850C4FEACC0C0CF1270C1FFA8CF297
:1020F00006EB860C4FEACC4C4FEA1C4105EB850CF5
:102100004FEACC4C4FEA1C40FFF724FE00240AE0C3
:1021100017F8149007EB440090F8018049EA082072
:10212000FFF7CDFC641CB4F5C86FF1DB6D1C062D08
:10213000CEDB761C082EC9DBBDE8F88310B5FFF7AF
:10214000E3FCFFF79FFF10BDC8ABB6AFB5E7D7D331
:10215000BCBCCAF500000000D2BABEA7B2E2CAD425
:10216000B3CCD0F200000000D1D5C9ABCCEEB3E4C3
:10217000B2E2CAD400000000CEC4D7D6CFD4CABEC3
:10218000B2E2CAD400000000CDBCC6ACCFD4CABEF7
:10219000B2E2CAD40000000057656C636F6D650041
:1021A0001E0000204E756D20546573740000000001
:1021B000D7A8D7A2D2BABEA7C5FAB7A2000000001E
:1021C000C8ABB3CCBCBCCAF5D6A7B3D600000000E0
:1021D00054656C3A3135393839333133353038005C
:1021E0007777772E7164746563682E6E657400006E
:1021F00010B504466FF0040000F092F9E11704EB0B
:102200005171C1F3C701394A11701046007800EBD3
:102210004001C1EBC0104FF6FF7101EAC000344924
:10222000088010BD0146314A12784A434FF0E0233E
:102230005A6100229A611A46126942F001021A613B
:1022400000BF4FF0E022106900F001021AB100F463
:102250008032002AF5D04FF0E022126922F001020C
:102260004FF0E0231A6100229A6170470146204A2C
:1022700012884A434FF0E0235A6100229A611A46BD
:10228000126942F001021A6100BF4FF0E0221069AA
:1022900000F001021AB100F48032002AF5D04FF0AC
:1022A000E022126922F001024FF0E0231A610022BD
:1022B0009A61704770B504464FF4077094FBF0F0D4
:1022C000C6B24FF4077094FBF0F100FB114085B2E9
:1022D00005E04FF40770FFF7C9FF701EC6B2002E6D
:1022E000F7D115B12846FFF7C1FF70BD28000020C7
:1022F0002A000020014600BF704700BF4C4A1288E8
:1023000002F04002002AF9D0C2B2494B9A807047CD
:1023100010B588B004460121084600F0DDFE012119
:10232000102000F033FF07220921424800F0EDFAA7
:1023300007220A213F4800F0E8FA4FF4C0600690F7
:1023400002208DF81C008DF81D0000208DF81E0065
:1023500001208DF81F0006A9364800F04BFA0294C0
:102360000020ADF80C00ADF80E00ADF81000ADF88F
:1023700014000C20ADF8120002A92D4801F067F8F6
:1023800001212B4801F0EBF8012240F225512848A9
:1023900001F09BF925208DF8040003208DF805003D
:1023A0008DF8060001208DF8070001A800F06BF8F9
:1023B00008B010BD10B540F225511D4801F0C0F91C
:1023C00010B31B4801F0FAF8C4B21B48008800F4AF
:1023D0000040C8B91848008800F4804060B10A2C59
:1023E00003D000201449088020E01348008840F4FE
:1023F00000401149088019E00D2C06D10E480088D4
:1024000040F480400C49088010E00B480088C0F37D
:102410000D000A490C5408480088401C06490880F1
:1024200008460088C72801DD0020088010BD000094
:102430000010014000000240300000209A010020FE
:102440000948804709480047FEE7FEE7FEE7FEE748
:10245000FEE7FEE7FEE7FEE7FEE7FEE70448054984
:10246000034A054B704700004D040008890100082D
:10247000C8020020C8060020C802002032490143DB
:10248000324A1160704770B5002100230F22C478D2
:102490001CB32E4C246804F4E064C4F5E064C4F377
:1024A0000721C1F10404E3B20A4144789C40E1B23F
:1024B0008478144021430C07210E254C0578615582
:1024C000047804F01F050124AC4005786D11AD00BF
:1024D00005F1E025C5F8004109E0047804F01F0586
:1024E0000124AC401B4D0678761145F8264070BD9E
:1024F000194A0A400243154B1B1F1A60704739B135
:10250000124A121D12680243104B1B1D1A6006E08E
:102510000E4A121D126882430C4B1B1D1A60704735
:10252000042808D14FF0E021096941F004014FF07F
:10253000E022116107E04FF0E021096921F0040178
:102540004FF0E022116170470000FA050CED00E049
:1025500000E400E080E100E080FFFF1F002061490F
:102560000860C8601F20486100208861C861086257
:102570004862704700215B4A126844F201039A43A3
:10258000584B1A601A46116840F6F272914302885D
:1025900043881A4383881A43C3881A4303891A431A
:1025A00043891A4383891A4311434E4A1160704785
:1025B0000021018041808180C18001814181818130
:1025C00070474188028841EA0241464A1162C18847
:1025D000828841EA0241434A5162704730B1414921
:1025E000096841F004013F4A116005E03D4909686E
:1025F00021F004013B4A116070470178427841EABA
:102600000221827841EA0241C27841EA0261354AF8
:102610009161704730B13349096841F00801314A8E
:10262000116005E02F49096821F008012D4A116069
:10263000704730B12B49096841F48041294A116043
:1026400005E02849096821F48041264A1160704755
:1026500030B12449096841F00101224A116005E0C6
:102660002049096821F001011E4A116070471D4888
:10267000806A704729B11B4AD2680243194BDA605D
:1026800006E0184AD268C3439BB21A40154BDA6081
:10269000704710B50146002000230A1312B9114CEF
:1026A000A36806E0022A02D10E4C636801E00D4CDB
:1026B000236903EA01040CB1012000E0002010BDF1
:1026C000084948617047014600200022054B1B69FC
:1026D00003EA01020AB1012000E00020704701492D
:1026E000486170470000055010B504469848844280
:1026F00008D10121084600F05AFD0021012000F018
:1027000056FD76E09348844208D10121022000F072
:102710004EFD0021022000F04AFD6AE08E4884420E
:1027200008D10121042000F042FD0021042000F026
:102730003EFD5EE08948844208D10121082000F076
:1027400036FD0021082000F032FD52E0844884422A
:1027500008D10121102000F02AFD0021102000F0F6
:1027600026FD46E07F48844208D10121202000F068
:102770001EFD0021202000F01AFD3AE07A48844234
:1027800008D10121402000F012FD0021402000F07E
:102790000EFD2EE07548844208D10121802000F012
:1027A00006FD0021802000F002FD22E070488442F6
:1027B00008D10121801500F0FAFC0021A01500F0DD
:1027C000F6FC16E06B48844208D10121401500F068
:1027D000EEFC0021601500F0EAFC0AE06648844245
:1027E00007D10121001500F0E2FC0021201500F0C6
:1027F000DEFC10BDF0B50A4600210023002400BF16
:102800003DE0012505FA01F3156805EA03049C4241
:1028100034D105684F000326BE40B54305601579E5
:102820004E00B5400668354305601579012D02D08C
:102830001579022D16D185684F000326BE40B54399
:10284000856055794E00B54086683543856045689A
:1028500001268E40B5434560456896798E40B6B2F4
:1028600035434560C5684F000326BE40B543C5608B
:10287000D5794E00B540C6683543C560491C10295E
:10288000BFD3F0BD4FF6FF710160002101714171AE
:102890008171C171704708B54FF480320092009A7F
:1028A0000A430092009AC261C161009AC261C26982
:1028B0000092C269009208BD0246002013690B40D5
:1028C0000BB1012000E0002070470146086980B28A
:1028D00070470246002053690B400BB1012000E015
:1028E000002070470146486980B2704701837047F5
:1028F000418370470AB1018300E041837047416121
:10290000704742694A4042617047F0B50023002495
:102910004D07ED0E02FA05F3CE1000F1200555F833
:1029200026504E07F70E0F26BE40B543CF1000F1DC
:10293000200646F82750CE1000F1200555F8265005
:1029400045EA0304CE1000F1200545F82640F0BD0D
:10295000000002400004024000080240000C024057
:10296000001002400014024000180240001C024007
:10297000002002400024024000280240016821F0AB
:10298000010101600021016041608160C16001615D
:1029900021214161DB49884204D13D21D94A103AC5
:1029A00091608CE0D7491831884205D14FF47461A9
:1029B000D44A103A916082E0D2493031884205D140
:1029C0004FF47411CF4A103A916078E0CD49483104
:1029D000884205D14FF07461CA4A103A91606EE0A6
:1029E000C8496031884204D1C749C64A103AD1600B
:1029F00065E0C4497831884204D1C449C14A103ADB
:102A0000D1605CE0BF499031884204D1C049BD4AE1
:102A1000103AD16053E0BB49A831884205D14FF04C
:102A20003D51B84A103AD16049E0BA49884204D1D0
:102A30003D21B84A083A116041E0B6491831884250
:102A400005D14FF47461B34A083A116037E0B149D7
:102A50003031884205D14FF47411AE4A083A116002
:102A60002DE0AC494831884205D14FF07461A94A44
:102A7000083A116023E0A7496031884204D1A24995
:102A8000A44A121F11601AE0A2497831884204D189
:102A90009E49A04A121F116011E09E499031884260
:102AA00004D19B499B4A121F116008E09949A83143
:102AB000884204D14FF03D51964A121F1160704771
:102AC00010B500220268944B1A40CC680B6823436F
:102AD0004C6923438C692343CC6923430C6A234309
:102AE0004C6A23438C6A23434C6B23438C6B2343F4
:102AF0001A430260426922F00702D1E90B342343F2
:102B00001A4342610B6943604B6883608B68C36002
:102B100010BD0021016041608160C16001614161BF
:102B20008161C161016241628162C162016341638D
:102B30008163704721B1026842F00102026003E044
:102B4000026822F001020260704721B1026842F47B
:102B50000042026003E0026822F400420260704713
:102B600021B1026842F02002026003E0026822F014
:102B7000200202607047416070470146486880B299
:102B8000704722B1036843F40023036003E0036845
:102B900023F4002303600161704721B1026842F40D
:102BA0008022026003E0026822F480220260704703
:102BB0000AB1016100E0C1607047014600200A6867
:102BC00002F400220AB1012000E000207047014613
:102BD00000200A6802F001020AB1012000E0002092
:102BE0007047014600204A6902F03800704730B54E
:102BF00003460A4600200024464DAB4202D241491A
:102C0000103901E04349103902F000550DB14C680C
:102C100000E00C68414D2C4004EA02050DB1012092
:102C200000E0002030BD02463A4B9A4202D23548BD
:102C3000103801E03748103801F000531BB1374B12
:102C40000B40C36002E0354B0B408360704710B50A
:102C500001F080034BB122B1436943F0800343612B
:102C600003E0436923F08003436180290BD02AB13C
:102C7000036801F01E042343036004E0036801F0CD
:102C80001E04A343036010BD70B50246002000245B
:102C90000025204EB24202D21A4B103B01E01D4BE0
:102CA000103B1F4E0E4036B11E2606EAD124166890
:102CB00006EA040502E0566906F0800501F00056B8
:102CC0000EB15C6800E01C68144E344004EA010652
:102CD00016B10DB1012000E0002070BD02460D4B81
:102CE0009A4202D20748103801E00A48103801F031
:102CF00000531BB1094B0B40C36002E0074B0B4074
:102D000083607047106002403D000020400F0020AB
:102D100000003D20106402403F801CF07D0F7D0FBD
:102D20003C0F3C0FF948006840F00100F74908608B
:102D30000020F64908310860F4480068F44908406A
:102D4000F2490860F348091D0860F348EF498431EF
:102D50000860F0481038091D0860EC48006820F44D
:102D60008020EA4908600020E8490C310860E74902
:102D70008C31086070470021E44A921C11701146A2
:102D80000870704710B501460022002300204A1148
:102D9000012A02D1DD4C236808E0022A03D1DB4C72
:102DA0007034236802E0D94C7434236801F01F02A8
:102DB000012494401C400CB1012000E0002010BD13
:102DC00038B5002000900024002500BF3120FFF717
:102DD000D9FF05460098401C00900098B0F5A04F20
:102DE00001D0002DF2D03120FFF7CCFF08B1012433
:102DF00000E00024204638BD01460020C34A106888
:102E000020F0F80040EAC10010607047C349086034
:102E100070470021BD4A703211701170012802D034
:102E200004280AD104E00121B84A7032117005E08B
:102E30000521B64A7032117000E000BF00BF704734
:102E4000B7490860704770B5049C41EA82150126B5
:102E5000C6EB530645EA0645054345EA0465AB4E15
:102E6000361D356070BDAD4908667047820142EA83
:102E70000172A64B84331A607047A8498866704770
:102E800010B5830143EA016343EA02739F4C88341F
:102E9000236010BDA14908677047A049C864704706
:102EA00002460020994B0833186820F0EC6042EA93
:102EB00001031843954B0833186070470246002001
:102EC000924B0833186820F0784042EA0103184317
:102ED0008E4B083318607047014600208B4A083239
:102EE000106820F0030008431060704787480830DE
:102EF000006800F00C00704701460020834A083249
:102F0000106820F0F0000843106070470146002070
:102F10007E4A0832106820F4E05008431060704781
:102F200001460020794A0832106820F4604040EAE7
:102F3000C10010607047F0B5002100220024022576
:102F400000260223714F08373F6807F00C0121B1BA
:102F5000042905D0082937D105E0724F076036E013
:102F6000714F076033E0694F3F1D3F68C7F38056DC
:102F7000664F3F1D3F6807F03F036EB16A4FB7FBD6
:102F8000F3F7DFF888C10CF1040CDCF800C0CCF3D7
:102F9000881C07FB0CF40CE0624FB7FBF3F7DFF87B
:102FA0006CC10CF1040CDCF800C0CCF3881C07FBEE
:102FB0000CF4564F3F1D3F68C7F301477F1C7D004F
:102FC000B4FBF5F7076002E0564F076000BF00BF93
:102FD0004E4F08373F6807F0F0010909534F7A5CFC
:102FE0000768D7404760494F08373F6807F4E0510A
:102FF000890A4E4F7A5C4768D7408760434F08374D
:103000003F6807F46041490B484F7A5C4768D740F6
:10301000C760F0BD002100F44072B2F5407F0AD1D4
:103020003A4A0832116821F4F811414A024011432A
:10303000364A08321160354A70321268C0F30B0309
:103040001A43324B70331A6070473549443908606F
:103050007047334940390860704736490860704707
:1030600001460020294A8C32106820F01F004A1EB9
:103070001043264A8C321060704701460020234AD4
:103080008C32106820F4F8504A1E40EA02201F4A91
:103090008C3210607047014600201C4A8C32106848
:1030A00020F4401008431060704701460020174A82
:1030B0008C32106820F440000843106070470146CD
:1030C0000020124A8C32106820F44030084310600F
:1030D000704719490860704739B10C4A303212689C
:1030E00002430A4B30331A6006E0084A3032126855
:1030F0008243064B30331A607047F9B1034A3432C9
:1031000012680243014B34331A601CE0003802405D
:10311000FFFFF6EA10300024003000200000474294
:10312000800E47420024F40000127A003200002092
:10313000FFFCFF0F5C014742E01147428F4A1268D3
:1031400082438E4B1A60704739B18C4A121D126847
:1031500002438A4B1B1D1A6006E0884A121D126842
:103160008243864B1B1D1A60704739B1834A0C326B
:1031700012680243814B0C331A6006E07F4A0C321E
:10318000126882437D4B0C331A60704739B17B4A19
:10319000103212680243794B10331A6006E0774A06
:1031A000103212688243754B10331A60704739B180
:1031B000724A243A12680243704B243B1A6006E0BC
:1031C0006E4A243A126882436C4B243B1A60704763
:1031D00039B16A4A203A12680243684B203B1A60B0
:1031E00006E0664A203A12688243644B203B1A602C
:1031F000704739B1614A1C3A126802435F4B1C3B6D
:103200001A6006E05D4A1C3A126882435B4B1C3B25
:103210001A60704739B1594A143A12680243574B41
:10322000143B1A6006E0554A143A12688243534B25
:10323000143B1A60704739B1504A103A1268024381
:103240004E4B103B1A6006E04C4A103A126882431B
:103250004A4B103B1A60704739B1484A1C32126819
:103260000243464B1C331A6006E0444A1C32126883
:103270008243424B1C331A60704739B13F4A2032B7
:10328000126802433D4B20331A6006E03B4A20326D
:1032900012688243394B20331A60704739B1374A7C
:1032A000243212680243354B24331A6006E0334A55
:1032B000243212688243314B24331A60704739B18B
:1032C0002E4A2C32126802432C4B2C331A6006E033
:1032D0002A4A2C3212688243284B2C331A607047DA
:1032E00039B1264A303212680243244B30331A6017
:1032F00006E0224A303212688243204B30331A6093
:103300007047012808D11D493C31096841F0080186
:103310001A4A3C32116007E018493C31096821F033
:103320000801164A3C321160704739B1134A273AF6
:1033300012780243114B273B1A7006E00F4A273AD6
:10334000127882430D4B273B1A7070470B48403070
:10335000006840F0807009494031086070470146BC
:103360000020064A283A12680A400AB1012000E00B
:1033700000207047014926390870704734380240F0
:1033800010B50446FA48844208D101211020FFF705
:1033900052FF00211020FFF74EFF57E0F54884420E
:1033A00009D101214804FFF735FF00214FF4003017
:1033B000FFF730FF4AE0F048844209D10121880438
:1033C000FFF728FF00214FF48020FFF723FF3DE0A7
:1033D000EA48844209D10121C804FFF71BFF0021FC
:1033E0004FF40020FFF716FF30E0E548844209D192
:1033F00001210805FFF70EFF00214FF48010FFF7B1
:1034000009FF23E0DF48844208D101212020FFF793
:1034100012FF00212020FFF70EFF17E0DA48844258
:1034200009D101218807FFF7F5FE00214FF0804008
:10343000FFF7F0FE0AE0D548844207D1012140059C
:10344000FFF7E8FE00216005FFF7E4FE10BD2DE95F
:10345000FF4705460E460024A14600BFA046B0899E
:1034600000B100BF2C8A24F44054F08804432C821D
:10347000AC8941F20C608443B0883189084371897A
:1034800008430443AC81AC8A24F44074B0890443FB
:10349000AC826846FFF74FFDB548854202D0B94877
:1034A000854202D1DDF80C9001E0DDF80890A88992
:1034B00000F4004040B109EBC90000EB091031688D
:1034C0004900B0FBF1F707E009EBC90000EB091078
:1034D00031688900B0FBF1F76420B7FBF0F004011C
:1034E0002009642101FB1078A88900F4004040B154
:1034F000322000EBC800B0FBF1F000F007000443FD
:1035000008E0322000EB08106421B0FBF1F000F07D
:103510000F0004432C81BDE8FF874FF41651016072
:1035200000218180C18001810C21418100218181A4
:10353000704710B502460020108A20F470600B8896
:103540004C8823438C882343CC8823431843108220
:1035500010BD0021018041808180C180704721B170
:10356000828942F40052828104E082894DF6FF7321
:103570001A4082817047028B02F47F420283028BE1
:103580000A430283704721B1828942F4004282815A
:1035900003E08289C2F30E028281704721B1828AE0
:1035A00042F40062828204E0828A4FF2FF731A4082
:1035B00082827047C1F30802828070470146888882
:1035C000C0F308007047028A4FF6F0731A40028277
:1035D000028A0A430282704721B1828942F00202C4
:1035E000828104E082894FF6FD731A408281704720
:1035F00082894FF2FF731A40828182890A43828155
:103600007047028A4FF6DF731A400282028A0A4329
:103610000282704721B1028A42F48042028204E0B1
:10362000028A4BF6FF731A4002827047818941F08B
:1036300001018181704721B1828A42F008028282B1
:1036400004E0828A4FF6F7731A4082827047028B39
:10365000D2B20283028B42EA01220283704721B177
:10366000828A42F02002828204E0828A4FF6DF736F
:103670001A408282704721B1828A42F0100282820F
:1036800004E0828A4FF6EF731A4082827047828A82
:103690004FF6FB731A408282828A0A438282704705
:1036A00021B1828A42F00202828204E0828A4FF6CD
:1036B000FD731A40828270471AB1838A0B4383825A
:1036C00002E0838A8B4383827047F0B5034600246F
:1036D00000260025002040F66A17B94200D100BF3D
:1036E0001846C1F3421401F01F06012707FA06F538
:1036F000012C01D10C3004E0022C01D1103000E08B
:1037000014301AB107682F43076002E00768AF431F
:103710000760F0BD02460020B1F5007F00D100BF78
:1037200013880B400BB1012000E00020704701F42A
:103730000072B2F5007F00D100BFCA43028070471B
:1037400070B50246002400230025002040F66A16CA
:10375000B14200D100BFC1F3421501F01F030126A1
:1037600006FA03F3012D13D19689334017E00000C8
:10377000001001400044004000480040004C004060
:10378000005000400014014000780040007C0040E0
:10379000022D02D1168A334001E0968A33400C1282
:1037A000012606FA04F41688344013B10CB1012046
:1037B00000E0002070BD10B50022002340F66A141E
:1037C000A14200D100BF0A1201249440A3B2DC43FD
:1037D000048010BD10B50446FE48844208D1012182
:1037E0000846FFF728FD00210120FFF724FD9DE09A
:1037F000B4F1804F08D101210846FFF70BFD0021ED
:103800000120FFF707FD91E0F348844208D1012130
:103810000220FFF7FFFC00210220FFF7FBFC85E000
:10382000EE48844208D101210420FFF7F3FC002177
:103830000420FFF7EFFC79E0E948844208D1012138
:103840000820FFF7E7FC00210820FFF7E3FC6DE00C
:10385000E448844208D101211020FFF7DBFC00215D
:103860001020FFF7D7FC61E0DF48844208D1012136
:103870002020FFF7CFFC00212020FFF7CBFC55E0F4
:10388000DA48844208D101210220FFF7D4FC00214C
:103890000220FFF7D0FC49E0D548844209D101213C
:1038A0000804FFF7C8FC00214FF48030FFF7C3FC89
:1038B0003CE0D048844209D101214804FFF7BBFC19
:1038C00000214FF40030FFF7B6FC2FE0CA488442D5
:1038D00009D101218804FFF7AEFC00214FF48020BC
:1038E000FFF7A9FC22E0C548844208D1012140200D
:1038F000FFF790FC00214020FFF78CFC16E0C04849
:10390000844208D101218020FFF784FC002180201F
:10391000FFF780FC0AE0BB48844207D101218015F3
:10392000FFF778FC0021A015FFF774FC10BD002202
:103930000288A84B98420ED0AC4B98420BD0B0F105
:10394000804F08D0A44B984205D0A44B984202D097
:10395000A34B984204D14FF68F731A404B881A43F9
:10396000A04B984207D0A04B984204D04FF6FF439B
:103970001A400B891A4302804B68C3620B88038587
:10398000944B984202D0994B984201D18B7A03868E
:103990000123838270474FF0FF3141600021018095
:1039A00001814180817270470185828270470A4699
:1039B000002101884FF68F73194011430180704731
:1039C00041627047C16270470146486A70470146CC
:1039D000088D704721B1028842F00202028004E0A3
:1039E00002884FF6FD731A400280704721B10288A9
:1039F00042F00402028004E002884FF6FB731A4092
:103A00000280704721B1028842F08002028004E007
:103A100002884FF67F731A400280704702884FF683
:103A2000F7731A40028002880A43028070470288B6
:103A30004FF6FF431A40028002880A430280704713
:103A400021B1028842F00102028004E002884FF6B0
:103A5000FE731A400280704770B5002400220023D4
:103A6000058C4FF6FE7635400584028C8388048BE6
:103A70004FF68F752C40B51E2C400D882C43751EBB
:103A80002A408D892A434D882A43524DA84202D0AC
:103A9000564DA84213D14FF6F7752A40CD892A43D7
:103AA0004FF6FB752A408D882A434FF6FF652B4061
:103AB0004FF6FF552B400D8A2B434D8A2B438380B5
:103AC00004838D684563028470BD70B500240022B4
:103AD0000023058C4FF6EF7635400584028C8388F1
:103AE000048B48F6FF752C404FF6FF452C400D889F
:103AF0004FF6FF7606EA05252C434FF6DF752A4080
:103B00008D8906EA05152A434D8806EA05152A43DC
:103B1000304DA84202D0354DA8421DD14FF67F75D9
:103B20002A40CD894FF6FF7606EA05152A434FF65F
:103B3000BF752A408D8806EA05152A434FF6FF35E2
:103B40002B404FF2FF752B400D8A06EA85052B436B
:103B50004D8A06EA85052B43838004838D6885633F
:103B6000028470BD70B5002400220023058C4FF63E
:103B7000FF6635400584028C8388848B4FF68F75F1
:103B80002C404FF6FC752C400D882C434FF6FF550A
:103B90002A408D894FF6FF7606EA05252A434D888F
:103BA00006EA05252A430B4DA84202D00F4DA84234
:103BB00038D14FF2FF752A40CD894FF6FF7606EADD
:103BC00005252A434FF6FF352A408D8806EA05254C
:103BD0002A4319E0000001400004004000080040B2
:103BE000000C0040001000400014004000040140A0
:103BF00000400140004401400048014000180040DE
:103C0000001C0040002000404EF6FF752B404DF692
:103C1000FF752B400D8A06EA05152B434D8A06EAEF
:103C200005152B43838084838D68C563028470BD32
:103C300070B5002200230024058C4EF6FF76354037
:103C40000584038C8488828B48F6FF752A404FF6E2
:103C5000FF452A400D884FF6FF7606EA05252A43E0
:103C60004DF6FF752B408D8906EA05352B434D88AF
:103C700006EA05352B43FE4DA84202D0FD4DA84271
:103C800008D14BF6FF752C400D8A4FF6FF7606EAF9
:103C900085152C43848082838D680564038470BD00
:103CA000002101804180818081608181C181018208
:103CB0004182704770B50346002000241846183032
:103CC00001258D40ACB21D8CA5431D8409B1082986
:103CD0000AD100EB610005684FF68F76354005602C
:103CE0000568154305600FE00D1FC5F34E05284418
:103CF000056848F6FF763540056005684FF6FF76A3
:103D000006EA02263543056070BD41637047816352
:103D10007047C1637047016470470A460021018BF8
:103D20004FF68F7319401143018370470A460021F3
:103D3000018B48F6FF7319404FF6FF7303EA022325
:103D40001943018370470A460021818B4FF68F7318
:103D500019401143818370470A460021818B48F640
:103D6000FF7319404FF6FF7303EA0223194381835F
:103D700070470A460021018B4FF6F7731940114333
:103D8000018370470A460021018B4FF2FF731940EF
:103D90004FF6FF7303EA02231943018370470A4673
:103DA0000021818B4FF6F7731940114381837047CF
:103DB0000A460021818B4FF2FF7319404FF6FF73C3
:103DC00003EA02231943818370470A460021018BCD
:103DD0004FF6FB7319401143018370470A460021D7
:103DE000018B4FF6FF3319404FF6FF7303EA0223AE
:103DF0001943018370470A460021818B4FF6FB73FC
:103E000019401143818370470A460021818B4FF688
:103E1000FF3319404FF6FF7303EA022319438183EE
:103E200070470A460021018B4FF67F7319401143FA
:103E3000018370470A460021018BC1F30E014FF642
:103E4000FF7303EA02231943018370470A460021E6
:103E5000818B4FF67F7319401143818370470A4667
:103E60000021818BC1F30E014FF6FF7303EA022399
:103E70001943818370470A460021018C4FF6FD7378
:103E800019401143018470470A460021018C4FF606
:103E9000F77319401143018470470A460021018CD1
:103EA0004FF6DF7319404FF6FF7303EA021319430D
:103EB000018470470A460021018C4FF67F73194038
:103EC0004FF6FF7303EA02131943018470470A4651
:103ED0000021018C4FF6FF5319404FF6FF7303EAA0
:103EE00002231943018470470A460021018C4FF2D6
:103EF000FF7319404FF6FF7303EA0223194301844D
:103F000070470A460021018C4DF6FF7319404FF6A9
:103F1000FF7303EA023319430184704730B500236D
:103F200001248C40A3B2048C9C430484048C02FAC8
:103F300001F5ADB22C43048430BD30B50023042418
:103F40008C40A3B2048C9C430484048C02FA01F5D7
:103F5000ADB22C43048430BD828B4FF2FF331A4044
:103F60008283828B4FF6FF7303EA01231A43828315
:103F70007047F0B50C461546002100220026078C3C
:103F80004EF6FF7C07EA0C070784818B028C4FF604
:103F9000FF7707EA043640F6FF4739404FF6FF77D0
:103FA00007EA052739434FF6FF7707EA0337394316
:103FB00045F6FF773A4046F480573A4381830284BE
:103FC000F0BD828B4FF6F3731A408283828B0A43D3
:103FD00082837047F0B50C4615460021002200266A
:103FE000078C4FF6FF6C07EA0C070784818B028C65
:103FF0004FF6FF7707EA04264FF60C7739404FF665
:10400000FF7707EA03172F4339434FF2FF573A4030
:1040100046F480773A4381830284F0BD028B4FF2ED
:10402000FF331A400283028B4FF6FF7303EA01232A
:104030001A4302837047F0B50C4615460021002252
:104040000026078C4FF6EF7C07EA0C070784018BEC
:10405000028C4FF6FF7707EA041640F6FF47394017
:104060004FF6FF7707EA033739434FF6FF7703E050
:10407000000001400004014007EA052739434FF6DC
:104080005F773A4046F010073A4301830284F0BD5F
:10409000028B4FF6F3731A400283028B0A430283AA
:1040A0007047F0B50C46154600210022068C4FF6ED
:1040B000FE773E400684018B028C4FF60C76314031
:1040C0007E1C06EA03162E4331434FF6F576324046
:1040D00044F00106324301830284F0BD70B5054609
:1040E0000C46208850B92389A28861882846FFF7AA
:1040F000D8FFE1882846FFF7CBFF25E02088042879
:104100000AD12389A28861882846FFF794FFE188B5
:104110002846FFF783FF17E0208808280AD1238963
:10412000A28861882846FFF755FFE1882846FFF7F7
:1041300048FF09E02389A28861882846FFF719FF14
:10414000E1882846FFF708FF70BD0021018041800B
:10415000012181800021C180018170472DE9F0415A
:1041600005460C4600260127608808B9022600E0B3
:104170000026A088012801D1022700E0012720881D
:10418000A0B92389A28861882846FFF78AFFE188C1
:104190002846FFF77DFF23893A4631462846FFF738
:1041A0004AFFE1882846FFF739FF13E02389A288F8
:1041B00061882846FFF73FFFE1882846FFF72EFF7A
:1041C00023893A4631462846FFF76BFFE1882846A7
:1041D000FFF75EFFBDE8F0810146486B704701467E
:1041E000886B70470146C86B70470146086C704782
:1041F0000A884B881A438B881A43CB881A430B8949
:104200001A434B891A438B891A43A0F844207047FC
:104210000021018041808180C180018141818181B3
:10422000704731B1B0F8442042F40042A0F8442075
:1042300005E0B0F84420C2F30E02A0F84420704715
:1042400021B1828842F00402828004E082884FF625
:10425000FB731A408280704721B1828842F00102CC
:10426000828004E082884FF6FE731A408280704795
:104270001AB183890B43838102E083898B43838155
:1042800070478182704702460020138A0B400BB1B1
:10429000012000E000207047CA430282704730B519
:1042A0000246002000230024158A05EA01039589AF
:1042B00005EA010413B10CB1012000E0002030BD7B
:1042C000CA430282704741EA0203A0F848307047AF
:1042D0001AB183890B43838102E083898B438381F5
:1042E000704721B1828842F00802828004E082880F
:1042F0004FF6F7731A408280704701894FF6F872C3
:104300001140018170470A46002101894FF68F73E1
:10431000194011430181704730B504460D462946C6
:104320002046FFF7F0FF208940F00700208130BDD4
:104330002DE9F04104460D4616461F46602D06D174
:104340003B46012231462046FFF775FE05E03B461D
:10435000012231462046FFF7A4FE29462046FFF7FA
:10436000D2FF208940F007002081BDE8F08130B500
:104370000C4600210189C9B24FF6FF7505EA0325F5
:10438000154325432943018130BD2DE9F041054600
:104390000E4617469846002443463A46314628467C
:1043A000FFF7E5FF2C894FF6F870044044F007044E
:1043B0004FF68F70044044F070042C81BDE8F0810A
:1043C000F0B504460D4616461F463B463246294682
:1043D0002046FFF7CCFF208940F480402081F0BDCB
:1043E00082884FF68F731A40828082880A438280C7
:1043F000704702894FF6F8731A40028102890A4316
:104400000281704702894FF67F731A400281028948
:104410000A4302817047F0B50C4615461E4600213E
:10442000002200230189028B038C4FF6F877394074
:1044300021434FF6FC473A4040F201173A434FF60A
:10444000DD773B404FF6FF7707EA06172F433B43E4
:10445000018102830384F0BD21B1828842F0800291
:10446000828004E082884FF67F731A408280704712
:10447000A0F850107047000010B50446FB48844275
:1044800008D101218014FEF7D6FE0021A014FEF70A
:10449000D2FE3CE0F648844208D101210014FEF728
:1044A000B9FE00212014FEF7B5FE30E0F148844249
:1044B00008D10121C013FEF7ADFE0021E013FEF785
:1044C000A9FE24E0EC48844208D101214014FEF703
:1044D000B2FE00216014FEF7AEFE18E0E748844209
:1044E00009D101210805FEF7A6FE00214FF4801036
:1044F000FEF7A1FE0BE0E248844208D10121480505
:10450000FEF799FE00214FF40010FEF794FE10BD57
:1045100010B50022028802F441520B884C882343D4
:104520008C882343CC8823430C8923434C89234321
:104530008C892343CC8923431A430280838B4FF217
:10454000FF74234083830B8A038210BD2DE9F04F53
:104550000025022300244FF0010900220026002735
:1045600094469046B0F81CA04FF2400B0AEA0B0AA2
:10457000A0F81CA04FF0020AA0F820A0858BD1F86B
:1045800008A0BAF1020F01D100BF82E0B1F804A087
:10459000BAF1000F02D14FF0010901E04FF002091A
:1045A000DFF8E0A2DAF800A00AF4000ABAF1000F7E
:1045B00009D0DFF8D0A2DAF800A02AF4000ADFF868
:1045C000C4B2CBF800A0DFF8BCA20AF17C0ADAF88A
:1045D00000A0CAF3881CDFF8ACA20AF17C0ADAF862
:1045E00000A0CAF30278DFF89CA2AAF1040ADAF864
:1045F00000A00AF03F07DFF88CA2AAF1040ADAF85B
:1046000000A00AF4800ABAF5800F08D1DFF878A27A
:10461000BAFBF7FA0AFB0CFABAFBF8F607E0DFF888
:104620006CA2BAFBF7FA0AFB0CFABAFBF8F6B1F87F
:1046300006A0BAF5007F0ED14FEA162A0AEB8A0AC5
:104640004FEA4A0AD1F808B0BAFBFBFA0AF1050AA8
:104650001FFA8AF20FE04FEA491AB6FBFAFA0AEBA0
:104660008A0A4FEA4A0AD1F808B0BAFBFBFA0AF103
:10467000050A1FFA8AF24FF00A0AB2FBFAF202F0B8
:104680000104A2EB040ACAF34F034FF6FF7A0AEAC9
:104690000424022B01DBFF2B01DD02230024B1F8EF
:1046A00006A04AEA040A4AEA030AA0F820A0B1F8E0
:1046B00004A0B1F80CB04AEA0B0AB1F802B04AEA19
:1046C0000B0AB1F800B04AEA0B0A4AF4006A4AEA57
:1046D00005058583BDE8F08F002101804180818040
:1046E000C180018141818181C1810721018270479F
:1046F0000021018041808180C180022181600021F0
:104700008181704721B1028842F04002028004E0BA
:1047100002884FF6BF731A400280704721B1828B26
:1047200042F48062828304E0828B4FF6FF331A40AA
:104730008283704702884FF2FF731A40028002881A
:104740000A4302807047B1F5804F04D1028842F4D9
:104750008042028004E002884BF6FF731A40028018
:1047600070474FF6FF62914204D0028842F4807293
:10477000028004E002884FF6FF631A40028070470F
:1047800021B1828842F00402828004E082884FF6E0
:10479000FB731A408280704721B1828842F0100278
:1047A000828004E082884FF6EF731A40828070475F
:1047B00030B500220023848B4FF240052C408483C7
:1047C00002240484828B0C88B4F5007F01D00C880D
:1047D00014B94FF4807308E00C88B4F5407F03D01F
:1047E0000C88B4F5807F00D100238C888D892C4300
:1047F0004D882C431C4344F400642243828330BD23
:104800000146888970478181704721B1028842F44E
:104810000052028004E002884DF6FF731A400280C5
:104820007047018841F480510180704702460020A2
:10483000012901D0108B00E0908A70470146088A58
:1048400070471AB183880B43838002E083888B43CF
:104850008380704730B5002400230C110125A5404A
:10486000ABB2AAB185881D43858014E000300140B9
:1048700000380040003C004000340140005001403E
:10488000005401400838024000127A000024F4006D
:1048900085889D43858030BD0246002013890B40EA
:1048A0000BB1012000E000207047CA43028170472D
:1048B000F0B50246002000240023002501F00F0778
:1048C0000126BE40B4B20B1101269E40B3B29688B9
:1048D00006EA03051689264016B10DB1012000E055
:1048E0000020F0BD10B5002201F00F040123A34009
:1048F0009AB2D343038110BD10B58CB004461E2379
:104900000BAA03A9204600F0A9FE0090009810B160
:1049100001200CB010BD9DF82C00044400200B9029
:104920000EE040489DF82C2050F8221003A800F01B
:10493000FDFD00B908E09DF82C00401CC0B20B90B2
:104940009DF82C000728ECD300BF9DF82C00072809
:1049500063D2DFE800F004053C5E6564630000BFDD
:1049600031A001F079F831A001F076F83FA001F014
:1049700073F84EA001F070F85CA001F06DF86BA028
:1049800001F06AF879A001F067F886A001F064F8F8
:104990008BA001F061F890A001F05EF894A001F006
:1049A0005BF899A001F058F89EA001F055F8A4A07A
:1049B00001F052F8B0A001F04FF8BDA001F04CF8A2
:1049C000C8A001F049F8D4A001F046F89AE216A078
:1049D00001F042F8E0A001F03FF800200B900EE05B
:1049E000ED4800689DF82C2000EBC2004168EBA068
:1049F00001F032F89DF82C00401CC0B20B90E64844
:104A0000007D9DF82C108842EADC07A001F024F814
:104A100078E205A001F020F8C4E171E245E219E274
:104A2000ECE10000440000200D0A00002D2D2D2D8A
:104A30002D2D2D2D2D2D2D2D2D2D2D2D2D2D2D2DA6
:104A40002D2D2D2D55534D4152542056332E312DA1
:104A50002D2D2D2D2D2D2D2D2D2D2D2D2D2D2D2D86
:104A60002D2D2D2D2D2D2D200D0A00002020202054
:104A700055534D415254CAC7D3C9414C49454E5470
:104A8000454BBFAAB7A2B5C4D2BBB8F6C1E9C7C9E6
:104A9000B5C4B4AEBFDAB5F7CAD4BBA5BDBBD7E9C0
:104AA000BCFE2CCDA8B9FD200D0A0000CBFC2CC407
:104AB000E3BFC9D2D4CDA8B9FDB4AEBFDAD6FACA25
:104AC000D6B5F7D3C3B3CCD0F2C0EFC3E6B5C4C8F4
:104AD000CEBACEBAAFCAFD2CB2A2D6B4D0D02ED2A6
:104AE000F2B4CB2CC4E3BFC90D0A0000D2D4CBE68C
:104AF000D2E2B8FCB8C4BAAFCAFDB5C4CAE4C8EBC8
:104B0000B2CECAFD28D6A7B3D6CAFDD7D628313033
:104B10002F3136BDF8D6C629A1A2D7D6B7FBB4AE81
:104B2000A1A2BAAFCAFDC8EB0D0A0000BFDAB5D822
:104B3000D6B7B5C8D7F7CEAAB2CECAFD292CB5A52F
:104B4000B8F6BAAFCAFDD7EEB6E0D6A7B3D63130C5
:104B5000B8F6CAE4C8EBB2CECAFD2CB2A2D6A7B34F
:104B6000D6BAAFCAFDB7B5200D0A0000BBD8D6B57E
:104B7000CFD4CABE2ED0C2D4F6B2CECAFDCFD4CACC
:104B8000BEBDF8D6C6C9E8D6C3B9A6C4DC2CD0C20F
:104B9000D4F6BDF8D6C6D7AABBBBB9A6C4DC2E0DC9
:104BA0000A000000BCBCCAF5D6A7B3D63A7777771F
:104BB0002E6F70656E6564762E636F6D0D0A000052
:104BC00055534D415254D3D037B8F6CFB5CDB3C3BA
:104BD000FCC1EE3A0D0A00003F3A202020202020A0
:104BE000BBF1C8A1B0EFD6FAD0C5CFA20D0A000024
:104BF00068656C703A202020BBF1C8A1B0EFD6FAEE
:104C0000D0C5CFA20D0A00006C6973743A20202031
:104C1000BFC9D3C3B5C4BAAFCAFDC1D0B1ED0D0A87
:104C20000A00000069643A2020202020BFC9D3C3B5
:104C3000BAAFCAFDB5C44944C1D0B1ED0D0A0A00EE
:104C40006865783A20202020B2CECAFD3136BDF802
:104C5000D6C6CFD4CABE2CBAF3B8FABFD5B8F12B9A
:104C6000CAFDD7D6BCB4D6B4D0D0BDF8D6C6D7AA64
:104C7000BBBB0D0A0A0000006465633A20202020B7
:104C8000B2CECAFD3130BDF8D6C6CFD4CABE2CBA1A
:104C9000F3B8FABFD5B8F12BCAFDD7D6BCB4D6B499
:104CA000D0D0BDF8D6C6D7AABBBB0D0A0A000000FB
:104CB00072756E74696D653A312CBFAAC6F4BAAFCD
:104CC000CAFDD4CBD0D0BCC6CAB13B302CB9D8B108
:104CD000D5BAAFCAFDD4CBD0D0BCC6CAB13B0D0A41
:104CE0000A000000C7EBB0B4D5D5B3CCD0F2B1E028
:104CF000D0B4B8F1CABDCAE4C8EBBAAFCAFDC3FBB1
:104D0000BCB0B2CECAFDB2A2D2D4BBD8B3B5BCFC43
:104D1000BDE1CAF82E0D0A002D2D2D2D2D2D2D2D86
:104D20002D2D2D2D2D2D2D2D2D2D2D2D2D2D2D2DB3
:104D30002D2D414C49454E54454B2D2D2D2D2D2DBE
:104D40002D2D2D2D2D2D2D2D2D2D2D2D2D2D2D2D93
:104D50002D2D2D200D0A00002D2D2D2D2D2D2D2D2D
:104D60002D2D2D2D2D2D2D2D2D2D2D2D2D2D2D2D73
:104D70002DBAAFCAFDC7E5B5A52D2D2D2D2D2D2D95
:104D80002D2D2D2D2D2D2D2D2D2D2D2D2D2D2D2D53
:104D90002D2D2D2D200D0A009800002025730D0AC1
:104DA00000000000EEA000F057FE00200B901AE07B
:104DB000FB4909689DF82C2001EBC20101AB02AA56
:104DC000486803A900F070FCF54800689DF82C10B5
:104DD00050F8312003A9F3A000F03EFE9DF82C000E
:104DE000401CC0B20B90EE48007D9DF82C1088420C
:104DF000DEDCAFF2CC3000F02FFE83E0AFF2D83033
:104E000000F02AFE0BAA03A9204600F029FD9DF818
:104E10002C00C8B9694603A800F0BBFB0B909DF8B5
:104E20002C0020B9E4A0009900F016FE0EE09DF8D9
:104E30002C00042801D002206BE5E2A000F00CFE5B
:104E40000120D749C87501E0022062E5DCA000F02E
:104E500003FE57E0DAA000F0FFFD0BAA03A92046ED
:104E600000F0FEFC9DF82C00C8B9694603A800F0CC
:104E700090FB0B909DF82C0020B9D7A0009900F072
:104E8000EBFD0EE09DF82C00042801D0022040E547
:104E9000D4A000F0E1FD0020C149C87501E0022066
:104EA00037E5C7A000F0D8FD2CE0C5A000F0D4FD88
:104EB0000BAA03A9204600F0D3FC9DF82C00C8B92A
:104EC000694603A800F065FB0B909DF82C0078B9AB
:104ED000B349009881F8EC00084690F8EC0018B14E
:104EE000C5A000F0B9FD07E0CAA000F0B5FD03E0E1
:104EF00002200EE502200CE5B1A000F0ADFD01E0BE
:104F0000012006E500BF002003E510B50121C848D7
:104F1000FFF7C2F94FF6FF71C548FEF753FD0021B8
:104F2000C348FEF74DFD00209D49C1F8F00010BDBB
:104F300010B50121BE48FFF7A6F9012808D198480D
:104F4000D0F8F0004FF6FF7108449549C1F8F00021
:104F5000B748FEF739FD9249D1F8F010084490495E
:104F6000C1F8F0000846D0F8F00010BD10B50121DE
:104F7000AF48FFF794F901280AD1894908698047A9
:104F80000021AB48FEF71CFD6421A948FEF71AFD7D
:104F90000121A748FFF794F910BD7FB504460D46DF
:104FA00001210420FEF7E1F8ADF800500020ADF833
:104FB00002000194ADF8080069469D48FEF7B7FC71
:104FC000012211469A48FFF753F901219848FEF74C
:104FD00037FD1E208DF80C0003208DF80D008DF894
:104FE0000E0001208DF80F0003A8FDF74CFA7FBDDD
:104FF00010B5044604EBC40000EB04100122C2EB20
:10500000800081B24FF47A70FFF7C7FF0120644936
:10501000C87510BD30B595B0054613AB12AA09A9E5
:10502000284600F041FB044614B1204615B030BDBF
:105030000020149026E05A4909689DF8502001EBA1
:10504000C20113AB11AA486801A900F02DFB044668
:105050000CB12046EAE709A901A800F067FA60B997
:105060009DF844009DF84810884201DD0220DDE7EC
:105070009DF850004A4988750AE09DF85000401C90
:10508000C0B214904648007D9DF850108842D2DC92
:1050900000BF4348007D9DF85010884201D1042094
:1050A000C4E714A9284600F04CFC04460CB1204685
:1050B000BCE79DF850003A4948750020B6E72DE955
:1050C000F0419AB03648847D007DA04202DC1AB0DF
:1050D000BDE8F0813249096801EBC40106AB07AABB
:1050E000486808A900F0E0FA08A952A000F0B4FC52
:1050F0000026B9E02A48008B0121B1400840D8B110
:1051000022214EA000F0A8FC304600F00DFC2449FE
:105110002431471839464AA000F09EFC222147A0BE
:1051200000F09AFC304600F0FFFB1D492431084492
:1051300010A941F826008DE0304600F0F5FB184933
:105140002431085810A941F826001548C07D30B90F
:1051500010A850F826103BA000F07EFC7AE073E027
:105160002D2D2D2D2D2D2D2D2D2D2D2D2D2D2D2D6F
:105170002D2D2D2D2D2D2D2D2DBAAFCAFD204944BD
:10518000202D2D2D2D2D2D2D2D2D2D2D2D2D2D2D5C
:105190002D2D2D2D2D2D2D2D2D2D2D2D200D0A00BC
:1051A0009800002025732069642069733A0D0A3045
:1051B00058253038580D0A004845583A3058255877
:1051C0000D0A00003136BDF8D6C6B2CECAFDCFD426
:1051D000CABE210D0A0000004445433A256C750DF6
:1051E0000A0000003130BDF8D6C6B2CECAFDCFD419
:1051F000CABE210D0A00000052756E2054696D650B
:105200002043616C63756C6174696F6E204F4E0D45
:105210000A00000052756E2054696D652043616C70
:1052200063756C6174696F6E204F46460D0A00000D
:10523000000800400D0A25732800000025630000C7
:1052400025730000256C750010A850F8261095A055
:1052500000F002FC9DF81C00401EB04202D093A05A
:1052600000F0FAFB701CC6B29DF81C008642FFF6E7
:1052700041AF8FA000F0F0FBFFF747FE8D48407D67
:105280000B280DD2DFE800F0060D151E27323F4E29
:105290005F7287008749096851F8340080470546E6
:1052A00090E0844A126852F83410109888470546F6
:1052B00088E0804B1B6853F83420DDE910019047EB
:1052C00005467FE07B4F3F6857F8343010A807C889
:1052D0009847054676E0DFF8DCC1DCF800C05CF8F2
:1052E000347010A80FC8B84705466BE01498DFF873
:1052F000C4C10090DCF800C05CF8347010A80FC87E
:10530000B84705465EE0DDE91401DFF8A8C1CDE944
:105310000001DCF800C05CF8347010A80FC8B84772
:1053200005464FE0DDE914121698DFF888C1CDE993
:1053300000120290DCF800C05CF8347010A80FC8AE
:10534000B84705463EE0DDE91423DDE91610DFF835
:1053500064C1CDE90023CDE90210DCF800C05CF89F
:10536000347010A80FC8B84705462BE0DDE91523B7
:10537000DDE91710CDE90123CDE903101498DFF81A
:1053800034C10090DCF800C05CF8347010A80FC87D
:10539000B847054616E0DDE91623DDE91810CDE92A
:1053A0000223CDE90410DDE91401DFF808C1CDE9DD
:1053B0000001DCF800C05CF8347010A80FC8B847D2
:1053C000054600BF00BFFFF7B3FD9DF81800012898
:1053D0000CD13848C07D20B9294637A000F03CFBED
:1053E00007E0294636A000F037FB02E033A000F0CA
:1053F00033FB304890F8EC0088B12E48D0F8F0002C
:105400000A21B0FBF1F201FB12072A48D0F8F000A4
:10541000B0FBF1F83A4641462CA000F01DFB00BF5E
:1054200055E670B53148008800F40040002833D0BC
:105430002E48057800202E4948551E4881682C4882
:10544000884704461CB91B49C868804721E02848A2
:10545000FFF752FA0546012D00D02C46CCB1012CA5
:1054600006D0022C08D0032C0AD0042C10D10BE05B
:1054700020A000F0F1FA0BE021A000F0EDFA07E027
:1054800022A000F0E9FA03E023A000F0E5FA00BF53
:1054900000BF00201549088070BD014608687047AC
:1054A0000160704730582558000000002C000000B3
:1054B00029000000980000203D256C753B0D0A0076
:1054C0003D305825583B0D0A0000000046756E63BC
:1054D00074696F6E2052756E2054696D653A25644B
:1054E0002E2531646D730D0A00000000300000208D
:1054F0009A010020BAAFCAFDB4EDCEF3210D0A0027
:10550000B2CECAFDB4EDCEF3210D0A00B2CECAFD73
:10551000CCABB6E0210D0A00CEB4D5D2B5BDC6A540
:10552000C5E4B5C4BAAFCAFD210D0A0002460AE0BF
:1055300010780B78984201D001207047107800B99C
:1055400002E0521C491CF3E700BF0020F5E706E02B
:1055500002780A70027802B902E0401C491CF7E7A1
:1055600000BF70470146002005E00A7802B903E059
:10557000421CD0B2491CF8E700BF704710B5024684
:10558000012000E050430B1EA1F10104E1B2F9D16A
:1055900010BD2DE9F04307460E4600254FF00A08DE
:1055A0003C46002030601FE02078392802DC20785B
:1055B00030280ADA2078462802DC2078412804DAEC
:1055C0002078582809D1012D07D12078412801DB06
:1055D0004FF01008681CC5B205E0207800B904E05F
:1055E0000120BDE8F083641CDEE700BF3C46B8F153
:1055F000100F0FD1032D01DA0220F2E720783028B6
:1056000006D16078582803D1A41CA81EC5B204E0B6
:105610000320E6E70DB90420E3E71BE00DB1681EA7
:10562000C5B22078392806DC2078302803DB2078C2
:10563000A0F1300902E02078A0F137092946404660
:10564000FFF79CFF316809FB00103060641C207874
:1056500000B900E0E2E700BF0020C2E710B5044651
:10566000002010700BE020780870641C491C107832
:10567000401C10701078984201DB012010BD20788A
:10568000202802D020780028EDD10020087000BF2B
:10569000F4E70146491C00E0491C0878202801D1A4
:1056A0000029F9D1087870472DE9FF4F85B0804671
:1056B00089460027002004900390012002904FF0BB
:1056C000000B002544461DE02078202816D005F068
:1056D0007F00052812DA0DB945F0800505F07F003E
:1056E000042803D120782A2800D00EE0207805F085
:1056F0007F010DF80100681CC5B202E0852D00D1C4
:1057000003E0641C20780028DED100BF8DB10020AA
:1057100005F07F010DF80100CBA16846FFF706FFF9
:1057200018B900210898017002E001210898017061
:1057300000254FF0000A444614E0641C0AF1010001
:1057400000F0FF0A2078202802D020782A2809D1EA
:105750002046FFF79EFF0646282E03D02A2E01D0B2
:10576000CDF810A02078282802D020780028E4D195
:105770004446049810B10498401C04444FF0000AB9
:10578000002654E0207810B94FF0010A50E020784C
:10579000282803D116B9781CC7B213E0207829282D
:1057A00008D13EB917B1781EC7B201E04FF0010A27
:1057B00047B93DE02078222804D10EB9012000E04D
:1057C0000020064647B9207820282FD0207889F875
:1057D000000009F1010929E020782C2804D10120DA
:1057E0000290681CC5B214E02078202811D02078DF
:1057F00028280ED04DB9BBF1050F06DA20780DF838
:105800000B000BF1010000F0FF0B0298401CC0B22E
:105810000290012F0AD10298022807D10298401C59
:10582000C0B202900398401CC0B20390641CA9E768
:1058300000BF0398012809D100200DF80B0082A1B8
:105840006846FFF773FE08B9002003900799039894
:105850000870002089F80000504609B0BDE8F08FBC
:10586000F0B503461546002000220026002455E02E
:105870001F782C2F01D104B901221F78292F01D0C4
:105880001F780FB904B94AE0002E34D11F78302FA9
:1058900002DB1F78392F11DD1F78612F02DB1F78A3
:1058A000662F0BDD1F78412F02DB1F78462F05DDA9
:1058B0001F78582F02D01F78782F0CD102B12EE01C
:1058C0001F78612F03DB1F78203F0F7001E01F78E6
:1058D0000F70491C1FE01F78222F04D102B11EE077
:1058E0000126012417E01F78202F14D01F782C2FB9
:1058F00011D0FF2613E01F78222F00D1002402B11F
:105900000DE044B11F785C2F02D15B1C471CF8B23C
:105910001F780F70491C471CF8B25B1CA8E700BF3A
:1059200000270F702E70F0BD02460020002105E018
:10593000474B5B5C0344D8B24B1CD9B29142F7DBB6
:1059400070472DE9F043B5B005460F460024002608
:1059500004E000213E488155701CC6B20A2EF8DBD7
:1059600006E06D1C287818B9012035B0BDE8F08339
:1059700028782828F5D16D1C61E034AA69462846AC
:10598000FFF76EFF064635449DF8D00020B1012890
:1059900027D0FF284CD149E09DF8000000B333A97F
:1059A0006846FFF7F6FD06460EB10220DDE7204609
:1059B000FFF7BAFF26490A31339A0A50A1F12400B1
:1059C000008B0121A140884321491A390883042111
:1059D0001F480155601CC4B20A2C01DD0320C4E736
:1059E00026E06846FFF7BEFD401C00F0FF08204699
:1059F000FFF79AFF16490A3100EB0109494668464C
:105A0000FFF7A5FD12481A38018B0120A040014381
:105A100088B20F491A3908830D4800F80480601CC9
:105A2000C4B20A2C01DD03209FE701E002209CE7BD
:105A300000BF2878292801D0287800B900E09CE729
:105A400000BF3C70002090E7766F696400000000A2
:105A5000B2000020704700000FB4044910B503AA3B
:105A6000029800F0F5F910BC5DF814FB2C00002042
:105A700070B5044685690068C10601D5302600E08E
:105A80002026C00707D070BDD4E9012130469047D9
:105A9000206A401C20626D1EF6D570BD70B50446AC
:105AA00085690078C00707D170BDD4E901212020A5
:105AB0009047206A401C20626D1EF6D570BD70B5FF
:105AC0000C460546012A05D02878800600D5EA69EB
:105AD000002302E0012305E05B1C934202D2E05C5C
