:020000040800F2
:1000000088C600202D0200082F4C0008CD120008E1
:100010002D4C0008450A0008ED6D000800000000A6
:10002000000000000000000000000000436700081E
:10003000230D000800000000274E00085769000843
:10004000470200084702000847020008470200086C
:100050004702000847020008250D00084702000873
:10006000470200085D0D0008950D000847020008D2
:10007000470200084702000847020008470200083C
:10008000470200084702000847020008470200082C
:10009000470200084702000847020008110E000846
:1000A000470200084702000847020008470200080C
:1000B00047020008A9690008DD6900084702000836
:1000C00047020008470200084702000847020008EC
:1000D00047020008516C0008796C000847020008CC
:1000E00047020008470200084702000847020008CC
:1000F00047020008470200084702000847020008BC
:1001000047020008E9520008196A0008470200087F
:100110004702000847020008A16A000847020008D9
:10012000470200084702000847020008470200088B
:1001300000F002F800F06BF80AA090E8000C82448E
:100140008344AAF10107DA4501D100F060F8AFF26B
:10015000090EBAE80F0013F0010F18BFFB1A43F0A5
:100160000103184734EF000054EF00000A444FF039
:10017000000C10F8013B13F0070408BF10F8014B06
:100180001D1108BF10F8015B641E05D010F8016B4B
:10019000641E01F8016BF9D113F0080F1EBF10F8AF
:1001A000014BAD1C0C1B09D16D1E58BF01F801CBD2
:1001B000FAD505E014F8016B01F8016B6D1EF9D555
:1001C0009142D6D37047000000230024002500266A
:1001D000103A28BF78C1FBD8520728BF30C148BFAA
:1001E0000B607047642900F0C380752900F0C0805F
:1001F000782900F0F980632900F08683732900F0E4
:100200008B83002070471FB51FBD10B510BD00F0D7
:10021000CFFB1146FFF7F7FF09F08EFF00F0EDFB73
:1002200003B4FFF7F2FF03BC06F04DFF0948804717
:1002300009480047FEE7FEE7FEE7FEE7FEE7FEE7C8
:10024000FEE7FEE7FEE7FEE704480549054A064BE0
:1002500070470000596900083101000888C000207B
:1002600088C6002088C2002088C20020704710B5D0
:100270004C1084EA530404D54042C1F1000138BF58
:10028000491E1B4204D55242C3F1000338BF5B1E16
:1002900000F048FA14F0804F04D04042C1F1000150
:1002A00038BF491E14F0004F04D05242C3F100037E
:1002B00038BF5B1E10BD00000FB4044910B503AA7F
:1002C000029800F02DFB10BC5DF814FB38000020F4
:1002D00070B5044685690068C10601D5302600E086
:1002E0002026C00707D070BDD4E9012130469047D1
:1002F000206A401C20626D1EF6D570BD70B50446A4
:1003000085690078C00707D170BDD4E9012120209C
:100310009047206A401C20626D1EF6D570BD70B5F6
:100320000C460546012A05D02878800600D5EA69E2
:10033000002302E0012305E05B1C934202D2E05C53
:100340000028F9D1A869E618C01AA861286A1844DB
:1003500028622846FFF7BCFF04E0D5E9012114F824
:10036000010B9047B442F8D32846FFF7C7FF70BD92
:100370002DE9F0410646002410687529314616A57E
:1003800010D0AFF30080002802DA404213A507E046
:1003900031688A0701D512A502E0490704D511A5E5
:1003A000012401E0AFF3008000210A2206F12407B6
:1003B00009E0B0FBF2FCB0FBF2F302FB1C003030B2
:1003C00078541846491C0028F3D123462A46304663
:1003D000BDE8F04100F01DBA000000002D00000053
:1003E0002B0000002000000070B504460D46214699
:1003F0001068AFF300802188090502D50F4A7A44BE
:1004000002E00E4A7A440E32002104F1240305E092
:1004100000F00F060009965D5E54491C0028F7D1D4
:1004200020780023000704D5702D02D009B10223E3
:1004300011322046BDE8704000F0EBB98AEA0000B6
:100440002DE9F05F894604464FF0000ADFF874B1E9
:10045000FB44C0F820A02046E1688847002874D0FB
:10046000252806D0D4E901219047206A401C20624B
:10047000F1E700265F462046E168884720280546C8
:1004800007DB312D05D2781910F8200C08B106438E
:10049000F1E7B00701D526F00406C4F81CA0002738
:1004A000C4F818A02A2D09D0284606F005FE38B356
:1004B00004EB8708303DC8F8185019E059F8041BC0
:1004C000204604EB87029161E1688847012F0546C9
:1004D00018D1E069002820DA26F020061DE0D8F8BF
:1004E000180000EB800005EB40003038C8F8180019
:1004F0002046E1688847054606F0DEFD0028EED17B
:10050000012F0AD02E2D08D12046E16888477F1C94
:100510000546022F46F02006C4DBA069002803DA56
:10052000404246F00106A061F00701D026F0100617
:100530006C2D0BD0682D09D04C2D39D06A2D35D0BB
:10054000742D35D07A2D33D016E038E0E1682F468F
:1005500020468847B842054609D16C2F26D04FF473
:100560008060E168064320468847054604E06C2F1A
:100570001AD04FF4807006430DB3A5F1410019283D
:1005800002D8203546F400664A46294620462660B1
:100590004E46FFF727FE80B101280BD0F61D26F04E
:1005A000070000F1080956E74020E4E78020D8E77B
:1005B0000020D6E706F104094DE7284652E7206AF5
:1005C000BDE8F09F60EA000040EA0103024630B552
:1005D0009B0710D14FF0013400E008C208C91D1B71
:1005E0009D4315EAC41FF8D013F0FF0102F8011B68
:1005F0000DD01B0AF8E711F8013B002B02F8013B74
:1006000005D011F8013B002B02F8013BF3D130BDBE
:10061000032A40F2308010F0030C00F0158011F82E
:10062000013BBCF1020F624498BF11F801CB00F806
:10063000013B38BF11F8013BA2F1040298BF00F85A
:1006400001CB38BF00F8013B11F0030300F07A81C1
:10065000083AC0F0088051F8043B083A51F804CB3E
:10066000A0E80810F5E7121D5CBF51F8043B40F804
:10067000043BAFF30080D20724BF11F8013B11F80F
:1006800001CB48BF11F8012B24BF00F8013B00F853
:1006900001CB48BF00F8012B704700004FF0013C30
:1006A00050F8042B51F8043B9A4221D1A2EB0C03E1
:1006B000934313EACC1317D150F8042B51F8043BA1
:1006C0009A4215D1A2EB0C03934313EACC130BD13E
:1006D00050F8042B51F8043B9A4209D1A2EB0C03C9
:1006E000934313EACC13DBD04FF00000704700BFF8
:1006F000D01A01BAB1FA81F101F0180122FA01F021
:10070000CB40C1F12001DBB2C0B2C01A2CFA01F318
:10071000D11A914311EAC311E6D17047704770476F
:100720007047704753EA020C00F069802DE9F04BE6
:100730004FF00006002B1FBFB3FA83F503FA05F450
:1007400024FA05F65E4012BF1643B2FA82F502FAA9
:1007500005F4C5F120051EBF22FA05FC44EA0C048D
:10076000203556EA044C4FEA144418BF641C4FF07D
:1007700000084FF00009904271EB030C39D30029B7
:1007800019BFB1FA81F701FA07F6B0FA80F700FA5B
:1007900007F6C7F120071EBF20FA07FC46EA0C0641
:1007A0002037B6FBF4FCA7EB0507103F07F01F0B43
:1007B000CBF120060CFA0BFB2CFA06F644BFB3462D
:1007C0000026202FA4BF5E464FF0000B5BEA060C0C
:1007D00008BF4FF0010B19EB0B09ABFB027C48EB98
:1007E0000608C01B06FB02CC0BFB03CC71EB0C0113
:1007F000C1E70B46024641464846BDE8F08B13B5BB
:100800004FF000004FF00001AFF30080BDE81C4046
:1008100070472DE9F0470D4699469246044600F18F
:1008200024080168880604D5E06921F010012160E0
:1008300000E00120A84201DD471B00E00027A1697C
:100840007A1902EB0900081AA0612078C00602D4C8
:100850002046FFF73DFD002608E0D4E901211AF803
:1008600006009047206A401C761C20624E45F4DB4F
:100870002078C0060AD52046FFF72AFD06E0D4E915
:10088000012130209047206A401C2062381EA7F1C9
:100890000107F4DC07E0D4E9012118F805009047CE
:1008A000206A401C2062281EA5F10105F3DC2046C9
:1008B000FFF724FD2078000602D50220BDE8F0876E
:1008C0000120FBE701694A1C02610878704700B506
:1008D0008FB0CDE901310021059105497944CDE979
:1008E000031011466846FFF7ABFD0FB000BD0000D6
:1008F000E5FFFFFF10B5436913B1AFF3008001E0DE
:10090000FFF70DFD012010BD127800F124010A70DF
:1009100000224A700122EDE711684FF0FF32E9E74B
:10092000074B70B50D467B44FFF7D1FF04462846C0
:1009300000F03AF810B14FF0FF3070BD204670BDA6
:100940004384000010B5203AC0F00B80B1E8185085
:10095000203AA0E81850B1E81850A0E81850BFF4A9
:10096000F5AF5FEA027C24BFB1E81850A0E8185048
:1009700044BF18C918C0BDE810405FEA827C24BF9C
:1009800051F8043B40F8043B08BF7047D20728BF2A
:1009900031F8023B48BF11F8012B28BF20F8023B79
:1009A00048BF00F8012B7047007B00F080007047C3
:1009B000754600F029F8AE4605006946534620F01A
:1009C0000700854618B020B5FFF73EFCBDE8204083
:1009D0004FF000064FF000074FF000084FF0000BFB
:1009E00021F00701AC46ACE8C009ACE8C009ACE8AE
:1009F000C009ACE8C0098D4670470446AFF30080DB
:100A00002046FFF70DFC00000048704724C000207E
:100A10000948816941F0080181610848016821F0B5
:100A20000F010160016841F00301016004490020E9
:100A3000C1F8A0017047000000100240040C014002
:100A400000802142FEE770B500254FF4803405E0B8
:100A5000802004F037FC08B144B101E0641EF7D2F5
:100A600040F2FF5004F0EAFB284670BD032070BD41
:100A700070B5124C0546616B11F0450FFBD0042098
:100A800004F020FC20B1042004F0D8FB032070BD4A
:100A9000012004F017FC20B1012004F0CFFB01205D
:100AA00070BD2069A84201D0102070BD40F2FF50F7
:100AB000A063606900F0080070BD00000080014084
:100AC00010B500244FF480310E4809E0426B12F05B
:100AD000450F05D009B1500705D5032404200CE0CB
:100AE000491EF3D2F7E7012004F0ECFB18B1012412
:100AF000204604F0A3FB40F2FF5004F09FFB204689
:100B000010BD00000080014010B50A49486B10F08C
:100B1000450FFBD0042004F0D5FB20B1042004F0E5
:100B20008DFB032010BD40F2FF5004F087FB002036
:100B300010BD0000008001402DE9F0411B4C0E4625
:100B400007460025606B10F0450FFBD0042004F031
:100B5000B9FB28B1042004F071FB0320BDE8F0814B
:100B6000012004F0AFFB20B1012004F067FB01205D
:100B7000F4E72069B84210D140F2FF5004F05EFB68
:100B8000626912F4604F03D0900404D51320E5E7A6
:100B9000100C308007E0500401D51020DEE710046F
:100BA00001D50F20DAE72846D8E700000080014091
:100BB00010B500244FF480320B4809E0416B11F06E
:100BC000450F05D00AB1480705D50324042006E0E7
:100BD000521EF3D2F7E7480603D50024402004F064
:100BE0002DFB204610BD0000008001400029016857
:100BF00002D041F0010102E04FF6FE7211400160A7
:100C00007047000001684FF6FE721140016000213C
:100C1000016041608160C1603149314A08399042C8
:100C200003D1486840F00F0006E02D4A143290428C
:100C300004D1486840F0F00048607047284A2832E4
:100C4000904203D1486840F47060F5E7244A3C3292
:100C5000904203D1486840F47040EDE7204A50329A
:100C6000904203D1486840F47020E5E71C4A6432A2
:100C7000904203D1486840F47000DDE7184A7832AA
:100C8000904203D1486840F07060D5E7154A111FC3
:100C9000904203D1086840F00F0006E0114A143278
:100CA000904204D1086840F0F000086070470D4A97
:100CB0002832904203D1086840F47060F5E7094A91
:100CC0003C32904203D1086840F47040EDE7054A99
:100CD00050329042EAD1086840F47020E5E7000005
:100CE000080002400804024030B5026847F6F0737D
:100CF0009A430C6A8B682343D1E904452C43234370
:100D00008C692343CC6923434C6A23438C6A234375
:100D100013430360CA6842600A6882604968C16020
:100D200030BD704710B50A2006F04EFF012109487A
:100D300000F07CFA012806D10749D1F8A00138B1AA
:100D40000020C1F8A001BDE81040012000F082B8E9
:100D50000120F6E7000801400080214210B50A207A
:100D600006F032FF0821094800F060FA30B908495E
:100D7000D1F8940138B10020C1F89401BDE81040C9
:100D8000082000F067B80120F6E7000000180140D5
:100D90000000234210B50A2006F016FF1021094872
:100DA00000F044FA30B90849D1F8940138B1002074
:100DB000C1F89401BDE81040102000F04BB80120AC
:100DC000F6E7000000180140008021423EB50821EE
:100DD000002000F09DF94FF48070002400908DF801
:100DE000044008208DF8050001258DF8065068465E
:100DF00000F046F817208DF808008DF809408DF8AE
:100E00000A408DF80B5002A803F012FF3EBD00000F
:100E100010B54FF48074204600F022F801280DD15F
:100E2000094A0020C2F898010121C2F89811074828
:100E3000C0F88C1106480178491C01702046BDE8B5
:100E4000104000F007B800000080224200802142DC
:100E50002C00002001490860704700001404014084
:100E6000064A014600201268044B0A4014331B68EE
:100E70000B4202D0002A00D001207047000401403C
:100E800030B51A4A8379016853B313688B431360F2
:100E9000111D0B680468A3430B60017911440B68B2
:100EA000046823430B60114B083319680468A1439D
:100EB00019601C1D21680568A9432160417910292A
:100EC00005D011440A68006802430A6030BD196801
:100ED000026811431960216800680143216030BD38
:100EE0000079104402688A43026030BD000401406A
:100EF0008000A0F1C0400029016802D041F001014A
:100F000001E0024A1140016070470000FEFF0F003F
:100F100010B5D0E901121143D0E903231A4311435C
:100F20004269114382691143C2691143026A114344
:100F3000426A1143826A1143C26A1143026B114330
:100F400002689200A2F1C04211608168082907D1AD
:100F500001688900A1F1C0410A6842F040020A60BC
:100F6000416BD1E9002342EA03128B688C891B0292
:100F700043EA04431A430B8A42EA03520B7D896910
:100F800042EA03620A4301688900A1F1C0414A6054
:100F9000C16AB1F5804F08D000686FF070418000E1
:100FA000A0F1C040C0F8041110BD816BD1E900234D
:100FB00042EA03128B680C8A1B0243EA04531A4369
:100FC0000B7D896942EA036200680A438000A0F150
:100FD000C040C0F8042110BD2DE9FC470024494F52
:100FE00000944FF0080A019410204FF04009C7F810
:100FF00000A0C7E901094FF48068C7E903480E461D
:101000002546384604F08EF91020FFF731FD002800
:101010004DD13D480089000438603720C7E90109F7
:10102000C7E90358384604F07DF93720FFF720FD63
:1010300000283CD1411E07F11400C0E9001A3021FC
:1010400081600221C0E903150121416104F012F918
:101050003320C7F80890C7E90050C7E9035838465D
:1010600004F060F93320FFF703FD05001FD1DFF81E
:101070009C804FF4001A6F4640F22A69D8F8340079
:1010800010EA090F0BD1504604F01CF90028F5D0E6
:1010900004F042F947F82400641C022CEED3082027
:1010A00004F010F928B1082004F0C8F80420BDE8C5
:1010B000FC87022004F006F920B1022004F0BEF8FB
:1010C0000220F4E7202004F0FDF820B1202004F0F5
:1010D000B5F80620EBE74FF40074204604F0F2F870
:1010E00020B1204604F0AAF80720E0E740F2FF50C4
:1010F00004F0A4F8009800BA7060019800BA30605B
:101100002846D4E7101200201C0000200080014077
:1011100010B58A0721F003040649120F21440F235A
:101120008C6893409C438C608B68904003438B6039
:1011300010BD000000000140F0B5CC78002204F0A2
:101140000F03E40601D58C7823430C784FF00F0C85
:1011500014F0FF0F4FF0010E1BD005680E880EFA39
:1011600002F42640A64210D196000CFA06F725EAB2
:10117000070703FA06F5CE783D43282E02D0482E05
:1011800002D002E0446100E00461521C082AE5D369
:1011900005600A88FF2A1CD94468002202F108066B
:1011A0000EFA06F50E882E40AE420ED196000CFACD
:1011B00006F7BC4303FA06F7CE783C43282E00D14D
:1011C0004561CE78482E00D10561521C082AE5D32E
:1011D0004460F0BDF0B5144C002801DAE36900E08A
:1011E0006368450D2E0185B2C0F30157B540C0F3C9
:1011F0000342032F05D0C6020AD503269640B34307
:1012000007E023F07062636823F07063636002E0BC
:10121000AB4343F0706201B12A43002801DAE26176
:10122000F0BD6260F0BD00000000014002460020F9
:1012300092680A4200D001207047016170470000A7
:1012400030B40C4601461546500700D0012000EB93
:10125000D5006843C2B208784B78812809D3402B67
:1012600007D3FF2B05D0FF2803D07F2B0CD2403BA8
:101270000BE00023184603E05B1C04F8010BDBB213
:101280009342F9D330BC7047413B8138D9B2C0B2E8
:10129000C0EB401303EB801001EB400050430A49C0
:1012A0000C2D0AD0102D0BD0182DEBD1D1F8191020
:1012B0000144204630BC05F0F3BDD1F80910F7E732
:1012C000D1F81110F4E70000C4BF0020FEE772B6A9
:1012D000704762B6704700007CB5054600211E4885
:1012E00000910191008902041C4802600D224260B5
:1012F0004022C0E902211101016104F013F8184CE9
:10130000606B0190014601E0616B019111F0450FA6
:10131000FAD0012003F0D6FF20B1012003F08EFFA8
:1013200001207CBD042003F0CDFF20B1042003F098
:1013300085FF03207CBD20690D2801D010207CBDD5
:1013400040F2FF5003F07AFF60690090C0F3432041
:10135000287000207CBD00001C000020101200201E
:101360000080014008B50121442003F075FD1820DC
:10137000ADF8000048208DF8030069460648FFF7E5
:10138000DBFE0120ADF8000028208DF8030069463F
:101390000248FFF7D1FE08BD0018014000080140D7
:1013A000C0F34511C20AC00200EB4110104480B2E4
:1013B000704700002DE9F043174F06460024388897
:1013C0007D884543B888A0F5D041043902D1B87969
:1013D000012807D00021084603F026FA03F0ECFBB1
:1013E0000E4815E00020B8714FF02A09A7F80A90BE
:1013F0004FF02B08A7F80C80014603F015FA0120E6
:10140000B871A7F80A80A7F80C90E7E70680641C7B
:10141000AC42FBD3BDE8F083E40100200008006C7F
:101420002DE9F04F4A492A232B24898845F2105A86
:101430004FF4305B4FF4285E4FF448754FF0F00CDA
:1014400049F241394FF4A07745F210364FF4F0726B
:1014500080B13F484FF00108494580F80680078079
:10146000A0F802C001D0B1423ED12C2505814381B4
:10147000848157E036484FF00008494580F80680DF
:10148000A0F800C0478006D0A1F5D04CBCF1040CF8
:1014900001D0B1420CD12C2505814381A1F5D04367
:1014A0008481043B01D0B14244D10780428041E0B5
:1014B000514507D1A0F808B0A0F80AE04FF42C512C
:1014C00081810EE0A1F5C856633E06D0222101813C
:1014D00020214181212181812CE02C210181448125
:1014E00083810280458025E0A1F5D04CBCF1040C3D
:1014F00009D051450BD1A0F808B0A0F80AE04FF48C
:101500002C53838121E02C250581448109E0A1F53C
:10151000C85CBCF1630C12D02223038121234381D8
:1015200020238381A1F5D043043B01D0B14201D1F6
:1015300002804780BDE8F04F002003F0A1B84FF0D3
:101540002C0CA0F808C04381848105804280E9E723
:10155000E40100202DE9F04FDFF80C81934642466C
:101560000B46B8F804500C0ADFF800A19189060A6E
:101570005289A5F513470AF10209413F18D0A5F594
:10158000A647103F14D0B7F500771CD04746A5F505
:10159000C85CBE793F883F1A7F1EBCF1630C27D020
:1015A000A5F5D04CBCF1040C3AD0012E4AD04AE04B
:1015B000AAF800204A46A9F80060C0B2A9F80000C5
:1015C000AAF800103AE0AAF80020A9F80060521C1E
:1015D000AAF80020C0B2A9F80000AAF80010A9F8E3
:1015E0000040491CAAF80010D8B2A9F8000033E066
:1015F00006B9B8B2AAF80020050A4A46A9F8005070
:10160000C7B2A9F80070A9F80050C0B2A9F800004C
:10161000AAF80010A9F80040D8B2A9F800000DE01F
:10162000012E00D1B8B2AAF80020050A4A46A9F84E
:101630000050C0B2A9F80000AAF800101480D8B277
:10164000108009E0B8B20146104603F0BFFAB8F8BE
:101650000C00194603F0BAFAB8F80810AAF80010FE
:10166000A9F800B0BDE8F08FE4010020FE07006C8F
:101670002DE9F8431F4D1F468046AB88089EA3F511
:10168000D040043802D1A879012807D0A2EB080085
:10169000401C85B20C46DFF8609028E02B88084695
:1016A000991A0024AC713A462A24A3EB08036C81F2
:1016B0002B27491E5B1EAF8189B29BB20096FFF7B4
:1016C000D7FF0120A8716F81AC81BDE8F883214666
:1016D000404603F0A9F803F06FFA0020494602E003
:1016E0000E80401C80B2A842FAD3641CA4B2BC4253
:1016F000EDD9EAE7E40100200008006C2DE9F04F85
:1017000001210E029FB0304603F08EFB01214FF401
:10171000B47003F0A1FB0127ADF83C704FF0100846
:101720008DF83F8003248DF83E400FA9FE48FFF757
:1017300003FD4CF23370ADF83C0018258DF83F5096
:101740008DF83E400FA9F948FFF7F6FC4FF6807080
:10175000ADF83C008DF83F508DF83E400FA9F4489D
:10176000FFF7EAFC41F20100ADF83C008DF83F5074
:101770008DF83E400FA9EF48FFF7DEFC00200F2157
:10178000CDE918011A901B901C901D901090CDE986
:101790001104CDE91607149006211590CDE900102B
:1017A000CDE90208139004903101CDE908010690BB
:1017B000059007908900CDE90A010C9017A80D90BB
:1017C00010A80E906846FFF7A3FB01210620FFF743
:1017D0008FFB322006F0F8F9002002F027FFD64DEB
:1017E000D64C49F24139A88046F6040A45F2103B2E
:1017F00045F210574FF6FF78FF2804D3404502D03A
:10180000B0F5134F70D1D320208002F081FEA88064
:1018100002F07EFEA88002F07BFE08EA002041462E
:10182000A88002F075FEAA881043A88048455BD0C6
:10183000BF20208002F06CFEA88002F069FEA88024
:1018400002F066FEA88002F063FE01EA0020A88094
:1018500002F05EFEAA881043A880504544D0D420F0
:10186000208002F055FEA88002F052FEA88002F00F
:101870004FFE01EA0020A88002F04AFEAA88104329
:10188000A880584530D04FF45A40208002F040FEE6
:10189000A8804FF45B40208002F03AFE01EA00206D
:1018A000A8804FF45C40208002F032FEAA881043EA
:1018B000A880B0F5004F7DD0B84215D0A12020807F
:1018C00002F026FEA88002F023FE01EA0020A88094
:1018D00002F01EFEA9880843A0F5AE41A880613938
:1018E00002D141F66310A880A98895A0FEF7E4FC18
:1018F000A888924DAD1C48457ED1CF202080002085
:101900002880C120288030202880ED20208064207D
:101910002880032028801220288081202880E82029
:10192000208085202880102028807A202880CB20C5
:101930002080392028802C202880002028803420F6
:10194000288002202880F720208020202880EA207C
:101950002080002028802880C02020801B20288014
:10196000C120208001202880C520208030202880B0
:101970002880C7202080B72028803620208048205B
:1019800028803A20208055202880B1202080002007
:1019900028801A202880B62020800A202880A220B3
:1019A0002880F2202080002028802620208001200E
:1019B000288000E051E0E02020800F2028802A20AD
:1019C000288028202880082028800E2028800820B1
:1019D000288054202880A9202880432028800A209D
:1019E00028800F20288000202880288028802880B8
:1019F000E1202080002000E031E0288015202880B0
:101A00001720288007202880112028800620288081
:101A10002B202880562028803C20288005202880E4
:101A2000102028800F2028803F20288028800F2029
:101A300028802B20208000202880288001202880DA
:101A40003F2028802A20208000202880288028808D
:101A5000EF2028801120208084E0AF8044E75045AB
:101A600076D111202080142006F0AEF8D0202080FE
:101A700007202880422028801D202880D120208017
:101A8000002028801A20288009202880D220208049
:101A90000120288022202880C0202080102028803B
:101AA0003B202880002028800220288011202880C8
:101AB000C520208003202880C82020800020288086
:101AC00025202880212028800520288000202880AB
:101AD0000A202880652028802520288077202880DB
:101AE000502028800F20288000202880F820208087
:101AF00001202880FE2020800020288002202880CD
:101B00002020208036202080082028803A20208035
:101B1000552028802B20208000202880288001202C
:101B200028803F20288014E0000C01400014014070
:101B30000018014000200140E4010020FE07006C75
:101B4000204C43442049443A25780D0A0000000007
:101B50000EE02A2020800020288028800120288074
:101B6000DF202880782006F02FF8292001F02DBCF6
:101B700058457DD1ED20208001202880FE2028803E
:101B8000EE202080DE20288021202880F120208067
:101B900001202880DF20208010202880C420208081
:101BA0008F202880C620208000202880E2202880E6
:101BB00028802880BF202080AA202880B020208074
:101BC0000D202880002028800D20288000202880DB
:101BD00011202880002028801920288000202880BB
:101BE00021202880002028802D2028800020288087
:101BF0003D202880002028805D202880002028802B
:101C00005D20288000202880B1202080802028802E
:101C1000002028808B202880002028809620288083
:101C200000202880B22020800020288028800220E8
:101C30002880002028800320288000202880B320CE
:101C400020800020288028802880288028802880E4
:101C50002880288028802880288028802880288044
:101C6000288028802880288028802880288000E0FC
:101C7000FEE3288028802880B42020808B202880C4
:101C8000002028809620288000202880A1202880FD
:101C900000202880B5202080022028800020288075
:101CA000032028800020288004202880002028800D
:101CB000B6202080002028802880B72020800020A7
:101CC000288028803F202880002028805E202880CF
:101CD0000020288064202880002028808C202880F4
:101CE00000202880AC20288000202880DC2028804C
:101CF00000202880702028800020288090202880C4
:101D000000202880EB20288000202880DC202880EC
:101D100000202880B820208000202880288028806B
:101D200028802880288028802880BA2020802420AD
:101D300028800020288028802880C1202080202022
:101D40002880002028805420288000202880FF2020
:101D5000288000202880C22020800A20288000209F
:101D600028800420288000202880C32020803C2058
:101D70002880002028803A202880002028803920D0
:101D800028800020288037202880002028803C20C0
:101D900028800020288036202880002028803220BB
:101DA0002880002028802F202880002028802C20B8
:101DB00028800020288029202880002028802620B4
:101DC00028800020288024202880002028802420AB
:101DD00028800020288023202880002028803C2084
:101DE000288000202880362028800020288032206B
:101DF0002880002028802F202880002028802C2068
:101E00002880002028802920288000202880262063
:101E1000288000202880242028800020288024205A
:101E20002880002028802320288000202880C420AB
:101E30002080622028800020288005202880002023
:101E400028808420288000202880F02028800020FE
:101E500028801820288000202880A42028800020A6
:101E600028801820288000202880502028800020EA
:101E700028800C202880002028801720288000201F
:101E800028809520288000202880F32028800020AA
:101E90002880E620288000202880C520208032204D
:101EA0002880002028804420288000202880652069
:101EB0002880002028807620288000202880882004
:101EC000288000202880C620208020202880002014
:101ED00028801720288000202880012028800020CA
:101EE0002880C72020800020288028802880288003
:101EF000C820208000202880288028802880C920B1
:101F00002080002028802880288028802880288021
:101F10002880288028802880288028802880288081
:101F200028802880E020208016202880002028801B
:101F30001C20288000202880212028800020288044
:101F400036202880002028804620288000202880F5
:101F500052202880002028806420288000202880AB
:101F60007A202880002028808B202880002028804C
:101F70009920288000202880A82028800020288000
:101F8000B920288000202880C420288000202880B4
:101F9000CA20288000202880D22028800020288085
:101FA000D920288000202880E02028800020288058
:101FB000F320288000202880E1202080162028801F
:101FC000002028801C2028800020288022202880B3
:101FD0000020288036202880002028804520288066
:101FE000002028805220288000202880642028801B
:101FF000002028807A202880002028808B202880BC
:10200000002028809920288000202880A82028806F
:1020100000202880B920288000202880C420288023
:1020200000202880CA20288000202880D2202880F4
:1020300000202880D820288000202880E0202880C8
:1020400000202880F320288000202880E2202080A3
:1020500005202880002028800B2028800020288050
:102060001B20288000202880342028800020288001
:1020700044202880002028804F20288000202880AD
:102080006120288000202880792028800020288056
:102090008820288000202880972028800020288001
:1020A000A620288000202880B720288000202880B3
:1020B000C220288000202880C72028800020288077
:1020C000D120288000202880D62028800020288049
:1020D000DD20288000202880F32028800020288010
:1020E000E320208005202880002028800A202880E6
:1020F000002028801C202880002028803320288071
:10210000002028804420288000202880502028801B
:1021100000202880622028800020288078202880C5
:102120000020288088202880002028809720288070
:1021300000202880A620288000202880B720288022
:1021400000202880C220288000202880C7202880E6
:1021500000202880D120288000202880D5202880B9
:1021600000202880DD20288000202880F32028807F
:1021700000202880E4202080012028800020288062
:10218000012028800020288002202880002028802C
:102190002A202880002028803C20288000202880B9
:1021A0004B202880002028805D2028800020288067
:1021B0007420288000202880842028800020288007
:1021C0009320288000202880A220288000202880BA
:1021D000B320288000202880BE202880002028806E
:1021E000C420288000202880CD202880002028803E
:1021F000D320288000202880DD202880002028800F
:10220000F320288000202880E520208000202880DE
:1022100028802880288002202880002028802920EB
:102220002880002028803C202880002028804B2007
:102230002880002028805D202880002028807420AD
:102240002880002028808420288000202880932057
:10225000288000202880A220288000202880B32009
:10226000288000202880BE20288000202880C420CC
:10227000288000202880CD20288000202880D3209E
:10228000288000202880DC20288000202880F3205F
:10229000288000202880E62020801120288000202F
:1022A0002880342028800020288056202880002084
:1022B0002880762028800020288077202880002011
:1022C0002880662028800020288088202880002000
:1022D00028809920288000202880BB20288000208A
:1022E00028809920288000202880662028800020CF
:1022F0002880552028800020288055202880002014
:102300002880452028800020288043202880002025
:1023100028804420288000202880E7202080322048
:1023200028800020288055202880002028807620C2
:1023300028800020288066202880002028806720B0
:10234000288000202880672028800020288087207F
:102350002880002028809920288000202880BB2009
:10236000288000202880992028800020288077203D
:1023700028800020288044202880002028805620A3
:1023800028800020288023202880002028803320D7
:102390002880002028804520288000202880E820F0
:1023A00020800020288028809920288000202880F4
:1023B00087202880002028808820288000202880EE
:1023C0007720288000202880662028800020288010
:1023D0008820288000202880AA20288000202880AB
:1023E000BB20288000202880992028800020288079
:1023F0006620288000202880552028800020288002
:102400005520288000202880442028800020288013
:102410004420288000202880552028800020288003
:10242000E9202080AA202880002028802880288079
:102430002080AA202880CF2020800020288028808B
:10244000288028802880288028802880288028804C
:102450002880288028802880288028802880F020D4
:10246000208000202880502028800020288000E044
:102470002CE028802880F320208000202880F9206C
:1024800020800620288010202880292028800020F5
:1024900028803A2020805520288011202080642028
:1024A00005F092FB29202080352020800020288004
:1024B00051202080FF202880532020802C2028803D
:1024C00055202080822028802C20FCE3B8427DD13A
:1024D0004FF470435521184602F078FB4FF2010586
:1024E000AA21284602F072FB6E1C5221304602F0EF
:1024F0006DFBAF1C0821384602F068FB4FF204095F
:102500000121484602F062FB0D214FF4304002F0F9
:102510005DFB0D214BF2010002F058FB0D214BF247
:10252000020002F053FB4FF4364A3421504602F0C9
:102530004DFB34214BF2016002F048FB34214BF299
:10254000026002F043FB4FF4314B0D21584602F07C
:102550003DFB0D214BF2011002F038FB0D214BF237
:10256000021002F033FB34214FF4374002F02EFB0F
:1025700034214BF2017002F029FB34214BF202703E
:1025800002F024FB00214FF4324002F01FFB002137
:102590004BF2012002F01AFB00214BF2022002F064
:1025A00015FB24214FF4384002F010FB24214BF698
:1025B000010002F00BFB24214BF6020002F006FBA7
:1025C00001214FF43F4002F001FB00E0FEE30F2148
:1025D0004FF4334002F0FAFA0F214BF2013002F0CF
:1025E000F5FA0F214BF2023002F0F0FA34214FF4E9
:1025F000394002F0EBFA34214BF6011002F0E6FA12
:1026000034214BF6021002F0E1FA08214FF4354074
:1026100002F0DCFA08214BF2015002F0D7FA08214F
:102620004BF2025002F0D2FA03214FF4424002F082
:10263000CDFA24214FF43A4002F0C8FA24214BF697
:10264000012002F0C3FA24214BF6022002F0BEFA68
:1026500000214FF43C4002F0B9FA78214BF60140DA
:1026600002F0B4FA00214BF6024002F0AFFA00216A
:102670004FF43D4002F0AAFA78214BF6015002F0E7
:10268000A5FA00214BF6025002F0A0FA00214FF407
:102690003E4002F09BFA64214BF6016002F096FA8C
:1026A00000214FF4514002F091FA33214DF2011014
:1026B00002F08CFA00214DF2021002F087FA342168
:1026C0004DF2031002F082FA00214DF2041002F0E4
:1026D0007DFA3A214DF2051002F078FA00214DF210
:1026E000061002F073FA4A214DF2071002F06EFA5A
:1026F00000214DF2081002F069FA5C214DF2091038
:1027000002F064FA00214DF20A1002F05FFA812112
:102710004DF20B1002F05AFA00214DF20C1002F0AB
:1027200055FAA6214DF20D1002F050FA00214DF29B
:102730000E1002F04BFAE5214DF20F1002F046FAAE
:1027400001214DF2101002F041FA13214DF2111047
:1027500002F03CFA01214DF2121002F037FA542136
:102760004DF2131002F032FA01214DF2141002F072
:102770002DFA82214DF2151002F028FA01214DF2B6
:10278000161002F023FACA214DF2171002F01EFAB9
:1027900002214DF2181002F019FA00214DF2191021
:1027A00002F014FA02214DF21A1002F00FFA012180
:1027B0004DF21B1002F00AFA02214DF21C1002F039
:1027C00005FA34214DF21D1002F000FA02214DF2FB
:1027D0001E1002F0FBF967214DF21F1002F0F6F90E
:1027E00002214DF2201002F0F1F984214DF2211066
:1027F00002F0ECF902214DF2221002F0E7F9A421D7
:102800004DF2231002F0E2F902214DF2241002F001
:10281000DDF9B7214DF2251002F0D8F902214DF271
:10282000261002F0D3F9CF214DF2271002F0CEF995
:1028300002214DF2281002F0C9F9DE214DF22910D3
:1028400002F0C4F902214DF22A1002F0BFF9F22180
:102850004DF22B1002F0BAF902214DF22C1002F0C9
:10286000B5F9FE214DF22D1002F0B0F903214DF221
:102870002E1002F0ABF910214DF22F1002F0A6F944
:1028800003214DF2301002F0A1F933214DF2311045
:1028900002F09CF903214DF2321002F097F96D21FC
:1028A0004DF2331002F092F900214FF4524002F041
:1028B0008DF933214DF2012002F088F900214DF20B
:1028C000022002F083F934214DF2032002F07EF958
:1028D00000214DF2042002F079F93A214DF2052051
:1028E00002F074F900214DF2062002F06FF94A213E
:1028F0004DF2072002F06AF900214DF2082002F0A3
:1029000065F95C214DF2092002F060F900214DF2D9
:102910000A2002F05BF981214DF20B2002F056F9FA
:1029200000214DF20C2002F051F9A6214DF20D20AC
:1029300002F04CF900214DF20E2002F047F9E5219A
:102940004DF20F2002F042F901214DF2102002F069
:102950003DF913214DF2112002F038F901214DF219
:10296000122002F033F954214DF2132002F02EF917
:1029700001214DF2142002F029F982214DF2152097
:1029800002F024F901214DF2162002F01FF9CA21AC
:102990004DF2172002F01AF902214DF2182002F030
:1029A00015F900214DF2192002F010F902214DF223
:1029B0001A2002F00BF901214DF21B2002F006F95A
:1029C00002214DF21C2002F001F934214DF21D20AC
:1029D00002F0FCF802214DF21E2002F0F7F8672108
:1029E0004DF21F2002F0F2F802214DF2202002F0F9
:1029F000EDF884214DF2212002F0E8F802214DF299
:102A0000222002F0E3F8A4214DF2232002F0DEF8A8
:102A100002214DF2242002F0D9F8B7214DF22520F1
:102A200002F0D4F802214DF2262002F0CFF8CF2197
:102A30004DF2272002F0CAF802214DF2282002F0C0
:102A4000C5F8DE214DF2292002F0C0F802214DF236
:102A50002A2002F0BBF8F2214DF22B2002F0B6F84A
:102A600002214DF22C2002F0B1F8FE214DF22D2072
:102A700002F0ACF803214DF22E2002F0A7F810214D
:102A80004DF22F2002F0A2F803214DF2302002F087
:102A90009DF833214DF2312002F098F803214DF2D8
:102AA000322002F093F86D214DF2332002F08EF8BF
:102AB00000214FF4534002F089F833214DF20130E8
:102AC00002F084F800214DF2023002F07FF8342148
:102AD0004DF2033002F07AF800214DF2043002F09A
:102AE00075F83A214DF2053002F070F800214DF2F0
:102AF000063002F06BF84A214DF2073002F066F81A
:102B000000214DF2083002F061F85C214DF20930ED
:102B100002F05CF800214DF20A3002F057F88121F2
:102B20004DF20B3002F052F800214DF20C3002F061
:102B30004DF8A6214DF20D3002F048F800214DF27B
:102B40000E3002F043F8E5214DF20F3002F03EF86E
:102B500001214DF2103002F039F813214DF21130FD
:102B600002F034F801214DF2123002F02FF8542116
:102B70004DF2133002F02AF801214DF2143002F028
:102B800025F882214DF2153002F020F801214DF296
:102B9000163002F01BF8CA214DF2173002F016F879
:102BA00002214DF2183002F011F800214DF21930D7
:102BB00002F00CF802214DF21A3002F007F8012160
:102BC0004DF21B3002F002F802214DF21C3001F0F0
:102BD000FDFF34214DF21D3001F0F8FF02214DF2CE
:102BE0001E3001F0F3FF67214DF21F3001F0EEFFC0
:102BF00002214DF2203001F0E9FF84214DF2213015
:102C000001F0E4FF02214DF2223001F0DFFFA421A8
:102C10004DF2233001F0DAFF02214DF2243001F0B1
:102C2000D5FFB7214DF2253001F0D0FF02214DF242
:102C3000263001F0CBFFCF214DF2273001F0C6FF47
:102C400002214DF2283001F0C1FFDE214DF2293082
:102C500001F0BCFF02214DF22A3001F0B7FFF22152
:102C60004DF22B3001F0B2FF02214DF22C3001F079
:102C7000ADFFFE214DF22D3001F0A8FF03214DF2F2
:102C80002E3001F0A3FF10214DF22F3001F09EFFF6
:102C900003214DF2303001F099FF33214DF23130F4
:102CA00001F094FF03214DF2323001F08FFF6D21CE
:102CB0004DF2333001F08AFF00214FF4544001F00F
:102CC00085FF332100E080E34DF2014001F07EFFFB
:102CD00000214DF2024001F079FF34214DF2034012
:102CE00001F074FF00214DF2044001F06FFF3A2122
:102CF0004DF2054001F06AFF00214DF2064001F05F
:102D000065FF4A214DF2074001F060FF00214DF2BE
:102D1000084001F05BFF5C214DF2094001F056FFD5
:102D200000214DF20A4001F051FF81214DF20B408C
:102D300001F04CFF00214DF20C4001F047FFA621AD
:102D40004DF20D4001F042FF00214DF20E4001F026
:102D50003DFFE5214DF20F4001F038FF01214DF21A
:102D6000104001F033FF13214DF2114001F02EFF0E
:102D700001214DF2124001F029FF54214DF2134080
:102D800001F024FF01214DF2144001F01FFF8221C8
:102D90004DF2154001F01AFF01214DF2164001F0ED
:102DA00015FFCA214DF2174001F010FF02214DF22C
:102DB000184001F00BFF00214DF2194001F006FF11
:102DC00002214DF21A4001F001FF00E0FFE2012173
:102DD0004DF21B4001F0FAFE02214DF21C4001F0C1
:102DE000F5FE34214DF21D4001F0F0FE02214DF2BE
:102DF0001E4001F0EBFE67214DF21F4001F0E6FEA0
:102E000002214DF2204001F0E1FE84214DF22140EB
:102E100001F0DCFE02214DF2224001F0D7FEA42198
:102E20004DF2234001F0D2FE02214DF2244001F088
:102E3000CDFEB7214DF2254001F0C8FE02214DF232
:102E4000264001F0C3FECF214DF2274001F0BEFE27
:102E500002214DF2284001F0B9FEDE214DF2294059
:102E600001F0B4FE02214DF22A4001F0AFFEF22142
:102E70004DF22B4001F0AAFE02214DF22C4001F050
:102E8000A5FEFE214DF22D4001F0A0FE03214DF2E2
:102E90002E4001F09BFE10214DF22F4001F096FED6
:102EA00003214DF2304001F091FE33214DF23140CB
:102EB00001F08CFE03214DF2324001F087FE6D21BE
:102EC0004DF2334001F082FE00214FF4554001F0F5
:102ED0007DFE33214DF2015001F078FE00214DF2CC
:102EE000025001F073FE34214DF2035001F06EFEEA
:102EF00000214DF2045001F069FE3A214DF20550D7
:102F000001F064FE00214DF2065001F05FFE4A21FF
:102F10004DF2075001F05AFE00214DF2085001F029
:102F200055FE5C214DF2095001F050FE00214DF29A
:102F30000A5001F04BFE81214DF20B5001F046FE8C
:102F400000214DF20C5001F041FEA6214DF20D5032
:102F500001F03CFE00214DF20E5001F037FEE5215C
:102F60004DF20F5001F032FE01214DF2105001F0F0
:102F70002DFE13214DF2115001F028FE01214DF2DA
:102F8000125001F023FE54214DF2135001F01EFEA9
:102F900001214DF2145001F019FE82214DF215501D
:102FA00001F014FE01214DF2165001F00FFECA216E
:102FB0004DF2175001F00AFE02214DF2185001F0B7
:102FC00005FE00214DF2195001F000FE02214DF2E4
:102FD0001A5001F0FBFD01214DF21B5001F0F6FDEE
:102FE00002214DF21C5001F0F1FD34214DF21D5033
:102FF00001F0ECFD02214DF21E5001F0E7FD6721CA
:103000004DF21F5001F0E2FD02214DF2205001F07F
:10301000DDFD84214DF2215001F0D8FD02214DF259
:10302000225001F0D3FDA4214DF2235001F0CEFD3A
:1030300002214DF2245001F0C9FDB7214DF2255077
:1030400001F0C4FD02214DF2265001F0BFFDCF2159
:103050004DF2275001F0BAFD02214DF2285001F047
:10306000B5FDDE214DF2295001F0B0FD02214DF2F7
:103070002A5001F0ABFDF2214DF22B5001F0A6FDDC
:1030800002214DF22C5001F0A1FDFE214DF22D50F8
:1030900001F09CFD03214DF22E5001F097FD10210F
:1030A0004DF22F5001F092FD03214DF2305001F00E
:1030B0008DFD33214DF2315001F088FD03214DF299
:1030C000325001F083FD6D214DF2335001F07EFD51
:1030D00000214FF4564001F079FD33214DF201609B
:1030E00001F074FD00214DF2026001F06FFD34210A
:1030F0004DF2036001F06AFD00214DF2046001F021
:1031000065FD3A214DF2056001F060FD00214DF2B0
:10311000066001F05BFD4A214DF2076001F056FDAB
:1031200000214DF2086001F051FD5C214DF2096073
:1031300001F04CFD00214DF20A6001F047FD8121B4
:103140004DF20B6001F042FD00214DF20C6001F0E8
:103150003DFDA6214DF20D6001F038FD00214DF23C
:103160000E6001F033FDE5214DF20F6001F02EFD00
:1031700001214DF2106001F029FD13214DF2116083
:1031800001F024FD01214DF2126001F01FFD5421D8
:103190004DF2136001F01AFD01214DF2146001F0AF
:1031A00015FD82214DF2156001F010FD01214DF257
:1031B000166001F00BFDCA214DF2176001F006FD0B
:1031C00002214DF2186001F001FD00214DF219605D
:1031D00001F0FCFC02214DF21A6001F0F7FC012124
:1031E0004DF21B6001F0F2FC02214DF21C6001F077
:1031F000EDFC34214DF21D6001F0E8FC02214DF29E
:103200001E6001F0E3FC67214DF21F6001F0DEFC5F
:1032100002214DF2206001F0D9FC84214DF22160A1
:1032200001F0D4FC02214DF2226001F0CFFCA42178
:103230004DF2236001F0CAFC02214DF2246001F03E
:10324000C5FCB7214DF2256001F0C0FC02214DF212
:10325000266001F0BBFCCF214DF2276001F0B6FCE7
:1032600002214DF2286001F0B1FCDE214DF229600F
:1032700001F0ACFC02214DF22A6001F0A7FCF22122
:103280004DF22B6001F0A2FC02214DF22C6001F006
:103290009DFCFE214DF22D6001F098FC03214DF2C2
:1032A0002E6001F093FC10214DF22F6001F08EFC96
:1032B00003214DF2306001F089FC33214DF2316081
:1032C00001F084FC03214DF2326001F07FFC6D219E
:1032D0004DF2336001F07AFC5521184601F076FC7E
:1032E000AA21284601F072FC5221304601F06EFC02
:1032F0000821384601F06AFC0021484601F066FCCE
:10330000CC21584601F062FC00214BF2011001F083
:103310005DFC0521504601F059FC70214FF4374007
:1033200001F054FC70214BF2017001F04FFC0121BF
:103330004FF4384001F04AFC03214BF6010001F044
:1033400045FC03214BF6020001F040FC03214BF643
:10335000030001F03BFC02214FF43C4001F036FC3D
:1033600000214BF6014001F031FC00214BF60240F8
:1033700001F02CFCD0214FF4494001F027FC022140
:103380004CF6011001F022FC50214CF6021001F025
:103390001DFC50214CF6031001F018FC50214CF696
:1033A000041001F013FC00214FF4545001F00EFC06
:1033B00055214FF4685001F009FC4FF488502080EB
:1033C000782004F01BFC4FF424502080FEE3A0F58D
:1033D00013414FF4E06940F23F1A4FF4274B25396F
:1033E00024D040F20777C91E7DD04FF4887B083186
:1033F0007AD0113979D0A0F5A841083976D0A0F556
:10340000A8514FF4407B053971D0B1F520416FD000
:10341000B1F580516DD0A0F58A4131396AD0091FCC
:1034200069D0A0F5C851633966D0CFE747F6F001FF
:10343000E52001F0CBFB3146012001F0C7FB4946F6
:10344000022001F0C3FB41F23001032001F0BEFB7A
:103450000021042001F0BAFB40F20221082001F013
:10346000B5FB0021092001F0B1FB00210A2001F089
:10347000ADFB00210C2001F0A9FB00210D2001F083
:10348000A5FB00210F2001F0A1FB0021102001F07D
:103490009DFB0721112001F099FB0021122001F072
:1034A00095FB0021132001F091FB0021072001F082
:1034B0008DFB41F29061102001F088FB40F2272142
:1034C000112001F083FB9D21122001F07FFB4FF4BE
:1034D000C851132001F07AFB2521292001F076FB49
:1034E0000D212B2009E078E034E1D9E1AFE24AE395
:1034F000FEE3FEE3FEE3FEE3FEE301F067FB0721EC
:10350000302001F063FB40F20331312001F05EFB1B
:103510000321322001F05AFB40F20621352001F050
:1035200055FB0821362001F051FB40F206413720BF
:1035300001F04CFB4FF44171382001F047FB0721AB
:10354000392001F043FB40F202613C2001F03EFBD8
:1035500008213D2001F03AFB0021502001F036FB0C
:10356000EF21512001F032FB0021522001F02EFB0F
:103570005146532001F02AFB5946602001F026FBFA
:103580000121612001F022FB00216A2001F01EFBD5
:103590000021802001F01AFB0021812001F016FBA0
:1035A0000021822001F012FB0021832001F00EFB9C
:1035B0000021842001F00AFB0021852001F006FB98
:1035C0001021902001F002FB4FF4C061922001F025
:1035D000FDFA40F233110720FEE341F28F01EC20A7
:1035E00001F0F4FA41F23421EF2001F0EFFA314614
:1035F000012001F0EBFA4946022001F0E7FA41F21E
:103600003001032001F0E2FA0021042001F0DEFA8B
:1036100040F20221082001F0D9FA0021092001F02E
:10362000D5FA00210A2001F0D1FA01210C2001F085
:10363000CDFA00210D2001F0C9FA00210F2001F080
:10364000C5FA0021102001F0C1FA0721112001F074
:10365000BDFA0021122001F0B9FA0021132001F077
:10366000B5FA0121072001F0B1FA322004F0ACFADA
:1036700041F29041102001F0A9FA40F227211120D7
:1036800001F0A4FA322004F09FFA8A21122001F0FE
:103690009DFA322004F098FA4FF4D051132001F033
:1036A00095FA0621292001F091FA0D212B2001F035
:1036B0008DFA322004F088FA0021202001F086FAE9
:1036C0000021212001F082FA322004F07DFA00214D
:1036D000302001F07BFA40F20461312001F076FAEB
:1036E00040F20531322001F071FA0021352001F05D
:1036F0006DFA40F60941362001F068FA4FF4017185
:10370000372001F063FA40F20131382001F05EFA0F
:103710003946392001F05AFA00213C2001F056FACE
:1037200040F60A213D2001F051FA322004F04CFA13
:103730000021502001F04AFAEF21512001F046FA11
:103740000021522001F042FA5146532001F03EFA86
:10375000594651E10021084601F038FA314601206E
:1037600001F034FA4946022001F030FA41F230010A
:10377000032001F02BFA0021042001F027FA40F287
:103780000221082001F022FA0021092001F01EFA8E
:1037900000210A2001F01AFA01210C2001F016FA8A
:1037A00000210D2001F012FA00210F2001F00EFA85
:1037B000322004F009FA40F20111072001F006FA64
:1037C000322004F001FA4FF48651102001F0FEF986
:1037D0000721112001F0FAF95B465946122001F049
:1037E000F5F94FF43061132001F0F0F900212920A0
:1037F00001F0ECF944F210012B2001F0E7F900216F
:10380000502001F0E3F9EF21512001F0DFF9002110
:10381000522001F0DBF95146532001F0D7F94FF463
:103820001C51602001F0D2F90121612001F0CEF994
:1038300000216A2001F0CAF90021802001F0C6F9B8
:103840000021812001F0C2F90021822001F0BEF99F
:103850000021832001F0BAF90021842001F0B6F99B
:103860000021852001F0B2F91021902001F0AEF97D
:103870000021922001F0AAF90121932001F0A6F97C
:103880001946952001F0A2F90021972001F09EF938
:103890000021982001F09AF940F27311072084E387
:1038A00041F21401E72001F091F93146012001F0C5
:1038B0008DF94FF40071022001F088F941F23801CE
:1038C000032001F083F940F20221082001F07EF983
:1038D0000021092001F07AF900210A2001F076F98F
:1038E00000210C2001F072F900210D2001F06EF989
:1038F00000210F2001F06AF90021102001F066F983
:103900000721112001F062F90021122001F05EF977
:103910000021132001F05AF9C82004F055F941F2B2
:103920009061102001F052F940F22721112001F09E
:103930004DF9322004F048F90C21122001F046F92B
:10394000322004F041F94FF40061132001F03EF9F8
:103950001121292001F03AF90B212B2001F036F931
:10396000322004F031F90021202001F02FF95346D4
:103970005146212001F02AF90021302001F026F9DA
:103980004FF483742146312001F020F900213220C8
:1039900001F01CF94FF40171352001F017F941F2E3
:1039A0000A61362001F012F93946372001F00EF98C
:1039B0002146382001F00AF93946392001F006F98C
:1039C00040F202413C2001F001F940F60F413D2058
:1039D00001F0FCF80021502001F0F8F8EF2151200F
:1039E00001F0F4F80021522001F0F0F819465320BC
:1039F00001F0ECF84FF41C51602001F0E7F80121D0
:103A0000612001F0E3F800216A2001F0DFF80021D5
:103A1000802001F0DBF80021812001F0D7F800219F
:103A2000822001F0D3F80021832001F0CFF800219B
:103A3000842001F0CBF80021852001F0C7F8102187
:103A4000902001F0C3F84FF4C0619220FEE33146AC
:103A5000012001F0BBF84946022001F0B7F841F21D
:103A60003001032001F0B2F80021042001F0AEF88B
:103A700040F20721082001F0A9F80021092001F0F7
:103A8000A5F800210A2001F0A1F800210C2001F086
:103A90009DF800210D2001F099F800210F2001F080
:103AA00095F8142004F090F841F2B061102001F074
:103AB0008DF80121112001F089F80121172001F072
:103AC00085F84FF49C71122001F080F84FF40061EA
:103AD000132001F07BF80921292001F077F8092152
:103AE0002A2001F073F80021A42001F06FF80021D2
:103AF000502001F06BF8EF21512001F067F8002110
:103B0000522001F063F85146532001F05FF84FF462
:103B10001C51602001F05AF80121612001F056F893
:103B200000216A2001F052F80021802001F04EF8B7
:103B30000021812001F04AF80021822001F046F89E
:103B40000021832001F042F80021842001F03EF89A
:103B50000021852001F03AF81321902001F036F879
:103B60000021922001F032F80321932001F02EF879
:103B70005946952001F02AF840F27311072001F010
:103B800025F8322010E10021072001F01FF8322033
:103B900004F01AF84FF48E71122001F017F8012189
:103BA000A42001F013F80F21082001F00FF80821DC
:103BB0000A2001F00BF808210D2001F007F8394622
:103BC000302001F003F80721312000E06EE300F01F
:103BD000FDFF40F20361322000F0F8FF4C464946F9
:103BE000332000F0F3FF40F20221342000F0EEFF1A
:103BF0000221352000F0EAFF41F60F71362000F077
:103C0000E5FF3946372000F0E1FF0021382000F0C1
:103C1000DDFF0021392000F0D9FF39463A2000F0BD
:103C2000D5FF00213B2000F0D1FF07213C2000F010
:103C3000CDFF00213D2000F0C9FF322003F0C4FF7A
:103C40000121072000F0C2FF0121172000F0BEFF74
:103C5000322003F0B9FF4FF4BD51102000F0B6FF41
:103C600040F21721112000F0B1FF4FF48F711220A4
:103C700000F0ACFF4FF47061132000F0A7FF0021AB
:103C80002A2000F0A3FF0A21292000F09FFF4FF413
:103C90009F71122000F09AFF0021502000F096FF43
:103CA000EF21512000F092FF0021522000F08EFF02
:103CB0005146532000F08AFF4FF41C51602000F061
:103CC00085FF0121612000F081FF00216A2000F0C2
:103CD0007DFF0021802000F079FF0021812000F08D
:103CE00075FF0021822000F071FF0021832004E095
:103CF0005DE05BE123E2DAE281E300F067FF0021AF
:103D0000842000F063FF0021852000F05FFF132175
:103D1000902000F05BFF5946922000F057FF0521EC
:103D2000932000F053FF0021952000F04FFF002169
:103D3000972000F04BFF0021982000F047FF31460C
:103D4000012000F043FF2146022000F03FFF41F236
:103D50003801032000F03AFF0021042000F036FF74
:103D600000210C2000F032FF00210F2000F02EFF78
:103D70000021202000F02AFF0021212000F026FF52
:103D80002121072000F022FF142003F01DFF6121F4
:103D9000072000F01BFF142003F016FF40F2731100
:103DA000072000F013FF142003F00EFFA1E3002111
:103DB000084600F00BFF0021084600F007FF002135
:103DC000084600F003FF0021084600F0FFFE012135
:103DD000A42000F0FBFE00E0E3E0142003F0F4FE7A
:103DE0004FF41C542146602000F0F0FE40F2022502
:103DF0002946082000F0EAFE4FF40571302000F05B
:103E0000E5FE43F21571312000F0E0FE40F204615E
:103E1000322000F0DBFE40F61661332000F0D6FEC3
:103E200042F21121342000F0D1FE4FF4A851352088
:103E300000F0CCFE48F20751362000F0C7FE41F2F8
:103E40000741372000F0C2FE41F20341382000F064
:103E5000BDFE2021392000F0B9FE1A21902000F08B
:103E6000B5FE0021102000F0B1FE0721112000F066
:103E7000ADFE0021122000F0A9FE0021132000F069
:103E8000A5FE142003F0A0FE4FF4E661102000F020
:103E90009DFE40F23711112000F098FE142003F02F
:103EA00093FE4FF4DC71122000F090FE142003F01A
:103EB0008BFE4FF47061132000F088FE80212A20D1
:103EC00000F084FE4821292000F080FE142003F039
:103ED0007BFE3146012000F079FE4946022000F0C9
:103EE00075FE41F23801032000F070FE29460820DB
:103EF00000F06CFE00210A2000F068FE00210C207A
:103F000000F064FE00210D2000F060FE30210E2044
:103F100000F05CFE0021502000F058FEEF215120FF
:103F200000F054FE0021522000F050FE5146532074
:103F300000F04CFE2146602000F048FE0121612087
:103F400000F044FE00216A2000F040FE1121902084
:103F500000F03CFE4FF4C061922000F037FE40F2CA
:103F60000241932000F032FE0221942000F02EFE48
:103F7000142003F029FE0121072000F027FE142061
:103F800003F022FE6121072000F020FE40F27311B1
:103F9000072000F01BFE0021202000F017FE00216A
:103FA000212000F013FE222100207DE1002108469F
:103FB00000F00CFE0021084600F008FE142003F07B
:103FC00003FE0021084600F001FE0021084600F033
:103FD000FDFD0021084600F0F9FD0021084600F033
:103FE000F5FD0121A42000F0F1FD142003F0ECFD0B
:103FF0004FF41C51602000F0E9FD40F60601082056
:1040000000F0E4FD40F203731946302000F0DEFDBD
:104010000121312000F0DAFD0421322000F0D6FD2C
:104020004FF48171332000F0D1FD5C4659463420B5
:1040300000F0CCFD40F20311352000F0C7FD1F2138
:10404000362000F0C3FD1946372000F0BFFD0121E6
:10405000382000F0BBFD0421392000F0B7FD152108
:10406000902000F0B3FD4FF48261102000F0AEFD0F
:1040700040F24721112000F0A9FD4FF4DE7112201B
:1040800000F0A4FD4FF46061132000F09FFD782044
:1040900003F09AFD3146012000F098FD4FF40071C5
:1040A000022000F093FD41F23001032000F08EFD6C
:1040B00008210A2000F08AFD00210C2000F086FD76
:1040C00020210E2000F082FD00210F2000F07EFD57
:1040D0000021202000F07AFD0021212000F076FD53
:1040E0003D212A2000F072FD142003F06DFD2D21EA
:1040F000292000F06BFD0021502000F067FD4DF2FB
:10410000EF01512000F062FD0021522000F05EFD21
:104110005146532000F05AFD0021612000F056FD69
:1041200000216A2000F052FD2146922000F04EFD51
:104130000521932000F04AFD3146FFF7AFBB012176
:10414000002000F043FD0A2003F03EFD41F228610B
:10415000102000F03BFD0E21122000F037FD40F64C
:104160003921132000F032FD0A2003F02DFD4021FB
:10417000112000F02BFD5021152000F027FD0A2012
:1041800003F022FD1E21122000F020FD0A2003F082
:104190001BFD4FF4B151102000F018FD42F63921FB
:1041A000132000F013FD0A2003F00EFD314601201C
:1041B00000F00CFD5946022000F008FD41F23801E4
:1041C000032000F003FD40F20221082000F0FEFC75
:1041D00008210A2000F0FAFC0021302000F0F6FC53
:1041E00040F20241312000F0F1FC4FF483713220A3
:1041F00000F0ECFC40F20351332000F0E7FC4FF4F8
:104200008271342000F0E2FC40F20131352000F0F0
:10421000DDFC3946362000F0D9FC40F2053137206C
:1042200000F0D4FC4FF40271382000F0CFFC40F6CF
:104230000B71392000F0CAFC0221412000F0C6FCBD
:104240004FF41C51602000F0C1FC00E0D2E00121DD
:10425000612000F0BBFC4FF40471902000F0B6FC2C
:104260004FF48571922000F0B1FC0421932000F0FE
:10427000ADFC3146A02000F0A9FC0121072000F090
:10428000A5FC2121072000F0A1FC2321072000F03C
:104290009DFC3321072000F099FC40F233110720E8
:1042A00000F094FC0021A02000F090FC21E13021DE
:1042B000152000F08BFC10219A2000F087FC2021B3
:1042C000112000F083FC43F22841102000F07EFC16
:1042D0000221122000F07AFC41F23801132000F094
:1042E00075FC282003F070FC1221084600F06EFCDB
:1042F000282003F069FC43F22041102000F066FC06
:1043000043F23801132000F061FC462003F05CFC0E
:104310000021302000F05AFC40F20241312000F030
:1043200055FC40F20731322000F050FC4FF441714F
:10433000332000F04BFC0421342000F047FC40F215
:104340000141352000F042FC3946362000F03EFCA9
:1043500040F20531372000F039FC4FF4C2631946B2
:10436000382000F033FC1946392000F02FFC31468C
:10437000012000F02BFC5946022000F027FC41F2FE
:104380003001032000F022FC40F60801082000F074
:104390001DFC08210A2000F019FC4FF41C5160207C
:1043A00000F014FC0121612000F010FC4FF49F711B
:1043B000902000F00BFC3146922000F007FC3146C3
:1043C000932000F003FC4FF44051A02000F0FEFBCE
:1043D0001021A32000F0FAFB0121072000F0F6FBDA
:1043E0002121072000F0F2FB2321072000F0EEFB43
:1043F0003321072000F0EAFB40F233119DE6E22072
:104400002080232028800220288004202880642007
:1044100003F0F4FBE0202080012028800A2003F034
:10442000D3FBE0202080032028800C2003F0CCFB6D
:10443000012020800A2003F0C7FBE6202080032013
:104440002880FF2028802880B020208020202880FD
:10445000002028800320288040F21F30288001207F
:10446000288040F2DF10288000202880B42020809F
:104470000420288040F21F40288000202880D2207D
:10448000288000202880288028802880B62020804E
:10449000022028804FF403702880002028802220EA
:1044A000288009202880002028802880F020208073
:1044B0000320288029202080D020208000202880F0
:1044C000BE20208005202880FE2028800120288012
:1044D000FF20288000202880B82020800F202880FE
:1044E00001202880BA20208001202880642000F04C
:1044F000A9F80020FCF794FF04490120C1F88001CD
:104500004046FCF757FF1FB0BDE8F08F0080214206
:10451000034808B50088ADF80000BDF8000008BDEC
:104520000008006C2DE9F0413E4E002425463288FB
:10453000824202D972888A4202D80020BDE8F08106
:1045400000F072F9B08849F24138374B41F66317F1
:1045500045F2103145F21052404508D0A0F5D04C3C
:10456000BCF1040C03D0884201D0B84202D14FF014
:104570002E0C06E0904202D14FF4385C01E04FF07F
:10458000220CA3F800C0A0F51343203B03D1022066
:10459000401EC0B2FCD2FFF7BBFFB388BB42CDD0F8
:1045A0000220401EC0B2FCD2FFF7B2FF0746B0881F
:1045B000404503D0884201D090420BD10220401EDA
:1045C000C0B2FCD2FFF7A4FF0546F8B24FF6FF7366
:1045D00003EA0024B088A0F51343253B1AD0A0F5C8
:1045E0008A43353B16D01B1D14D0A0F53543053B3F
:1045F00010D0B3F580530DD0404503D0884201D090
:10460000904209D1F80AC002A10A40EA411040EAEA
:10461000D52093E7384691E73846BDE8F041FCF7EE
:10462000BFBE0000E4010020FE07006C044910B585
:104630000880052003F0E2FABDE81040FFF768BFEC
:10464000FE07006C0C4A10B5BE211180941C052198
:10465000218007F018FE4FF06632084B07F026FE67
:1046600007F0E4FD208001202080FF202080002032
:104670002080208010BD0000FE07006C66660440AC
:10468000F0B5674E00233146B279898846F60407B3
:1046900041F66314012A01D02AB11DE0B9421BD0B2
:1046A000A14202D118E0A14216D1082814D2DFE8B5
:1046B00000F00406080A0C0E101206200CE0072079
:1046C0000AE0042008E0052006E0012004E00020C4
:1046D00002E0032000E00220A1F5134C45F2103265
:1046E00045F21055BCF1410C07D0B94205D09142BA
:1046F00003D0A94201D0A14275D1082812D2DFE827
:1047000000F0110406080A0C0E1080230AE0402372
:1047100008E0C02306E0202304E0602302E0A02399
:1047200000E0E023A94202D14FF4585000E03620C7
:10473000914205D0A94203D0A14201D043F0080321
:10474000B94201D143F00203194600F03FFAB288A2
:10475000A2420AD098063088718802D5884202D3D6
:1047600003E0884201D9318070802E48811CAA4222
:104770007289028021D100230B80531C0380002307
:104780000B80931C038033885B1E1C0A0C80D21C98
:104790000280DAB20A80B289028000230B80531CA7
:1047A000038000230B80931C038073885B1E1C0A0C
:1047B0000C80D21C0280D8B212E000220A800A804B
:1047C0003288521E130A0B80D2B20A80B28902804C
:1047D0000020088008807088401E020A0A80C0B24B
:1047E0000880F0BDFFE7082812D2DFE800F00406D9
:1047F00008110A0C0E1030230AE0102308E02023D1
:1048000006E0382304E0282302E0182300E0082310
:10481000BDE8F040032043F4805100F0D7B9000018
:10482000E4010020FE07006C2DE9F04F4E4F0B46CF
:104830003A46BD880C0ADFF834B191895289A5F552
:1048400013464FEA102C0BF1020A413E1DD0A5F58C
:10485000A646103E19D03E46BE4696F806903688CB
:10486000A5F5D047A6EB0008A8F10108043F17D032
:10487000A5F5C857633F28D0A5F5AA477646103F4F
:1048800051D0B9F1010F63D064E0ABF8002052467B
:10489000AAF800C0C0B2AAF80000ABF800100FE000
:1048A000B9F1010F01D11FFA88F0ABF80020050A19
:1048B0005246AAF80050C0B2AAF80000ABF80010A7
:1048C0001480D8B21080BDE8F08FB9F1000F1BD072
:1048D000ABF800205246AAF800C0C0B2AAF8000007
:1048E000761E300AAAF80000F0B21080ABF8001073
:1048F00011461480D8B21080BEF80200401E020A91
:104900000A80C0B20880DEE71FFA88F0ABF800200A
:1049100000265246AAF80060AAF80060060AAAF823
:104920000060C0B2E1E7ABF80020AAF800C0521C5A
:10493000ABF80020C0B2AAF80000ABF80010AAF84B
:104940000040491CABF80010D8B2AAF80000BAE742
:104950001FFA88F00146104600F038F9B089BDE82A
:10496000F04F194600F032B9E4010020FE07006C58
:104970002DE9FC4F044691464844401E86B2C818B3
:10498000401E83B2009004EB0900401EC0F3072EC6
:10499000DFF850C100980D46C0F3072B6046BCF805
:1049A00004204FEA112881894089A2F513474FEA74
:1049B000142A413F10D0A2F5A647103F0CD0A2F513
:1049C000D047043F08D09CF8067041F6631C01975D
:1049D000012F13D1624511D1434F3880B81CA0F884
:1049E00000A0E2B20280A0F800E0F2B202803980BA
:1049F000A0F80080E9B2018059461CE0394F6245B9
:104A00003F881DD1A7EB0902121B374C009B92B2C5
:104A10009BB22080160AA01C0680D6B206804A44AB
:104A2000521E160A0680D2B202802180A0F80080B1
:104A3000E9B20180190A0180D9B20180BDE8FC8F7A
:104A4000A2F5A04CBCF5A26C1FD0019801283FD064
:104A5000B04621462E4650204FF0510A4FF05209E1
:104A6000532700F0B3F84146504600F0AFF8314606
:104A7000484600F0ABF81946384600F0A7F829463A
:104A80002046BDE8FC4FFFF7CFBE174A1080971CA9
:104A9000A7F800A000F1010CA2F800C0E4B23C802D
:104AA000841C1480A7F800E0C01C1080F0B238808D
:104AB0001180A7F80080481C1080E8B23880881C5C
:104AC0001080A7F800B0C91C1180D8B23880B5E7B3
:104AD000B81B401E86B2381B9846401E294683B23A
:104AE000B9E70000E4010020FE07006C2DE9F84F53
:104AF00082461F460C468B46580700D0012000EB2B
:104B0000D70079084843203AC0B202F0FF090026D6
:104B1000009041E00C2F10D0102F12D0182F3ED152
:104B2000204909EBC90001EB80004FF00008855DCA
:104B300028060AD51C4802880BE009EB49001B49EE
:104B4000F1E71B4901EB0910EFE70A9828B916486D
:104B5000428821465046FCF7FDFC6806050E1548C4
:104B6000641CA4B24088A04219D9A4EB0B00B8423F
:104B700009D10AF101001FFA80FA0E485C4601884B
:104B800051450CD906E008F1010000F0FF08B8F12A
:104B9000080FCDD3761CF6B200988642BAD3BDE892
:104BA000F88F0000AAD500081400002046CB0008AA
:104BB000BACF0008E40100200248034900890880B8
:104BC00070470000E4010020FE07006C024A1080DC
:104BD000901C018070470000FE07006C38B5012171
:104BE000482000F039F92024ADF8004010208DF85D
:104BF000030003200B4D8DF8020069462846FCF7A0
:104C00009BFA20212846FCF718FBADF80040064C23
:104C100069462046FCF790FA20212046FCF70DFB60
:104C200038BD0000000C014000180140FEE770474D
:104C300030B50F23C27801780125F2B1144A126809
:104C400001F1E02102F4E062C2F5E062120AC2F171
:104C50000404D3404278A24084781C4014432201CB
:104C600081F80024007800F01F018D404009800089
:104C700000F1E020C0F8005130BD01F01F00854078
:104C80004809800000F1E020C0F8805130BD0000EC
:104C90000CED00E00249084302490860704700003B
:104CA0000000FA050CED00E0F8B50024012140F207
:104CB0003D1000F0D1F84FF48075ADF80050482653
:104CC0008DF803600320354F8DF8020069463846A1
:104CD000FCF732FA29463846FCF7AFFA1820ADF84F
:104CE00000002F4F10258DF8035069463846FCF719
:104CF00023FA18213846FCF7A0FAFF20ADF800008F
:104D00008DF8036069462748FCF716FA4020ADF895
:104D10000000254E8DF8035069463046FCF70CFA2A
:104D200040213046FCF789FA4FF44046ADF8006068
:104D30008DF803501D4D69462846FCF7FDF93146B4
:104D40002846FCF77AFA01211948FCF743FA00F0EB
:104D5000D9F88021122000F00BFA08B10120F8BD2B
:104D6000322002F031FF0B2000F05EF9732804D1ED
:104D70000A2000F059F9762801D00220F8BD0D4D27
:104D800005EB4400417815F8140000F0F1F9641CBB
:104D9000A4B2A82CF4D30020F8BD00000008014004
:104DA000000C0140001001400014014000200140AF
:104DB0000002300006E300082DE9F041054600EB53
:104DC000420086B201EB430084B20F46B4F5447F43
:104DD00002D9A4F54474A4B2032000F025F906F02A
:104DE0000302294600F0F00062F39F010143032013
:104DF00000F0BEF9C5F38701192000F0B9F9C6F338
:104E000087011A2000F0B4F9322000F00DF9C7F341
:104E1000C701172000F0ACF9C4F3C701BDE8F041A9
:104E2000182000F0A5B97047044A0029516901D043
:104E3000014300E0814351617047000000100240CF
:104E4000044A0029D16901D0014300E08143D161C6
:104E50007047000000100240044A0029916901D007
:104E6000014300E08143916170470000001002405F
:104E700030B5204A5168204B11F00C0103D00429B1
:104E800001D0082901D0036012E05168536801F491
:104E900070114FF0020413F4803F04EB914102D0F3
:104EA00053689B0301D5154B00E0134B5943016038
:104EB00051680F2303EA1111114B5C5C0168E1405A
:104EC00041605468072505EA14241C5D21FA04F4A6
:104ED0008460546805EAD4241B5DD940C1605268DF
:104EE000032303EA9232064B1B1F9A5CB1FBF2F1DB
:104EF000016130BD0010024000127A0000093D003F
:104F00004200002038B501214FF49070FFF7A4FF54
:104F10004FF40055ADF8005048208DF803000320F1
:104F2000114C8DF8020069462046FCF705F9294628
:104F30002046FCF782F90820ADF8000010200B4D48
:104F40008DF8030069462846FCF7F6F80821284644
:104F5000FCF773F9606820F470006060606840F4EA
:104F60004010606038BD0000002001400014014086
:104F700070B5322002F042FE0C4D0120C5F8B4019C
:104F80000B4EC6F88C01322005F5DA7506F5C676AB
:104F900002F034FE00243460322002F02FFE2C6038
:104FA000BDE87040322002F029BE0000000024421B
:104FB000008022422DE9F047184F0024786820F441
:104FC00070007860786840F400007860DFF85090F6
:104FD000144E08254FF00108A246322002F00EFEC2
:104FE000C6F88C816006040ED9F8340108B1641C3F
:104FF000E4B2322002F002FEC6F88CA16D1E15F05C
:10500000FF05EAD1786820F470007860786840F491
:10501000401078602046BDE8F08700000020014085
:10502000000024420080224210B5044600F022F81D
:10503000422000F055F8642002F0E0FD204600F028
:105040004FF8642002F0DAFD00F02EF8642002F040
:10505000D5FD00F00FF8432000F042F8642002F084
:10506000CDFDFFF7A7FF0446FFF782FF00F01CF815
:10507000204610BD70B50A4E0120C6F8B401094D96
:10508000C5F88C01322005F5C67506F5DA7602F012
:10509000B5FD00243460322002F0B0FD2C6070BDFC
:1050A000000024420080224270B50B4C0020C4F85E
:1050B000B401322004F5DA7402F0A0FD074801259E
:1050C000C0F88C51322002F099FD2560BDE8704097
:1050D000322002F093BD00000000244200802242F2
:1050E0002DE9F04700241F4E1F4F0546A0464FF004
:1050F0000109280601D5484600E04046C6F8B4013B
:105100006806050E322002F079FDC7F88C91322036
:1051100002F074FDC7F88C81641CE4B2082CE8D35B
:10512000124C606820F470006060606840F4000019
:105130006060322002F062FDC7F88C91322002F0EC
:105140005DFDD6F8340100B10120C7F88C8161689B
:1051500021F470016160616841F440116160BDE853
:10516000F08700000000244200802242002001401D
:1051700070B50D4606460024FFF77CFF4220FFF77E
:10518000AFFF00B10124642002F038FD3046FFF784
:10519000A7FF00B10124642002F030FD2846FFF78C
:1051A0009FFF00B10124FFF77FFF204670BD000084
:1051B0002DE9FC41002600963546019600B10225F6
:1051C0001B484069800102D50E20BDE8FC81194CC6
:1051D0006946208980B2FBF7FFFE0028F5D10198CF
:1051E000400322D52089144C00044FF04008206071
:1051F0003720C4E901084FF480672046C4E90367FB
:1052000000F090F83720FBF733FC0028DDD10620B2
:10521000C4F80880C4E90050C4E90367204600F0E0
:1052200081F80620FBF724FCCFE72520CDE700001E
:10523000008001401C0000201012002001498863FA
:1052400070470000008001400149C1F8A00070478C
:1052500000003042034A516821F0FF0101435160D0
:10526000704700000080014001490860704700005D
:105270008C05304210B5094902684A6242688A6268
:10528000CA6AD0E902342343D0E90440044322F03F
:10529000F70223431343CB6210BD0000008001409E
:1052A00006480021016041608160C1604162816205
:1052B000C162034A8263C1637047000000800140FD
:1052C000FF07C000034A01460020526B0A4200D08B
:1052D00001207047008001400248006800F0030090
:1052E000704700000080014000F06CBB30B5094BF6
:1052F0005A6847F6FF618A43017D8468C568214387
:1053000044682C432143046800692143014311434D
:10531000596030BD008001400148D0F880007047DE
:105320000080014010B5084902688A60CA68D0E967
:1053300001342343D0E9034004436FF30A022343BB
:105340001343CB6010BD00000080014004490A688F
:1053500022F003020A600A6802430A6070470000F4
:10536000008001400149C1F8800070470080014081
:10537000F0B50F4604468BB0154601210220FFF719
:1053800053FD114E3046FBF73DFC00213046FBF744
:105390002DFC0E4880218DE83100B80803900020D4
:1053A000CDE90401890006918900CDE90710890043
:1053B000CDE9091069463046FBF796FC00213046DE
:1053C000FBF714FC0BB0F0BD4404024080800140A8
:1053D00010B51049044600200978032906D019B1F8
:1053E000012901D0022902D1022C01D3272010BDAE
:1053F000E0B2FFF7DDFE0028F9D107494A6822F440
:10540000C0524A604A68A3B242EAC3224A604A686C
:105410004A6010BD1C000020008001402DE9F047CB
:105420008249DFF80CA24FF0000C0B7880F8563060
:105430000989A0F85410DAF800104FF001090A0E9B
:1054400095090570C2F38305457002F0030282706E
:105450000A0CC2700A0A02714171DAF80420110EB6
:105460000C01C2F3074144EA111401F00F08C48093
:10547000C2F3072180F80880CC094472C1F380147C
:105480008472C1F34014C472C1F30014047354460F
:1054900080F80DC0A468260EC4F30745C4F307279F
:1054A00033B1012B04D0032B02D0022B30D03EE0CD
:1054B0008907090DD2B241EA820141EA9612C6F388
:1054C000C2010261017506F0070141756909817524
:1054D000C5F38201C175A9074B0F394643EAD115BF
:1054E0000576AD1C09FA05F3DE17521CA2FB035723
:1054F0000CFB037302FB063309FA08F2A5FB0267F3
:10550000026503FB027205FB0C22C0E912620EE089
:105510009106890A41EA06222A430261521C530B72
:10552000D204C0E912234FF4007239460265C1F378
:105530008012427689064A0EE1B242EAD11200F8A0
:105540001A2F01F07F014170DAF80C20110ECB09FF
:105550008370C1F34113C370C1F3820303718907E0
:105560000B0FC2F3074143EA91134371C1F3401398
:10557000837180F807C001F001010172C2F30721B5
:10558000CB094372C1F380138372C1F34013C3721A
:10559000C1F300130373C1F38103437301F00301EB
:1055A0008173C2F34601224AC173103280F8109011
:1055B00011684B460C0E84740C0CC1F3072545EAA8
:1055C000042484820C0651680D0E44EA0544C1F39C
:1055D000074544EA0524C1F307252C43C0F81640CB
:1055E00000F81A1F91680C0E44700C0CC1F30725CB
:1055F000240644EA0544C9B244EA0124D16844EAD5
:105600001164C1F307424460047A44EA121404723C
:10561000C1F30724120744EA12524281C1F3460142
:10562000017343736046BDE8F08700001C00002052
:105630003C1200207CB501213020FFF70DFC012138
:1056400040F20240FFF7F0FB4FF4F850ADF80000D5
:1056500018258DF8035003248DF802406946294827
:10566000FBF76AFD0420ADF800008DF80350264DCD
:105670008DF8024069462846FBF75EFD8021ADF8B3
:10568000001048208DF803008DF802406946284636
:10569000FBF752FDFFF704FE31208DF804000020D7
:1056A0008DF805008DF8060001208DF8070001A88F
:1056B000FFF7BEFA00F0B8F8144C80B900F02AF8F1
:1056C00068B92046FFF7AAFE48B9B4F854000004B0
:1056D00000F054FC18B90120FFF77AFE18B10C490C
:1056E000097803290AD194F8560040B1012806D060
:1056F0000420FFF7AFFD002000F056FC7CBD0A201F
:10570000F7E7000000100140001401406012002083
:105710001C0000202DE9F84F0120ADF80000FFF734
:10572000DBFD88B3DFF8F49099F80000042872D00C
:105730003B4C02204FF0C00B0025C4F808B0C4E970
:1057400000504602C4E903562046FFF7EBFDFBF785
:10575000B7F900281AD1334F796904F13C00016090
:10576000B9694160F9698160396AC16099F80000DE
:105770004FF0030A4FF0400850B1012808D0062826
:1057800006D0022804D012E0FFE72520BDE8F88FFC
:10579000C4F80880C4E9005AC4E903562048FFF75A
:1057A000C1FD69460320FBF7C7F90028EED199F83F
:1057B000000003280FD1BDF80000C4F808800004E1
:1057C000C4E9000AC4E903561548FFF7ABFDFBF72F
:1057D00077F90028DAD199F8000004281BD0BDF829
:1057E0000000C9F80800000420600920C4E9010B8A
:1057F000C4E903560A48FFF795FDFBF761F9002855
:10580000C4D1796906482C300160B9694160F969F1
:105810008160396AC1600020B8E700001C000020E8
:1058200010120020008001402DE9F05F0027604841
:10583000B2213E460175076047608760C7603C46FD
:105840003D46B946B8460761FFF750FD0320FFF714
:105850007DFD0120FFF7F8FCDFF854A14FF4806BC9
:105860000AF1180A5248CAF80080CAF80480CAF837
:105870000880CAE9038B1830FFF754FDFBF7E3F803
:1058800028B17F1CFFB24A2FECD3BDE8F09F4FF444
:10589000D570CAF8000008205746CAF80400402016
:1058A000C7E902080001CAF8100041481830FFF7A4
:1058B00039FDFBF77DF920B93E4901204FF08049C1
:1058C0000870BA46384641463722402780E88600AD
:1058D000C0F80C8036483901C3461830CAF8101099
:1058E000FFF720FD3720FBF7C3F84FF6FF7888B3AA
:1058F000B9465646304F4FF0010B4FF4806ABDB3A6
:105900004DE055463720C5E900B04FF48068CAF82D
:1059100010802748C5E9027B5E461830FFF702FD7C
:105920003720FBF7A5F80028AFD1244949EA010048
:1059300028602920C5E90107C5E903681C4818301B
:10594000FFF7F0FCFBF7E0F800289ED11A494E69FA
:10595000F50F641C1DB94FF6FF718C42D1D34FF681
:10596000FF718C421DD216F0804F8ED002221BE0B8
:1059700013E01348C6E9000B0020C6F810A0C6E9E2
:1059800002900B481830FFF7CDFCFBF7BDF800285C
:10599000CAD17969CD0F641CB1E74445E9D34445C8
:1059A00001D31B2071E7032202490A706DE7000052
:1059B000F81100201C000020008001400000108031
:1059C0000080FF802DE9F041354C606B354DC005FE
:1059D0004CF23A3620D5A878002101280CD0E97085
:1059E000A06B40F48070A063E06BB043E0630120E3
:1059F0002871E878BDE8F0812B480C22C0E900123C
:105A00004022C0E9022111010161FFF78BFC0C204B
:105A1000FBF72EF8E870E3E70220FFF753FC40B1F4
:105A20000220FFF70BFCE06BB043E0630220E8705C
:105A3000E0E70820FFF746FC40B10820FFF7FEFB37
:105A4000E06BB043E0630420E870D3E72020FFF769
:105A500039FC40B12020FFF7F1FBE06BB043E0637D
:105A60000620E870C6E71020FFF72CFC40B110209C
:105A7000FFF7E4FBE06BB043E0630520E870B9E7B3
:105A80004FF400773846FFF71DFC0028B2D03846A7
:105A9000FFF7D4FBE06BB043E0630720E870A9E7B1
:105AA000008001401C000020101200202DE9F84F5A
:105AB00017460A9E05004FF0FF3466D0DFF8D0810C
:105AC0000020C8F82C00DFF8CCA14FF4007B9AF836
:105AD0000010022903D1570A5E4647EAC3578146A0
