:020000040800F2
:10000000B8060020D51A0008E1030008E303000841
:10001000F3030008F7030008FB03000800000000DA
:10002000000000000000000000000000FF030008C6
:100030000104000800000000030400080504000893
:10004000EF1A0008EF1A0008EF1A0008EF1A00086C
:10005000EF1A0008EF1A0008EF1A0008EF1A00085C
:10006000EF1A0008EF1A0008EF1A0008EF1A00084C
:10007000EF1A0008EF1A0008EF1A0008EF1A00083C
:10008000EF1A0008EF1A0008EF1A0008EF1A00082C
:10009000EF1A0008EF1A0008EF1A0008EF1A00081C
:1000A000EF1A0008EF1A0008EF1A0008EF1A00080C
:1000B000EF1A0008310A000801460008EF1A00088C
:1000C000EF1A0008EF1A0008EF1A0008EF1A0008EC
:1000D000EF1A0008491A0008EF1A0008EF1A000882
:1000E000EF1A0008EF1A0008EF1A0008EF1A0008CC
:1000F000EF1A0008EF1A0008EF1A0008EF1A0008BC
:10010000EF1A0008EF1A0008EF1A0008EF1A0008AB
:10011000EF1A0008EF1A0008EF1A0008EF1A00089B
:100120003D07000859070008EF1A0008EF1A0008F9
:10013000EF1A0008EF1A0008EF1A0008EF1A00087B
:10014000EF1A0008EF1A0008EF1A0008EF1A00086B
:10015000EF1A0008EF1A0008EF1A0008EF1A00085B
:10016000EF1A0008EF1A0008EF1A0008EF1A00084B
:10017000EF1A0008EF1A0008ED080008EF1A00084F
:10018000EF1A0008EF1A000800F002F800F06DF80E
:100190000AA090E8000C82448344AAF10107DA45E2
:1001A00001D100F062F8AFF2090EBAE80F0013F0C7
:1001B000010F18BFFB1A43F001031847985C0000B9
:1001C000B85C00000A444FF0000C10F8013B13F03B
:1001D000070408BF10F8014B1D1108BF10F8015BA0
:1001E000641E05D010F8016B641E01F8016BF9D193
:1001F00013F0080F1EBF10F8014BAD1C0C1B09D1EA
:100200006D1E58BF01F801CBFAD505E014F8016B5B
:1002100001F8016B6D1EF9D59142D6D370470000ED
:100220000023002400250026103A28BF78C1FBD8FF
:10023000520728BF30C148BF0B607047642904F0E3
:10024000B187752904F0AE87782904F0E787632920
:1002500005F03B81732905F04081002070471FB5F0
:1002600005F0A7F91FBD10B510BD05F069F91146DD
:10027000FFF7F5FF00F062F805F087F903B4FFF728
:10028000F2FF03BC01F080FB1CB50121084602F01F
:100290006DFA4FF48070009002208DF80400002069
:1002A0008DF8060003208DF8050069463D4801F0F1
:1002B000EBFD4FF0C061002002F03CF91CBDADF534
:1002C000207D0026002738E037A004F00FFF00242F
:1002D00031E037A004F00AFF00251AE01E2C02DAF4
:1002E0004FF6FF7711E03C2C02DA4FF478470CE030
:1002F0005A2C01DA1F2708E0782C02DA4FF4FC6749
:1003000003E0A02C01DA4FF4FC672DF81570681C8F
:1003100085B2A02DE2DB002606E03DF8161025A0F0
:1003200004F0E4FE701C86B2A02EF6DB23A004F0DD
:10033000DDFE601C84B2782CCBDBC5E74FF4A060F7
:1003400001F0E6FBA82001F09DFA4FF4E13001F046
:1003500029FBFFF799FF08E0C82001F0F5FA18A083
:1003600004F0C4FEC82001F0EFFA00F041FE0028BE
:10037000F2D17821A02001F07CF815A004F0B6FE9F
:10038000C82001F0E1FA00F0F3F94FF48063DA00DD
:100390004FF49641114800F041F900F07EFA00BF99
:1003A000FEE7000000000240646174613A0A000048
:1003B0004C00000025303458000000000A00000006
:1003C0004F5632363430204641494C3A0A0000003C
:1003D0004F5632363430204F4B3A0A00001000207E
:1003E00070470948006800F0010000B100BE00BF7E
:1003F000FEE700BFFEE700BFFEE700BFFEE7704775
:100400007047704770470000F0ED00E00CB5002029
:10041000019000907648006840F48030744908608C
:1004200000BF7348006800F4003000900198401C41
:100430000190009818B90198B0F5A04FF1D16C481F
:10044000006800F4003010B10120009001E00020AD
:1004500000900098012846D165484030006840F07F
:1004600080506349403108606248006840F4404071
:10047000604908605E48083000685D4908310860DE
:100480000846006840F4004008600846006840F4F0
:10049000A05008605848091F0860081F006840F015
:1004A0008070091F086000BF5148006800F00070AC
:1004B0000028F9D040F20570504908604C480830D7
:1004C000006820F003004A490831086008460068C7
:1004D00040F00200086000BF45480830006800F0A6
:1004E0000C000828F8D10CBD10B54548006840F450
:1004F0007000434908603E48006840F001003C49F4
:10050000086000203A4908310860394800683D49D0
:100510000840374908603C48091D0860081F00680A
:1005200020F48020091F0860002031490C31086048
:10053000FFF76CFF4FF0006031498039086010BD53
:1005400070B500200022022300240221284D083526
:100550002D6805F00C0020B1042806D0082834D1FD
:1005600007E02A4D2A4E356033E02A4D284E35608B
:100570002FE01F4D2D1D2D68C5F380541C4D2D1DE2
:100580002D6805F03F0154B1224DB5FBF1F5184E31
:10059000361D3668C6F3881605FB06F209E01B4DCA
:1005A000B5FBF1F5124E361D3668C6F3881605FB0D
:1005B00006F20F4D2D1D2D68C5F301456D1C6B0016
:1005C000B2FBF3F5124E356003E0104D104E35606E
:1005D00000BF00BF064D08352D68C5F303150E4E4C
:1005E000705D0B4D2D68C540094E356070BD000033
:1005F000003802400070004008544007003C0240B0
:1006000088ED00E0FFFFF6FE103000240024F40027
:100610000000002000127A0004000020F0B591B024
:1006200004460D4616461F460121880502F09EF835
:10063000DA4801F0EDFC00BFD84801F012FE0028B6
:10064000FAD14FF000700290D54803900494002036
:1006500005900695079008974FF4805009900A96E8
:1006600000110B9040020C9004200D9003200E907E
:1006700000200F90109002A9C84801F06BFD0122E4
:100680001021C64801F02DFE39208DF8040000200D
:100690008DF805008DF8060001208DF8070001A8EF
:1006A00001F03BFA11B0F0BDF0B591B004460D4633
:1006B00016461F460121880502F058F8B748183839
:1006C00001F0A6FC00BFB548183801F0CAFD0028AB
:1006D000F9D14FF000700290B148039004940020CB
:1006E00005900695079008974FF4805009900A9658
:1006F00000110B9040020C9004200D9003200E90EE
:1007000000200F90109002A9A448183801F022FD93
:1007100001221021A148183801F0E3FD38208DF89E
:10072000040000208DF805008DF8060001208DF8EA
:10073000070001A801F0F1F911B0F0BD10B5994919
:100740009648183801F09DFD012804D19549934839
:10075000183801F0B2FD10BD10B592498F4801F074
:1007600090FD012803D18F498C4801F0A6FD10BDF2
:100770000EB50121172001F0F9FF0121084602F012
:1007800006F85020019002208DF8080000208DF816
:100790000A0003208DF8090001208DF80B0001A943
:1007A000814801F071FBC020019001A97F4801F050
:1007B0006BFB4FF43C60019001A97D4801F064FBA4
:1007C0006020019001A97B4801F05EFB0D2204210D
:1007D000754801F0E4FB0D220621734801F0DFFBB0
:1007E0000D220721714801F0DAFB0D220621704825
:1007F00001F0D5FB0D2207216D4801F0D0FB0D2241
:1008000008216B4801F0CBFB0D220921684801F05B
:10081000C6FB0D220B21664801F0C1FB0D2206210B
:10082000624801F0BCFB0D220521624801F0B7FBD4
:100830000D2206215F4801F0B2FB01F0D9F900203A
:100840005D490880488188810881202088800020B7
:1008500048808020C880084601F0D6F9012108466A
:1008600001F052FA0121102001F04EFA0121082076
:1008700001F04AFA012001F026FA4E208DF800001E
:1008800001208DF8010002208DF8020001208DF872
:100890000300684601F041F90EBD10B540F23F1368
:1008A000EF220021084600F048FB4FF40060414968
:1008B000488340103D4918310880012001F012FAA8
:1008C0000121364801F080FC10BD10B5002001F078
:1008D00009FA00BF32482838006800F001000028FB
:1008E000F8D100212D4801F06FFC10BD10B510208B
:1008F00001F033FA01283ED1FFF7E7FF102001F0A5
:1009000038FA4FF400602B49088300202B490880F7
:100910002BA004F0EBFB00202B49088025E00020F1
:100920002A49088015E02848008800EB8000284903
:1009300001EB80102549098830F8112023480188EF
:100940002148008800F014FB20480088401C1F4903
:1009500008801E480088A028E5DB1EA004F0C6FB26
:1009600019480088401C18490880174800887828D2
:10097000D5DDFFF792FF10BD2DE9F04104460D468D
:1009800016461F46FFF7A1FF0121044801F01CFC99
:10099000012001F0A7F9BDE8F081000028640240C1
:1009A000280005500008001000000240000402402A
:1009B00000080240001002407C0100201C000020C2
:1009C000646174613A0A00001400002016000020DF
:1009D000001000200A0000007FB504460D460121EA
:1009E000022001F00CFFADF804500020ADF8060025
:1009F0000294ADF80C0001A9164802F0E2FA0122B7
:100A00001146144802F07EFF0121124802F062FBF9
:100A10001D208DF8000001208DF8010003208DF8C5
:100A2000020001208DF80300684601F076F87FBDD2
:100A300010B50121074802F07CFF012804D10648C7
:100A4000816A06A004F052FB0121024802F082FFF5
:100A500010BD0000000400400000055025640000A7
:100A60001CB50121022001F0DBFE4FF4664000902E
:100A700001208DF8040000208DF8060003208DF879
:100A8000050001208DF807006946FE4801F0FCF9D9
:100A90000121102001F0C4FE4FF4086000900120F5
:100AA0008DF8040000208DF8060003208DF8050065
:100AB00001208DF807006946F34801F0E5F91CBDF7
:100AC0000021082118E000F080022AB14FF4004212
:100AD000EC4B18331A8004E04FF40042E94B1A3310
:100AE0001A804FF40052E74B1A331A809B1E1A806B
:100AF0004206100E4A1ED1B20029E4DC70470246BD
:100B000000BF108900F002000028FAD0918100BFD8
:100B1000108900F001000028FAD09089C0B2704717
:100B200002884FF6C7731A400280012902D1028859
:100B3000028003E0028842F020020280028842F034
:100B400040020280704700B503464FF40060CE4972
:100B500048834010CB491A3108801946CB48FFF72B
:100B6000CEFF00BD00B587B00121880301F058FE1B
:100B70000121122001F0FAFD4FF4304000900220D4
:100B80008DF8040000208DF8060003208DF8050084
:100B900001208DF807006946BA4801F075F94FF455
:100BA0008040009002208DF8040000208DF806009F
:100BB00003208DF8050001208DF807006946B14833
:100BC00001F062F905220C21AE4801F0E8F9052296
:100BD0000D21AC4801F0E3F905220E21A94801F0EE
:100BE000DEF905220F21A74801F0D9F90121880378
:100BF00001F005FE0020ADF808004FF48270ADF85A
:100C00000A000020ADF80C000220ADF80E00012013
:100C1000ADF810004002ADF812000020ADF814004D
:100C2000ADF816000720ADF8180002A9974802F0A9
:100C3000B9FF4FF4C060009001208DF8040000203F
:100C40008DF8060003208DF8050001208DF80700BF
:100C500069468C4801F018F94FF4086000900120B3
:100C60008DF8040000208DF8060003208DF80500A3
:100C700001208DF807006946834801F005F901213C
:100C8000824803F089F8FF20FFF75DFF07B000BD41
:100C900000B503464FF480607A4918310880194640
:100CA0007A48FFF72CFF00BD10B504462012FFF76D
:100CB000EFFFE0B2FFF7ECFF10BD30B505460C4684
:100CC0002846FFF740FF2046FFF7EEFF30BD10B586
:100CD00080206D494883642000F036FE80206A49F8
:100CE0000883322000F030FE10BD10B5FFF73AFF48
:100CF0004FF40070634918310880FFF7E8FF1120B6
:100D0000FFF721FF0020FFF7C3FFCF20FFF71BFFF6
:100D10000020FFF7BDFFC120FFF7BAFF3020FFF72B
:100D2000B7FFED20FFF70FFF6420FFF7B1FF0320AF
:100D3000FFF7AEFF1220FFF7ABFF8120FFF7A8FF00
:100D4000E820FFF700FF8520FFF7A2FF1120FFF743
:100D50009FFF7820FFF79CFFF620FFF7F4FE0120AD
:100D6000FFF796FF3020FFF793FF0020FFF790FF7B
:100D7000CB20FFF7E8FE3920FFF78AFF2C20FFF792
:100D800087FF0020FFF784FF3420FFF781FF052055
:100D9000FFF77EFFF720FFF7D6FE2020FFF778FF52
:100DA000EA20FFF7D0FE0020FFF772FF0020FFF7D8
:100DB0006FFFC020FFF7C7FE2020FFF769FFC120AB
:100DC000FFF7C1FE1120FFF763FFC520FFF7BBFE51
:100DD0003120FFF75DFF3C20FFF75AFFC720FFF7E8
:100DE000B2FEA920FFF754FF3A20FFF7ACFE5520D2
:100DF000FFF74EFF3620FFF7A6FE4820FFF748FF1B
:100E0000B120FFF7A0FE0020FFF742FF1820FFF7F8
:100E10003FFFB420FFF797FE0020FFF739FF0020C7
:100E2000FFF736FFF220FFF78EFE0020FFF730FFBE
:100E30002620FFF788FE0120FFF72AFFE020FFF7BA
:100E400082FE0F20FFF724FF1720FFF721FF142059
:100E5000FFF71EFF0920FFF71BFF0C20FFF718FF0D
:100E60000620FFF715FF4320FFF712FF7520FFF75D
:100E70000FFF3620FFF70CFF0820FFF709FF1320B4
:100E800006E000000004024000100240003800406C
:100E9000FFF7FEFE0520FFF7FBFE1020FFF7F8FE30
:100EA0000B20FFF7F5FE0820FFF7F2FEE120FFF729
:100EB0004AFE0020FFF7ECFE1F20FFF7E9FE23208B
:100EC000FFF7E6FE0320FFF7E3FE0E20FFF7E0FE4C
:100ED0000420FFF7DDFE3920FFF7DAFE2520FFF7BB
:100EE000D7FE4D20FFF7D4FE0620FFF7D1FE0D20E0
:100EF000FFF7CEFE0B20FFF7CBFE3320FFF7C8FE37
:100F00003720FFF7C5FE0F20FFF7C2FE2920FFF7AD
:100F10001AFE10BD30B505460C462A20FFF713FE19
:100F20002846FFF7C1FE2B20FFF70DFE2046FFF7F6
:100F3000BBFE2C20FFF707FE30BDF0B507460C4680
:100F400015461E462A20FFF7FEFD3846FFF7ACFE89
:100F50002846FFF7A9FE2B20FFF7F5FD2046FFF7F7
:100F6000A3FE3046FFF7A0FE2C20FFF7ECFDF0BDFE
:100F700070B505460E46144631462846FFF7CAFFAF
:100F80002046FFF791FE70BD30B5054640F23F1395
:100F9000EF2200210846FFF7D0FF4FF4006011490F
:100FA0004883401010490880002408E029120F48A7
:100FB000FFF7A5FDE9B20D48FFF7A1FD641CB4F5EC
:100FC000963FF3D3002408E000210848FFF797FD7F
:100FD0001F210648FFF793FD641CB4F5963FF3D339
:100FE00030BD0000001002401804024000380040EC
:100FF0007CB500240121082001F0B8FB602000909E
:1010000001208DF8040000208DF8060002208DF8E4
:10101000050001208DF807006946FE4800F034FF06
:101020000020FD4908600A2000F08EFC0020FB49EA
:10103000C1F894020A2000F087FC0120F649091F3C
:10104000086000F0E5FA0121FF2000F0CFFB8021CD
:10105000122000F0CBFB322000F076FC1C2000F0C8
:10106000E4FB05464FF6FF7000EA05251D2000F061
:10107000DCFB054347F6A270854205D02946E8A06F
:1010800004F034F801207CBD0A2000F0CEFB0546B8
:101090004FF6FF7000EA05250B2000F0C6FB054364
:1010A00042F24260854205D02946E0A004F01EF8D5
:1010B0000220E8E70121FF2000F098FB80211220A8
:1010C00000F094FB00240AE0DB4A02EB4402517872
:1010D000D94A12F8140000F089FB601C84B2B4F500
:1010E000A47FF1D300240AE0D34A02EB44025178F2
:1010F000D14A12F8140000F079FB601C84B2B4F5F8
:10110000A47FF1D30020BEE710B5002400BF0AE0A1
:10111000CA4A02EB44025178C84A12F8140000F09F
:1011200065FB601C84B2082CF2D300240AE0C44A98
:1011300002EB44025178C24A12F8140000F056FB48
:10114000601C84B2072CF2D310BD10B5002400BF80
:101150000AE0BC4A02EB44025178BA4A12F8140081
:1011600000F044FB601C84B20E2CF2D310BD70B5AD
:101170000546B54800EBC506002409E0012202EB54
:101180004402B15C16F8140000F030FB601CC4B2DD
:10119000042CF3DB70BD2DE9F04104465E254126A9
:1011A000542734B1022C0ED0032C10D0042C16D1AD
:1011B00011E00021FF2000F019FB1021C72000F0F2
:1011C00015FBBDE8F081652541264F2707E0522534
:1011D0004126662703E042253F26712700BF00BF56
:1011E0000021FF2000F002FB4021C72000F0FEFAA2
:1011F0002946CC2000F0FAFA3146CD2000F0F6FA6C
:101200003946CE2000F0F2FA00BFDAE770B50446A6
:10121000A01C082141EA0010C5B20021FF2000F007
:10122000E5FA00217C2000F0E1FA02217D2000F0A7
:10123000DDFA03217C2000F0D9FA29467D2000F058
:10124000D5FA29467D2000F0D1FA70BD10B50446CC
:101250000021FF2000F0CAFA00217C2000F0C6FA2D
:1012600004217D2000F0C2FA09217C2000F0BEFAA2
:101270002007010E7D2000F0B9FA00217D2000F04A
:10128000B5FA10BD70B504462025202634B1012CD6
:1012900007D0032C08D0042C0CD108E018253426E4
:1012A00008E01C252A2605E02425162602E028252C
:1012B0000C2600BF00BF0021FF2000F097FA00219C
:1012C0007C2000F093FA04217D2000F08FFA0721A2
:1012D0007C2000F08BFA20217D2000F087FA29463F
:1012E0007D2000F083FA31467D2000F07FFA062150
:1012F0007D2000F07BFA70BD2DE9F0410446002509
:1013000080268027072C19D2DFE804F0180406088D
:101310000C101400402511E018250FE01825402678
:10132000C0270BE018254026402707E01825A026F7
:10133000402703E018254026A62700BF00BF002154
:10134000FF2000F053FA00217C2000F04FFA2946DC
:101350007D2000F04BFA05217C2000F047FA314651
:101360007D2000F043FA39467D2000F03FFABDE8C9
:10137000F08170B505460121FF2000F037FA1220F8
:1013800000F053FA044624F002040DB144F00204C4
:101390002146122000F02AFA70BD2DE9F0470546DB
:1013A0000E4617469846384607EBD07105EB6101AB
:1013B0001FFA81F9404608EBD07106EB61011FFA74
:1013C00081FA0121FF2000F011FA032000F02DFA2C
:1013D000044604F0F0040AF00301304661F39F0074
:1013E00004432146032000F001FAC6F387011920C7
:1013F00000F0FCF9CAF387011A2000F0F7F9322057
:1014000000F013FA044604F0C00409F0070128466E
:101410001CE00000000C02409882414200804142E2
:101420004D49443A25640D0A000000004849443AF9
:1014300025640D0A00000000BC550008165D000878
:10144000EC5C0008FA5C0008265D000861F3DF0030
:1014500004432146322000F0C9F9C5F3C701172023
:1014600000F0C4F9C9F3C701182000F0BFF9BDE8C6
:10147000F0872DE9F04104460D46E11704EB917128
:101480008910A4EB810111B10120BDE8F081E917B9
:1014900005EB91718910A5EB810109B10220F4E7F8
:1014A0002046E11704EB9171C1F38F072846E91735
:1014B00005EB9171C1F38F060021FF2000F096F932
:1014C0000421E02000F092F90021502000F08EF974
:1014D000F9B25A2000F08AF9F1B25B2000F086F9E7
:1014E000C7F30128042000EAA61040EA0808414694
:1014F0005C2000F07BF90021E02000F077F900206B
:10150000C3E72DE9F0478046894614461D46E1179A
:1015100004EB91718910A4EB810111B10120BDE8A8
:10152000F087E91705EB91718910A5EB810109B1ED
:101530000220F4E72046E11704EB9171C1F38F0616
:101540002846E91705EB9171C1F38F0A0021FF20AE
:1015500000F04CF90421E02000F048F9F1B25120EC
:1015600000F044F90AF0FF01522000F03FF908F0C2
:10157000FF01532000F03AF909F0FF01542000F078
:1015800035F9802000EA6A07702000EA2910074335
:10159000082000EA66100743C8F3022007433946D3
:1015A000552000F023F9802000EAA601572000F022
:1015B0001DF90021E02000F019F90020AFE770B517
:1015C00004460D460021FF2000F010F90421E02020
:1015D00000F00CF9C4F3C701C02000F007F9C5F30F
:1015E000C701C12000F002F96007860E05F0070070
:1015F0000643802000EA2410064331468C2000F088
:10160000F5F80021E02000F0F1F8002070BD0000A6
:101610001CB50121082001F0A9F8C020009001208C
:101620008DF8040000208DF8060002208DF80500DA
:1016300001208DF8070069468F4800F025FCC02185
:101640008D4800F09DFC8C48006820F0C0008A495D
:1016500008600846006840F0400008601CBD10B5F6
:101660000120864908608649C1F88802322000F0CE
:1016700023F9002081490860322000F01DF9002084
:101680007F49C1F8880210BD10B500207B49086071
:10169000322000F011F901207949C1F88802322086
:1016A00000F00AF9012075490860322000F004F9C1
:1016B00010BD10B5322000F0FFF801206F4908601E
:1016C0006F49C1F88802322000F0F6F800206B491B
:1016D000091F0860322000F0EFF800206849C1F8C7
:1016E0008C02322000F0E8F810BD70B504460026E8
:1016F0001BE004F0800018B101206049086002E09E
:1017000000205E4908606006040E322000F0D4F824
:1017100001205A49091F0860322000F0CDF800204E
:101720005749C1F88802701CC6B2082EE1DB524846
:10173000006820F0C0005049086008460068086052
:10174000322000F0B9F801204C49091F086032200E
:1017500000F0B2F84A48D0F80C0208B1012500E0C8
:10176000002500204549091F08604348006820F013
:10177000C000414908600846006840F04000086029
:10178000284670BD70B500243B48006820F0C000BA
:1017900039490860084600680860082517E03220CB
:1017A00000F08AF801203549091F08606006040E20
:1017B0003348D0F80C0208B1601CC4B2322000F0EB
:1017C0007BF800202D49091F0860681EC5B2002D56
:1017D000E5DC2948006820F0C00027490860084679
:1017E000006840F040000860204670BD70B50546B6
:1017F0000C460026FFF733FF6020FFF776FF00B1AD
:101800000126642000F058F82846FFF76EFF00B16B
:101810000126642000F050F82046FFF766FF00B173
:101820000126FFF731FF304670BD70B50446002534
:10183000FFF715FF6020FFF758FF642000F03CF829
:101840002046FFF752FF642000F036F8FFF71CFF38
:10185000642000F031F8FFF702FF6120FFF745FF39
:10186000642000F029F8FFF78DFF0546FFF721FF00
:10187000FFF70AFF284670BD000C02408C824142EF
:101880000080414210B504466FF0040000F092F968
:10189000E11704EB5171C1F3C701394A11701046C9
:1018A000007800EB4001C1EBC0104FF6FF7101EA78
:1018B000C0003449088010BD0146314A12784A43BD
:1018C0004FF0E0235A6100229A611A46126942F0F1
:1018D00001021A6100BF4FF0E022106900F001021E
:1018E0001AB100F48032002AF5D04FF0E0221269DC
:1018F00022F001024FF0E0231A6100229A61704742
:101900000146204A12884A434FF0E0235A610022E0
:101910009A611A46126942F001021A6100BF4FF043
:10192000E022106900F001021AB100F48032002AAE
:10193000F5D04FF0E022126922F001024FF0E023CF
:101940001A6100229A61704770B504464FF407701F
:1019500094FBF0F0C6B24FF4077094FBF0F100FB7B
:10196000114085B205E04FF40770FFF7C9FF701E04
:10197000C6B2002EF7D115B12846FFF7C1FF70BDE2
:101980001E00002020000020014600BF704700BF5D
:101990004C4A128802F04002002AF9D0C2B2494BE8
:1019A0009A80704710B588B004460121084600F0BF
:1019B000DDFE0121102000F033FF072209214248FB
:1019C00000F0EDFA07220A213F4800F0E8FA4FF450
:1019D000C060069002208DF81C008DF81D000020CC
:1019E0008DF81E0001208DF81F0006A9364800F072
:1019F0004BFA02940020ADF80C00ADF80E00ADF8E3
:101A00001000ADF814000C20ADF8120002A92D480A
:101A100001F067F801212B4801F0EBF8012240F2B8
:101A20002551284801F09BF925208DF8040003205A
:101A30008DF805008DF8060001208DF8070001A83B
:101A400000F06BF808B010BD10B540F225511D48EC
:101A500001F0C0F910B31B4801F0FAF8C4B21B48FA
:101A6000008800F40040C8B91848008800F480409D
:101A700060B10A2C03D000201449088020E01348EC
:101A8000008840F400401149088019E00D2C06D16F
:101A90000E48008840F480400C49088010E00B4854
:101AA0000088C0F30D000A490C5408480088401C07
:101AB0000649088008460088C72801DD0020088004
:101AC00010BD00000010014000000240280000206E
:101AD0008A0100200948804709480047FEE7FEE7E1
:101AE000FEE7FEE7FEE7FEE7FEE7FEE7FEE7FEE7CE
:101AF00004480549034A054B70470000E904000803
:101B000089010008B8020020B8060020B8020020B1
:101B100032490143324A1160704770B500210023F9
:101B20000F22C4781CB32E4C246804F4E064C4F57E
:101B3000E064C4F30721C1F10404E3B20A4144782C
:101B40009C40E1B28478144021430C07210E254CBF
:101B500005786155047804F01F050124AC40057830
:101B60006D11AD0005F1E025C5F8004109E00478EC
:101B700004F01F050124AC401B4D0678761145F892
:101B8000264070BD194A0A400243154B1B1F1A60BC
:101B9000704739B1124A121D12680243104B1B1DC7
:101BA0001A6006E00E4A121D126882430C4B1B1D80
:101BB0001A607047042808D14FF0E021096941F00C
:101BC00004014FF0E022116107E04FF0E0210969C4
:101BD00021F004014FF0E022116170470000FA0586
:101BE0000CED00E000E400E080E100E080FFFF1F7A
:101BF000002061490860C8601F204861002088619A
:101C0000C86108624862704700215B4A126844F26A
:101C100001039A43584B1A601A46116840F6F27253
:101C20009143028843881A4383881A43C3881A431E
:101C300003891A4343891A4383891A4311434E4A3D
:101C4000116070470021018041808180C180018145
:101C50004181818170474188028841EA0241464AB8
:101C60001162C188828841EA0241434A5162704749
:101C700030B14149096841F004013F4A116005E073
:101C80003D49096821F004013B4A11607047017821
:101C9000427841EA0221827841EA0241C27841EA6F
:101CA0000261354A9161704730B13349096841F0AA
:101CB0000801314A116005E02F49096821F0080147
:101CC0002D4A1160704730B12B49096841F48041B9
:101CD000294A116005E02849096821F48041264A13
:101CE0001160704730B12449096841F00101224A6E
:101CF000116005E02049096821F001011E4A1160C8
:101D000070471D48806A704729B11B4AD268024358
:101D1000194BDA6006E0184AD268C3439BB21A40F6
:101D2000154BDA60704710B50146002000230A13F6
:101D300012B9114CA36806E0022A02D10E4C636866
:101D400001E00D4C236903EA01040CB1012000E01D
:101D5000002010BD0849486170470146002000225C
:101D6000054B1B6903EA01020AB1012000E00020D3
:101D700070470149486170470000055010B504469E
:101D80009848844208D10121084600F05AFD0021FC
:101D9000012000F056FD76E09348844208D10121ED
:101DA000022000F04EFD0021022000F04AFD6AE012
:101DB0008E48844208D10121042000F042FD002118
:101DC000042000F03EFD5EE08948844208D10121F4
:101DD000082000F036FD0021082000F032FD52E01E
:101DE0008448844208D10121102000F02AFD0021FE
:101DF000102000F026FD46E07F48844208D10121F2
:101E0000202000F01EFD0021202000F01AFD3AE005
:101E10007A48844208D10121402000F012FD0021BF
:101E2000402000F00EFD2EE07548844208D10121CB
:101E3000802000F006FD0021802000F002FD22E05D
:101E40007048844208D10121801500F0FAFC00217D
:101E5000A01500F0F6FC16E06B48844208D1012181
:101E6000401500F0EEFC0021601500F0EAFC0AE0ED
:101E70006648844207D10121001500F0E2FC0021F0
:101E8000201500F0DEFC10BDF0B50A46002100234D
:101E9000002400BF3DE0012505FA01F3156805EABD
:101EA00003049C4234D105684F000326BE40B5436D
:101EB000056015794E00B540066835430560157913
:101EC000012D02D01579022D16D185684F00032609
:101ED000BE40B543856055794E00B54086683543B0
:101EE0008560456801268E40B54345604568967912
:101EF0008E40B6B235434560C5684F000326BE40EC
:101F0000B543C560D5794E00B540C6683543C56058
:101F1000491C1029BFD3F0BD4FF6FF7101600021AD
:101F2000017141718171C171704708B54FF4803200
:101F30000092009A0A430092009AC261C161009A1D
:101F4000C261C2690092C269009208BD02460020C7
:101F500013690B400BB1012000E0002070470146DF
:101F6000086980B270470246002053690B400BB1EC
:101F7000012000E0002070470146486980B27047A8
:101F800001837047418370470AB1018300E04183B8
:101F900070474161704742694A4042617047F0B5FD
:101FA000002300244D07ED0E02FA05F3CE1000F1D8
:101FB000200555F826504E07F70E0F26BE40B543B4
:101FC000CF1000F1200646F82750CE1000F1200572
:101FD00055F8265045EA0304CE1000F1200545F8D7
:101FE0002640F0BD0000024000040240000802400C
:101FF000000C024000100240001402400018024091
:10200000001C024000200240002402400028024040
:10201000016821F0010101600021016041608160DF
:10202000C160016121214161DB49884204D13D2128
:10203000D94A103A91608CE0D7491831884205D1CD
:102040004FF47461D44A103A916082E0D249303141
:10205000884205D14FF47411CF4A103A916078E06C
:10206000CD494831884205D14FF07461CA4A103ACF
:1020700091606EE0C8496031884204D1C749C64AC0
:10208000103AD16065E0C4497831884204D1C4492E
:10209000C14A103AD1605CE0BF499031884204D116
:1020A000C049BD4A103AD16053E0BB49A8318842CB
:1020B00005D14FF03D51B84A103AD16049E0BA49D4
:1020C000884204D13D21B84A083A116041E0B6493E
:1020D0001831884205D14FF47461B34A083A11604F
:1020E00037E0B1493031884205D14FF47411AE4A1E
:1020F000083A11602DE0AC494831884205D14FF0D3
:102100007461A94A083A116023E0A7496031884206
:1021100004D1A249A44A121F11601AE0A2497831E1
:10212000884204D19E49A04A121F116011E09E49C5
:102130009031884204D19B499B4A121F116008E0EC
:102140009949A831884204D14FF03D51964A121F57
:102150001160704710B500220268944B1A40CC6899
:102160000B6823434C6923438C692343CC69234385
:102170000C6A23434C6A23438C6A23434C6B2343EE
:102180008C6B23431A430260426922F00702D1E9B3
:102190000B3423431A4342610B6943604B688360ED
:1021A0008B68C36010BD0021016041608160C16027
:1021B000016141618161C161016241628162C1620B
:1021C000016341638163704721B1026842F00102FB
:1021D000026003E0026822F001020260704721B150
:1021E000026842F40042026003E0026822F4004206
:1021F0000260704721B1026842F02002026003E0F1
:10220000026822F020020260704741607047014678
:10221000486880B2704722B1036843F4002303602A
:1022200003E0036823F4002303600161704721B1D8
:10223000026842F48022026003E0026822F48022F5
:10224000026070470AB1016100E0C1607047014659
:1022500000200A6802F400220AB1012000E00020F8
:102260007047014600200A6802F001020AB101200D
:1022700000E000207047014600204A6902F0380063
:10228000704730B503460A4600200024464DAB4255
:1022900002D24149103901E04349103902F000559A
:1022A0000DB14C6800E00C68414D2C4004EA020579
:1022B0000DB1012000E0002030BD02463A4B9A42A9
:1022C00002D23548103801E03748103801F0005389
:1022D0001BB1374B0B40C36002E0354B0B408360B2
:1022E000704710B501F080034BB122B1436943F050
:1022F0008003436103E0436923F080034361802945
:102300000BD02AB1036801F01E042343036004E0EC
:10231000036801F01E04A343036010BD70B50246BC
:10232000002000240025204EB24202D21A4B103B5E
:1023300001E01D4B103B1F4E0E4036B11E2606EA33
:10234000D124166806EA040502E0566906F0800505
:1023500001F000560EB15C6800E01C68144E344079
:1023600004EA010616B10DB1012000E0002070BDA5
:1023700002460D4B9A4202D20748103801E00A4843
:10238000103801F000531BB1094B0B40C36002E051
:10239000074B0B4083607047106002403D000020F7
:1023A000400F002000003D20106402403F801CF0E0
:1023B0007D0F7D0F3C0F3C0FF948006840F0010095
:1023C000F74908600020F64908310860F4480068C1
:1023D000F4490840F2490860F348091D0860F348D1
:1023E000EF4984310860F0481038091D0860EC4856
:1023F000006820F48020EA4908600020E8490C3198
:102400000860E7498C31086070470021E44A921C5B
:10241000117011460870704710B501460022002364
:1024200000204A11012A02D1DD4C236808E0022A6B
:1024300003D1DB4C7034236802E0D94C7434236838
:1024400001F01F02012494401C400CB1012000E067
:10245000002010BD38B5002000900024002500BFEA
:102460003120FFF7D9FF05460098401C00900098E6
:10247000B0F5A04F01D0002DF2D03120FFF7CCFFF6
:1024800008B1012400E00024204638BD01460020A8
:10249000C34A106820F0F80040EAC100106070479D
:1024A000C349086070470021BD4A70321170117035
:1024B000012802D004280AD104E00121B84A703270
:1024C000117005E00521B64A7032117000E000BFBE
:1024D00000BF7047B7490860704770B5049C41EA77
:1024E00082150126C6EB530645EA0645054345EA33
:1024F0000465AB4E361D356070BDAD49086670474A
:10250000820142EA0172A64B84331A607047A849DF
:102510008866704710B5830143EA016343EA02739A
:102520009F4C8834236010BDA14908677047A049BB
:10253000C864704702460020994B0833186820F0A1
:10254000EC6042EA01031843954B0833186070476A
:1025500002460020924B0833186820F0784042EA87
:10256000010318438E4B0833186070470146002062
:102570008B4A0832106820F003000843106070474F
:1025800087480830006800F00C00704701460020C2
:10259000834A0832106820F0F0000843106070474A
:1025A000014600207E4A0832106820F4E0500843BB
:1025B0001060704701460020794A0832106820F404
:1025C000604040EAC10010607047F0B50021002271
:1025D0000024022500260223714F08373F6807F0C8
:1025E0000C0121B1042905D0082937D105E0724F2B
:1025F000076036E0714F076033E0694F3F1D3F6869
:10260000C7F38056664F3F1D3F6807F03F036EB12A
:102610006A4FB7FBF3F7DFF888C10CF1040CDCF864
:1026200000C0CCF3881C07FB0CF40CE0624FB7FB36
:10263000F3F7DFF86CC10CF1040CDCF800C0CCF34C
:10264000881C07FB0CF4564F3F1D3F68C7F301473A
:102650007F1C7D00B4FBF5F7076002E0564F076072
:1026600000BF00BF4E4F08373F6807F0F00109096F
:10267000534F7A5C0768D7404760494F08373F6837
:1026800007F4E051890A4E4F7A5C4768D74087606B
:10269000434F08373F6807F46041490B484F7A5C65
:1026A0004768D740C760F0BD002100F44072B2F522
:1026B000407F0AD13A4A0832116821F4F811414AA0
:1026C00002401143364A08321160354A70321268AE
:1026D000C0F30B031A43324B70331A60704735490D
:1026E00044390860704733494039086070473649BB
:1026F0000860704701460020294A8C32106820F09B
:102700001F004A1E1043264A8C3210607047014653
:102710000020234A8C32106820F4F8504A1E40EA08
:1027200002201F4A8C3210607047014600201C4A6C
:102730008C32106820F44010084310607047014646
:102740000020174A8C32106820F4400008431060C3
:10275000704701460020124A8C32106820F4403045
:1027600008431060704719490860704739B10C4A36
:102770003032126802430A4B30331A6006E0084ACE
:10278000303212688243064B30331A607047F9B119
:10279000034A343212680243014B34331A601CE09E
:1027A00000380240FFFFF6EA10300024003000201D
:1027B00000004742800E47420024F40000127A00D5
:1027C0002A000020FFFCFF0F5C014742E011474256
:1027D0008F4A126882438E4B1A60704739B18C4A17
:1027E000121D126802438A4B1B1D1A6006E0884ABC
:1027F000121D12688243864B1B1D1A60704739B147
:10280000834A0C3212680243814B0C331A6006E093
:102810007F4A0C32126882437D4B0C331A6070473A
:1028200039B17B4A103212680243794B10331A6077
:1028300006E0774A103212688243754B10331A60F3
:10284000704739B1724A243A12680243704B243BF4
:102850001A6006E06E4A243A126882436C4B243BAD
:102860001A60704739B16A4A203A12680243684BCD
:10287000203B1A6006E0664A203A12688243644BA5
:10288000203B1A60704739B1614A1C3A1268024312
:102890005F4B1C3B1A6006E05D4A1C3A126882439B
:1028A0005B4B1C3B1A60704739B1594A143A1268A5
:1028B0000243574B143B1A6006E0554A143A12681B
:1028C0008243534B143B1A60704739B1504A103A57
:1028D000126802434E4B103B1A6006E04C4A103A15
:1028E000126882434A4B103B1A60704739B1484A1C
:1028F0001C3212680243464B1C331A6006E0444AFD
:102900001C3212688243424B1C331A60704739B143
:102910003F4A2032126802433D4B20331A6006E0E2
:102920003B4A203212688243394B20331A60704789
:1029300039B1374A243212680243354B24331A60C6
:1029400006E0334A243212688243314B24331A6042
:10295000704739B12E4A2C32126802432C4B2C336B
:102960001A6006E02A4A2C3212688243284B2C3324
:102970001A60704739B1264A303212680243244B3C
:1029800030331A6006E0224A303212688243204B0C
:1029900030331A607047012808D11D493C3109685D
:1029A00041F008011A4A3C32116007E018493C31F5
:1029B000096821F00801164A3C321160704739B1AC
:1029C000134A273A12780243114B273B1A7006E04C
:1029D0000F4A273A127882430D4B273B1A707047F3
:1029E0000B484030006840F0807009494031086071
:1029F000704701460020064A283A12680A400AB188
:102A0000012000E000207047014926390870704716
:102A10003438024010B50446FA48844208D10121F6
:102A20001020FFF752FF00211020FFF74EFF57E064
:102A3000F548844209D101214804FFF735FF002100
:102A40004FF40030FFF730FF4AE0F048844209D1EC
:102A500001218804FFF728FF00214FF48020FFF7B1
:102A600023FF3DE0EA48844209D10121C804FFF771
:102A70001BFF00214FF40020FFF716FF30E0E54870
:102A8000844209D101210805FFF70EFF00214FF410
:102A90008010FFF709FF23E0DF48844208D10121BD
:102AA0002020FFF712FF00212020FFF70EFF17E084
:102AB000DA48844209D101218807FFF7F5FE002199
:102AC0004FF08040FFF7F0FE0AE0D548844207D17E
:102AD00001214005FFF7E8FE00216005FFF7E4FE55
:102AE00010BD2DE9FF4705460E460024A14600BF54
:102AF000A046B08900B100BF2C8A24F44054F0886D
:102B000004432C82AC8941F20C608443B088318943
:102B10000843718908430443AC81AC8A24F44074AF
:102B2000B0890443AC826846FFF74FFDB548854243
:102B300002D0B948854202D1DDF80C9001E0DDF801
:102B40000890A88900F4004040B109EBC90000EBEF
:102B5000091031684900B0FBF1F707E009EBC90043
:102B600000EB091031688900B0FBF1F76420B7FB76
:102B7000F0F004012009642101FB1078A88900F419
:102B8000004040B1322000EBC800B0FBF1F000F093
:102B90000700044308E0322000EB08106421B0FB7A
:102BA000F1F000F00F0004432C81BDE8FF874FF4E3
:102BB0001651016000218180C18001810C21418179
:102BC00000218181704710B502460020108A20F450
:102BD00070600B884C8823438C882343CC88234324
:102BE0001843108210BD0021018041808180C18086
:102BF000704721B1828942F40052828104E08289C7
:102C00004DF6FF731A4082817047028B02F47F42B7
:102C10000283028B0A430283704721B1828942F406
:102C20000042828103E08289C2F30E0282817047F2
:102C300021B1828A42F40062828204E0828A4FF2E9
:102C4000FF731A4082827047C1F308028280704786
:102C500001468888C0F308007047028A4FF6F07377
:102C60001A400282028A0A430282704721B1828995
:102C700042F00202828104E082894FF6FD731A401D
:102C80008281704782894FF2FF731A408281828964
:102C90000A4382817047028A4FF6DF731A4002822C
:102CA000028A0A430282704721B1028A42F48042BA
:102CB000028204E0028A4BF6FF731A4002827047D8
:102CC000818941F001018181704721B1828A42F0FE
:102CD0000802828204E0828A4FF6F7731A408282E9
:102CE0007047028BD2B20283028B42EA0122028336
:102CF000704721B1828A42F02002828204E0828AF7
:102D00004FF6DF731A408282704721B1828A42F007
:102D10001002828204E0828A4FF6EF731A408282A8
:102D20007047828A4FF6FB731A408282828A0A4376
:102D30008282704721B1828A42F00202828204E0DC
:102D4000828A4FF6FD731A40828270471AB1838AD5
:102D50000B43838202E0838A8B4383827047F0B502
:102D60000346002400260025002040F66A17B942D9
:102D700000D100BF1846C1F3421401F01F0601271D
:102D800007FA06F5012C01D10C3004E0022C01D128
:102D9000103000E014301AB107682F43076002E0DA
:102DA0000768AF430760F0BD02460020B1F5007F21
:102DB00000D100BF13880B400BB1012000E00020C0
:102DC000704701F40072B2F5007F00D100BFCA4322
:102DD0000280704770B502460024002300250020C1
:102DE00040F66A16B14200D100BFC1F3421501F0AE
:102DF0001F03012606FA03F3012D13D196893340F0
:102E000017E000000010014000440040004800406E
:102E1000004C004000500040001401400078004089
:102E2000007C0040022D02D1168A334001E0968AD0
:102E300033400C12012606FA04F41688344013B10C
:102E40000CB1012000E0002070BD10B5002200236D
:102E500040F66A14A14200D100BF0A120124944036
:102E6000A3B2DC43048010BD10B50446FE48844282
:102E700008D101210846FFF728FD00210120FFF7B6
:102E800024FD9DE0B4F1804F08D101210846FFF7F1
:102E90000BFD00210120FFF707FD91E0F34884427C
:102EA00008D101210220FFF7FFFC00210220FFF7DB
:102EB000FBFC85E0EE48844208D101210420FFF7A5
:102EC000F3FC00210420FFF7EFFC79E0E94884429D
:102ED00008D101210820FFF7E7FC00210820FFF7B7
:102EE000E3FC6DE0E448844208D101211020FFF7A3
:102EF000DBFC00211020FFF7D7FC61E0DF488442B3
:102F000008D101212020FFF7CFFC00212020FFF76E
:102F1000CBFC55E0DA48844208D101210220FFF7BA
:102F2000D4FC00210220FFF7D0FC49E0D5488442C0
:102F300009D101210804FFF7C8FC00214FF48030BB
:102F4000FFF7C3FC3CE0D048844209D1012148048A
:102F5000FFF7BBFC00214FF40030FFF7B6FC2FE079
:102F6000CA48844209D101218804FFF7AEFC002140
:102F70004FF48020FFF7A9FC22E0C548844208D125
:102F800001214020FFF790FC00214020FFF78CFC3E
:102F900016E0C048844208D101218020FFF784FC5C
:102FA00000218020FFF780FC0AE0BB48844207D163
:102FB00001218015FFF778FC0021A015FFF774FCB4
:102FC00010BD00220288A84B98420ED0AC4B98420C
:102FD0000BD0B0F1804F08D0A44B984205D0A44B41
:102FE000984202D0A34B984204D14FF68F731A40F7
:102FF0004B881A43A04B984207D0A04B984204D06C
:103000004FF6FF431A400B891A4302804B68C36294
:103010000B880385944B984202D0994B984201D17A
:103020008B7A03860123838270474FF0FF31416022
:103030000021018001814180817270470185828277
:1030400070470A46002101884FF68F7319401143DB
:103050000180704741627047C16270470146486A0B
:1030600070470146088D704721B1028842F0020284
:10307000028004E002884FF6FD731A400280704718
:1030800021B1028842F00402028004E002884FF677
:10309000FB731A400280704721B1028842F080021F
:1030A000028004E002884FF67F731A400280704766
:1030B00002884FF6F7731A40028002880A430280A2
:1030C000704702884FF6FF431A40028002880A4385
:1030D0000280704721B1028842F00102028004E0C0
:1030E00002884FF6FE731A400280704770B50024C4
:1030F00000220023058C4FF6FE7635400584028CB5
:103100008388048B4FF68F752C40B51E2C400D889C
:103110002C43751E2A408D892A434D882A43524DDF
:10312000A84202D0564DA84213D14FF6F7752A4057
:10313000CD892A434FF6FB752A408D882A434FF6E6
:10314000FF652B404FF6FF552B400D8A2B434D8AD0
:103150002B43838004838D684563028470BD70B502
:10316000002400220023058C4FF6EF7635400584BD
:10317000028C8388048B48F6FF752C404FF6FF4580
:103180002C400D884FF6FF7606EA05252C434FF6B6
:10319000DF752A408D8906EA05152A434D8806EA1F
:1031A00005152A43304DA84202D0354DA8421DD105
:1031B0004FF67F752A40CD894FF6FF7606EA051552
:1031C0002A434FF6BF752A408D8806EA05152A4323
:1031D0004FF6FF352B404FF2FF752B400D8A06EA64
:1031E00085052B434D8A06EA85052B43838004839E
:1031F0008D688563028470BD70B5002400220023B1
:10320000058C4FF6FF6635400584028C8388848BDD
:103210004FF68F752C404FF6FC752C400D882C43D3
:103220004FF6FF552A408D894FF6FF7606EA0525B1
:103230002A434D8806EA05252A430B4DA84202D0B1
:103240000F4DA84238D14FF2FF752A40CD894FF675
:10325000FF7606EA05252A434FF6FF352A408D887A
:1032600006EA05252A4319E0000001400004004059
:1032700000080040000C0040001000400014004016
:10328000000401400040014000440140004801406A
:1032900000180040001C0040002000404EF6FF7562
:1032A0002B404DF6FF752B400D8A06EA05152B4382
:1032B0004D8A06EA05152B43838084838D68C56398
:1032C000028470BD70B5002200230024058C4EF6E8
:1032D000FF7635400584038C8488828B48F6FF7521
:1032E0002A404FF6FF452A400D884FF6FF7606EA42
:1032F00005252A434DF6FF752B408D8906EA0535D5
:103300002B434D8806EA05352B43FE4DA84202D0DB
:10331000FD4DA84208D14BF6FF752C400D8A4FF6A3
:10332000FF7606EA85152C43848082838D680564C8
:10333000038470BD00210180418081808160818192
:10334000C18101824182704770B50346002000248C
:103350001846183001258D40ACB21D8CA5431D8444
:1033600009B108290AD100EB610005684FF68F7694
:10337000354005600568154305600FE00D1FC5F376
:103380004E052844056848F6FF7635400560056817
:103390004FF6FF7606EA02263543056070BD4163AD
:1033A000704781637047C1637047016470470A4684
:1033B0000021018B4FF68F73194011430183704731
:1033C0000A460021018B48F6FF7319404FF6FF7340
:1033D00003EA02231943018370470A460021818BC7
:1033E0004FF68F7319401143818370470A460021BD
:1033F000818B48F6FF7319404FF6FF7303EA0223EF
:103400001943818370470A460021018B4FF6F773F9
:1034100019401143018370470A460021018B4FF286
:10342000FF7319404FF6FF7303EA02231943018328
:1034300070470A460021818B4FF6F77319401143FC
:10344000818370470A460021818B4FF2FF73194038
:103450004FF6FF7303EA02231943818370470A463C
:103460000021018B4FF6FB73194011430183704714
:103470000A460021018B4FF6FF3319404FF6FF73C8
:1034800003EA02231943018370470A460021818B16
:103490004FF6FB7319401143818370470A460021A0
:1034A000818B4FF6FF3319404FF6FF7303EA022377
:1034B0001943818370470A460021018B4FF67F73C1
:1034C00019401143018370470A460021018BC1F363
:1034D0000E014FF6FF7303EA02231943018370477D
:1034E0000A460021818B4FF67F7319401143818377
:1034F00070470A460021818BC1F30E014FF6FF731E
:1035000003EA02231943818370470A460021018C94
:103510004FF6FD7319401143018470470A4600219C
:10352000018C4FF6F77319401143018470470A4626
:103530000021018C4FF6DF7319404FF6FF7303EA49
:1035400002131943018470470A460021018C4FF68B
:103550007F7319404FF6FF7303EA02131943018486
:1035600070470A460021018C4FF6FF5319404FF671
:10357000FF7303EA02231943018470470A460021BE
:10358000018C4FF2FF7319404FF6FF7303EA0223D9
:103590001943018470470A460021018C4DF6FF73E0
:1035A00019404FF6FF7303EA023319430184704751
:1035B00030B5002301248C40A3B2048C9C430484C6
:1035C000048C02FA01F5ADB22C43048430BD30B551
:1035D000002304248C40A3B2048C9C430484048CF8
:1035E00002FA01F5ADB22C43048430BD828B4FF258
:1035F000FF331A408283828B4FF6FF7303EA012365
:103600001A4382837047F0B50C461546002100220C
:103610000026078C4EF6FF7C07EA0C070784818B97
:10362000028C4FF6FF7707EA043640F6FF47394031
:103630004FF6FF7707EA052739434FF6FF7707EA8A
:103640000337394345F6FF773A4046F480573A430B
:1036500081830284F0BD828B4FF6F3731A4082831C
:10366000828B0A4382837047F0B50C4615460021D1
:1036700000220026078C4FF6FF6C07EA0C07078430
:10368000818B028C4FF6FF7707EA04264FF60C7702
:1036900039404FF6FF7707EA03172F4339434FF2BC
:1036A000FF573A4046F480773A4381830284F0BD65
:1036B000028B4FF2FF331A400283028B4FF6FF73E7
:1036C00003EA01231A4302837047F0B50C461546FE
:1036D000002100220026078C4FF6EF7C07EA0C073A
:1036E0000784018B028C4FF6FF7707EA041640F639
:1036F000FF4739404FF6FF7707EA033739434FF664
:10370000FF7703E0000001400004014007EA0527BD
:1037100039434FF65F773A4046F010073A4301834A
:103720000284F0BD028B4FF6F3731A400283028BC2
:103730000A4302837047F0B50C461546002100226B
:10374000068C4FF6FE773E400684018B028C4FF6C6
:103750000C7631407E1C06EA03162E4331434FF6A9
:10376000F576324044F00106324301830284F0BD15
:1037700070B505460C46208850B92389A288618817
:103780002846FFF7D8FFE1882846FFF7CBFF25E062
:10379000208804280AD12389A28861882846FFF757
:1037A00094FFE1882846FFF783FF17E02088082868
:1037B0000AD12389A28861882846FFF755FFE1884E
:1037C0002846FFF748FF09E02389A2886188284638
:1037D000FFF719FFE1882846FFF708FF70BD0021B9
:1037E00001804180012181800021C18001817047D9
:1037F0002DE9F04105460C4600260127608808B9EE
:10380000022600E00026A088012801D1022700E05E
:1038100001272088A0B92389A28861882846FFF75C
:103820008AFFE1882846FFF77DFF23893A46314623
:103830002846FFF74AFFE1882846FFF739FF13E0E3
:103840002389A28861882846FFF73FFFE188284640
:10385000FFF72EFF23893A4631462846FFF76BFFD4
:10386000E1882846FFF75EFFBDE8F0810146486B1E
:1038700070470146886B70470146C86B7047014628
:10388000086C70470A884B881A438B881A43CB8888
:103890001A430B891A434B891A438B891A43A0F8A0
:1038A000442070470021018041808180C1800181D6
:1038B00041818181704731B1B0F8442042F4004227
:1038C000A0F8442005E0B0F84420C2F30E02A0F8AE
:1038D0004420704721B1828842F00402828004E0D3
:1038E00082884FF6FB731A408280704721B182882C
:1038F00042F00102828004E082884FF6FE731A4093
:10390000828070471AB183890B43838102E08389E7
:103910008B43838170478182704702460020138A5F
:103920000B400BB1012000E000207047CA43028227
:10393000704730B50246002000230024158A05EAAE
:103940000103958905EA010413B10CB1012000E0DF
:10395000002030BDCA430282704741EA0203A0F84A
:10396000483070471AB183890B43838102E0838911
:103970008B438381704721B1828842F008028280A4
:1039800004E082884FF6F7731A40828070470189FD
:103990004FF6F8721140018170470A4600210189F3
:1039A0004FF68F73194011430181704730B50446BB
:1039B0000D4629462046FFF7F0FF208940F007001A
:1039C000208130BD2DE9F04104460D4616461F46C4
:1039D000602D06D13B46012231462046FFF775FE99
:1039E00005E03B46012231462046FFF7A4FE29466A
:1039F0002046FFF7D2FF208940F007002081BDE874
:103A0000F08130B50C4600210189C9B24FF6FF752F
:103A100005EA0325154325432943018130BD2DE9DE
:103A2000F04105460E4617469846002443463A465E
:103A300031462846FFF7E5FF2C894FF6F870044021
:103A400044F007044FF68F70044044F070042C815A
:103A5000BDE8F081F0B504460D4616461F463B46CC
:103A6000324629462046FFF7CCFF208940F48040AB
:103A70002081F0BD82884FF68F731A408280828841
:103A80000A438280704702894FF6F8731A40028118
:103A900002890A430281704702894FF67F731A40F8
:103AA000028102890A4302817047F0B50C4615462F
:103AB0001E460021002200230189028B038C4FF651
:103AC000F877394021434FF6FC473A4040F201175E
:103AD0003A434FF6DD773B404FF6FF7707EA06178C
:103AE0002F433B43018102830384F0BD21B18288CF
:103AF00042F08002828004E082884FF67F731A4091
:103B000082807047A0F850107047000010B504463E
:103B1000FB48844208D101218014FEF7D6FE002123
:103B2000A014FEF7D2FE3CE0F648844208D1012101
:103B30000014FEF7B9FE00212014FEF7B5FE30E0B8
:103B4000F148844208D10121C013FEF7ADFE0021E7
:103B5000E013FEF7A9FE24E0EC48844208D10121DD
:103B60004014FEF7B2FE00216014FEF7AEFE18E02E
:103B7000E748844209D101210805FEF7A6FE00218D
:103B80004FF48010FEF7A1FE0BE0E248844208D11A
:103B900001214805FEF799FE00214FF40010FEF7C1
:103BA00094FE10BD10B50022028802F441520B8829
:103BB0004C8823438C882343CC8823430C8923439C
:103BC0004C8923438C892343CC8923431A430280A5
:103BD000838B4FF2FF74234083830B8A038210BDD3
:103BE0002DE9F04F0025022300244FF001090022A7
:103BF0000026002794469046B0F81CA04FF2400BD8
:103C00000AEA0B0AA0F81CA04FF0020AA0F820A0B4
:103C1000858BD1F808A0BAF1020F01D100BF82E074
:103C2000B1F804A0BAF1000F02D14FF0010901E090
:103C30004FF00209DFF8E0A2DAF800A00AF4000A67
:103C4000BAF1000F09D0DFF8D0A2DAF800A02AF408
:103C5000000ADFF8C4B2CBF800A0DFF8BCA20AF17A
:103C60007C0ADAF800A0CAF3881CDFF8ACA20AF1DB
:103C70007C0ADAF800A0CAF30278DFF89CA2AAF165
:103C8000040ADAF800A00AF03F07DFF88CA2AAF1D4
:103C9000040ADAF800A00AF4800ABAF5800F08D105
:103CA000DFF878A2BAFBF7FA0AFB0CFABAFBF8F6CF
:103CB00007E0DFF86CA2BAFBF7FA0AFB0CFABAFBD2
:103CC000F8F6B1F806A0BAF5007F0ED14FEA162A31
:103CD0000AEB8A0A4FEA4A0AD1F808B0BAFBFBFAA3
:103CE0000AF1050A1FFA8AF20FE04FEA491AB6FBF9
:103CF000FAFA0AEB8A0A4FEA4A0AD1F808B0BAFB84
:103D0000FBFA0AF1050A1FFA8AF24FF00A0AB2FB1F
:103D1000FAF202F00104A2EB040ACAF34F034FF6D1
:103D2000FF7A0AEA0424022B01DBFF2B01DD0223C8
:103D30000024B1F806A04AEA040A4AEA030AA0F8F5
:103D400020A0B1F804A0B1F80CB04AEA0B0AB1F80F
:103D500002B04AEA0B0AB1F800B04AEA0B0A4AF488
:103D6000006A4AEA05058583BDE8F08F00210180DD
:103D700041808180C180018141818181C181072190
:103D8000018270470021018041808180C180022131
:103D9000816000218181704721B1028842F0400298
:103DA000028004E002884FF6BF731A400280704719
:103DB00021B1828B42F48062828304E0828B4FF6D1
:103DC000FF331A408283704702884FF2FF731A4014
:103DD000028002880A4302807047B1F5804F04D107
:103DE000028842F48042028004E002884BF6FF73AE
:103DF0001A40028070474FF6FF62914204D0028859
:103E000042F48072028004E002884FF6FF631A4099
:103E10000280704721B1828842F00402828004E06F
:103E200082884FF6FB731A408280704721B18288E6
:103E300042F01002828004E082884FF6EF731A404D
:103E40008280704730B500220023848B4FF24005FA
:103E50002C40848302240484828B0C88B4F5007F78
:103E600001D00C8814B94FF4807308E00C88B4F5C5
:103E7000407F03D00C88B4F5807F00D100238C886C
:103E80008D892C434D882C431C4344F40064224309
:103E9000828330BD0146888970478181704721B196
:103EA000028842F40052028004E002884DF6FF735B
:103EB0001A4002807047018841F4805101807047A8
:103EC00002460020012901D0108B00E0908A704743
:103ED0000146088A70471AB183880B43838002E049
:103EE00083888B438380704730B5002400230C11F6
:103EF0000125A540ABB2AAB185881D43858014E099
:103F00000030014000380040003C004000340140D7
:103F100000500140005401400838024000127A006D
:103F20000024F40085889D43858030BD0246002032
:103F300013890B400BB1012000E000207047CA43F9
:103F400002817047F0B502460020002400230025BE
:103F500001F00F070126BE40B4B20B1101269E40AE
:103F6000B3B2968806EA03051689264016B10DB14C
:103F7000012000E00020F0BD10B5002201F00F0488
:103F80000123A3409AB2D343038110BD10B58CB076
:103F900004461E230BAA03A9204600F0A9FE0090A8
:103FA000009810B101200CB010BD9DF82C00044405
:103FB00000200B900EE040489DF82C2050F8221075
:103FC00003A800F0FDFD00B908E09DF82C00401C9E
:103FD000C0B20B909DF82C000728ECD300BF9DF8D1
:103FE0002C00072863D2DFE800F004053C5E65641E
:103FF000630000BF31A001F079F831A001F076F83C
:104000003FA001F073F84EA001F070F85CA001F041
:104010006DF86BA001F06AF879A001F067F886A04E
:1040200001F064F88BA001F061F890A001F05EF857
:1040300094A001F05BF899A001F058F89EA001F05F
:1040400055F8A4A001F052F8B0A001F04FF8BDA0BF
:1040500001F04CF8C8A001F049F8D4A001F046F8EE
:104060009AE216A001F042F8E0A001F03FF800202B
:104070000B900EE0ED4800689DF82C2000EBC2008C
:104080004168EBA001F032F89DF82C00401CC0B252
:104090000B90E648007D9DF82C108842EADC07A0D2
:1040A00001F024F878E205A001F020F8C4E171E203
:1040B00045E219E2ECE100003C0000200D0A00009E
:1040C0002D2D2D2D2D2D2D2D2D2D2D2D2D2D2D2D20
:1040D0002D2D2D2D2D2D2D2D55534D415254205626
:1040E000332E312D2D2D2D2D2D2D2D2D2D2D2D2DF5
:1040F0002D2D2D2D2D2D2D2D2D2D2D200D0A00009A
:104100002020202055534D415254CAC7D3C9414C99
:1041100049454E54454BBFAAB7A2B5C4D2BBB8F669
:10412000C1E9C7C9B5C4B4AEBFDAB5F7CAD4BBA537
:10413000BDBBD7E9BCFE2CCDA8B9FD200D0A0000FF
:10414000CBFC2CC4E3BFC9D2D4CDA8B9FDB4AEBF5B
:10415000DAD6FACAD6B5F7D3C3B3CCD0F2C0EFC320
:10416000E6B5C4C8CEBACEBAAFCAFD2CB2A2D6B498
:10417000D0D02ED2F2B4CB2CC4E3BFC90D0A0000BC
:10418000D2D4CBE6D2E2B8FCB8C4BAAFCAFDB5C44B
:10419000CAE4C8EBB2CECAFD28D6A7B3D6CAFDD7AB
:1041A000D62831302F3136BDF8D6C629A1A2D7D6B0
:1041B000B7FBB4AEA1A2BAAFCAFDC8EB0D0A0000AE
:1041C000BFDAB5D8D6B7B5C8D7F7CEAAB2CECAFD32
:1041D000292CB5A5B8F6BAAFCAFDD7EEB6E0D6A77A
:1041E000B3D63130B8F6CAE4C8EBB2CECAFD2CB2B1
:1041F000A2D6A7B3D6BAAFCAFDB7B5200D0A000044
:10420000BBD8D6B5CFD4CABE2ED0C2D4F6B2CECA91
:10421000FDCFD4CABEBDF8D6C6C9E8D6C3B9A6C4B8
:10422000DC2CD0C2D4F6BDF8D6C6D7AABBBBB9A683
:10423000C4DC2E0D0A000000BCBCCAF5D6A7B3D65C
:104240003A7777772E6F70656E6564762E636F6D43
:104250000D0A000055534D415254D3D037B8F6CF14
:10426000B5CDB3C3FCC1EE3A0D0A00003F3A2020A1
:1042700020202020BBF1C8A1B0EFD6FAD0C5CFA234
:104280000D0A000068656C703A202020BBF1C8A1BF
:10429000B0EFD6FAD0C5CFA20D0A00006C697374D6
:1042A0003A202020BFC9D3C3B5C4BAAFCAFDC1D01C
:1042B000B1ED0D0A0A00000069643A202020202098
:1042C000BFC9D3C3BAAFCAFDB5C44944C1D0B1ED6B
:1042D0000D0A0A006865783A20202020B2CECAFD77
:1042E0003136BDF8D6C6CFD4CABE2CBAF3B8FABFA1
:1042F000D5B8F12BCAFDD7D6BCB4D6B4D0D0BDF852
:10430000D6C6D7AABBBB0D0A0A0000006465633A93
:1043100020202020B2CECAFD3130BDF8D6C6CFD481
:10432000CABE2CBAF3B8FABFD5B8F12BCAFDD7D69E
:10433000BCB4D6B4D0D0BDF8D6C6D7AABBBB0D0A84
:104340000A00000072756E74696D653A312CBFAA5F
:10435000C6F4BAAFCAFDD4CBD0D0BCC6CAB13B30CC
:104360002CB9D8B1D5BAAFCAFDD4CBD0D0BCC6CA4F
:10437000B13B0D0A0A000000C7EBB0B4D5D5B3CCF1
:10438000D0F2B1E0D0B4B8F1CABDCAE4C8EBBAAF5C
:10439000CAFDC3FBBCB0B2CECAFDB2A2D2D4BBD858
:1043A000B3B5BCFCBDE1CAF82E0D0A002D2D2D2D94
:1043B0002D2D2D2D2D2D2D2D2D2D2D2D2D2D2D2D2D
:1043C0002D2D2D2D2D2D414C49454E54454B2D2D38
:1043D0002D2D2D2D2D2D2D2D2D2D2D2D2D2D2D2D0D
:1043E0002D2D2D2D2D2D2D200D0A00002D2D2D2DA7
:1043F0002D2D2D2D2D2D2D2D2D2D2D2D2D2D2D2DED
:104400002D2D2D2D2DBAAFCAFDC7E5B5A52D2D2D0E
:104410002D2D2D2D2D2D2D2D2D2D2D2D2D2D2D2DCC
:104420002D2D2D2D2D2D2D2D200D0A008800002045
:1044300025730D0A00000000EEA000F057FE0020DA
:104440000B901AE0FB4909689DF82C2001EBC20192
:1044500001AB02AA486803A900F070FCF5480068A7
:104460009DF82C1050F8312003A9F3A000F03EFE77
:104470009DF82C00401CC0B20B90EE48007D9DF8CA
:104480002C108842DEDCAFF2CC3000F02FFE83E04F
:10449000AFF2D83000F02AFE0BAA03A9204600F0A4
:1044A00029FD9DF82C00C8B9694603A800F0BBFBA4
:1044B0000B909DF82C0020B9E4A0009900F016FEA6
:1044C0000EE09DF82C00042801D002206BE5E2A04C
:1044D00000F00CFE0120D749C87501E0022062E51A
:1044E000DCA000F003FE57E0DAA000F0FFFD0BAA0D
:1044F00003A9204600F0FEFC9DF82C00C8B96946CF
:1045000003A800F090FB0B909DF82C0020B9D7A0D9
:10451000009900F0EBFD0EE09DF82C00042801D07E
:10452000022040E5D4A000F0E1FD0020C149C8759B
:1045300001E0022037E5C7A000F0D8FD2CE0C5A0BF
:1045400000F0D4FD0BAA03A9204600F0D3FC9DF88F
:104550002C00C8B9694603A800F065FB0B909DF8D4
:104560002C0078B9B349009881F8EC00084690F81F
:10457000EC0018B1C5A000F0B9FD07E0CAA000F03A
:10458000B5FD03E002200EE502200CE5B1A000F02D
:10459000ADFD01E0012006E500BF002003E510B5F8
:1045A0000121C848FFF7C2F94FF6FF71C548FEF771
:1045B00053FD0021C348FEF74DFD00209D49C1F881
:1045C000F00010BD10B50121BE48FFF7A6F9012883
:1045D00008D19848D0F8F0004FF6FF71084495498B
:1045E000C1F8F000B748FEF739FD9249D1F8F01054
:1045F00008449049C1F8F0000846D0F8F00010BD1A
:1046000010B50121AF48FFF794F901280AD1894973
:10461000086980470021AB48FEF71CFD6421A948CA
:10462000FEF71AFD0121A748FFF794F910BD7FB5E9
:1046300004460D4601210420FEF7E1F8ADF80050D4
:104640000020ADF802000194ADF8080069469D48CD
:10465000FEF7B7FC012211469A48FFF753F90121F2
:104660009848FEF737FD1E208DF80C0003208DF8CA
:104670000D008DF80E0001208DF80F0003A8FDF746
:104680004CFA7FBD10B5044604EBC40000EB0410E7
:104690000122C2EB800081B24FF47A70FFF7C7FFAE
:1046A00001206449C87510BD30B595B0054613ABFF
:1046B00012AA09A9284600F041FB044614B120467D
:1046C00015B030BD0020149026E05A4909689DF8C5
:1046D000502001EBC20113AB11AA486801A900F0F8
:1046E0002DFB04460CB12046EAE709A901A800F019
:1046F00067FA60B99DF844009DF84810884201DDD2
:104700000220DDE79DF850004A4988750AE09DF8CF
:104710005000401CC0B214904648007D9DF85010D7
:104720008842D2DC00BF4348007D9DF8501088428B
:1047300001D10420C4E714A9284600F04CFC04462B
:104740000CB12046BCE79DF850003A49487500205E
:10475000B6E72DE9F0419AB03648847D007DA0424D
:1047600002DC1AB0BDE8F0813249096801EBC401EE
:1047700006AB07AA486808A900F0E0FA08A952A009
:1047800000F0B4FC0026B9E02A48008B0121B140BA
:104790000840D8B122214EA000F0A8FC304600F01D
:1047A0000DFC24492431471839464AA000F09EFCEC
:1047B000222147A000F09AFC304600F0FFFB1D4983
:1047C0002431084410A941F826008DE0304600F05D
:1047D000F5FB18492431085810A941F8260015485E
:1047E000C07D30B910A850F826103BA000F07EFC28
:1047F0007AE073E02D2D2D2D2D2D2D2D2D2D2D2DF0
:104800002D2D2D2D2D2D2D2D2D2D2D2D2DBAAFCA2C
:10481000FD204944202D2D2D2D2D2D2D2D2D2D2DDF
:104820002D2D2D2D2D2D2D2D2D2D2D2D2D2D2D2DB8
:10483000200D0A0088000020257320696420697318
:104840003A0D0A3058253038580D0A004845583A74
:10485000305825580D0A00003136BDF8D6C6B2CE04
:10486000CAFDCFD4CABE210D0A0000004445433A18
:10487000256C750D0A0000003130BDF8D6C6B2CEE9
:10488000CAFDCFD4CABE210D0A00000052756E20A9
:1048900054696D652043616C63756C6174696F6EFA
:1048A000204F4E0D0A00000052756E2054696D6550
:1048B0002043616C63756C6174696F6E204F46466E
:1048C0000D0A0000000800400D0A257328000000B2
:1048D0002563000025730000256C750010A850F8B2
:1048E000261095A000F002FC9DF81C00401EB0426E
:1048F00002D093A000F0FAFB701CC6B29DF81C0019
:104900008642FFF641AF8FA000F0F0FBFFF747FEB5
:104910008D48407D0B280DD2DFE800F0060D151EF6
:1049200027323F4E5F7287008749096851F834008B
:104930008047054690E0844A126852F83410109877
:104940008847054688E0804B1B6853F83420DDE932
:104950001001904705467FE07B4F3F6857F83430A1
:1049600010A807C89847054676E0DFF8DCC1DCF8F8
:1049700000C05CF8347010A80FC8B84705466BE05B
:104980001498DFF8C4C10090DCF800C05CF8347003
:1049900010A80FC8B84705465EE0DDE91401DFF84E
:1049A000A8C1CDE90001DCF800C05CF8347010A8A3
:1049B0000FC8B84705464FE0DDE914121698DFF836
:1049C00088C1CDE900120290DCF800C05CF83470B8
:1049D00010A80FC8B84705463EE0DDE91423DDE91D
:1049E0001610DFF864C1CDE90023CDE90210DCF830
:1049F00000C05CF8347010A80FC8B84705462BE01B
:104A0000DDE91523DDE91710CDE90123CDE9031018
:104A10001498DFF834C10090DCF800C05CF8347002
:104A200010A80FC8B847054616E0DDE91623DDE9F2
:104A30001810CDE90223CDE90410DDE91401DFF8F7
:104A400008C1CDE90001DCF800C05CF8347010A8A2
:104A50000FC8B847054600BF00BFFFF7B3FD9DF87C
:104A6000180001280CD13848C07D20B9294637A04C
:104A700000F03CFB07E0294636A000F037FB02E0DF
:104A800033A000F033FB304890F8EC0088B12E489A
:104A9000D0F8F0000A21B0FBF1F201FB12072A481E
:104AA000D0F8F000B0FBF1F83A4641462CA000F0F7
:104AB0001DFB00BF55E670B53148008800F400408A
:104AC000002833D02E48057800202E4948551E482E
:104AD00081682C48884704461CB91B49C868804730
:104AE00021E02848FFF752FA0546012D00D02C4658
:104AF000CCB1012C06D0022C08D0032C0AD0042CF7
:104B000010D10BE020A000F0F1FA0BE021A000F0A2
:104B1000EDFA07E022A000F0E9FA03E023A000F09C
:104B2000E5FA00BF00BF00201549088070BD0146AE
:104B30000868704701607047305825580000000031
:104B40002C00000029000000880000203D256C7525
:104B50003B0D0A003D305825583B0D0A000000006F
:104B600046756E6374696F6E2052756E2054696D60
:104B7000653A25642E2531646D730D0A000000002E
:104B8000280000208A010020BAAFCAFDB4EDCEF3A0
:104B9000210D0A00B2CECAFDB4EDCEF3210D0A00FC
:104BA000B2CECAFDCCABB6E0210D0A00CEB4D5D250
:104BB000B5BDC6A5C5E4B5C4BAAFCAFD210D0A008E
:104BC00002460AE010780B78984201D00120704725
:104BD000107800B902E0521C491CF3E700BF002026
:104BE000F5E706E002780A70027802B902E0401C9C
:104BF000491CF7E700BF70470146002005E00A782E
:104C000002B903E0421CD0B2491CF8E700BF70476C
:104C100010B50246012000E050430B1EA1F1010433
:104C2000E1B2F9D110BD2DE9F04307460E4600254B
:104C30004FF00A083C46002030601FE020783928F9
:104C400002DC207830280ADA2078462802DC207836
:104C5000412804DA2078582809D1012D07D120787D
:104C6000412801DB4FF01008681CC5B205E0207830
:104C700000B904E00120BDE8F083641CDEE700BF5A
:104C80003C46B8F1100F0FD1032D01DA0220F2E7F4
:104C90002078302806D16078582803D1A41CA81E9B
:104CA000C5B204E00320E6E70DB90420E3E71BE00A
:104CB0000DB1681EC5B22078392806DC207830286E
:104CC00003DB2078A0F1300902E02078A0F1370959
:104CD00029464046FFF79CFF316809FB0010306011
:104CE000641C207800B900E0E2E700BF0020C2E7C2
:104CF00010B50446002010700BE020780870641C8A
:104D0000491C1078401C10701078984201DB01207B
:104D100010BD2078202802D020780028EDD1002076
:104D2000087000BFF4E70146491C00E0491C087800
:104D3000202801D10029F9D1087870472DE9FF4FCB
:104D400085B080468946002700200490039001200A
:104D500002904FF0000B002544461DE020782028EB
:104D600016D005F07F00052812DA0DB945F0800550
:104D700005F07F00042803D120782A2800D00EE017
:104D8000207805F07F010DF80100681CC5B202E033
:104D9000852D00D103E0641C20780028DED100BFFF
:104DA0008DB1002005F07F010DF80100CBA1684610
:104DB000FFF706FF18B900210898017002E00121F1
:104DC0000898017000254FF0000A444614E0641C66
:104DD0000AF1010000F0FF0A2078202802D0207894
:104DE0002A2809D12046FFF79EFF0646282E03D029
:104DF0002A2E01D0CDF810A02078282802D02078C3
:104E00000028E4D14446049810B10498401C04449E
:104E10004FF0000A002654E0207810B94FF0010A44
:104E200050E02078282803D116B9781CC7B213E0C7
:104E30002078292808D13EB917B1781EC7B201E001
:104E40004FF0010A47B93DE02078222804D10EB97D
:104E5000012000E00020064647B9207820282FD006
:104E6000207889F8000009F1010929E020782C2830
:104E700004D101200290681CC5B214E020782028DB
:104E800011D0207828280ED04DB9BBF1050F06DAD5
:104E900020780DF80B000BF1010000F0FF0B0298D9
:104EA000401CC0B20290012F0AD10298022807D1FB
:104EB0000298401CC0B202900398401CC0B20390FC
:104EC000641CA9E700BF0398012809D100200DF850
:104ED0000B0082A16846FFF773FE08B9002003901B
:104EE000079903980870002089F80000504609B01F
:104EF000BDE8F08FF0B503461546002000220026DD
:104F0000002455E01F782C2F01D104B901221F780D
:104F1000292F01D01F780FB904B94AE0002E34D1EF
:104F20001F78302F02DB1F78392F11DD1F78612F9A
:104F300002DB1F78662F0BDD1F78412F02DB1F7805
:104F4000462F05DD1F78582F02D01F78782F0CD1FF
:104F500002B12EE01F78612F03DB1F78203F0F7016
:104F600001E01F780F70491C1FE01F78222F04D129
:104F700002B11EE00126012417E01F78202F14D073
:104F80001F782C2F11D0FF2613E01F78222F00D17D
:104F9000002402B10DE044B11F785C2F02D15B1CEC
:104FA000471CF8B21F780F70491C471CF8B25B1CF5
:104FB000A8E700BF00270F702E70F0BD024600204A
:104FC000002105E0474B5B5C0344D8B24B1CD9B2CF
:104FD0009142F7DB70472DE9F043B5B005460F4627
:104FE0000024002604E000213E488155701CC6B212
:104FF0000A2EF8DB06E06D1C287818B9012035B0C0
:10500000BDE8F08328782828F5D16D1C61E034AA2A
:1050100069462846FFF76EFF064635449DF8D000E6
:1050200020B1012827D0FF284CD149E09DF800008D
:1050300000B333A96846FFF7F6FD06460EB102201D
:10504000DDE72046FFF7BAFF26490A31339A0A50B6
:10505000A1F12400008B0121A140884321491A3984
:10506000088304211F480155601CC4B20A2C01DDCD
:105070000320C4E726E06846FFF7BEFD401C00F0B1
:10508000FF082046FFF79AFF16490A3100EB010995
:1050900049466846FFF7A5FD12481A38018B0120E2
:1050A000A040014388B20F491A3908830D4800F81F
:1050B0000480601CC4B20A2C01DD03209FE701E0DC
:1050C00002209CE700BF2878292801D0287800B961
:1050D00000E09CE700BF3C70002090E7766F6964B9
:1050E00000000000A2000020704700000FB4044937
:1050F00010B503AA029800F0F5F910BC5DF814FB96
:105100002400002070B5044685690068C10601D5F9
:10511000302600E02026C00707D070BDD4E9012169
:1051200030469047206A401C20626D1EF6D570BD47
:1051300070B5044685690078C00707D170BDD4E911
:10514000012120209047206A401C20626D1EF6D568
:1051500070BD70B50C460546012A05D0287880063A
:1051600000D5EA69002302E0012305E05B1C9342BD
:1051700002D2E05C0028F9D1A869E618C01AA8613B
:10518000286A184428622846FFF7BCFF04E0D5E9E6
:10519000012114F8010B9047B442F8D32846FFF7D9
:1051A000C7FF70BD2DE9F04106460024106875293F
:1051B000314616A510D0AFF30080002802DA404235
:1051C00013A507E031688A0701D512A502E0490757
:1051D00004D511A5012401E0AFF3008000210A22CB
:1051E00006F1240709E0B0FBF2FCB0FBF2F302FB8E
:1051F0001C00303078541846491C0028F3D123464F
:105200002A463046BDE8F04100F0FCB8000000003E
:105210002D0000002B0000002000000070B50446A7
:105220000D4621461068AFF300802188090502D59C
:105230000F4A7A4402E00E4A7A440E32002104F109
:10524000240305E000F00F060009965D5E54491C3A
:105250000028F7D120780023000704D5702D02D054
:1052600009B1022311322046BDE8704000F0CAB8EF
:10527000180B00002DE9F05F894604464FF0000A44
:10528000DFF874B1FB44C0F820A02046E1688847ED
:10529000002874D0252806D0D4E901219047206A3F
:1052A000401C2062F1E700265F462046E1688847FF
:1052B0002028054607DB312D05D2781910F8200C7F
:1052C00008B10643F1E7B00701D526F00406C4F89B
:1052D0001CA00027C4F818A02A2D09D0284600F0E9
:1052E00061F938B304EB8708303DC8F8185019E06D
:1052F00059F8041B204604EB87029161E168884756
:10530000012F054618D1E069002820DA26F0200692
:105310001DE0D8F8180000EB800005EB40003038A5
:10532000C8F818002046E1688847054600F03AF9B9
:105330000028EED1012F0AD02E2D08D12046E16899
:1053400088477F1C0546022F46F02006C4DBA06973
:10535000002803DA404246F00106A061F00701D0C0
:1053600026F010066C2D0BD0682D09D04C2D39D0AD
:105370006A2D35D0742D35D07A2D33D016E038E033
:10538000E1682F4620468847B842054609D16C2F70
:1053900026D04FF48060E1680643204688470546E2
:1053A00004E06C2F1AD04FF4807006430DB3A5F1C2
:1053B0004100192802D8203546F400664A4629469D
:1053C000204626604E46FAF739FF80B101280BD0FF
:1053D000F61D26F0070000F1080956E74020E4E733
:1053E0008020D8E70020D6E706F104094DE72846DB
:1053F00052E7206ABDE8F09FEE0A00007047704750
:10540000704770472DE9F0470D469946924604468D
:1054100000F124080168880604D5E06921F0100134
:10542000216000E00120A84201DD471B00E00027C9
:10543000A1697A1902EB0900081AA0612078C00658
:1054400002D42046FFF75EFE002608E0D4E90121E1
:105450001AF806009047206A401C761C20624E45D0
:10546000F4DB2078C0060AD52046FFF74BFE06E0A5
:10547000D4E9012130209047206A401C2062381E68
:10548000A7F10107F4DC07E0D4E9012118F80500D1
:105490009047206A401C2062281EA5F10105F3DC1C
:1054A0002046FFF745FE2078000602D50220BDE821
:1054B000F0870120FBE710B5436913B1AFF300801B
:1054C00001E0FFF746FE012010BD127800F1240133
:1054D0000A7000224A700122EDE711684FF0FF3296
:1054E000E9E70000074B70B50D467B4400F011F86A
:1054F0000446284600F020F810B14FF0FF3070BD90
:10550000204670BDA1C4FFFF01694A1C02610878F2
:10551000704700B58FB0CDE90131002105910549F3
:105520007944CDE9031011466846FFF7A3FE0FB09A
:1055300000BD0000E5FFFFFF007B00F0800070472A
:10554000754600F02BF8AE4605006946534620F03C
:105550000700854618B020B5FCF7CAFABDE8204020
:105560004FF000064FF000074FF000084FF0000B1F
:1055700021F00701AC46ACE8C009ACE8C009ACE8D2
:10558000C009ACE8C0098D46704710B50446AFF3BA
:1055900000802046BDE81040FAF770BE0048704712
:1055A0005402002030380A2801D201207047002020
:1055B00070474FF04070E1EE100A7047FF002CFF7B
:1055C0002EDFFF013C321100090203CF040813E56E
:1055D00014482C0C33783A333BFB3E004311161031
:1055E00039023588220A3740230034A0361A0602D1
:1055F00007C00DB70E014C004A812199243A25328B
:1056000026825C0063005D555E7D5F7D6055617044
:1056100062807C05208028306C006D806E007002F6
:10562000719673E13D345A574FBB509C0F43FF00B6
:10563000E57FF9C04124E01476FF33A042204318EF
:105640004C0087D0883FD703D910D382C808C980BF
:105650007C007D027C037D487D487C087D207D1098
:105660007D0E9000910E911A9131915A9169917528
:10567000917E9188918F919691A391AF91C491D78A
:1056800091E891209200930693E39305930593008C
:105690009300930093009300930093009300930072
:1056A0009600970897199702970C97249730972898
:1056B000972697029798978097009700C3EDA400CC
:1056C000A800BF00BAF0BC64BB02B63DB857B738FB
:1056D000B94EB3E8B4E1B566B067B15EB204C700D5
:1056E000C651C511C49CCF02A600A7E0A710A71EF3
:1056F000A721A700A728A7D0A710A716A721A70012
:10570000A728A7D0A710A717A721A700A728C0C818
:10571000C196861D50005190521853005400558870
:1057200057005A905B185C05C3EF7F00DA00E51F55
:10573000E167E000DDFF0500FF01FF011200171126
:10574000187519011A9732364FBB6D803D343902F6
:105750003588220A3740230034A0361A060207C0D3
:105760000DB70E014C00FF00E0048C0087D0E00074
:10577000FF00E014E177E51FD703DA10E000FF0037
:10578000E004C0C8C196861D50005190522C5300B1
:105790005400558857005A905B2C5C05E000D304F8
:1057A000FF00C3EFA600A7DDA778A77EA724A70068
:1057B000A725A606A720A758A773A734A700A72543
:1057C000A60CA728A758A76DA734A700A725FF00F8
:1057D000E004E167E51FD701DA08DA09E000980084
:1057E0009900FF010428FF01124017111843190006
:1057F0001A4B32094FCA50A85A236D00391235DAB4
:10580000221A37C3230034C0361A068807C00D8712
:105810000E414C00FF00E004C064C14B863550923D
:1058200051C8529653005400550057005A285B1E29
:105830005C00E000FF0111003D382D005065FF00C5
:10584000D3047C007D047C097D287D00FF002CFFB3
:105850002EDFFF013C321100090204D813E5144881
:105860002C0C33783A333BFB3E00431116104A812F
:1058700021992440253826825C006300463F0C3C79
:10588000617062807C05208028306C006D806E0025
:105890007002719473C13D345A57120011001711F0
:1058A000187519011A973236030F37404FBB509CB9
:1058B0005A576D806D3839023588220A37402300E7
:1058C00034A0361A060207C00DB70E014C00FF00C7
:1058D000E57FF9C04124E01476FF33A0422043184D
:1058E0004C0087D0883FD703D910D382C808C9801D
:1058F0007D007C037D487C087D207D107D0E90001E
:10590000910E911A9131915A91699175917E918878
:10591000918F919691A391AF91C491D791E89120E5
:105920009200930693E393029302930093049300EF
:1059300093039300930093009300930093009300CC
:105940009600970897199702970C972497309728F5
:10595000972697029798978097009700C3EFFF00CC
:10596000BADCBB08B624B833B720B930B3B4B4CA74
:10597000B543B05CB14FB206C700C651C511C49C57
:10598000BF00BC64A600A71EA76BA747A733A7004C
:10599000A723A72EA785A742A733A700A723A71B46
:1059A000A774A742A733A700A723C0C8C1968C003D
:1059B000863D50925190522C5300540055885A50B5
:1059C0005B3C5C00D3087F00DA00E51FE167E00084
:1059D000DD7F0500FF00E004C0C8C196863D5092FF
:1059E0005190522C53005400558857005A505B3C3C
:1059F0005C00D304E000FF000500DA08DA09980033
:105A000099000000FF00E004C0C8C19686355080B0
:105A10005190522C53005400558857005A785B44DB
:105A20005C00D304E000FF002CFF2EDFFF013C32BE
:105A30001100090204D813E514482C0C33783A33CA
:105A40003BFB3E0043111610399235DA221A37C358
:105A5000230034C0361A068807C00D870E414C005B
:105A600048005B0042034A81219924402538268260
:105A70005C00630046000C3C617062807C05208005
:105A800028306C006D806E007002719473C13D34DB
:105A90005A5712001711187519011A973236030F49
:105AA00037404FCA50A85A236D006D38FF00E57F7C
:105AB000F9C04124E01476FF33A0422043184C0083
:105AC00087D5883FD703D910D382C808C9807C0006
:105AD0007D007C037D487D487C087D207D107D0E07
