:020000040800F2
:10000000C0060020DD270008E1030008E303000824
:10001000F3030008F7030008FB03000800000000DA
:10002000000000000000000000000000FF030008C6
:100030000104000800000000030400080504000893
:10004000F7270008F7270008F7270008F727000818
:10005000F7270008F7270008F7270008F727000808
:10006000F7270008F7270008F7270008F7270008F8
:10007000F7270008F7270008F7270008F7270008E8
:10008000F7270008F7270008F7270008F7270008D8
:10009000F7270008F7270008F7270008F7270008C8
:1000A000F7270008F7270008F7270008F7270008B8
:1000B000F72700082D0A000809530008F727000851
:1000C000F7270008F7270008F7270008F727000898
:1000D000F727000851270008F7270008F72700082E
:1000E000F7270008F7270008F7270008F727000878
:1000F000F7270008F7270008F7270008F727000868
:10010000F7270008F7270008F7270008F727000857
:10011000F7270008F7270008F7270008F727000847
:100120003D07000859070008F7270008F7270008CF
:10013000F7270008F7270008F7270008F727000827
:10014000F7270008F7270008F7270008F727000817
:10015000F7270008F7270008F7270008F727000807
:10016000F7270008F7270008F7270008F7270008F7
:10017000F7270008F7270008EB080008F727000812
:10018000F7270008F727000800F002F800F06DF8E4
:100190000AA090E8000C82448344AAF10107DA45E2
:1001A00001D100F062F8AFF2090EBAE80F0013F0C7
:1001B000010F18BFFB1A43F00103184778830000B2
:1001C000988300000A444FF0000C10F8013B13F034
:1001D000070408BF10F8014B1D1108BF10F8015BA0
:1001E000641E05D010F8016B641E01F8016BF9D193
:1001F00013F0080F1EBF10F8014BAD1C0C1B09D1EA
:100200006D1E58BF01F801CBFAD505E014F8016B5B
:1002100001F8016B6D1EF9D59142D6D370470000ED
:100220000023002400250026103A28BF78C1FBD8FF
:10023000520728BF30C148BF0B607047642905F0E2
:100240003586752905F03286782905F06B86632995
:1002500005F0BF87732905F0C487002070471FB5DC
:1002600006F02BF81FBD10B510BD05F0EDFF1146CF
:10027000FFF7F5FF00F062F806F00BF803B4FFF7A4
:10028000F2FF03BC02F004FA1CB50121084603F09A
:10029000F1F84FF48070009002208DF804000020E7
:1002A0008DF8060003208DF8050069463D4802F0F0
:1002B0006FFC4FF0C061002002F0C0FF1CBDADF527
:1002C000207D0026002738E037A005F093FD0024AC
:1002D00031E037A005F08EFD00251AE01E2C02DA71
:1002E0004FF6FF7711E03C2C02DA4FF478470CE030
:1002F0005A2C01DA1F2708E0782C02DA4FF4FC6749
:1003000003E0A02C01DA4FF4FC672DF81570681C8F
:1003100085B2A02DE2DB002606E03DF8161025A0F0
:1003200005F068FD701C86B2A02EF6DB23A005F058
:1003300061FD601C84B2782CCBDBC5E74FF4A06074
:1003400002F06AFAA82002F021F94FF4E13002F03D
:10035000ADF901F079FC08E0C82002F079F918A0A5
:1003600005F048FDC82002F073F901F0C7FC002831
:10037000F2D17821A02001F000FF15A005F03AFD90
:10038000C82002F065F900F0F3F94FF48063DA0059
:100390004FF49641114800F041F900F07DFA00BF9A
:1003A000FEE7000000000240646174613A0A000048
:1003B0004C00000025303458000000000A00000006
:1003C0004F5632363430204641494C3A0A0000003C
:1003D0004F5632363430204F4B3A0A00001000207E
:1003E00070470948006800F0010000B100BE00BF7E
:1003F000FEE700BFFEE700BFFEE700BFFEE7704775
:100400007047704770470000F0ED00E00CB5002029
:10041000019000907648006840F48030744908608C
:1004200000BF7348006800F4003000900198401C41
:100430000190009818B90198B0F5A04FF1D16C481F
:10044000006800F4003010B10120009001E00020AD
:1004500000900098012846D165484030006840F07F
:1004600080506349403108606248006840F4404071
:10047000604908605E48083000685D4908310860DE
:100480000846006840F4004008600846006840F4F0
:10049000A05008605848091F0860081F006840F015
:1004A0008070091F086000BF5148006800F00070AC
:1004B0000028F9D040F20570504908604C480830D7
:1004C000006820F003004A490831086008460068C7
:1004D00040F00200086000BF45480830006800F0A6
:1004E0000C000828F8D10CBD10B54548006840F450
:1004F0007000434908603E48006840F001003C49F4
:10050000086000203A4908310860394800683D49D0
:100510000840374908603C48091D0860081F00680A
:1005200020F48020091F0860002031490C31086048
:10053000FFF76CFF4FF0006031498039086010BD53
:1005400070B500200022022300240221284D083526
:100550002D6805F00C0020B1042806D0082834D1FD
:1005600007E02A4D2A4E356033E02A4D284E35608B
:100570002FE01F4D2D1D2D68C5F380541C4D2D1DE2
:100580002D6805F03F0154B1224DB5FBF1F5184E31
:10059000361D3668C6F3881605FB06F209E01B4DCA
:1005A000B5FBF1F5124E361D3668C6F3881605FB0D
:1005B00006F20F4D2D1D2D68C5F301456D1C6B0016
:1005C000B2FBF3F5124E356003E0104D104E35606E
:1005D00000BF00BF064D08352D68C5F303150E4E4C
:1005E000705D0B4D2D68C540094E356070BD000033
:1005F000003802400070004008544007003C0240B0
:1006000088ED00E0FFFFF6FE103000240024F40027
:100610000000002000127A0004000020F0B591B024
:1006200004460D4616461F460121880502F022FFAA
:10063000D94802F071FB00BFD74802F096FC0028B1
:10064000FAD14FF000700290D44803900494002037
:1006500005900695079008974FF4805009900A96E8
:1006600000110B9040020C9004200D9003200E907E
:1006700000200F90109002A9C74802F0EFFB012262
:100680001021C54802F0B1FC39208DF8040000208B
:100690008DF805008DF8060001208DF8070001A8EF
:1006A00002F0BFF811B0F0BDF0B591B004460D46B0
:1006B00016461F460121880502F0DCFEB6481838B0
:1006C00002F02AFB00BFB448183802F04EFC0028A4
:1006D000F9D14FF000700290B048039004940020CC
:1006E00005900695079008974FF4805009900A9658
:1006F00000110B9040020C9004200D9003200E90EE
:1007000000200F90109002A9A348183802F0A6FB11
:1007100001221021A048183802F067FC38208DF81B
:10072000040000208DF805008DF8060001208DF8EA
:10073000070001A802F075F811B0F0BD10B5984996
:100740009548183802F021FC012804D194499248B8
:10075000183802F036FC10BD10B591498E4802F0F1
:1007600014FC012803D18E498B4802F02AFC10BDED
:100770000EB50121172002F07DFE0121084602F08E
:100780008AFE5020019002208DF8080000208DF88C
:100790000A0003208DF8090001208DF80B0001A943
:1007A000804802F0F5F9C020019001A97E4802F0CE
:1007B000EFF94FF43C60019001A97C4802F0E8F9A0
:1007C0006020019001A97A4802F0E2F90D2204218B
:1007D000744802F068FA0D220621724802F063FAAA
:1007E0000D220721704802F05EFA0D2206216F48A3
:1007F00002F059FA0D2207216C4802F054FA0D223A
:1008000008216A4802F04FFA0D220921674802F0D8
:100810004AFA0D220B21654802F045FA0D22062105
:10082000614802F040FA0D220521614802F03BFACE
:100830000D2206215E4802F036FA02F05DF8002033
:100840005C490880488188810881202088800020B8
:100850004880C880084602F05BF80121084602F093
:10086000D7F80121102002F0D3F80121082002F06E
:10087000CFF8012002F0ABF84E208DF800000120E7
:100880008DF8010002208DF8020001208DF8030090
:10089000684601F0C6FF0EBD10B540F23F13EF22CF
:1008A0000021084600F0E7FF4FF40060404948830C
:1008B00040103D4918310880012002F097F80121CD
:1008C000354802F005FB10BD10B5002002F08EF88F
:1008D00000BF32482838006800F001000028F8D135
:1008E00000212D4802F0F4FA10BD10B5102002F0DE
:1008F000B8F801283ED1FFF7E7FF102002F0BDF85D
:100900004FF400602A49088300202B4908802BA05F
:1009100005F070FA00202B49088025E000202A49C4
:10092000088015E02748008800EB8000274901EB8C
:1009300080102549098830F8112023480188214872
:10094000008800F0B3FF20480088401C1E49088042
:100950001D480088A028E5DB1DA005F04BFA1948CA
:100960000088401C17490880164800887828D5DD83
:10097000FFF792FF10BD2DE9F04104460D461646E3
:100980001F46FFF7A1FF0121034802F0A1FA012051
:1009900002F02CF8BDE8F0812864024028000550E0
:1009A000000800100000024000040240000802405D
:1009B00000100240840100201C000020646174616A
:1009C0003A0A000014000020160000200010002049
:1009D0000A0000007FB504460D460121022002F006
:1009E00092FDADF804500020ADF806000294ADF879
:1009F0000C0001A9164803F068F9012211461448B9
:100A000003F004FE0121124803F0E8F91D208DF8DF
:100A1000000001208DF8010003208DF80200012064
:100A20008DF80300684601F0FCFE7FBD10B5012182
:100A3000074803F002FE012804D10648816A06A097
:100A400005F0D8F90121024803F008FE10BD0000AE
:100A500000040040000005502564000030B5014648
:100A600001F01F04C1F34513CA0AE50205EB431563
:100A70001544A8B230BD2DE9F04706460F46904612
:100A80009A46002445464FEA4800C0F103094AE06F
:100A90007A1991B2321990B2524600F007FF7A19D2
:100AA00091B2321B90B2524600F000FF7A1B91B215
:100AB000321990B2524600F0F9FE7A1B91B2321B05
:100AC00090B2524600F0F2FE3A1991B2721990B209
:100AD000524600F0EBFE3A1991B2721B90B25246A8
:100AE00000F0E4FE3A1B91B2721990B2524600F047
:100AF000DDFE3A1B91B2721B90B2524600F0D6FE58
:100B0000B9F1000F05DA042000FB049000F106099A
:100B100007E0601B042101FB009000F10A09681E38
:100B200085B2601C84B2AC42B2DBAC4237D17A19D8
:100B300091B2321990B2524600F0B8FE7A1991B2D1
:100B4000321990B2524600F0B1FE7A1B91B23219BE
:100B500090B2524600F0AAFE7A1B91B2321B90B2BC
:100B6000524600F0A3FE3A1991B2721990B2524661
:100B700000F09CFE3A1991B2721B90B2524600F0FE
:100B800095FE3A1B91B2721990B2524600F08EFE59
:100B90003A1B91B2721B90B2524600F087FEBDE83C
:100BA000F0872DE9FF4F83B080468946494640468D
:100BB00000F04EFE0598A0EB08050698A0EB09068C
:100BC000002D02DB0120029003E04FF0FF30029085
:100BD0006D42002E02DB0120019003E04FF0FF3058
:100BE000019076424FEA450A4FEA460BB54219DDBD
:100BF000ABEB0504002712E049464046109A00F08E
:100C000055FE002C05DBA4EB0A04019848441FFAAA
:100C100080F95C44029840441FFA80F87F1CAF4280
:100C2000EADD18E0AAEB0604002712E04946404638
:100C3000109A00F03BFE002C05DBA4EB0B0402989D
:100C400040441FFA80F85444019848441FFA80F940
:100C50007F1CB742EADD07B0BDE8F08F2DE9F8430D
:100C600005460C4616461F46DDF820804EF67D7080
:100C70000090A81982B2234621462846FFF791FF2B
:100C800042F6651004F1010CBC441FFA8CF305EB2D
:100C9000060CACF1010C1FFA8CF204F1010C1FFAE6
:100CA0008CF105EB060CACF1010C00901FFA8CF0F6
:100CB000FFF777FF42F665100090E01983B2A8199C
:100CC00082B2E01981B22846FFF76BFF4EF67D70C5
:100CD0000090E01983B22A4621462846FFF761FFBB
:100CE00004F1010CBC44ACF1020C1FFA8CF305F1C9
:100CF000010CB444ACF1020C1FFA8CF204F1010CAB
:100D00001FFA8CF105F1010C1FFA8CF0CDF8008070
:100D1000FFF747FFBDE8F8832DE9F84305460C4689
:100D200016461F46DDF82080B8F1000F39D14EF687
:100D30007D700090A81982B2234621462846FFF70D
:100D400030FF42F6651004F1010CBC441FFA8CF32D
:100D500005EB060CACF1010C1FFA8CF204F1010C4E
:100D60001FFA8CF105EB060CACF1010C00901FFA98
:100D70008CF0FFF716FF42F665100090E01983B281
:100D8000A81982B2E01981B22846FFF70AFF4EF691
:100D90007D700090E01983B22A4621462846FFF76D
:100DA00000FFB8F1010F39D142F665100090A81983
:100DB00082B2234621462846FFF7F3FE4EF67D70A9
:100DC00004F1010CBC441FFA8CF305EB060CACF1EA
:100DD000010C1FFA8CF204F1010C1FFA8CF105EBE7
:100DE000060CACF1010C00901FFA8CF0FFF7D9FE55
:100DF0004EF67D700090E01983B2A81982B2E01916
:100E000081B22846FFF7CDFE42F665100090E0194A
:100E100083B22A4621462846FFF7C3FEB8F1020FE7
:100E200039D14FF6FF700090A81982B223462146AF
:100E30002846FFF7B6FE4FF6FF7004F1010CBC44E4
:100E40001FFA8CF305EB060CACF1010C1FFA8CF2C7
:100E500004F1010C1FFA8CF105EB060CACF1010C4E
:100E600000901FFA8CF0FFF79CFE4FF6FF70009089
:100E7000E01983B2A81982B2E01981B22846FFF7BF
:100E800090FE4FF6FF700090E01983B22A4621468B
:100E90002846FFF786FEBDE8F883F8B504460D4600
:100EA00016461F4644F208202B463246294600903B
:100EB0002046FFF776FE48F210406A1C93B291B2CA
:100EC000621C009090B23246FFF76BFE44F208209D
:100ED0003B462246294600902046FFF762FE48F234
:100EE0001040631C9AB26B1C99B2631C009098B2BC
:100EF0003B46FFF756FE4FF6FF703B4632463946FB
:100F000000902046FFF74DFE4FF6FF703B463246FD
:100F1000294600903046FFF744FEF8BDF8B5064676
:100F20000F4614461D464FF6FF703B462246394693
:100F300000903046FFF735FE4FF6FF702B463246E5
:100F4000394600903046FFF72CFE48F210406A1EEA
:100F500093B291B2721C009090B22246FFF721FE2C
:100F600044F208202B462246294600903046FFF7DF
:100F700018FE48F21040631E9AB27B1C99B2631EA1
:100F8000009098B22B46FFF70CFE44F208202B4647
:100F90002246394600902046FFF703FEF8BD2DE9B2
:100FA000F84F0746884693469A46DDF82890009702
:100FB000B3E099F8000080283DDA99F800600D2E22
:100FC00005D1009F08F110001FFA80F830E0202EB4
:100FD00003DDA6F1200086B200E00026002422E016
:100FE00000251CE004EB0610E849085C802129413B
:100FF000084040B108EB040291B27A1990B25A4607
:1010000000F054FC09E0D34507D008EB040291B28C
:101010007A1990B2524600F049FC681CC5B2082DFE
:10102000E0DB601CC4B2102CDADB07F1080087B2E9
:1010300009F1010971E0002668E006EB0610D449C9
:1010400011F8100099F8001088425DD106EB0610E7
:10105000CF4901EB4000407899F80110884253D104
:1010600000244FE0002520E006EB0610C84901EB04
:101070004000801C10F8141080202841014041B12C
:1010800008EB040291B27A1990B25A4600F00EFCB5
:1010900009E0D34507D008EB040291B27A1990B267
:1010A000524600F003FC681CC5B2082DDCDB0025AD
:1010B00024E006EB0610B64901EB4000801C01213C
:1010C00001EB4401405C80212941084048B108EB14
:1010D000040291B27A19083290B25A4600F0E6FB47
:1010E0000AE0D34508D008EB040291B27A1908321D
:1010F00090B2524600F0DAFB681CC5B2082DD8DB6E
:10110000601CC4B2102CADDB701C86B2322E94DB96
:1011100009F1020907F1100087B299F800000028D0
:101120007FF447AFBDE8F88F2DE9F05F06468846AB
:1011300093469A46DDF82890E2E099F8000080286E
:1011400035DA99F80070202F03DDA7F1200087B26F
:1011500000E00027002522E000241CE005EB07103A
:101160008A49095C80202041014041B108EB050219
:1011700091B2321990B25A4600F098FB09E0D3457B
:1011800007D008EB050291B2321990B2524600F036
:101190008DFB601CC4B2082CE0DB681CC5B2102DAE
:1011A000DADB09F1010906F1080086B2A8E00027A0
:1011B0009EE007EB870000EB4710764911F810001E
:1011C00099F8001088427CD107EB870000EB4710AC
:1011D000704901EB4000407899F801108842F2D143
:1011E000002580E0002423E007EB870000EB471098
:1011F000684901EB4000801C05EB4501405C802103
:101200002141084040B108EB050291B2321990B279
:101210005A4600F04BFB09E0D34507D008EB050226
:1012200091B2321990B2524600F040FB601CC4B239
:10123000082CD9DB002426E007EB870000EB4710E1
:10124000544901EB4000801C05EB4501491C405C02
:1012500080212141084048B108EB050291B23219C2
:10126000083290B25A4600F021FB0AE0D34508D07C
:1012700008EB050291B23219083290B2524600F0E2
:1012800015FB601CC4B2082CD6DB002427E007EB5A
:10129000870000EB47103F4901EB4000801C05EB45
:1012A0004501891C405C80212141084050B108EB78
:1012B000050291B23219103290B25A4600F0F6FA95
:1012C0000BE013E0D34508D008EB050291B23219C8
:1012D000103290B2524600F0E9FA601CC4B2082CF9
:1012E000D5DB681CC5B2182DFFF67CAF781C87B221
:1012F000142FFFF65EAF09F1020906F1180086B25D
:1013000099F8000000287FF418AFBDE8F09F2DE9A0
:10131000F05F0746884692469946002531E0002452
:101320002BE01D490A9801EBC01000EB850010F876
:1013300004B000261DE08020304100EA0B0050B1CF
:1013400008EB050291B207EBC402324490B2524658
:1013500000F0ACFA0BE0CA4509D008EB050291B2E7
:1013600007EBC402324490B24A4600F09FFA701C68
:10137000C6B2082EDFDB601CC4B2042CD1DB681CB3
:10138000C5B2202DCBDBBDE8F09F0000C462000891
:10139000367000081E770008B56800081CB50121EA
:1013A000022002F0C1F84FF46640009001208DF851
:1013B000040000208DF8060003208DF805000120B0
:1013C0008DF807006946FE4801F0E2FB012110207C
:1013D00002F0AAF84FF40860009001208DF8040094
:1013E00000208DF8060003208DF8050001208DF8FF
:1013F00007006946F34801F0CBFB1CBD0021082122
:1014000018E000F080022AB14FF40042EC4B183390
:101410001A8004E04FF40042E94B1A331A804FF46B
:101420000052E74B1A331A809B1E1A804206100E98
:101430004A1ED1B20029E4DC7047024600BF108981
:1014400000F002000028FAD0918100BF108900F05E
:1014500001000028FAD09089C0B2704702884FF688
:10146000C7731A400280012902D10288028003E07A
:10147000028842F020020280028842F0400202808C
:10148000704700B503464FF40060CE4948834010D2
:10149000CB491A3108801946CB48FFF7CEFF00BD73
:1014A00000B587B00121880302F03EF80121122027
:1014B00001F0E0FF4FF43040009002208DF804006E
:1014C00000208DF8060003208DF8050001208DF81E
:1014D00007006946BA4801F05BFB4FF4804000907A
:1014E00002208DF8040000208DF8060003208DF8FE
:1014F000050001208DF807006946B14801F048FB5E
:1015000005220C21AE4801F0CEFB05220D21AC488E
:1015100001F0C9FB05220E21A94801F0C4FB0522F8
:101520000F21A74801F0BFFB0121880301F0EBFF69
:101530000020ADF808004FF48270ADF80A000020DA
:10154000ADF80C000220ADF80E000120ADF810003F
:101550004002ADF812000020ADF81400ADF81600FE
:101560000720ADF8180002A9974803F09FF94FF43F
:10157000C060009001208DF8040000208DF8060066
:1015800003208DF8050001208DF8070069468C487E
:1015900001F0FEFA4FF40860009001208DF804007D
:1015A00000208DF8060003208DF8050001208DF83D
:1015B00007006946834801F0EBFA0121824803F0F5
:1015C0006FFAFF20FFF75DFF07B000BD00B50346CF
:1015D0004FF480607A491831088019467A48FFF73D
:1015E0002CFF00BD10B504462012FFF7EFFFE0B25C
:1015F000FFF7ECFF10BD30B505460C462846FFF757
:1016000040FF2046FFF7EEFF30BD10B580206D494A
:101610004883642001F01CF880206A490883322046
:1016200001F016F810BD10B5FFF73AFF4FF4007047
:10163000634918310880FFF7E8FF1120FFF721FF09
:101640000020FFF7C3FFCF20FFF71BFF0020FFF7AD
:10165000BDFFC120FFF7BAFF3020FFF7B7FFED2035
:10166000FFF70FFF6420FFF7B1FF0320FFF7AEFF86
:101670001220FFF7ABFF8120FFF7A8FFE820FFF75C
:1016800000FF8520FFF7A2FF1120FFF79FFF7820C2
:10169000FFF79CFFF620FFF7F4FE0120FFF796FF0F
:1016A0003020FFF793FF0020FFF790FFCB20FFF7DC
:1016B000E8FE3920FFF78AFF2C20FFF787FF002084
:1016C000FFF784FF3420FFF781FF0520FFF77EFF3F
:1016D000F720FFF7D6FE2020FFF778FFEA20FFF77C
:1016E000D0FE0020FFF772FF0020FFF76FFFC02041
:1016F000FFF7C7FE2020FFF769FFC120FFF7C1FEFB
:101700001120FFF763FFC520FFF7BBFE3120FFF775
:101710005DFF3C20FFF75AFFC720FFF7B2FEA9206C
:10172000FFF754FF3A20FFF7ACFE5520FFF74EFFBE
:101730003620FFF7A6FE4820FFF748FFB120FFF74D
:10174000A0FE0020FFF742FF1820FFF73FFFB42064
:10175000FFF797FE0020FFF739FF0020FFF736FF65
:10176000F220FFF78EFE0020FFF730FF2620FFF764
:1017700088FE0120FFF72AFFE020FFF782FE0F20FE
:10178000FFF724FF1720FFF721FF1420FFF71EFFAC
:101790000920FFF71BFF0C20FFF718FF0620FFF7BB
:1017A00015FF4320FFF712FF7520FFF70FFF3620CC
:1017B000FFF70CFF0820FFF709FF132006E00000E9
:1017C000000402400010024000380040FFF7FEFE17
:1017D0000520FFF7FBFE1020FFF7F8FE0B20FFF7B8
:1017E000F5FE0820FFF7F2FEE120FFF74AFE002099
:1017F000FFF7ECFE1F20FFF7E9FE2320FFF7E6FED0
:101800000320FFF7E3FE0E20FFF7E0FE0420FFF7C2
:10181000DDFE3920FFF7DAFE2520FFF7D7FE4D2049
:10182000FFF7D4FE0620FFF7D1FE0D20FFF7CEFE16
:101830000B20FFF7CBFE3320FFF7C8FE3720FFF762
:10184000C5FE0F20FFF7C2FE2920FFF71AFE10BDCC
:1018500030B505460C462A20FFF713FE2846FFF751
:10186000C1FE2B20FFF70DFE2046FFF7BBFE2C200C
:10187000FFF707FE30BDF0B507460C4615461E467D
:101880002A20FFF7FEFD3846FFF7ACFE2846FFF79B
:10189000A9FE2B20FFF7F5FD2046FFF7A3FE3046FB
:1018A000FFF7A0FE2C20FFF7ECFDF0BD70B505465C
:1018B0000E46144631462846FFF7CAFF2046FFF77A
:1018C00091FE70BD30B5054640F23F13EF22002176
:1018D0000846FFF7D0FF4FF40060114948834010DD
:1018E00010490880002408E029120F48FFF7A5FDE1
:1018F000E9B20D48FFF7A1FD641CB4F5963FF3D3A0
:10190000002408E000210848FFF797FD1F21064842
:10191000FFF793FD641CB4F5963FF3D330BD000090
:1019200000100240180402400038004008B54EF68E
:101930007D70FFF7C7FFC7A04EF67D731F220221FF
:1019400000901020FFF72BFBC6A04EF67D734FF4DE
:101950007842142100901020FFF721FB3A237122D6
:1019600026210F20FFF7DAFAC2A04EF67D734FF45E
:10197000FC62282100901020FFF711FB58237122F0
:1019800044210F20FFF7CAFABEA04EF67D731F2236
:10199000462100901020FFF702FB7623712262217E
:1019A0000F20FFF7BBFABBA04EF67D734FF47842D1
:1019B000642100901020FFF7F2FABAA04EF67D7372
:1019C0004FF478428C2100901020FFF7E8FAB748D6
:1019D00040794EF67D734FF478427D21009064206B
:1019E000FFF795FC4FF47A7000F032FEAF480079B3
:1019F0004EF67D734FF478427D2100906420FFF70E
:101A000086FC4FF47A7000F023FEA848C0784EF6AA
:101A10007D734FF478427D2100906420FFF777FCBE
:101A20004FF47A7000F014FEA04880784EF67D7373
:101A30004FF478427D2100906420FFF768FC4FF45A
:101A40007A7000F005FE994840784EF67D734FF4A9
:101A500078427D2100906420FFF759FC4FF47A70A2
:101A600000F0F6FD914800784EF67D734FF4784211
:101A70007D2100906420FFF74AFC08BDF8B50024E2
:101A80004EF67D70FFF71EFF89A04EF67D734FF472
:101A90007842142100901020FFF781FA4FF47A70F9
:101AA00000F0D6FD4EF67D70FFF70CFF00BF21E081
:101AB000032094FBF0F040011E3085B2032094FB1C
:101AC000F0F100FB114000EB80004FF6FF7101EADE
:101AD000C0067649601C085C4EF67D734FF4784270
:101AE000294600903046FFF712FC642000F0B0FD5C
:101AF000601CC4B20A2CDBDBF8BD08B54EF67D7065
:101B0000FFF7E0FE5FA04EF67D731F220A210090D2
:101B10001020FFF744FA4FF47A7000F099FD4EF66A
:101B20007D70FFF7CFFE4BA04EF67D734FF47842E9
:101B30001E2100901020FFF732FA60A04EF67D7350
:101B40001F22322100901020FFF729FA5FA04EF6E5
:101B50007D734FF47842462100901020FFF71FFA62
:101B60005EA04EF67D731F22642100900020FFF7D7
:101B700016FA5EA04EF67D734FF4784282210090F3
:101B80000020FFF70CFA40F2DC5000F061FD08BDC8
:101B900010B54FF47840FFF795FE40F6980000F03E
:101BA00057FD10BD2DE9F84307464EF67D70FFF74F
:101BB00089FE38A04EF67D731F220A210090102066
:101BC000FFF7EDF94FF47A7000F042FD4EF67D70AC
:101BD000FFF778FE002633E000252EE006EB860CAA
:101BE0004FEACC0C0CF1270C1FFA8CF305EB850C9B
:101BF0004FEACC0C0CF1270C1FFA8CF206EB860C8A
:101C00004FEACC4C4FEA1C4105EB850C4FEACC4C1B
:101C10004FEA1C40FFF72FFE00240AE017F814904B
:101C200007EB440090F8018049EA0820FFF7DAFC4E
:101C3000641CB4F5C86FF1DB6D1C062DCEDB761C81
:101C4000082EC9DBBDE8F88310B5FFF7ECFCFFF701
:101C50009FFF10BDC8ABB6AFB5E7D7D3BCBCCAF5C4
:101C600000000000D2BABEA7B2E2CAD4B3CCD0F210
:101C700000000000D1D5C9ABCCEEB3E4B2E2CAD4C7
:101C800000000000CEC4D7D6CFD4CABEB2E2CAD4B8
:101C900000000000CDBCC6ACCFD4CABEB2E2CAD4EC
:101CA0000000000057656C636F6D65001E0000202A
:101CB0004E756D205465737400000000D7A8D7A23C
:101CC000D2BABEA7C5FAB7A200000000C8ABB3CC19
:101CD000BCBCCAF5D6A7B3D60000000054656C3A68
:101CE0003135393839333133353038007777772E1D
:101CF0007164746563682E6E657400007CB50024A1
:101D00000121102001F0B6FB4FF4024000900120A9
:101D10008DF8040000208DF8060002208DF80500E3
:101D200001208DF807006946FE4800F031FF0020D1
:101D3000FD4908600A2000F08BFC0020FB49C1F837
:101D4000BC020A2000F084FC0120F7491831086029
:101D500000F0E2FA0121FF2000F0CCFB80211220EC
:101D600000F0C8FB322000F073FC1C2000F0E1FB07
:101D700005464FF6FF7000EA05251D2000F0D9FB4F
:101D8000054347F6A270854205D02946E8A004F035
:101D900031F801207CBD0A2000F0CBFB05464FF650
:101DA000FF7000EA05250B2000F0C3FB054342F25B
:101DB0004260854205D02946E0A004F01BF80220CD
:101DC000E8E70121FF2000F095FB8021122000F0C0
:101DD00091FB00240AE0DC4A02EB44025178DA4A23
:101DE00012F8140000F086FB601C84B2B12CF2D310
:101DF00000240AE0D44A02EB44025178D24A12F895
:101E0000140000F077FB601C84B2B12CF2D30020E8
:101E1000C0E710B5002400BF0AE0CC4A02EB440240
:101E20005178CA4A12F8140000F064FB601C84B2B6
:101E3000082CF2D300240AE0C54A02EB4402517890
:101E4000C34A12F8140000F055FB601C84B2072C42
:101E5000F2D310BD10B5002400BF0AE0BD4A02EB6A
:101E600044025178BB4A12F8140000F043FB601C96
:101E700084B20E2CF2D310BD70B50546B64800EB07
:101E8000C506002409E0012202EB4402B15C16F809
:101E9000140000F02FFB601CC4B2042CF3DB70BDF7
:101EA0002DE9F04104465E254126542734B1022C29
:101EB0000ED0032C10D0042C16D111E00021FF20ED
:101EC00000F018FB1021C72000F014FBBDE8F081E2
:101ED000652541264F2707E052254126662703E066
:101EE00042253F26712700BF00BF0021FF2000F0E0
:101EF00001FB4021C72000F0FDFA2946CC2000F06C
:101F0000F9FA3146CD2000F0F5FA3946CE2000F03E
:101F1000F1FA00BFDAE770B50446A01C082141EAD7
:101F20000010C5B20021FF2000F0E4FA00217C205F
:101F300000F0E0FA02217D2000F0DCFA03217C2091
:101F400000F0D8FA29467D2000F0D4FA29467D20F9
:101F500000F0D0FA70BD10B504460021FF2000F05B
:101F6000C9FA00217C2000F0C5FA04217D2000F090
:101F7000C1FA09217C2000F0BDFA2007010E7D2066
:101F800000F0B8FA00217D2000F0B4FA10BD70B561
:101F900004462025202634B1012C07D0032C08D07C
:101FA000042C0CD108E01825342608E01C252A262C
:101FB00005E02425162602E028250C2600BF00BFD8
:101FC0000021FF2000F096FA00217C2000F092FA18
:101FD00004217D2000F08EFA07217C2000F08AFA8F
:101FE00020217D2000F086FA29467D2000F082FA2B
:101FF00031467D2000F07EFA06217D2000F07AFA3D
:1020000070BD2DE9F0410446002580268027072C6D
:1020100019D2DFE804F0180406080C10140040255B
:1020200011E018250FE018254026C0270BE01825E1
:102030004026402707E01825A026402703E0182562
:102040004026A62700BF00BF0021FF2000F052FA63
:1020500000217C2000F04EFA29467D2000F04AFA4B
:1020600005217C2000F046FA31467D2000F042FA3E
:1020700039467D2000F03EFABDE8F08170B5054696
:102080000121FF2000F036FA122000F052FA044637
:1020900024F002040DB144F002042146122000F0A5
:1020A00029FA70BD2DE9F04705460E4617469846B9
:1020B000384607EBD07105EB61011FFA81F9404604
:1020C00008EBD07106EB61011FFA81FA0121FF20B4
:1020D00000F010FA032000F02CFA044604F0F0049B
:1020E0000AF00301304661F39F00044321460320B8
:1020F00000F000FAC6F38701192000F0FBF9CAF3DB
:1021000087011A2000F0F6F9322000F012FA044696
:1021100004F0C00409F00701284661F3DF0004431E
:1021200021461BE000100240A4024242000042424D
:102130004D49443A25640D0A000000004849443ADC
:1021400025640D0A000000006A820008F68300087A
:10215000CC830008DA83000806840008322000F0EF
:10216000C9F9C5F3C701172000F0C4F9C9F3C701C5
:10217000182000F0BFF9BDE8F0872DE9F0410446D2
:102180000D46E11704EB91718910A4EB810111B1A7
:102190000120BDE8F081E91705EB91718910A5EBED
:1021A000810109B10220F4E72046E11704EB9171A7
:1021B000C1F38F072846E91705EB9171C1F38F062C
:1021C0000021FF2000F096F90421E02000F092F9B0
:1021D0000021502000F08EF9F9B25A2000F08AF95F
:1021E000F1B25B2000F086F9C7F30128042000EA71
:1021F000A61040EA080841465C2000F07BF9002167
:10220000E02000F077F90020C3E72DE9F047804691
:10221000894614461D46E11704EB91718910A4EB21
:10222000810111B10120BDE8F087E91705EB91713B
:102230008910A5EB810109B10220F4E72046E117DE
:1022400004EB9171C1F38F062846E91705EB9171F4
:10225000C1F38F0A0021FF2000F04CF90421E02097
:1022600000F048F9F1B2512000F044F90AF0FF0102
:10227000522000F03FF908F0FF01532000F03AF936
:1022800009F0FF01542000F035F9802000EA6A07C8
:10229000702000EA29100743082000EA661007436F
:1022A000C8F3022007433946552000F023F9802067
:1022B00000EAA601572000F01DF90021E02000F0FF
:1022C00019F90020AFE770B504460D460021FF2044
:1022D00000F010F90421E02000F00CF9C4F3C7016C
:1022E000C02000F007F9C5F3C701C12000F002F9D2
:1022F0006007860E05F007000643802000EA2410E0
:10230000064331468C2000F0F5F80021E02000F073
:10231000F1F8002070BD00001CB50121082001F07B
:10232000A9F8C020009001208DF8040000208DF84D
:10233000060002208DF8050001208DF8070069468F
:102340008F4800F025FCC0218D4800F09DFC8C4892
:10235000006820F440408A4908600846006840F45C
:10236000804008601CBD10B5012086490860864980
:10237000C1F89802322000F023F90020814908605A
:10238000322000F01DF900207F49C1F8980210BDED
:1023900010B500207B490860322000F011F90120BF
:1023A0007949C1F89802322000F00AF901207549F4
:1023B0000860322000F004F910BD10B5322000F0A2
:1023C000FFF801206F4908606F49C1F89802322078
:1023D00000F0F6F800206B49091F0860322000F079
:1023E000EFF800206849C1F89C02322000F0E8F8BC
:1023F00010BD70B5044600261BE004F0800018B143
:1024000001206049086002E000205E490860600623
:10241000040E322000F0D4F801205A49091F086048
:10242000322000F0CDF800205749C1F89802701C06
:10243000C6B2082EE1DB5248006820F44040504903
:102440000860084600680860322000F0B9F80120F2
:102450004C49091F0860322000F0B2F84A48D0F811
:102460001C0208B1012500E0002500204549091F94
:1024700008604348006820F440404149086008462D
:10248000006840F480400860284670BD70B50024A4
:102490003B48006820F4404039490860084600681D
:1024A0000860082517E0322000F08AF8012035493D
:1024B000091F08606006040E3348D0F81C0208B1FA
:1024C000601CC4B2322000F07BF800202D49091FA7
:1024D0000860681EC5B2002DE5DC2948006820F4BC
:1024E0004040274908600846006840F48040086082
:1024F000204670BD70B505460C460026FFF733FF39
:102500006020FFF776FF00B10126642000F058F844
:102510002846FFF76EFF00B10126642000F050F856
:102520002046FFF766FF00B10126FFF731FF304676
:1025300070BD70B504460025FFF715FF6020FFF75A
:1025400058FF642000F03CF82046FFF752FF64205B
:1025500000F036F8FFF71CFF642000F031F8FFF7B9
:1025600002FF6120FFF745FF642000F029F8FFF724
:102570008DFF0546FFF721FFFFF70AFF284670BDD4
:10258000000C02409C8241420080414210B504464A
:102590006FF0040000F092F9E11704EB5171C1F300
:1025A000C701394A11701046007800EB4001C1EBB9
:1025B000C0104FF6FF7101EAC0003449088010BD19
:1025C0000146314A12784A434FF0E0235A61002213
:1025D0009A611A46126942F001021A6100BF4FF077
:1025E000E022106900F001021AB100F48032002AE2
:1025F000F5D04FF0E022126922F001024FF0E02303
:102600001A6100229A6170470146204A12884A43A3
:102610004FF0E0235A6100229A611A46126942F093
:1026200001021A6100BF4FF0E022106900F00102C0
:102630001AB100F48032002AF5D04FF0E02212697E
:1026400022F001024FF0E0231A6100229A617047E4
:1026500070B504464FF4077094FBF0F0C6B24FF427
:10266000077094FBF0F100FB114085B205E04FF4D8
:102670000770FFF7C9FF701EC6B2002EF7D115B163
:102680002846FFF7C1FF70BD280000202A00002067
:10269000014600BF704700BF4C4A128802F040025A
:1026A000002AF9D0C2B2494B9A80704710B588B061
:1026B00004460121084600F0DDFE0121102000F053
:1026C00033FF07220921424800F0EDFA07220A21D0
:1026D0003F4800F0E8FA4FF4C060069002208DF801
:1026E0001C008DF81D0000208DF81E0001208DF8C3
:1026F0001F0006A9364800F04BFA02940020ADF8FE
:102700000C00ADF80E00ADF81000ADF814000C2070
:10271000ADF8120002A92D4801F067F801212B48FD
:1027200001F0EBF8012240F22551284801F09BF915
:1027300025208DF8040003208DF805008DF8060093
:1027400001208DF8070001A800F06BF808B010BD5B
:1027500010B540F225511D4801F0C0F910B31B48D7
:1027600001F0FAF8C4B21B48008800F40040C8B970
:102770001848008800F4804060B10A2C03D0002083
:102780001449088020E01348008840F400401149B3
:10279000088019E00D2C06D10E48008840F48040D6
:1027A0000C49088010E00B480088C0F30D000A496E
:1027B0000C5408480088401C0649088008460088D8
:1027C000C72801DD0020088010BD00000010014076
:1027D000000002403000002092010020094880479C
:1027E00009480047FEE7FEE7FEE7FEE7FEE7FEE7F3
:1027F000FEE7FEE7FEE7FEE704480549034A054B0E
:1028000070470000E904000889010008C0020020A8
:10281000C0060020C002002032490143324A116044
:10282000704770B5002100230F22C4781CB32E4CD2
:10283000246804F4E064C4F5E064C4F30721C1F142
:102840000404E3B20A4144789C40E1B28478144025
:1028500021430C07210E254C05786155047804F0BE
:102860001F050124AC4005786D11AD0005F1E02590
:10287000C5F8004109E0047804F01F050124AC40CC
:102880001B4D0678761145F8264070BD194A0A405E
:102890000243154B1B1F1A60704739B1124A121DB3
:1028A00012680243104B1B1D1A6006E00E4A121DEF
:1028B000126882430C4B1B1D1A607047042808D114
:1028C0004FF0E021096941F004014FF0E02211616D
:1028D00007E04FF0E021096921F004014FF0E02208
:1028E000116170470000FA050CED00E000E400E023
:1028F00080E100E080FFFF1F002061490860C860A0
:102900001F20486100208861C861086248627047E2
:1029100000215B4A126844F201039A43584B1A6043
:102920001A46116840F6F2729143028843881A43AE
:1029300083881A43C3881A4303891A4343891A4375
:1029400083891A4311434E4A116070470021018068
:1029500041808180C18001814181818170474188AE
:10296000028841EA0241464A1162C188828841EAEE
:102970000241434A5162704730B14149096841F010
:1029800004013F4A116005E03D49096821F0040156
:102990003B4A116070470178427841EA022182780F
:1029A00041EA0241C27841EA0261354A91617047C9
:1029B00030B13349096841F00801314A116005E03E
:1029C0002F49096821F008012D4A1160704730B184
:1029D0002B49096841F48041294A116005E02849E2
:1029E000096821F48041264A1160704730B12449BA
:1029F000096841F00101224A116005E02049096897
:102A000021F001011E4A116070471D48806A70471D
:102A100029B11B4AD2680243194BDA6006E0184A12
:102A2000D268C3439BB21A40154BDA60704710B5A9
:102A30000146002000230A1312B9114CA36806E0D6
:102A4000022A02D10E4C636801E00D4C236903EAAF
:102A500001040CB1012000E0002010BD08494861CC
:102A60007047014600200022054B1B6903EA010262
:102A70000AB1012000E00020704701494861704719
:102A80000000055010B504469848844208D1012141
:102A9000084600F05AFD0021012000F056FD76E0C6
:102AA0009348844208D10121022000F04EFD00210C
:102AB000022000F04AFD6AE08E48844208D10121DC
:102AC000042000F042FD0021042000F03EFD5EE005
:102AD0008948844208D10121082000F036FD0021F8
:102AE000082000F032FD52E08448844208D10121E0
:102AF000102000F02AFD0021102000F026FD46E005
:102B00007F48844208D10121202000F01EFD0021D1
:102B1000202000F01AFD3AE07A48844208D10121D1
:102B2000402000F012FD0021402000F00EFD2EE0BC
:102B30007548844208D10121802000F006FD002163
:102B4000802000F002FD22E07048844208D101217B
:102B5000801500F0FAFC0021A01500F0F6FC16E04C
:102B60006B48844208D10121401500F0EEFC0021A1
:102B7000601500F0EAFC0AE06648844207D10121B2
:102B8000001500F0E2FC0021201500F0DEFC10BD75
:102B9000F0B50A4600210023002400BF3DE00125D6
:102BA00005FA01F3156805EA03049C4234D105686F
:102BB0004F000326BE40B543056015794E00B54071
:102BC0000668354305601579012D02D01579022D6F
:102BD00016D185684F000326BE40B5438560557900
:102BE0004E00B540866835438560456801268E40B5
:102BF000B5434560456896798E40B6B23543456029
:102C0000C5684F000326BE40B543C560D5794E0068
:102C1000B540C6683543C560491C1029BFD3F0BD17
:102C20004FF6FF7101600021017141718171C17125
:102C3000704708B54FF480320092009A0A43009220
:102C4000009AC261C161009AC261C2690092C26900
:102C5000009208BD0246002013690B400BB1012011
:102C600000E0002070470146086980B270470246C4
:102C7000002053690B400BB1012000E00020704799
:102C80000146486980B270470183704741837047AD
:102C90000AB1018300E04183704741617047426996
:102CA0004A4042617047F0B5002300244D07ED0E05
:102CB00002FA05F3CE1000F1200555F826504E0714
:102CC000F70E0F26BE40B543CF1000F1200646F8A0
:102CD0002750CE1000F1200555F8265045EA030490
:102CE000CE1000F1200545F82640F0BD000002405E
:102CF0000004024000080240000C024000100240A4
:102D00000014024000180240001C02400020024053
:102D10000024024000280240016821F00101016006
:102D20000021016041608160C16001612121416138
:102D3000DB49884204D13D21D94A103A91608CE0A8
:102D4000D7491831884205D14FF47461D44A103AFA
:102D5000916082E0D2493031884205D14FF474113C
:102D6000CF4A103A916078E0CD494831884205D188
:102D70004FF07461CA4A103A91606EE0C849603100
:102D8000884204D1C749C64A103AD16065E0C449B7
:102D90007831884204D1C449C14A103AD1605CE01C
:102DA000BF499031884204D1C049BD4A103AD16030
:102DB00053E0BB49A831884205D14FF03D51B84A94
:102DC000103AD16049E0BA49884204D13D21B84A5D
:102DD000083A116041E0B6491831884205D14FF4F4
:102DE0007461B34A083A116037E0B1493031884222
:102DF00005D14FF47411AE4A083A11602DE0AC4988
:102E00004831884205D14FF07461A94A083A1160EF
:102E100023E0A7496031884204D1A249A44A121F85
:102E200011601AE0A2497831884204D19E49A04A33
:102E3000121F116011E09E499031884204D19B49D4
:102E40009B4A121F116008E09949A831884204D1B9
:102E50004FF03D51964A121F1160704710B5002285
:102E60000268944B1A40CC680B6823434C69234397
:102E70008C692343CC6923430C6A23434C6A234364
:102E80008C6A23434C6B23438C6B23431A430260AD
:102E9000426922F00702D1E90B3423431A4342610D
:102EA0000B6943604B6883608B68C36010BD002171
:102EB000016041608160C160016141618161C16106
:102EC000016241628162C162016341638163704753
:102ED00021B1026842F00102026003E0026822F0C0
:102EE00001020260704721B1026842F400420260B0
:102EF00003E0026822F400420260704721B10268D8
:102F000042F02002026003E0026822F02002026028
:102F10007047416070470146486880B2704722B1EF
:102F2000036843F40023036003E0036823F40023F1
:102F300003600161704721B1026842F4802202609F
:102F400003E0026822F48022026070470AB1016146
:102F500000E0C1607047014600200A6802F40022C8
:102F60000AB1012000E000207047014600200A68F5
:102F700002F001020AB1012000E000207047014682
:102F800000204A6902F03800704730B503460A460F
:102F900000200024464DAB4202D24149103901E0E5
:102FA0004349103902F000550DB14C6800E00C683F
:102FB000414D2C4004EA02050DB1012000E0002043
:102FC00030BD02463A4B9A4202D23548103801E0F1
:102FD0003748103801F000531BB1374B0B40C3602A
:102FE00002E0354B0B408360704710B501F0800361
:102FF0004BB122B1436943F08003436103E043696D
:1030000023F08003436180290BD02AB1036801F0CB
:103010001E042343036004E0036801F01E04A3437D
:10302000036010BD70B50246002000240025204E2C
:10303000B24202D21A4B103B01E01D4B103B1F4E17
:103040000E4036B11E2606EAD124166806EA0405AB
:1030500002E0566906F0800501F000560EB15C688A
:1030600000E01C68144E344004EA010616B10DB1AC
:10307000012000E0002070BD02460D4B9A4202D2B2
:103080000748103801E00A48103801F000531BB11E
:10309000094B0B40C36002E0074B0B408360704755
:1030A000106002403D000020400F002000003D2045
:1030B000106402403F801CF07D0F7D0F3C0F3C0FE1
:1030C000F948006840F00100F74908600020F6491F
:1030D00008310860F4480068F4490840F249086083
:1030E000F348091D0860F348EF4984310860F0484F
:1030F0001038091D0860EC48006820F48020EA4977
:1031000008600020E8490C310860E7498C3108600C
:1031100070470021E44A921C1170114608707047F4
:1031200010B501460022002300204A11012A02D1D5
:10313000DD4C236808E0022A03D1DB4C703423689D
:1031400002E0D94C7434236801F01F02012494403A
:103150001C400CB1012000E0002010BD38B500205B
:1031600000900024002500BF3120FFF7D9FF05465D
:103170000098401C00900098B0F5A04F01D0002DA1
:10318000F2D03120FFF7CCFF08B1012400E0002489
:10319000204638BD01460020C34A106820F0F800E0
:1031A00040EAC10010607047C349086070470021C1
:1031B000BD4A703211701170012802D004280AD162
:1031C00004E00121B84A7032117005E00521B64AC9
:1031D0007032117000E000BF00BF7047B74908604F
:1031E000704770B5049C41EA82150126C6EB530670
:1031F00045EA0645054345EA0465AB4E361D356094
:1032000070BDAD4908667047820142EA0172A64B63
:1032100084331A607047A8498866704710B58301E7
:1032200043EA016343EA02739F4C8834236010BD74
:10323000A14908677047A049C8647047024600204A
:10324000994B0833186820F0EC6042EA01031843F8
:10325000954B08331860704702460020924B0833A4
:10326000186820F0784042EA010318438E4B083377
:1032700018607047014600208B4A0832106820F021
:10328000030008431060704787480830006800F06A
:103290000C00704701460020834A0832106820F075
:1032A000F000084310607047014600207E4A083253
:1032B000106820F4E0500843106070470146002079
:1032C000794A0832106820F4604040EAC10010607A
:1032D0007047F0B5002100220024022500260223B9
:1032E000714F08373F6807F00C0121B1042905D060
:1032F000082937D105E0724F076036E0714F07604B
:1033000033E0694F3F1D3F68C7F38056664F3F1D4E
:103310003F6807F03F036EB16A4FB7FBF3F7DFF882
:1033200088C10CF1040CDCF800C0CCF3881C07FB4E
:103330000CF40CE0624FB7FBF3F7DFF86CC10CF153
:10334000040CDCF800C0CCF3881C07FB0CF4564FCF
:103350003F1D3F68C7F301477F1C7D00B4FBF5F7B5
:10336000076002E0564F076000BF00BF4E4F0837AE
:103370003F6807F0F0010909534F7A5C0768D740AE
:103380004760494F08373F6807F4E051890A4E4FBC
:103390007A5C4768D7408760434F08373F6807F437
:1033A0006041490B484F7A5C4768D740C760F0BD21
:1033B000002100F44072B2F5407F0AD13A4A083247
:1033C000116821F4F811414A02401143364A08328B
:1033D0001160354A70321268C0F30B031A43324B46
:1033E00070331A6070473549443908607047334973
:1033F0004039086070473649086070470146002030
:10340000294A8C32106820F01F004A1E1043264AB9
:103410008C321060704701460020234A8C321068BD
:1034200020F4F8504A1E40EA02201F4A8C321060F5
:103430007047014600201C4A8C32106820F440106E
:1034400008431060704701460020174A8C3210680C
:1034500020F4400008431060704701460020124AE3
:103460008C32106820F440300843106070471949CE
:103470000860704739B10C4A3032126802430A4B77
:1034800030331A6006E0084A303212688243064B35
:1034900030331A607047F9B1034A3432126802437C
:1034A000014B34331A601CE000380240FFFFF6EA9B
:1034B000103000240030002000004742800E4742B8
:1034C0000024F40000127A0032000020FFFCFF0FFD
:1034D0005C014742E01147428F4A126882438E4B9B
:1034E0001A60704739B18C4A121D126802438A4B28
:1034F0001B1D1A6006E0884A121D12688243864B23
:103500001B1D1A60704739B1834A0C32126802439E
:10351000814B0C331A6006E07F4A0C3212688243FA
:103520007D4B0C331A60704739B17B4A10321268F8
:103530000243794B10331A6006E0774A1032126862
:103540008243754B10331A60704739B1724A243A7E
:1035500012680243704B243B1A6006E06E4A243A1C
:10356000126882436C4B243B1A60704739B16A4A37
:10357000203A12680243684B203B1A6006E0664A14
:10358000203A12688243644B203B1A60704739B17D
:10359000614A1C3A126802435F4B1C3B1A6006E00A
:1035A0005D4A1C3A126882435B4B1C3B1A607047B1
:1035B00039B1594A143A12680243574B143B1A6006
:1035C00006E0554A143A12688243534B143B1A6082
:1035D000704739B1504A103A126802434E4B103BC3
:1035E0001A6006E04C4A103A126882434A4B103B7C
:1035F0001A60704739B1484A1C3212680243464B80
:103600001C331A6006E0444A1C3212688243424B63
:103610001C331A60704739B13F4A203212680243A6
:103620003D4B20331A6006E03B4A20321268824349
:10363000394B20331A60704739B1374A2432126847
:103640000243354B24331A6006E0334A24321268B1
:103650008243314B24331A60704739B12E4A2C32E1
:10366000126802432C4B2C331A6006E02A4A2C3293
:1036700012688243284B2C331A60704739B1264AAE
:10368000303212680243244B30331A6006E0224A7B
:10369000303212688243204B30331A607047012861
:1036A00008D11D493C31096841F008011A4A3C32F1
:1036B000116007E018493C31096821F00801164AF9
:1036C0003C321160704739B1134A273A12780243ED
:1036D000114B273B1A7006E00F4A273A12788243B3
:1036E0000D4B273B1A7070470B484030006840F084
:1036F0008070094940310860704701460020064A41
:10370000283A12680A400AB1012000E00020704700
:1037100001492639087070473438024010B5044614
:10372000FA48844208D101211020FFF752FF0021FE
:103730001020FFF74EFF57E0F548844209D10121E0
:103740004804FFF735FF00214FF40030FFF730FF4A
:103750004AE0F048844209D101218804FFF728FF9C
:1037600000214FF48020FFF723FF3DE0EA48844228
:1037700009D10121C804FFF71BFF00214FF40020ED
:10378000FFF716FF30E0E548844209D10121080522
:10379000FFF70EFF00214FF48010FFF709FF23E031
:1037A000DF48844208D101212020FFF712FF0021C9
:1037B0002020FFF70EFF17E0DA48844209D10121EB
:1037C0008807FFF7F5FE00214FF08040FFF7F0FE7D
:1037D0000AE0D548844207D101214005FFF7E8FE01
:1037E00000216005FFF7E4FE10BD2DE9FF47054607
:1037F0000E460024A14600BFA046B08900B100BF1C
:103800002C8A24F44054F08804432C82AC8941F281
:103810000C608443B08831890843718908430443AC
:10382000AC81AC8A24F44074B0890443AC8268460D
:10383000FFF74FFDB548854202D0B948854202D115
:10384000DDF80C9001E0DDF80890A88900F4004054
:1038500040B109EBC90000EB091031684900B0FB29
:10386000F1F707E009EBC90000EB091031688900A6
:10387000B0FBF1F76420B7FBF0F0040120096421EC
:1038800001FB1078A88900F4004040B1322000EB21
:10389000C800B0FBF1F000F00700044308E032205C
:1038A00000EB08106421B0FBF1F000F00F000443BE
:1038B0002C81BDE8FF874FF4165101600021818003
:1038C000C18001810C21418100218181704710B5A7
:1038D00002460020108A20F470600B884C88234335
:1038E0008C882343CC8823431843108210BD0021C9
:1038F000018041808180C180704721B1828942F47A
:103900000052828104E082894DF6FF731A40828161
:103910007047028B02F47F420283028B0A430283C8
:10392000704721B1828942F40042828103E082899A
:10393000C2F30E028281704721B1828A42F4006292
:10394000828204E0828A4FF2FF731A4082827047BB
:10395000C1F308028280704701468888C0F30800DE
:103960007047028A4FF6F0731A400282028A0A43B5
:103970000282704721B1828942F00202828104E012
:1039800082894FF6FD731A408281704782894FF217
:10399000FF731A40828182890A4382817047028ABA
:1039A0004FF6DF731A400282028A0A43028270478E
:1039B00021B1028A42F48042028204E0028A4BF67C
:1039C000FF731A4002827047818941F001018181B1
:1039D000704721B1828A42F00802828204E0828A22
:1039E0004FF6F7731A4082827047028BD2B202837D
:1039F000028B42EA01220283704721B1828A42F09F
:103A00002002828204E0828A4FF6DF731A408282AB
:103A1000704721B1828A42F01002828204E0828AD9
:103A20004FF6EF731A4082827047828A4FF6FB731B
:103A30001A408282828A0A438282704721B1828A36
:103A400042F00202828204E0828A4FF6FD731A403D
:103A5000828270471AB1838A0B43838202E0838A91
:103A60008B4383827047F0B503460024002600256F
:103A7000002040F66A17B94200D100BF1846C1F3D2
:103A8000421401F01F06012707FA06F5012C01D1A7
:103A90000C3004E0022C01D1103000E014301AB1D7
:103AA00007682F43076002E00768AF430760F0BD77
:103AB00002460020B1F5007F00D100BF13880B4003
:103AC0000BB1012000E00020704701F40072B2F554
:103AD000007F00D100BFCA430280704770B5024624
:103AE000002400230025002040F66A16B14200D1D0
:103AF00000BFC1F3421501F01F03012606FA03F3CC
:103B0000012D13D19689334017E0000000100140C9
:103B10000044004000480040004C0040005000407D
:103B20000014014000780040007C0040022D02D1CA
:103B3000168A334001E0968A33400C12012606FAB9
:103B400004F41688344013B10CB1012000E00020C9
:103B500070BD10B50022002340F66A14A14200D1C6
:103B600000BF0A1201249440A3B2DC43048010BDBC
:103B700010B50446FE48844208D101210846FFF7EB
:103B800028FD00210120FFF724FD9DE0B4F1804FC6
:103B900008D101210846FFF70BFD00210120FFF7A6
:103BA00007FD91E0F348844208D101210220FFF78C
:103BB000FFFC00210220FFF7FBFC85E0EE48844279
:103BC00008D101210420FFF7F3FC00210420FFF7B6
:103BD000EFFC79E0E948844208D101210820FFF791
:103BE000E7FC00210820FFF7E3FC6DE0E448844295
:103BF00008D101211020FFF7DBFC00211020FFF786
:103C0000D7FC61E0DF48844208D101212020FFF782
:103C1000CFFC00212020FFF7CBFC55E0DA4884429E
:103C200008D101210220FFF7D4FC00210220FFF778
:103C3000D0FC49E0D548844209D101210804FFF7AE
:103C4000C8FC00214FF48030FFF7C3FC3CE0D048B3
:103C5000844209D101214804FFF7BBFC00214FF445
:103C60000030FFF7B6FC2FE0CA48844209D1012199
:103C70008804FFF7AEFC00214FF48020FFF7A9FC79
:103C800022E0C548844208D101214020FFF790FC82
:103C900000214020FFF78CFC16E0C048844208D188
:103CA00001218020FFF784FC00218020FFF780FCA9
:103CB0000AE0BB48844207D101218015FFF778FC58
:103CC0000021A015FFF774FC10BD00220288A84B4C
:103CD00098420ED0AC4B98420BD0B0F1804F08D038
:103CE000A44B984205D0A44B984202D0A34B9842D3
:103CF00004D14FF68F731A404B881A43A04B984259
:103D000007D0A04B984204D04FF6FF431A400B89CE
:103D10001A4302804B68C3620B880385944B984218
:103D200002D0994B984201D18B7A0386012383827A
:103D300070474FF0FF3141600021018001814180D7
:103D4000817270470185828270470A46002101888E
:103D50004FF68F73194011430180704741627047DD
:103D6000C16270470146486A70470146088D704736
:103D700021B1028842F00202028004E002884FF67C
:103D8000FD731A400280704721B1028842F004029C
:103D9000028004E002884FF6FB731A4002807047ED
:103DA00021B1028842F08002028004E002884FF6CE
:103DB0007F731A400280704702884FF6F7731A40EB
:103DC000028002880A430280704702884FF6FF4350
:103DD0001A40028002880A430280704721B102889B
:103DE00042F00102028004E002884FF6FE731A409E
:103DF0000280704770B5002400220023058C4FF626
:103E0000FE7635400584028C8388048B4FF68F75CF
:103E10002C40B51E2C400D882C43751E2A408D89E0
:103E20002A434D882A43524DA84202D0564DA842FB
:103E300013D14FF6F7752A40CD892A434FF6FB750B
:103E40002A408D882A434FF6FF652B404FF6FF55D9
:103E50002B400D8A2B434D8A2B43838004838D682E
:103E60004563028470BD70B5002400220023058CD8
:103E70004FF6EF7635400584028C8388048B48F634
:103E8000FF752C404FF6FF452C400D884FF6FF760E
:103E900006EA05252C434FF6DF752A408D8906EA90
:103EA00005152A434D8806EA05152A43304DA842D8
:103EB00002D0354DA8421DD14FF67F752A40CD89DD
:103EC0004FF6FF7606EA05152A434FF6BF752A40DE
:103ED0008D8806EA05152A434FF6FF352B404FF231
:103EE000FF752B400D8A06EA85052B434D8A06EAAD
:103EF00085052B43838004838D688563028470BDB0
:103F000070B5002400220023058C4FF6FF66354073
:103F10000584028C8388848B4FF68F752C404FF676
:103F2000FC752C400D882C434FF6FF552A408D8997
:103F30004FF6FF7606EA05252A434D8806EA052551
:103F40002A430B4DA84202D00F4DA84238D14FF260
:103F5000FF752A40CD894FF6FF7606EA05252A43EC
:103F60004FF6FF352A408D8806EA05252A4319E0D9
:103F7000000001400004004000080040000C004028
:103F800000100040001400400004014000400140C7
:103F9000004401400048014000180040001C00405F
:103FA000002000404EF6FF752B404DF6FF752B406C
:103FB0000D8A06EA05152B434D8A06EA05152B43A3
:103FC000838084838D68C563028470BD70B50022D0
:103FD00000230024058C4EF6FF7635400584038CC3
:103FE0008488828B48F6FF752A404FF6FF452A40A9
:103FF0000D884FF6FF7606EA05252A434DF6FF7534
:104000002B408D8906EA05352B434D8806EA053598
:104010002B43FE4DA84202D0FD4DA84208D14BF6DD
:10402000FF752C400D8A4FF6FF7606EA85152C4366
:10403000848082838D680564038470BD00210180C3
:104040004180818081608181C1810182418270478C
:1040500070B50346002000241846183001258D4015
:10406000ACB21D8CA5431D8409B108290AD100EB0F
:10407000610005684FF68F76354005600568154389
:1040800005600FE00D1FC5F34E052844056848F68E
:10409000FF763540056005684FF6FF7606EA022692
:1040A0003543056070BD4163704781637047C163EC
:1040B0007047016470470A460021018B4FF68F73E9
:1040C00019401143018370470A460021018B48F6CD
:1040D000FF7319404FF6FF7303EA0223194301836C
:1040E00070470A460021818B4FF68F7319401143A8
:1040F000818370470A460021818B48F6FF7319407F
:104100004FF6FF7303EA02231943818370470A467F
:104110000021018B4FF6F77319401143018370475B
:104120000A460021018B4FF2FF7319404FF6FF73CF
:1041300003EA02231943018370470A460021818B59
:104140004FF6F77319401143818370470A460021E7
:10415000818B4FF2FF7319404FF6FF7303EA02237E
:104160001943818370470A460021018B4FF6FB7388
:1041700019401143018370470A460021018B4FF615
:10418000FF3319404FF6FF7303EA022319430183FB
:1041900070470A460021818B4FF6FB73194011438B
:1041A000818370470A460021818B4FF6FF33194007
:1041B0004FF6FF7303EA02231943818370470A46CF
:1041C0000021018B4FF67F73194011430183704723
:1041D0000A460021018BC1F30E014FF6FF7303EA7B
:1041E00002231943018370470A460021818B4FF651
:1041F0007F7319401143818370470A460021818BE8
:10420000C1F30E014FF6FF7303EA022319438183C2
:1042100070470A460021018C4FF6FD731940114387
:10422000018470470A460021018C4FF6F77319404C
:104230001143018470470A460021018C4FF6DF7359
:1042400019404FF6FF7303EA0213194301847047C4
:104250000A460021018C4FF67F7319404FF6FF7319
:1042600003EA02131943018470470A460021018CB6
:104270004FF6FF5319404FF6FF7303EA0223194329
:10428000018470470A460021018C4FF2FF731940E8
:104290004FF6FF7303EA02231943018470470A466D
:1042A0000021018C4DF6FF7319404FF6FF7303EAAE
:1042B000023319430184704730B5002301248C4038
:1042C000A3B2048C9C430484048C02FA01F5ADB2C1
:1042D0002C43048430BD30B5002304248C40A3B2A9
:1042E000048C9C430484048C02FA01F5ADB22C4387
:1042F000048430BD828B4FF2FF331A408283828B5D
:104300004FF6FF7303EA01231A4382837047F0B527
:104310000C461546002100220026078C4EF6FF7C35
:1043200007EA0C070784818B028C4FF6FF7707EAB8
:10433000043640F6FF4739404FF6FF7707EA052776
:1043400039434FF6FF7707EA0337394345F6FF77DE
:104350003A4046F480573A4381830284F0BD828B11
:104360004FF6F3731A408283828B0A43828370472D
:10437000F0B50C461546002100220026078C4FF6AA
:10438000FF6C07EA0C070784818B028C4FF6FF77DE
:1043900007EA04264FF60C7739404FF6FF7707EA15
:1043A00003172F4339434FF2FF573A4046F48077C3
:1043B0003A4381830284F0BD028B4FF2FF331A40EF
:1043C0000283028B4FF6FF7303EA01231A43028331
:1043D0007047F0B50C461546002100220026078CD8
:1043E0004FF6EF7C07EA0C070784018B028C4FF62F
:1043F000FF7707EA041640F6FF4739404FF6FF778C
:1044000007EA033739434FF6FF7703E00000014026
:104410000004014007EA052739434FF65F773A4029
:1044200046F010073A4301830284F0BD028B4FF639
:10443000F3731A400283028B0A4302837047F0B57C
:104440000C46154600210022068C4FF6FE773E40B2
:104450000684018B028C4FF60C7631407E1C06EAF6
:1044600003162E4331434FF6F576324044F00106F1
:10447000324301830284F0BD70B505460C462088A6
:1044800050B92389A28861882846FFF7D8FFE188C0
:104490002846FFF7CBFF25E0208804280AD123898E
:1044A000A28861882846FFF794FFE1882846FFF735
:1044B00083FF17E0208808280AD12389A288618811
:1044C0002846FFF755FFE1882846FFF748FF09E037
:1044D0002389A28861882846FFF719FFE1882846CA
:1044E000FFF708FF70BD002101804180012181801C
:1044F0000021C180018170472DE9F04105460C463D
:1045000000260127608808B9022600E00026A0885E
:10451000012801D1022700E001272088A0B92389C2
:10452000A28861882846FFF78AFFE1882846FFF7BE
:104530007DFF23893A4631462846FFF74AFFE18846
:104540002846FFF739FF13E02389A28861882846AF
:10455000FFF73FFFE1882846FFF72EFF23893A4601
:1045600031462846FFF76BFFE1882846FFF75EFFDC
:10457000BDE8F0810146486B70470146886B704783
:104580000146C86B70470146086C70470A884B8823
:104590001A438B881A43CB881A430B891A434B89D9
:1045A0001A438B891A43A0F84420704700210180E8
:1045B00041808180C180018141818181704731B119
:1045C000B0F8442042F40042A0F8442005E0B0F8DE
:1045D0004420C2F30E02A0F84420704721B1828823
:1045E00042F00402828004E082884FF6FB731A4096
:1045F0008280704721B1828842F00102828004E00B
:1046000082884FF6FE731A40828070471AB1838900
:104610000B43838102E083898B43838170478182CE
:10462000704702460020138A0B400BB1012000E0C6
:1046300000207047CA430282704730B5024600200E
:1046400000230024158A05EA0103958905EA01047F
:1046500013B10CB1012000E0002030BDCA4302823A
:10466000704741EA0203A0F8483070471AB18389C5
:104670000B43838102E083898B438381704721B19F
:10468000828842F00802828004E082884FF6F77345
:104690001A408280704701894FF6F87211400181FB
:1046A00070470A46002101894FF68F731940114364
:1046B0000181704730B504460D4629462046FFF774
:1046C000F0FF208940F00700208130BD2DE9F04146
:1046D00004460D4616461F46602D06D13B46012274
:1046E00031462046FFF775FE05E03B460122314684
:1046F0002046FFF7A4FE29462046FFF7D2FF208977
:1047000040F007002081BDE8F08130B50C46002163
:104710000189C9B24FF6FF7505EA03251543254304
:104720002943018130BD2DE9F04105460E4617466B
:104730009846002443463A4631462846FFF7E5FFAF
:104740002C894FF6F870044044F007044FF68F7040
:10475000044044F070042C81BDE8F081F0B50446BB
:104760000D4616461F463B46324629462046FFF771
:10477000CCFF208940F480402081F0BD82884FF634
:104780008F731A40828082880A4382807047028930
:104790004FF6F8731A40028102890A43028170477A
:1047A00002894FF67F731A40028102890A4302810F
:1047B0007047F0B50C4615461E4600210022002326
:1047C0000189028B038C4FF6F877394021434FF66D
:1047D000FC473A4040F201173A434FF6DD773B4041
:1047E0004FF6FF7707EA06172F433B430181028309
:1047F0000384F0BD21B1828842F08002828004E00F
:1048000082884FF67F731A4082807047A0F850105C
:104810007047000010B50446FB48844208D10121CE
:104820008014FEF7D6FE0021A014FEF7D2FE3CE075
:10483000F648844208D101210014FEF7B9FE002198
:104840002014FEF7B5FE30E0F148844208D1012182
:10485000C013FEF7ADFE0021E013FEF7A9FE24E031
:10486000EC48844208D101214014FEF7B2FE002139
:104870006014FEF7AEFE18E0E748844209D101213A
:104880000805FEF7A6FE00214FF48010FEF7A1FEFA
:104890000BE0E248844208D101214805FEF799FE69
:1048A00000214FF40010FEF794FE10BD10B5002259
:1048B000028802F441520B884C8823438C8823439E
:1048C000CC8823430C8923434C8923438C8923437D
:1048D000CC8923431A430280838B4FF2FF74234019
:1048E00083830B8A038210BD2DE9F04F002502233C
:1048F00000244FF00109002200260027944690462C
:10490000B0F81CA04FF2400B0AEA0B0AA0F81CA05A
:104910004FF0020AA0F820A0858BD1F808A0BAF1C8
:10492000020F01D100BF82E0B1F804A0BAF1000F7C
:1049300002D14FF0010901E04FF00209DFF8E0A2D7
:10494000DAF800A00AF4000ABAF1000F09D0DFF883
:10495000D0A2DAF800A02AF4000ADFF8C4B2CBF83B
:1049600000A0DFF8BCA20AF17C0ADAF800A0CAF3C2
:10497000881CDFF8ACA20AF17C0ADAF800A0CAF3BE
:104980000278DFF89CA2AAF1040ADAF800A00AF083
:104990003F07DFF88CA2AAF1040ADAF800A00AF4B3
:1049A000800ABAF5800F08D1DFF878A2BAFBF7FACF
:1049B0000AFB0CFABAFBF8F607E0DFF86CA2BAFBC8
:1049C000F7FA0AFB0CFABAFBF8F6B1F806A0BAF54A
:1049D000007F0ED14FEA162A0AEB8A0A4FEA4A0AEA
:1049E000D1F808B0BAFBFBFA0AF1050A1FFA8AF2FD
:1049F0000FE04FEA491AB6FBFAFA0AEB8A0A4FEAC5
:104A00004A0AD1F808B0BAFBFBFA0AF1050A1FFA04
:104A10008AF24FF00A0AB2FBFAF202F00104A2EBAA
:104A2000040ACAF34F034FF6FF7A0AEA0424022B62
:104A300001DBFF2B01DD02230024B1F806A04AEAC6
:104A4000040A4AEA030AA0F820A0B1F804A0B1F8C9
:104A50000CB04AEA0B0AB1F802B04AEA0B0AB1F804
:104A600000B04AEA0B0A4AF4006A4AEA050585835F
:104A7000BDE8F08F0021018041808180C1800181EB
:104A800041818181C181072101827047002101801C
:104A900041808180C1800221816000218181704735
:104AA00021B1028842F04002028004E002884FF601
:104AB000BF731A400280704721B1828B42F480623A
:104AC000828304E0828B4FF6FF331A408283704763
:104AD00002884FF2FF731A40028002880A43028064
:104AE0007047B1F5804F04D1028842F480420280C1
:104AF00004E002884BF6FF731A40028070474FF6BD
:104B0000FF62914204D0028842F48072028004E085
:104B100002884FF6FF631A400280704721B18288F5
:104B200042F00402828004E082884FF6FB731A4050
:104B30008280704721B1828842F01002828004E0B6
:104B400082884FF6EF731A408280704730B500229A
:104B50000023848B4FF240052C408483022404847C
:104B6000828B0C88B4F5007F01D00C8814B94FF407
:104B7000807308E00C88B4F5407F03D00C88B4F54E
:104B8000807F00D100238C888D892C434D882C4355
:104B90001C4344F400642243828330BD014688896B
:104BA00070478181704721B1028842F4005202802F
:104BB00004E002884DF6FF731A40028070470188B6
:104BC00041F480510180704702460020012901D044
:104BD000108B00E0908A70470146088A70471AB12E
:104BE00083880B43838002E083888B4383807047F4
:104BF00030B5002400230C110125A540ABB2AAB1A9
:104C000085881D43858014E0003001400038004055
:104C1000003C00400034014000500140005401407D
:104C20000838024000127A000024F40085889D4371
:104C3000858030BD0246002013890B400BB1012056
:104C400000E000207047CA4302817047F0B5024679
:104C5000002000240023002501F00F070126BE409C
:104C6000B4B20B1101269E40B3B2968806EA030542
:104C70001689264016B10DB1012000E00020F0BDDC
:104C800010B5002201F00F040123A3409AB2D343D0
:104C9000038110BD10B58CB004461E230BAA03A9D6
:104CA000204600F0A9FE0090009810B101200CB041
:104CB00010BD9DF82C00044400200B900EE04048ED
:104CC0009DF82C2050F8221003A800F0FDFD00B93B
:104CD00008E09DF82C00401CC0B20B909DF82C0001
:104CE0000728ECD300BF9DF82C00072863D2DFE82B
:104CF00000F004053C5E6564630000BF31A001F074
:104D000079F831A001F076F83FA001F073F84EA0D9
:104D100001F070F85CA001F06DF86BA001F06AF88A
:104D200079A001F067F886A001F064F88BA001F08B
:104D300061F890A001F05EF894A001F05BF899A0F2
:104D400001F058F89EA001F055F8A4A001F052F827
:104D5000B0A001F04FF8BDA001F04CF8C8A001F0E0
:104D600049F8D4A001F046F89AE216A001F042F802
:104D7000E0A001F03FF800200B900EE0ED48006845
:104D80009DF82C2000EBC2004168EBA001F032F846
:104D90009DF82C00401CC0B20B90E648007D9DF8A9
:104DA0002C108842EADC07A001F024F878E205A084
:104DB00001F020F8C4E171E245E219E2ECE1000003
:104DC000440000200D0A00002D2D2D2D2D2D2D2D00
:104DD0002D2D2D2D2D2D2D2D2D2D2D2D2D2D2D2D03
:104DE00055534D4152542056332E312D2D2D2D2DFE
:104DF0002D2D2D2D2D2D2D2D2D2D2D2D2D2D2D2DE3
:104E00002D2D2D200D0A00002020202055534D412E
:104E10005254CAC7D3C9414C49454E54454BBFAA09
:104E2000B7A2B5C4D2BBB8F6C1E9C7C9B5C4B4AE60
:104E3000BFDAB5F7CAD4BBA5BDBBD7E9BCFE2CCD44
:104E4000A8B9FD200D0A0000CBFC2CC4E3BFC9D2D9
:104E5000D4CDA8B9FDB4AEBFDAD6FACAD6B5F7D369
:104E6000C3B3CCD0F2C0EFC3E6B5C4C8CEBACEBA95
:104E7000AFCAFD2CB2A2D6B4D0D02ED2F2B4CB2C75
:104E8000C4E3BFC90D0A0000D2D4CBE6D2E2B8FC1D
:104E9000B8C4BAAFCAFDB5C4CAE4C8EBB2CECAFD45
:104EA00028D6A7B3D6CAFDD7D62831302F3136BD84
:104EB000F8D6C629A1A2D7D6B7FBB4AEA1A2BAAF85
:104EC000CAFDC8EB0D0A0000BFDAB5D8D6B7B5C821
:104ED000D7F7CEAAB2CECAFD292CB5A5B8F6BAAF7F
:104EE000CAFDD7EEB6E0D6A7B3D63130B8F6CAE4DD
:104EF000C8EBB2CECAFD2CB2A2D6A7B3D6BAAFCAFF
:104F0000FDB7B5200D0A0000BBD8D6B5CFD4CABEB8
:104F10002ED0C2D4F6B2CECAFDCFD4CABEBDF8D60A
:104F2000C6C9E8D6C3B9A6C4DC2CD0C2D4F6BDF835
:104F3000D6C6D7AABBBBB9A6C4DC2E0D0A0000009A
:104F4000BCBCCAF5D6A7B3D63A7777772E6F706513
:104F50006E6564762E636F6D0D0A000055534D41EA
:104F60005254D3D037B8F6CFB5CDB3C3FCC1EE3A67
:104F70000D0A00003F3A202020202020BBF1C8A1CC
:104F8000B0EFD6FAD0C5CFA20D0A000068656C70EC
:104F90003A202020BBF1C8A1B0EFD6FAD0C5CFA2ED
:104FA0000D0A00006C6973743A202020BFC9D3C376
:104FB000B5C4BAAFCAFDC1D0B1ED0D0A0A000000F8
:104FC00069643A2020202020BFC9D3C3BAAFCAFDEC
:104FD000B5C44944C1D0B1ED0D0A0A006865783AFC
:104FE00020202020B2CECAFD3136BDF8D6C6CFD49F
:104FF000CABE2CBAF3B8FABFD5B8F12BCAFDD7D6C2
:10500000BCB4D6B4D0D0BDF8D6C6D7AABBBB0D0AA7
:105010000A0000006465633A20202020B2CECAFD59
:105020003130BDF8D6C6CFD4CABE2CBAF3B8FABF59
:10503000D5B8F12BCAFDD7D6BCB4D6B4D0D0BDF804
:10504000D6C6D7AABBBB0D0A0A00000072756E74E3
:10505000696D653A312CBFAAC6F4BAAFCAFDD4CB8C
:10506000D0D0BCC6CAB13B302CB9D8B1D5BAAFCAC2
:10507000FDD4CBD0D0BCC6CAB13B0D0A0A0000009B
:10508000C7EBB0B4D5D5B3CCD0F2B1E0D0B4B8F161
:10509000CABDCAE4C8EBBAAFCAFDC3FBBCB0B2CE4E
:1050A000CAFDB2A2D2D4BBD8B3B5BCFCBDE1CAF82C
:1050B0002E0D0A002D2D2D2D2D2D2D2D2D2D2D2D8F
:1050C0002D2D2D2D2D2D2D2D2D2D2D2D2D2D414CDD
:1050D00049454E54454B2D2D2D2D2D2D2D2D2D2D4E
:1050E0002D2D2D2D2D2D2D2D2D2D2D2D2D2D2D20FD
:1050F0000D0A00002D2D2D2D2D2D2D2D2D2D2D2D7D
:105100002D2D2D2D2D2D2D2D2D2D2D2D2DBAAFCA23
:10511000FDC7E5B5A52D2D2D2D2D2D2D2D2D2D2D9D
:105120002D2D2D2D2D2D2D2D2D2D2D2D2D2D2D2DAF
:10513000200D0A009000002025730D0A00000000D9
:10514000EEA000F057FE00200B901AE0FB49096822
:105150009DF82C2001EBC20101AB02AA486803A90B
:1051600000F070FCF54800689DF82C1050F83120D4
:1051700003A9F3A000F03EFE9DF82C00401CC0B235
:105180000B90EE48007D9DF82C108842DEDCAFF2DB
:10519000CC3000F02FFE83E0AFF2D83000F02AFED2
:1051A0000BAA03A9204600F029FD9DF82C00C8B9E0
:1051B000694603A800F0BBFB0B909DF82C0020B9BA
:1051C000E4A0009900F016FE0EE09DF82C000428E3
:1051D00001D002206BE5E2A000F00CFE0120D749CF
:1051E000C87501E0022062E5DCA000F003FE57E094
:1051F000DAA000F0FFFD0BAA03A9204600F0FEFC98
:105200009DF82C00C8B9694603A800F090FB0B90EC
:105210009DF82C0020B9D7A0009900F0EBFD0EE01E
:105220009DF82C00042801D0022040E5D4A000F015
:10523000E1FD0020C149C87501E0022037E5C7A0A3
:1052400000F0D8FD2CE0C5A000F0D4FD0BAA03A906
:10525000204600F0D3FC9DF82C00C8B9694603A88D
:1052600000F065FB0B909DF82C0078B9B3490098CD
:1052700081F8EC00084690F8EC0018B1C5A000F0E9
:10528000B9FD07E0CAA000F0B5FD03E002200EE57D
:1052900002200CE5B1A000F0ADFD01E0012006E523
:1052A00000BF002003E510B50121C848FFF7C2F98F
:1052B0004FF6FF71C548FEF753FD0021C348FEF7C6
:1052C0004DFD00209D49C1F8F00010BD10B5012131
:1052D000BE48FFF7A6F9012808D19848D0F8F00099
:1052E0004FF6FF7108449549C1F8F000B748FEF742
:1052F00039FD9249D1F8F01008449049C1F8F00006
:105300000846D0F8F00010BD10B50121AF48FFF7F6
:1053100094F901280AD18949086980470021AB48DE
:10532000FEF71CFD6421A948FEF71AFD0121A748DC
:10533000FFF794F910BD7FB504460D460121042006
:10534000FEF7E1F8ADF800500020ADF8020001943E
:10535000ADF8080069469D48FEF7B7FC01221146EA
:105360009A48FFF753F901219848FEF737FD1E20B0
:105370008DF80C0003208DF80D008DF80E00012033
:105380008DF80F0003A8FDF74CFA7FBD10B5044659
:1053900004EBC40000EB04100122C2EB800081B2D8
:1053A0004FF47A70FFF7C7FF01206449C87510BD3C
:1053B00030B595B0054613AB12AA09A9284600F0EE
:1053C00041FB044614B1204615B030BD00201490B6
:1053D00026E05A4909689DF8502001EBC20113AB41
:1053E00011AA486801A900F02DFB04460CB1204623
:1053F000EAE709A901A800F067FA60B99DF844003E
:105400009DF84810884201DD0220DDE79DF850003C
:105410004A4988750AE09DF85000401CC0B21490BB
:105420004648007D9DF850108842D2DC00BF4348BA
:10543000007D9DF85010884201D10420C4E714A9D2
:10544000284600F04CFC04460CB12046BCE79DF811
:1054500050003A4948750020B6E72DE9F0419AB06E
:105460003648847D007DA04202DC1AB0BDE8F081A0
:105470003249096801EBC40106AB07AA486808A9CC
:1054800000F0E0FA08A952A000F0B4FC0026B9E050
:105490002A48008B0121B1400840D8B122214EA0FA
:1054A00000F0A8FC304600F00DFC244924314718D8
:1054B00039464AA000F09EFC222147A000F09AFC49
:1054C000304600F0FFFB1D492431084410A941F883
:1054D00026008DE0304600F0F5FB184924310858CD
:1054E00010A941F826001548C07D30B910A850F821
:1054F00026103BA000F07EFC7AE073E02D2D2D2DD0
:105500002D2D2D2D2D2D2D2D2D2D2D2D2D2D2D2DCB
:105510002D2D2D2D2DBAAFCAFD204944202D2D2D26
:105520002D2D2D2D2D2D2D2D2D2D2D2D2D2D2D2DAB
:105530002D2D2D2D2D2D2D2D200D0A00900000201C
:1055400025732069642069733A0D0A305825303874
:10555000580D0A004845583A305825580D0A0000A1
:105560003136BDF8D6C6B2CECAFDCFD4CABE210DE3
:105570000A0000004445433A256C750D0A000000FE
:105580003130BDF8D6C6B2CECAFDCFD4CABE210DC9
:105590000A00000052756E2054696D652043616CED
:1055A00063756C6174696F6E204F4E0D0A000000C8
:1055B00052756E2054696D652043616C63756C6132
:1055C00074696F6E204F46460D0A000000080040C7
:1055D0000D0A2573280000002563000025730000D4
:1055E000256C750010A850F8261095A000F002FC5C
:1055F0009DF81C00401EB04202D093A000F0FAFBC0
:10560000701CC6B29DF81C008642FFF641AF8FA009
:1056100000F0F0FBFFF747FE8D48407D0B280DD2D0
:10562000DFE800F0060D151E27323F4E5F7287003F
:105630008749096851F834008047054690E0844A5C
:10564000126852F8341010988847054688E0804B5D
:105650001B6853F83420DDE91001904705467FE0D0
:105660007B4F3F6857F8343010A807C89847054665
:1056700076E0DFF8DCC1DCF800C05CF8347010A81C
:105680000FC8B84705466BE01498DFF8C4C1009016
:10569000DCF800C05CF8347010A80FC8B8470546A5
:1056A0005EE0DDE91401DFF8A8C1CDE90001DCF816
:1056B00000C05CF8347010A80FC8B84705464FE02A
:1056C000DDE914121698DFF888C1CDE900120290C6
:1056D000DCF800C05CF8347010A80FC8B847054665
:1056E0003EE0DDE91423DDE91610DFF864C1CDE901
:1056F0000023CDE90210DCF800C05CF8347010A87B
:105700000FC8B84705462BE0DDE91523DDE9171082
:10571000CDE90123CDE903101498DFF834C10090DE
:10572000DCF800C05CF8347010A80FC8B847054614
:1057300016E0DDE91623DDE91810CDE90223CDE9F5
:105740000410DDE91401DFF808C1CDE90001DCF83F
:1057500000C05CF8347010A80FC8B847054600BFF9
:1057600000BFFFF7B3FD9DF8180001280CD13848A1
:10577000C07D20B9294637A000F03CFB07E0294650
:1057800036A000F037FB02E033A000F033FB3048D6
:1057900090F8EC0088B12E48D0F8F0000A21B0FB58
:1057A000F1F201FB12072A48D0F8F000B0FBF1F843
:1057B0003A4641462CA000F01DFB00BF55E670B5EF
:1057C0003148008800F40040002833D02E48057886
:1057D00000202E4948551E4881682C4888470446B9
:1057E0001CB91B49C868804721E02848FFF752FAD6
:1057F0000546012D00D02C46CCB1012C06D0022C40
:1058000008D0032C0AD0042C10D10BE020A000F00B
:10581000F1FA0BE021A000F0EDFA07E022A000F081
:10582000E9FA03E023A000F0E5FA00BF00BF002082
:105830001549088070BD01460868704701607047CF
:1058400030582558000000002C00000029000000FE
:10585000900000203D256C753B0D0A003D30582519
:10586000583B0D0A0000000046756E6374696F6E48
:105870002052756E2054696D653A25642E25316479
:105880006D730D0A0000000030000020920100201E
:10589000BAAFCAFDB4EDCEF3210D0A00B2CECAFDF7
:1058A000B4EDCEF3210D0A00B2CECAFDCCABB6E00A
:1058B000210D0A00CEB4D5D2B5BDC6A5C5E4B5C488
:1058C000BAAFCAFD210D0A0002460AE010780B7833
:1058D000984201D001207047107800B902E0521CB4
:1058E000491CF3E700BF0020F5E706E002780A70E4
:1058F000027802B902E0401C491CF7E700BF70477C
:105900000146002005E00A7802B903E0421CD0B24B
:10591000491CF8E700BF704710B50246012000E0BF
:1059200050430B1EA1F10104E1B2F9D110BD2DE9E4
:10593000F04307460E4600254FF00A083C4600207B
:1059400030601FE02078392802DC207830280ADA1D
:105950002078462802DC2078412804DA207858286C
:1059600009D1012D07D12078412801DB4FF0100823
:10597000681CC5B205E0207800B904E00120BDE84C
:10598000F083641CDEE700BF3C46B8F1100F0FD176
:10599000032D01DA0220F2E72078302806D1607862
:1059A000582803D1A41CA81EC5B204E00320E6E7D2
:1059B0000DB90420E3E71BE00DB1681EC5B22078E5
:1059C000392806DC2078302803DB2078A0F1300964
:1059D00002E02078A0F1370929464046FFF79CFFF6
:1059E000316809FB00103060641C207800B900E0C9
:1059F000E2E700BF0020C2E710B5044600201070A7
:105A00000BE020780870641C491C1078401C107052
:105A10001078984201DB012010BD2078202802D0A8
:105A200020780028EDD10020087000BFF4E701467F
:105A3000491C00E0491C0878202801D10029F9D12F
:105A4000087870472DE9FF4F85B0804689460027CA
:105A5000002004900390012002904FF0000B0025DD
:105A600044461DE02078202816D005F07F00052848
:105A700012DA0DB945F0800505F07F00042803D146
:105A800020782A2800D00EE0207805F07F010DF85C
:105A90000100681CC5B202E0852D00D103E0641C42
:105AA00020780028DED100BF8DB1002005F07F01F5
:105AB0000DF80100CBA16846FFF706FF18B90021D9
:105AC0000898017002E001210898017000254FF04C
:105AD000000A444614E0641C0AF1010000F0FF0AC9
